{
	"contracts/funcocao retorno.sol": {
		"Retorno": {
			"abi": [
				{
					"inputs": [],
					"name": "contagem",
					"outputs": [
						{
							"internalType": "int256",
							"name": "",
							"type": "int256"
						}
					],
					"stateMutability": "view",
					"type": "function"
				},
				{
					"inputs": [],
					"name": "incrementEx",
					"outputs": [],
					"stateMutability": "nonpayable",
					"type": "function"
				},
				{
					"inputs": [],
					"name": "incremetal",
					"outputs": [],
					"stateMutability": "nonpayable",
					"type": "function"
				}
			],
			"devdoc": {
				"kind": "dev",
				"methods": {},
				"version": 1
			},
			"evm": {
				"assembly": "    /* \"contracts/funcocao retorno.sol\":58:426  contract Retorno{\r... */\n  mstore(0x40, 0x80)\n  callvalue\n  dup1\n  iszero\n  tag_1\n  jumpi\n  0x00\n  dup1\n  revert\ntag_1:\n  pop\n  dataSize(sub_0)\n  dup1\n  dataOffset(sub_0)\n  0x00\n  codecopy\n  0x00\n  return\nstop\n\nsub_0: assembly {\n        /* \"contracts/funcocao retorno.sol\":58:426  contract Retorno{\r... */\n      mstore(0x40, 0x80)\n      callvalue\n      dup1\n      iszero\n      tag_1\n      jumpi\n      0x00\n      dup1\n      revert\n    tag_1:\n      pop\n      jumpi(tag_2, lt(calldatasize, 0x04))\n      shr(0xe0, calldataload(0x00))\n      dup1\n      0x978b7d8a\n      eq\n      tag_3\n      jumpi\n      dup1\n      0xbbbf3c03\n      eq\n      tag_4\n      jumpi\n      dup1\n      0xf80f29db\n      eq\n      tag_5\n      jumpi\n    tag_2:\n      0x00\n      dup1\n      revert\n        /* \"contracts/funcocao retorno.sol\":81:100  int public contagem */\n    tag_3:\n      tag_6\n      tag_7\n      jump\t// in\n    tag_6:\n      mload(0x40)\n      tag_8\n      swap2\n      swap1\n      tag_9\n      jump\t// in\n    tag_8:\n      mload(0x40)\n      dup1\n      swap2\n      sub\n      swap1\n      return\n        /* \"contracts/funcocao retorno.sol\":185:253  function incrementEx()external{\r... */\n    tag_4:\n      tag_10\n      tag_11\n      jump\t// in\n    tag_10:\n      stop\n        /* \"contracts/funcocao retorno.sol\":108:180  function  incremetal()public{\r... */\n    tag_5:\n      tag_12\n      tag_13\n      jump\t// in\n    tag_12:\n      stop\n        /* \"contracts/funcocao retorno.sol\":81:100  int public contagem */\n    tag_7:\n      sload(0x00)\n      dup2\n      jump\t// out\n        /* \"contracts/funcocao retorno.sol\":185:253  function incrementEx()external{\r... */\n    tag_11:\n        /* \"contracts/funcocao retorno.sol\":225:245  decrementaltPrivat() */\n      tag_15\n        /* \"contracts/funcocao retorno.sol\":225:243  decrementaltPrivat */\n      tag_16\n        /* \"contracts/funcocao retorno.sol\":225:245  decrementaltPrivat() */\n      jump\t// in\n    tag_15:\n        /* \"contracts/funcocao retorno.sol\":185:253  function incrementEx()external{\r... */\n      jump\t// out\n        /* \"contracts/funcocao retorno.sol\":108:180  function  incremetal()public{\r... */\n    tag_13:\n        /* \"contracts/funcocao retorno.sol\":145:166  incrementalInternal() */\n      tag_18\n        /* \"contracts/funcocao retorno.sol\":145:164  incrementalInternal */\n      tag_19\n        /* \"contracts/funcocao retorno.sol\":145:166  incrementalInternal() */\n      jump\t// in\n    tag_18:\n        /* \"contracts/funcocao retorno.sol\":108:180  function  incremetal()public{\r... */\n      jump\t// out\n        /* \"contracts/funcocao retorno.sol\":259:335  function decrementaltPrivat()private{\r... */\n    tag_16:\n        /* \"contracts/funcocao retorno.sol\":326:327  1 */\n      0x01\n        /* \"contracts/funcocao retorno.sol\":316:324  contagem */\n      sload(0x00)\n        /* \"contracts/funcocao retorno.sol\":316:327  contagem +1 */\n      tag_21\n      swap2\n      swap1\n      tag_22\n      jump\t// in\n    tag_21:\n        /* \"contracts/funcocao retorno.sol\":305:313  contagem */\n      0x00\n        /* \"contracts/funcocao retorno.sol\":305:327  contagem = contagem +1 */\n      dup2\n      swap1\n      sstore\n      pop\n        /* \"contracts/funcocao retorno.sol\":259:335  function decrementaltPrivat()private{\r... */\n      jump\t// out\n        /* \"contracts/funcocao retorno.sol\":341:419  function incrementalInternal()internal{\r... */\n    tag_19:\n        /* \"contracts/funcocao retorno.sol\":410:411  1 */\n      0x01\n        /* \"contracts/funcocao retorno.sol\":400:408  contagem */\n      sload(0x00)\n        /* \"contracts/funcocao retorno.sol\":400:411  contagem +1 */\n      tag_24\n      swap2\n      swap1\n      tag_22\n      jump\t// in\n    tag_24:\n        /* \"contracts/funcocao retorno.sol\":389:397  contagem */\n      0x00\n        /* \"contracts/funcocao retorno.sol\":389:411  contagem = contagem +1 */\n      dup2\n      swap1\n      sstore\n      pop\n        /* \"contracts/funcocao retorno.sol\":341:419  function incrementalInternal()internal{\r... */\n      jump\t// out\n        /* \"#utility.yul\":7:122   */\n    tag_26:\n        /* \"#utility.yul\":92:115   */\n      tag_28\n        /* \"#utility.yul\":109:114   */\n      dup2\n        /* \"#utility.yul\":92:115   */\n      tag_29\n      jump\t// in\n    tag_28:\n        /* \"#utility.yul\":87:90   */\n      dup3\n        /* \"#utility.yul\":80:116   */\n      mstore\n        /* \"#utility.yul\":7:122   */\n      pop\n      pop\n      jump\t// out\n        /* \"#utility.yul\":128:346   */\n    tag_9:\n        /* \"#utility.yul\":219:223   */\n      0x00\n        /* \"#utility.yul\":257:259   */\n      0x20\n        /* \"#utility.yul\":246:255   */\n      dup3\n        /* \"#utility.yul\":242:260   */\n      add\n        /* \"#utility.yul\":234:260   */\n      swap1\n      pop\n        /* \"#utility.yul\":270:339   */\n      tag_31\n        /* \"#utility.yul\":336:337   */\n      0x00\n        /* \"#utility.yul\":325:334   */\n      dup4\n        /* \"#utility.yul\":321:338   */\n      add\n        /* \"#utility.yul\":312:318   */\n      dup5\n        /* \"#utility.yul\":270:339   */\n      tag_26\n      jump\t// in\n    tag_31:\n        /* \"#utility.yul\":128:346   */\n      swap3\n      swap2\n      pop\n      pop\n      jump\t// out\n        /* \"#utility.yul\":352:877   */\n    tag_22:\n        /* \"#utility.yul\":391:394   */\n      0x00\n        /* \"#utility.yul\":410:429   */\n      tag_33\n        /* \"#utility.yul\":427:428   */\n      dup3\n        /* \"#utility.yul\":410:429   */\n      tag_29\n      jump\t// in\n    tag_33:\n        /* \"#utility.yul\":405:429   */\n      swap2\n      pop\n        /* \"#utility.yul\":443:462   */\n      tag_34\n        /* \"#utility.yul\":460:461   */\n      dup4\n        /* \"#utility.yul\":443:462   */\n      tag_29\n      jump\t// in\n    tag_34:\n        /* \"#utility.yul\":438:462   */\n      swap3\n      pop\n        /* \"#utility.yul\":631:632   */\n      dup2\n        /* \"#utility.yul\":563:629   */\n      0x7fffffffffffffffffffffffffffffffffffffffffffffffffffffffffffffff\n        /* \"#utility.yul\":559:633   */\n      sub\n        /* \"#utility.yul\":556:557   */\n      dup4\n        /* \"#utility.yul\":552:634   */\n      sgt\n        /* \"#utility.yul\":547:548   */\n      0x00\n        /* \"#utility.yul\":544:545   */\n      dup4\n        /* \"#utility.yul\":540:549   */\n      slt\n        /* \"#utility.yul\":533:550   */\n      iszero\n        /* \"#utility.yul\":529:635   */\n      and\n        /* \"#utility.yul\":526:658   */\n      iszero\n      tag_35\n      jumpi\n        /* \"#utility.yul\":638:656   */\n      tag_36\n      tag_37\n      jump\t// in\n    tag_36:\n        /* \"#utility.yul\":526:658   */\n    tag_35:\n        /* \"#utility.yul\":818:819   */\n      dup2\n        /* \"#utility.yul\":750:816   */\n      0x8000000000000000000000000000000000000000000000000000000000000000\n        /* \"#utility.yul\":746:820   */\n      sub\n        /* \"#utility.yul\":743:744   */\n      dup4\n        /* \"#utility.yul\":739:821   */\n      slt\n        /* \"#utility.yul\":735:736   */\n      0x00\n        /* \"#utility.yul\":732:733   */\n      dup4\n        /* \"#utility.yul\":728:737   */\n      slt\n        /* \"#utility.yul\":724:822   */\n      and\n        /* \"#utility.yul\":721:845   */\n      iszero\n      tag_38\n      jumpi\n        /* \"#utility.yul\":825:843   */\n      tag_39\n      tag_37\n      jump\t// in\n    tag_39:\n        /* \"#utility.yul\":721:845   */\n    tag_38:\n        /* \"#utility.yul\":869:870   */\n      dup3\n        /* \"#utility.yul\":866:867   */\n      dup3\n        /* \"#utility.yul\":862:871   */\n      add\n        /* \"#utility.yul\":855:871   */\n      swap1\n      pop\n        /* \"#utility.yul\":352:877   */\n      swap3\n      swap2\n      pop\n      pop\n      jump\t// out\n        /* \"#utility.yul\":883:959   */\n    tag_29:\n        /* \"#utility.yul\":919:926   */\n      0x00\n        /* \"#utility.yul\":948:953   */\n      dup2\n        /* \"#utility.yul\":937:953   */\n      swap1\n      pop\n        /* \"#utility.yul\":883:959   */\n      swap2\n      swap1\n      pop\n      jump\t// out\n        /* \"#utility.yul\":965:1145   */\n    tag_37:\n        /* \"#utility.yul\":1013:1090   */\n      0x4e487b7100000000000000000000000000000000000000000000000000000000\n        /* \"#utility.yul\":1010:1011   */\n      0x00\n        /* \"#utility.yul\":1003:1091   */\n      mstore\n        /* \"#utility.yul\":1110:1114   */\n      0x11\n        /* \"#utility.yul\":1107:1108   */\n      0x04\n        /* \"#utility.yul\":1100:1115   */\n      mstore\n        /* \"#utility.yul\":1134:1138   */\n      0x24\n        /* \"#utility.yul\":1131:1132   */\n      0x00\n        /* \"#utility.yul\":1124:1139   */\n      revert\n\n    auxdata: 0xa264697066735822122070f2835f2d4d3436ab01c7cfa78c82b37f37d46a10b158af4ae532d0b361726564736f6c63430008070033\n}\n",
				"bytecode": {
					"linkReferences": {},
					"object": "608060405234801561001057600080fd5b506101ed806100206000396000f3fe608060405234801561001057600080fd5b50600436106100415760003560e01c8063978b7d8a14610046578063bbbf3c0314610064578063f80f29db1461006e575b600080fd5b61004e610078565b60405161005b91906100cf565b60405180910390f35b61006c61007e565b005b610076610088565b005b60005481565b610086610092565b565b6100906100a9565b565b60016000546100a191906100ea565b600081905550565b60016000546100b891906100ea565b600081905550565b6100c98161017e565b82525050565b60006020820190506100e460008301846100c0565b92915050565b60006100f58261017e565b91506101008361017e565b9250817f7fffffffffffffffffffffffffffffffffffffffffffffffffffffffffffffff0383136000831215161561013b5761013a610188565b5b817f800000000000000000000000000000000000000000000000000000000000000003831260008312161561017357610172610188565b5b828201905092915050565b6000819050919050565b7f4e487b7100000000000000000000000000000000000000000000000000000000600052601160045260246000fdfea264697066735822122070f2835f2d4d3436ab01c7cfa78c82b37f37d46a10b158af4ae532d0b361726564736f6c63430008070033",
					"opcodes": "PUSH1 0x80 PUSH1 0x40 MSTORE CALLVALUE DUP1 ISZERO PUSH2 0x10 JUMPI PUSH1 0x0 DUP1 REVERT JUMPDEST POP PUSH2 0x1ED DUP1 PUSH2 0x20 PUSH1 0x0 CODECOPY PUSH1 0x0 RETURN INVALID PUSH1 0x80 PUSH1 0x40 MSTORE CALLVALUE DUP1 ISZERO PUSH2 0x10 JUMPI PUSH1 0x0 DUP1 REVERT JUMPDEST POP PUSH1 0x4 CALLDATASIZE LT PUSH2 0x41 JUMPI PUSH1 0x0 CALLDATALOAD PUSH1 0xE0 SHR DUP1 PUSH4 0x978B7D8A EQ PUSH2 0x46 JUMPI DUP1 PUSH4 0xBBBF3C03 EQ PUSH2 0x64 JUMPI DUP1 PUSH4 0xF80F29DB EQ PUSH2 0x6E JUMPI JUMPDEST PUSH1 0x0 DUP1 REVERT JUMPDEST PUSH2 0x4E PUSH2 0x78 JUMP JUMPDEST PUSH1 0x40 MLOAD PUSH2 0x5B SWAP2 SWAP1 PUSH2 0xCF JUMP JUMPDEST PUSH1 0x40 MLOAD DUP1 SWAP2 SUB SWAP1 RETURN JUMPDEST PUSH2 0x6C PUSH2 0x7E JUMP JUMPDEST STOP JUMPDEST PUSH2 0x76 PUSH2 0x88 JUMP JUMPDEST STOP JUMPDEST PUSH1 0x0 SLOAD DUP2 JUMP JUMPDEST PUSH2 0x86 PUSH2 0x92 JUMP JUMPDEST JUMP JUMPDEST PUSH2 0x90 PUSH2 0xA9 JUMP JUMPDEST JUMP JUMPDEST PUSH1 0x1 PUSH1 0x0 SLOAD PUSH2 0xA1 SWAP2 SWAP1 PUSH2 0xEA JUMP JUMPDEST PUSH1 0x0 DUP2 SWAP1 SSTORE POP JUMP JUMPDEST PUSH1 0x1 PUSH1 0x0 SLOAD PUSH2 0xB8 SWAP2 SWAP1 PUSH2 0xEA JUMP JUMPDEST PUSH1 0x0 DUP2 SWAP1 SSTORE POP JUMP JUMPDEST PUSH2 0xC9 DUP2 PUSH2 0x17E JUMP JUMPDEST DUP3 MSTORE POP POP JUMP JUMPDEST PUSH1 0x0 PUSH1 0x20 DUP3 ADD SWAP1 POP PUSH2 0xE4 PUSH1 0x0 DUP4 ADD DUP5 PUSH2 0xC0 JUMP JUMPDEST SWAP3 SWAP2 POP POP JUMP JUMPDEST PUSH1 0x0 PUSH2 0xF5 DUP3 PUSH2 0x17E JUMP JUMPDEST SWAP2 POP PUSH2 0x100 DUP4 PUSH2 0x17E JUMP JUMPDEST SWAP3 POP DUP2 PUSH32 0x7FFFFFFFFFFFFFFFFFFFFFFFFFFFFFFFFFFFFFFFFFFFFFFFFFFFFFFFFFFFFFFF SUB DUP4 SGT PUSH1 0x0 DUP4 SLT ISZERO AND ISZERO PUSH2 0x13B JUMPI PUSH2 0x13A PUSH2 0x188 JUMP JUMPDEST JUMPDEST DUP2 PUSH32 0x8000000000000000000000000000000000000000000000000000000000000000 SUB DUP4 SLT PUSH1 0x0 DUP4 SLT AND ISZERO PUSH2 0x173 JUMPI PUSH2 0x172 PUSH2 0x188 JUMP JUMPDEST JUMPDEST DUP3 DUP3 ADD SWAP1 POP SWAP3 SWAP2 POP POP JUMP JUMPDEST PUSH1 0x0 DUP2 SWAP1 POP SWAP2 SWAP1 POP JUMP JUMPDEST PUSH32 0x4E487B7100000000000000000000000000000000000000000000000000000000 PUSH1 0x0 MSTORE PUSH1 0x11 PUSH1 0x4 MSTORE PUSH1 0x24 PUSH1 0x0 REVERT INVALID LOG2 PUSH5 0x6970667358 0x22 SLT KECCAK256 PUSH17 0xF2835F2D4D3436AB01C7CFA78C82B37F37 0xD4 PUSH11 0x10B158AF4AE532D0B36172 PUSH6 0x64736F6C6343 STOP ADDMOD SMOD STOP CALLER "
				},
				"gasEstimates": {
					"creation": {
						"codeDepositCost": "98600",
						"executionCost": "147",
						"totalCost": "98747"
					},
					"external": {
						"contagem()": "2407",
						"incrementEx()": "infinite",
						"incremetal()": "infinite"
					},
					"internal": {
						"decrementaltPrivat()": "infinite",
						"incrementalInternal()": "infinite"
					}
				},
				"methodIdentifiers": {
					"contagem()": "978b7d8a",
					"incrementEx()": "bbbf3c03",
					"incremetal()": "f80f29db"
				}
			},
			"storageLayout": {
				"storage": [
					{
						"astId": 3,
						"contract": "contracts/funcocao retorno.sol:Retorno",
						"label": "contagem",
						"offset": 0,
						"slot": "0",
						"type": "t_int256"
					}
				],
				"types": {
					"t_int256": {
						"encoding": "inplace",
						"label": "int256",
						"numberOfBytes": "32"
					}
				}
			},
			"userdoc": {
				"kind": "user",
				"methods": {},
				"version": 1
			}
		}
	}
}