{
	"contracts/test variable.sol": {
		"funcoes": {
			"abi": [
				{
					"inputs": [
						{
							"internalType": "string",
							"name": "_nome",
							"type": "string"
						}
					],
					"name": "qualNome",
					"outputs": [],
					"stateMutability": "view",
					"type": "function"
				},
				{
					"inputs": [
						{
							"internalType": "uint256",
							"name": "_a",
							"type": "uint256"
						},
						{
							"internalType": "uint256",
							"name": "_b",
							"type": "uint256"
						}
					],
					"name": "somar",
					"outputs": [
						{
							"internalType": "uint256",
							"name": "",
							"type": "uint256"
						}
					],
					"stateMutability": "pure",
					"type": "function"
				}
			],
			"devdoc": {
				"kind": "dev",
				"methods": {},
				"version": 1
			},
			"evm": {
				"assembly": "    /* \"contracts/test variable.sol\":60:253  contract funcoes{\r... */\n  mstore(0x40, 0x80)\n  callvalue\n  dup1\n  iszero\n  tag_1\n  jumpi\n  0x00\n  dup1\n  revert\ntag_1:\n  pop\n  dataSize(sub_0)\n  dup1\n  dataOffset(sub_0)\n  0x00\n  codecopy\n  0x00\n  return\nstop\n\nsub_0: assembly {\n        /* \"contracts/test variable.sol\":60:253  contract funcoes{\r... */\n      mstore(0x40, 0x80)\n      callvalue\n      dup1\n      iszero\n      tag_1\n      jumpi\n      0x00\n      dup1\n      revert\n    tag_1:\n      pop\n      jumpi(tag_2, lt(calldatasize, 0x04))\n      shr(0xe0, calldataload(0x00))\n      dup1\n      0xa112c5da\n      eq\n      tag_3\n      jumpi\n      dup1\n      0xed72f137\n      eq\n      tag_4\n      jumpi\n    tag_2:\n      0x00\n      dup1\n      revert\n        /* \"contracts/test variable.sol\":83:173  function somar(uint _a, uint _b) external pure returns(uint){\r... */\n    tag_3:\n      tag_5\n      0x04\n      dup1\n      calldatasize\n      sub\n      dup2\n      add\n      swap1\n      tag_6\n      swap2\n      swap1\n      tag_7\n      jump\t// in\n    tag_6:\n      tag_8\n      jump\t// in\n    tag_5:\n      mload(0x40)\n      tag_9\n      swap2\n      swap1\n      tag_10\n      jump\t// in\n    tag_9:\n      mload(0x40)\n      dup1\n      swap2\n      sub\n      swap1\n      return\n        /* \"contracts/test variable.sol\":197:250  function qualNome(string memory _nome)external view{} */\n    tag_4:\n      tag_11\n      0x04\n      dup1\n      calldatasize\n      sub\n      dup2\n      add\n      swap1\n      tag_12\n      swap2\n      swap1\n      tag_13\n      jump\t// in\n    tag_12:\n      tag_14\n      jump\t// in\n    tag_11:\n      stop\n        /* \"contracts/test variable.sol\":83:173  function somar(uint _a, uint _b) external pure returns(uint){\r... */\n    tag_8:\n        /* \"contracts/test variable.sol\":138:142  uint */\n      0x00\n        /* \"contracts/test variable.sol\":163:165  _b */\n      dup2\n        /* \"contracts/test variable.sol\":159:161  _a */\n      dup4\n        /* \"contracts/test variable.sol\":159:165  _a +_b */\n      tag_16\n      swap2\n      swap1\n      tag_17\n      jump\t// in\n    tag_16:\n        /* \"contracts/test variable.sol\":152:165  return _a +_b */\n      swap1\n      pop\n        /* \"contracts/test variable.sol\":83:173  function somar(uint _a, uint _b) external pure returns(uint){\r... */\n      swap3\n      swap2\n      pop\n      pop\n      jump\t// out\n        /* \"contracts/test variable.sol\":197:250  function qualNome(string memory _nome)external view{} */\n    tag_14:\n      pop\n      jump\t// out\n        /* \"#utility.yul\":7:419   */\n    tag_20:\n        /* \"#utility.yul\":85:90   */\n      0x00\n        /* \"#utility.yul\":110:176   */\n      tag_22\n        /* \"#utility.yul\":126:175   */\n      tag_23\n        /* \"#utility.yul\":168:174   */\n      dup5\n        /* \"#utility.yul\":126:175   */\n      tag_24\n      jump\t// in\n    tag_23:\n        /* \"#utility.yul\":110:176   */\n      tag_25\n      jump\t// in\n    tag_22:\n        /* \"#utility.yul\":101:176   */\n      swap1\n      pop\n        /* \"#utility.yul\":199:205   */\n      dup3\n        /* \"#utility.yul\":192:197   */\n      dup2\n        /* \"#utility.yul\":185:206   */\n      mstore\n        /* \"#utility.yul\":237:241   */\n      0x20\n        /* \"#utility.yul\":230:235   */\n      dup2\n        /* \"#utility.yul\":226:242   */\n      add\n        /* \"#utility.yul\":275:278   */\n      dup5\n        /* \"#utility.yul\":266:272   */\n      dup5\n        /* \"#utility.yul\":261:264   */\n      dup5\n        /* \"#utility.yul\":257:273   */\n      add\n        /* \"#utility.yul\":254:279   */\n      gt\n        /* \"#utility.yul\":251:363   */\n      iszero\n      tag_26\n      jumpi\n        /* \"#utility.yul\":282:361   */\n      tag_27\n      tag_28\n      jump\t// in\n    tag_27:\n        /* \"#utility.yul\":251:363   */\n    tag_26:\n        /* \"#utility.yul\":372:413   */\n      tag_29\n        /* \"#utility.yul\":406:412   */\n      dup5\n        /* \"#utility.yul\":401:404   */\n      dup3\n        /* \"#utility.yul\":396:399   */\n      dup6\n        /* \"#utility.yul\":372:413   */\n      tag_30\n      jump\t// in\n    tag_29:\n        /* \"#utility.yul\":91:419   */\n      pop\n        /* \"#utility.yul\":7:419   */\n      swap4\n      swap3\n      pop\n      pop\n      pop\n      jump\t// out\n        /* \"#utility.yul\":439:779   */\n    tag_31:\n        /* \"#utility.yul\":495:500   */\n      0x00\n        /* \"#utility.yul\":544:547   */\n      dup3\n        /* \"#utility.yul\":537:541   */\n      0x1f\n        /* \"#utility.yul\":529:535   */\n      dup4\n        /* \"#utility.yul\":525:542   */\n      add\n        /* \"#utility.yul\":521:548   */\n      slt\n        /* \"#utility.yul\":511:633   */\n      tag_33\n      jumpi\n        /* \"#utility.yul\":552:631   */\n      tag_34\n      tag_35\n      jump\t// in\n    tag_34:\n        /* \"#utility.yul\":511:633   */\n    tag_33:\n        /* \"#utility.yul\":669:675   */\n      dup2\n        /* \"#utility.yul\":656:676   */\n      calldataload\n        /* \"#utility.yul\":694:773   */\n      tag_36\n        /* \"#utility.yul\":769:772   */\n      dup5\n        /* \"#utility.yul\":761:767   */\n      dup3\n        /* \"#utility.yul\":754:758   */\n      0x20\n        /* \"#utility.yul\":746:752   */\n      dup7\n        /* \"#utility.yul\":742:759   */\n      add\n        /* \"#utility.yul\":694:773   */\n      tag_20\n      jump\t// in\n    tag_36:\n        /* \"#utility.yul\":685:773   */\n      swap2\n      pop\n        /* \"#utility.yul\":501:779   */\n      pop\n        /* \"#utility.yul\":439:779   */\n      swap3\n      swap2\n      pop\n      pop\n      jump\t// out\n        /* \"#utility.yul\":785:924   */\n    tag_37:\n        /* \"#utility.yul\":831:836   */\n      0x00\n        /* \"#utility.yul\":869:875   */\n      dup2\n        /* \"#utility.yul\":856:876   */\n      calldataload\n        /* \"#utility.yul\":847:876   */\n      swap1\n      pop\n        /* \"#utility.yul\":885:918   */\n      tag_39\n        /* \"#utility.yul\":912:917   */\n      dup2\n        /* \"#utility.yul\":885:918   */\n      tag_40\n      jump\t// in\n    tag_39:\n        /* \"#utility.yul\":785:924   */\n      swap3\n      swap2\n      pop\n      pop\n      jump\t// out\n        /* \"#utility.yul\":930:1439   */\n    tag_13:\n        /* \"#utility.yul\":999:1005   */\n      0x00\n        /* \"#utility.yul\":1048:1050   */\n      0x20\n        /* \"#utility.yul\":1036:1045   */\n      dup3\n        /* \"#utility.yul\":1027:1034   */\n      dup5\n        /* \"#utility.yul\":1023:1046   */\n      sub\n        /* \"#utility.yul\":1019:1051   */\n      slt\n        /* \"#utility.yul\":1016:1135   */\n      iszero\n      tag_42\n      jumpi\n        /* \"#utility.yul\":1054:1133   */\n      tag_43\n      tag_44\n      jump\t// in\n    tag_43:\n        /* \"#utility.yul\":1016:1135   */\n    tag_42:\n        /* \"#utility.yul\":1202:1203   */\n      0x00\n        /* \"#utility.yul\":1191:1200   */\n      dup3\n        /* \"#utility.yul\":1187:1204   */\n      add\n        /* \"#utility.yul\":1174:1205   */\n      calldataload\n        /* \"#utility.yul\":1232:1250   */\n      0xffffffffffffffff\n        /* \"#utility.yul\":1224:1230   */\n      dup2\n        /* \"#utility.yul\":1221:1251   */\n      gt\n        /* \"#utility.yul\":1218:1335   */\n      iszero\n      tag_45\n      jumpi\n        /* \"#utility.yul\":1254:1333   */\n      tag_46\n      tag_47\n      jump\t// in\n    tag_46:\n        /* \"#utility.yul\":1218:1335   */\n    tag_45:\n        /* \"#utility.yul\":1359:1422   */\n      tag_48\n        /* \"#utility.yul\":1414:1421   */\n      dup5\n        /* \"#utility.yul\":1405:1411   */\n      dup3\n        /* \"#utility.yul\":1394:1403   */\n      dup6\n        /* \"#utility.yul\":1390:1412   */\n      add\n        /* \"#utility.yul\":1359:1422   */\n      tag_31\n      jump\t// in\n    tag_48:\n        /* \"#utility.yul\":1349:1422   */\n      swap2\n      pop\n        /* \"#utility.yul\":1145:1432   */\n      pop\n        /* \"#utility.yul\":930:1439   */\n      swap3\n      swap2\n      pop\n      pop\n      jump\t// out\n        /* \"#utility.yul\":1445:1919   */\n    tag_7:\n        /* \"#utility.yul\":1513:1519   */\n      0x00\n        /* \"#utility.yul\":1521:1527   */\n      dup1\n        /* \"#utility.yul\":1570:1572   */\n      0x40\n        /* \"#utility.yul\":1558:1567   */\n      dup4\n        /* \"#utility.yul\":1549:1556   */\n      dup6\n        /* \"#utility.yul\":1545:1568   */\n      sub\n        /* \"#utility.yul\":1541:1573   */\n      slt\n        /* \"#utility.yul\":1538:1657   */\n      iszero\n      tag_50\n      jumpi\n        /* \"#utility.yul\":1576:1655   */\n      tag_51\n      tag_44\n      jump\t// in\n    tag_51:\n        /* \"#utility.yul\":1538:1657   */\n    tag_50:\n        /* \"#utility.yul\":1696:1697   */\n      0x00\n        /* \"#utility.yul\":1721:1774   */\n      tag_52\n        /* \"#utility.yul\":1766:1773   */\n      dup6\n        /* \"#utility.yul\":1757:1763   */\n      dup3\n        /* \"#utility.yul\":1746:1755   */\n      dup7\n        /* \"#utility.yul\":1742:1764   */\n      add\n        /* \"#utility.yul\":1721:1774   */\n      tag_37\n      jump\t// in\n    tag_52:\n        /* \"#utility.yul\":1711:1774   */\n      swap3\n      pop\n        /* \"#utility.yul\":1667:1784   */\n      pop\n        /* \"#utility.yul\":1823:1825   */\n      0x20\n        /* \"#utility.yul\":1849:1902   */\n      tag_53\n        /* \"#utility.yul\":1894:1901   */\n      dup6\n        /* \"#utility.yul\":1885:1891   */\n      dup3\n        /* \"#utility.yul\":1874:1883   */\n      dup7\n        /* \"#utility.yul\":1870:1892   */\n      add\n        /* \"#utility.yul\":1849:1902   */\n      tag_37\n      jump\t// in\n    tag_53:\n        /* \"#utility.yul\":1839:1902   */\n      swap2\n      pop\n        /* \"#utility.yul\":1794:1912   */\n      pop\n        /* \"#utility.yul\":1445:1919   */\n      swap3\n      pop\n      swap3\n      swap1\n      pop\n      jump\t// out\n        /* \"#utility.yul\":1925:2043   */\n    tag_54:\n        /* \"#utility.yul\":2012:2036   */\n      tag_56\n        /* \"#utility.yul\":2030:2035   */\n      dup2\n        /* \"#utility.yul\":2012:2036   */\n      tag_57\n      jump\t// in\n    tag_56:\n        /* \"#utility.yul\":2007:2010   */\n      dup3\n        /* \"#utility.yul\":2000:2037   */\n      mstore\n        /* \"#utility.yul\":1925:2043   */\n      pop\n      pop\n      jump\t// out\n        /* \"#utility.yul\":2049:2271   */\n    tag_10:\n        /* \"#utility.yul\":2142:2146   */\n      0x00\n        /* \"#utility.yul\":2180:2182   */\n      0x20\n        /* \"#utility.yul\":2169:2178   */\n      dup3\n        /* \"#utility.yul\":2165:2183   */\n      add\n        /* \"#utility.yul\":2157:2183   */\n      swap1\n      pop\n        /* \"#utility.yul\":2193:2264   */\n      tag_59\n        /* \"#utility.yul\":2261:2262   */\n      0x00\n        /* \"#utility.yul\":2250:2259   */\n      dup4\n        /* \"#utility.yul\":2246:2263   */\n      add\n        /* \"#utility.yul\":2237:2243   */\n      dup5\n        /* \"#utility.yul\":2193:2264   */\n      tag_54\n      jump\t// in\n    tag_59:\n        /* \"#utility.yul\":2049:2271   */\n      swap3\n      swap2\n      pop\n      pop\n      jump\t// out\n        /* \"#utility.yul\":2277:2406   */\n    tag_25:\n        /* \"#utility.yul\":2311:2317   */\n      0x00\n        /* \"#utility.yul\":2338:2358   */\n      tag_61\n      tag_62\n      jump\t// in\n    tag_61:\n        /* \"#utility.yul\":2328:2358   */\n      swap1\n      pop\n        /* \"#utility.yul\":2367:2400   */\n      tag_63\n        /* \"#utility.yul\":2395:2399   */\n      dup3\n        /* \"#utility.yul\":2387:2393   */\n      dup3\n        /* \"#utility.yul\":2367:2400   */\n      tag_64\n      jump\t// in\n    tag_63:\n        /* \"#utility.yul\":2277:2406   */\n      swap2\n      swap1\n      pop\n      jump\t// out\n        /* \"#utility.yul\":2412:2487   */\n    tag_62:\n        /* \"#utility.yul\":2445:2451   */\n      0x00\n        /* \"#utility.yul\":2478:2480   */\n      0x40\n        /* \"#utility.yul\":2472:2481   */\n      mload\n        /* \"#utility.yul\":2462:2481   */\n      swap1\n      pop\n        /* \"#utility.yul\":2412:2487   */\n      swap1\n      jump\t// out\n        /* \"#utility.yul\":2493:2801   */\n    tag_24:\n        /* \"#utility.yul\":2555:2559   */\n      0x00\n        /* \"#utility.yul\":2645:2663   */\n      0xffffffffffffffff\n        /* \"#utility.yul\":2637:2643   */\n      dup3\n        /* \"#utility.yul\":2634:2664   */\n      gt\n        /* \"#utility.yul\":2631:2687   */\n      iszero\n      tag_67\n      jumpi\n        /* \"#utility.yul\":2667:2685   */\n      tag_68\n      tag_69\n      jump\t// in\n    tag_68:\n        /* \"#utility.yul\":2631:2687   */\n    tag_67:\n        /* \"#utility.yul\":2705:2734   */\n      tag_70\n        /* \"#utility.yul\":2727:2733   */\n      dup3\n        /* \"#utility.yul\":2705:2734   */\n      tag_71\n      jump\t// in\n    tag_70:\n        /* \"#utility.yul\":2697:2734   */\n      swap1\n      pop\n        /* \"#utility.yul\":2789:2793   */\n      0x20\n        /* \"#utility.yul\":2783:2787   */\n      dup2\n        /* \"#utility.yul\":2779:2794   */\n      add\n        /* \"#utility.yul\":2771:2794   */\n      swap1\n      pop\n        /* \"#utility.yul\":2493:2801   */\n      swap2\n      swap1\n      pop\n      jump\t// out\n        /* \"#utility.yul\":2807:3112   */\n    tag_17:\n        /* \"#utility.yul\":2847:2850   */\n      0x00\n        /* \"#utility.yul\":2866:2886   */\n      tag_73\n        /* \"#utility.yul\":2884:2885   */\n      dup3\n        /* \"#utility.yul\":2866:2886   */\n      tag_57\n      jump\t// in\n    tag_73:\n        /* \"#utility.yul\":2861:2886   */\n      swap2\n      pop\n        /* \"#utility.yul\":2900:2920   */\n      tag_74\n        /* \"#utility.yul\":2918:2919   */\n      dup4\n        /* \"#utility.yul\":2900:2920   */\n      tag_57\n      jump\t// in\n    tag_74:\n        /* \"#utility.yul\":2895:2920   */\n      swap3\n      pop\n        /* \"#utility.yul\":3054:3055   */\n      dup3\n        /* \"#utility.yul\":2986:3052   */\n      0xffffffffffffffffffffffffffffffffffffffffffffffffffffffffffffffff\n        /* \"#utility.yul\":2982:3056   */\n      sub\n        /* \"#utility.yul\":2979:2980   */\n      dup3\n        /* \"#utility.yul\":2976:3057   */\n      gt\n        /* \"#utility.yul\":2973:3080   */\n      iszero\n      tag_75\n      jumpi\n        /* \"#utility.yul\":3060:3078   */\n      tag_76\n      tag_77\n      jump\t// in\n    tag_76:\n        /* \"#utility.yul\":2973:3080   */\n    tag_75:\n        /* \"#utility.yul\":3104:3105   */\n      dup3\n        /* \"#utility.yul\":3101:3102   */\n      dup3\n        /* \"#utility.yul\":3097:3106   */\n      add\n        /* \"#utility.yul\":3090:3106   */\n      swap1\n      pop\n        /* \"#utility.yul\":2807:3112   */\n      swap3\n      swap2\n      pop\n      pop\n      jump\t// out\n        /* \"#utility.yul\":3118:3195   */\n    tag_57:\n        /* \"#utility.yul\":3155:3162   */\n      0x00\n        /* \"#utility.yul\":3184:3189   */\n      dup2\n        /* \"#utility.yul\":3173:3189   */\n      swap1\n      pop\n        /* \"#utility.yul\":3118:3195   */\n      swap2\n      swap1\n      pop\n      jump\t// out\n        /* \"#utility.yul\":3201:3355   */\n    tag_30:\n        /* \"#utility.yul\":3285:3291   */\n      dup3\n        /* \"#utility.yul\":3280:3283   */\n      dup2\n        /* \"#utility.yul\":3275:3278   */\n      dup4\n        /* \"#utility.yul\":3262:3292   */\n      calldatacopy\n        /* \"#utility.yul\":3347:3348   */\n      0x00\n        /* \"#utility.yul\":3338:3344   */\n      dup4\n        /* \"#utility.yul\":3333:3336   */\n      dup4\n        /* \"#utility.yul\":3329:3345   */\n      add\n        /* \"#utility.yul\":3322:3349   */\n      mstore\n        /* \"#utility.yul\":3201:3355   */\n      pop\n      pop\n      pop\n      jump\t// out\n        /* \"#utility.yul\":3361:3642   */\n    tag_64:\n        /* \"#utility.yul\":3444:3471   */\n      tag_81\n        /* \"#utility.yul\":3466:3470   */\n      dup3\n        /* \"#utility.yul\":3444:3471   */\n      tag_71\n      jump\t// in\n    tag_81:\n        /* \"#utility.yul\":3436:3442   */\n      dup2\n        /* \"#utility.yul\":3432:3472   */\n      add\n        /* \"#utility.yul\":3574:3580   */\n      dup2\n        /* \"#utility.yul\":3562:3572   */\n      dup2\n        /* \"#utility.yul\":3559:3581   */\n      lt\n        /* \"#utility.yul\":3538:3556   */\n      0xffffffffffffffff\n        /* \"#utility.yul\":3526:3536   */\n      dup3\n        /* \"#utility.yul\":3523:3557   */\n      gt\n        /* \"#utility.yul\":3520:3582   */\n      or\n        /* \"#utility.yul\":3517:3605   */\n      iszero\n      tag_82\n      jumpi\n        /* \"#utility.yul\":3585:3603   */\n      tag_83\n      tag_69\n      jump\t// in\n    tag_83:\n        /* \"#utility.yul\":3517:3605   */\n    tag_82:\n        /* \"#utility.yul\":3625:3635   */\n      dup1\n        /* \"#utility.yul\":3621:3623   */\n      0x40\n        /* \"#utility.yul\":3614:3636   */\n      mstore\n        /* \"#utility.yul\":3404:3642   */\n      pop\n        /* \"#utility.yul\":3361:3642   */\n      pop\n      pop\n      jump\t// out\n        /* \"#utility.yul\":3648:3828   */\n    tag_77:\n        /* \"#utility.yul\":3696:3773   */\n      0x4e487b7100000000000000000000000000000000000000000000000000000000\n        /* \"#utility.yul\":3693:3694   */\n      0x00\n        /* \"#utility.yul\":3686:3774   */\n      mstore\n        /* \"#utility.yul\":3793:3797   */\n      0x11\n        /* \"#utility.yul\":3790:3791   */\n      0x04\n        /* \"#utility.yul\":3783:3798   */\n      mstore\n        /* \"#utility.yul\":3817:3821   */\n      0x24\n        /* \"#utility.yul\":3814:3815   */\n      0x00\n        /* \"#utility.yul\":3807:3822   */\n      revert\n        /* \"#utility.yul\":3834:4014   */\n    tag_69:\n        /* \"#utility.yul\":3882:3959   */\n      0x4e487b7100000000000000000000000000000000000000000000000000000000\n        /* \"#utility.yul\":3879:3880   */\n      0x00\n        /* \"#utility.yul\":3872:3960   */\n      mstore\n        /* \"#utility.yul\":3979:3983   */\n      0x41\n        /* \"#utility.yul\":3976:3977   */\n      0x04\n        /* \"#utility.yul\":3969:3984   */\n      mstore\n        /* \"#utility.yul\":4003:4007   */\n      0x24\n        /* \"#utility.yul\":4000:4001   */\n      0x00\n        /* \"#utility.yul\":3993:4008   */\n      revert\n        /* \"#utility.yul\":4020:4137   */\n    tag_35:\n        /* \"#utility.yul\":4129:4130   */\n      0x00\n        /* \"#utility.yul\":4126:4127   */\n      dup1\n        /* \"#utility.yul\":4119:4131   */\n      revert\n        /* \"#utility.yul\":4143:4260   */\n    tag_28:\n        /* \"#utility.yul\":4252:4253   */\n      0x00\n        /* \"#utility.yul\":4249:4250   */\n      dup1\n        /* \"#utility.yul\":4242:4254   */\n      revert\n        /* \"#utility.yul\":4266:4383   */\n    tag_47:\n        /* \"#utility.yul\":4375:4376   */\n      0x00\n        /* \"#utility.yul\":4372:4373   */\n      dup1\n        /* \"#utility.yul\":4365:4377   */\n      revert\n        /* \"#utility.yul\":4389:4506   */\n    tag_44:\n        /* \"#utility.yul\":4498:4499   */\n      0x00\n        /* \"#utility.yul\":4495:4496   */\n      dup1\n        /* \"#utility.yul\":4488:4500   */\n      revert\n        /* \"#utility.yul\":4512:4614   */\n    tag_71:\n        /* \"#utility.yul\":4553:4559   */\n      0x00\n        /* \"#utility.yul\":4604:4606   */\n      0x1f\n        /* \"#utility.yul\":4600:4607   */\n      not\n        /* \"#utility.yul\":4595:4597   */\n      0x1f\n        /* \"#utility.yul\":4588:4593   */\n      dup4\n        /* \"#utility.yul\":4584:4598   */\n      add\n        /* \"#utility.yul\":4580:4608   */\n      and\n        /* \"#utility.yul\":4570:4608   */\n      swap1\n      pop\n        /* \"#utility.yul\":4512:4614   */\n      swap2\n      swap1\n      pop\n      jump\t// out\n        /* \"#utility.yul\":4620:4742   */\n    tag_40:\n        /* \"#utility.yul\":4693:4717   */\n      tag_92\n        /* \"#utility.yul\":4711:4716   */\n      dup2\n        /* \"#utility.yul\":4693:4717   */\n      tag_57\n      jump\t// in\n    tag_92:\n        /* \"#utility.yul\":4686:4691   */\n      dup2\n        /* \"#utility.yul\":4683:4718   */\n      eq\n        /* \"#utility.yul\":4673:4736   */\n      tag_93\n      jumpi\n        /* \"#utility.yul\":4732:4733   */\n      0x00\n        /* \"#utility.yul\":4729:4730   */\n      dup1\n        /* \"#utility.yul\":4722:4734   */\n      revert\n        /* \"#utility.yul\":4673:4736   */\n    tag_93:\n        /* \"#utility.yul\":4620:4742   */\n      pop\n      jump\t// out\n\n    auxdata: 0xa264697066735822122004f3abbedd2e6bbd2a78050d37b9fb66d51a3f7b74c83fb211bd214f20a1862664736f6c63430008070033\n}\n",
				"bytecode": {
					"linkReferences": {},
					"object": "608060405234801561001057600080fd5b5061039e806100206000396000f3fe608060405234801561001057600080fd5b50600436106100365760003560e01c8063a112c5da1461003b578063ed72f1371461006b575b600080fd5b6100556004803603810190610050919061016e565b610087565b60405161006291906101bd565b60405180910390f35b61008560048036038101906100809190610125565b61009d565b005b60008183610095919061022e565b905092915050565b50565b60006100b36100ae846101fd565b6101d8565b9050828152602081018484840111156100cf576100ce610331565b5b6100da84828561028e565b509392505050565b600082601f8301126100f7576100f661032c565b5b81356101078482602086016100a0565b91505092915050565b60008135905061011f81610351565b92915050565b60006020828403121561013b5761013a61033b565b5b600082013567ffffffffffffffff81111561015957610158610336565b5b610165848285016100e2565b91505092915050565b600080604083850312156101855761018461033b565b5b600061019385828601610110565b92505060206101a485828601610110565b9150509250929050565b6101b781610284565b82525050565b60006020820190506101d260008301846101ae565b92915050565b60006101e26101f3565b90506101ee828261029d565b919050565b6000604051905090565b600067ffffffffffffffff821115610218576102176102fd565b5b61022182610340565b9050602081019050919050565b600061023982610284565b915061024483610284565b9250827fffffffffffffffffffffffffffffffffffffffffffffffffffffffffffffffff03821115610279576102786102ce565b5b828201905092915050565b6000819050919050565b82818337600083830152505050565b6102a682610340565b810181811067ffffffffffffffff821117156102c5576102c46102fd565b5b80604052505050565b7f4e487b7100000000000000000000000000000000000000000000000000000000600052601160045260246000fd5b7f4e487b7100000000000000000000000000000000000000000000000000000000600052604160045260246000fd5b600080fd5b600080fd5b600080fd5b600080fd5b6000601f19601f8301169050919050565b61035a81610284565b811461036557600080fd5b5056fea264697066735822122004f3abbedd2e6bbd2a78050d37b9fb66d51a3f7b74c83fb211bd214f20a1862664736f6c63430008070033",
					"opcodes": "PUSH1 0x80 PUSH1 0x40 MSTORE CALLVALUE DUP1 ISZERO PUSH2 0x10 JUMPI PUSH1 0x0 DUP1 REVERT JUMPDEST POP PUSH2 0x39E DUP1 PUSH2 0x20 PUSH1 0x0 CODECOPY PUSH1 0x0 RETURN INVALID PUSH1 0x80 PUSH1 0x40 MSTORE CALLVALUE DUP1 ISZERO PUSH2 0x10 JUMPI PUSH1 0x0 DUP1 REVERT JUMPDEST POP PUSH1 0x4 CALLDATASIZE LT PUSH2 0x36 JUMPI PUSH1 0x0 CALLDATALOAD PUSH1 0xE0 SHR DUP1 PUSH4 0xA112C5DA EQ PUSH2 0x3B JUMPI DUP1 PUSH4 0xED72F137 EQ PUSH2 0x6B JUMPI JUMPDEST PUSH1 0x0 DUP1 REVERT JUMPDEST PUSH2 0x55 PUSH1 0x4 DUP1 CALLDATASIZE SUB DUP2 ADD SWAP1 PUSH2 0x50 SWAP2 SWAP1 PUSH2 0x16E JUMP JUMPDEST PUSH2 0x87 JUMP JUMPDEST PUSH1 0x40 MLOAD PUSH2 0x62 SWAP2 SWAP1 PUSH2 0x1BD JUMP JUMPDEST PUSH1 0x40 MLOAD DUP1 SWAP2 SUB SWAP1 RETURN JUMPDEST PUSH2 0x85 PUSH1 0x4 DUP1 CALLDATASIZE SUB DUP2 ADD SWAP1 PUSH2 0x80 SWAP2 SWAP1 PUSH2 0x125 JUMP JUMPDEST PUSH2 0x9D JUMP JUMPDEST STOP JUMPDEST PUSH1 0x0 DUP2 DUP4 PUSH2 0x95 SWAP2 SWAP1 PUSH2 0x22E JUMP JUMPDEST SWAP1 POP SWAP3 SWAP2 POP POP JUMP JUMPDEST POP JUMP JUMPDEST PUSH1 0x0 PUSH2 0xB3 PUSH2 0xAE DUP5 PUSH2 0x1FD JUMP JUMPDEST PUSH2 0x1D8 JUMP JUMPDEST SWAP1 POP DUP3 DUP2 MSTORE PUSH1 0x20 DUP2 ADD DUP5 DUP5 DUP5 ADD GT ISZERO PUSH2 0xCF JUMPI PUSH2 0xCE PUSH2 0x331 JUMP JUMPDEST JUMPDEST PUSH2 0xDA DUP5 DUP3 DUP6 PUSH2 0x28E JUMP JUMPDEST POP SWAP4 SWAP3 POP POP POP JUMP JUMPDEST PUSH1 0x0 DUP3 PUSH1 0x1F DUP4 ADD SLT PUSH2 0xF7 JUMPI PUSH2 0xF6 PUSH2 0x32C JUMP JUMPDEST JUMPDEST DUP2 CALLDATALOAD PUSH2 0x107 DUP5 DUP3 PUSH1 0x20 DUP7 ADD PUSH2 0xA0 JUMP JUMPDEST SWAP2 POP POP SWAP3 SWAP2 POP POP JUMP JUMPDEST PUSH1 0x0 DUP2 CALLDATALOAD SWAP1 POP PUSH2 0x11F DUP2 PUSH2 0x351 JUMP JUMPDEST SWAP3 SWAP2 POP POP JUMP JUMPDEST PUSH1 0x0 PUSH1 0x20 DUP3 DUP5 SUB SLT ISZERO PUSH2 0x13B JUMPI PUSH2 0x13A PUSH2 0x33B JUMP JUMPDEST JUMPDEST PUSH1 0x0 DUP3 ADD CALLDATALOAD PUSH8 0xFFFFFFFFFFFFFFFF DUP2 GT ISZERO PUSH2 0x159 JUMPI PUSH2 0x158 PUSH2 0x336 JUMP JUMPDEST JUMPDEST PUSH2 0x165 DUP5 DUP3 DUP6 ADD PUSH2 0xE2 JUMP JUMPDEST SWAP2 POP POP SWAP3 SWAP2 POP POP JUMP JUMPDEST PUSH1 0x0 DUP1 PUSH1 0x40 DUP4 DUP6 SUB SLT ISZERO PUSH2 0x185 JUMPI PUSH2 0x184 PUSH2 0x33B JUMP JUMPDEST JUMPDEST PUSH1 0x0 PUSH2 0x193 DUP6 DUP3 DUP7 ADD PUSH2 0x110 JUMP JUMPDEST SWAP3 POP POP PUSH1 0x20 PUSH2 0x1A4 DUP6 DUP3 DUP7 ADD PUSH2 0x110 JUMP JUMPDEST SWAP2 POP POP SWAP3 POP SWAP3 SWAP1 POP JUMP JUMPDEST PUSH2 0x1B7 DUP2 PUSH2 0x284 JUMP JUMPDEST DUP3 MSTORE POP POP JUMP JUMPDEST PUSH1 0x0 PUSH1 0x20 DUP3 ADD SWAP1 POP PUSH2 0x1D2 PUSH1 0x0 DUP4 ADD DUP5 PUSH2 0x1AE JUMP JUMPDEST SWAP3 SWAP2 POP POP JUMP JUMPDEST PUSH1 0x0 PUSH2 0x1E2 PUSH2 0x1F3 JUMP JUMPDEST SWAP1 POP PUSH2 0x1EE DUP3 DUP3 PUSH2 0x29D JUMP JUMPDEST SWAP2 SWAP1 POP JUMP JUMPDEST PUSH1 0x0 PUSH1 0x40 MLOAD SWAP1 POP SWAP1 JUMP JUMPDEST PUSH1 0x0 PUSH8 0xFFFFFFFFFFFFFFFF DUP3 GT ISZERO PUSH2 0x218 JUMPI PUSH2 0x217 PUSH2 0x2FD JUMP JUMPDEST JUMPDEST PUSH2 0x221 DUP3 PUSH2 0x340 JUMP JUMPDEST SWAP1 POP PUSH1 0x20 DUP2 ADD SWAP1 POP SWAP2 SWAP1 POP JUMP JUMPDEST PUSH1 0x0 PUSH2 0x239 DUP3 PUSH2 0x284 JUMP JUMPDEST SWAP2 POP PUSH2 0x244 DUP4 PUSH2 0x284 JUMP JUMPDEST SWAP3 POP DUP3 PUSH32 0xFFFFFFFFFFFFFFFFFFFFFFFFFFFFFFFFFFFFFFFFFFFFFFFFFFFFFFFFFFFFFFFF SUB DUP3 GT ISZERO PUSH2 0x279 JUMPI PUSH2 0x278 PUSH2 0x2CE JUMP JUMPDEST JUMPDEST DUP3 DUP3 ADD SWAP1 POP SWAP3 SWAP2 POP POP JUMP JUMPDEST PUSH1 0x0 DUP2 SWAP1 POP SWAP2 SWAP1 POP JUMP JUMPDEST DUP3 DUP2 DUP4 CALLDATACOPY PUSH1 0x0 DUP4 DUP4 ADD MSTORE POP POP POP JUMP JUMPDEST PUSH2 0x2A6 DUP3 PUSH2 0x340 JUMP JUMPDEST DUP2 ADD DUP2 DUP2 LT PUSH8 0xFFFFFFFFFFFFFFFF DUP3 GT OR ISZERO PUSH2 0x2C5 JUMPI PUSH2 0x2C4 PUSH2 0x2FD JUMP JUMPDEST JUMPDEST DUP1 PUSH1 0x40 MSTORE POP POP POP JUMP JUMPDEST PUSH32 0x4E487B7100000000000000000000000000000000000000000000000000000000 PUSH1 0x0 MSTORE PUSH1 0x11 PUSH1 0x4 MSTORE PUSH1 0x24 PUSH1 0x0 REVERT JUMPDEST PUSH32 0x4E487B7100000000000000000000000000000000000000000000000000000000 PUSH1 0x0 MSTORE PUSH1 0x41 PUSH1 0x4 MSTORE PUSH1 0x24 PUSH1 0x0 REVERT JUMPDEST PUSH1 0x0 DUP1 REVERT JUMPDEST PUSH1 0x0 DUP1 REVERT JUMPDEST PUSH1 0x0 DUP1 REVERT JUMPDEST PUSH1 0x0 DUP1 REVERT JUMPDEST PUSH1 0x0 PUSH1 0x1F NOT PUSH1 0x1F DUP4 ADD AND SWAP1 POP SWAP2 SWAP1 POP JUMP JUMPDEST PUSH2 0x35A DUP2 PUSH2 0x284 JUMP JUMPDEST DUP2 EQ PUSH2 0x365 JUMPI PUSH1 0x0 DUP1 REVERT JUMPDEST POP JUMP INVALID LOG2 PUSH5 0x6970667358 0x22 SLT KECCAK256 DIV RETURN 0xAB 0xBE 0xDD 0x2E PUSH12 0xBD2A78050D37B9FB66D51A3F PUSH28 0x74C83FB211BD214F20A1862664736F6C634300080700330000000000 "
				},
				"gasEstimates": {
					"creation": {
						"codeDepositCost": "185200",
						"executionCost": "226",
						"totalCost": "185426"
					},
					"external": {
						"qualNome(string)": "infinite",
						"somar(uint256,uint256)": "infinite"
					}
				},
				"methodIdentifiers": {
					"qualNome(string)": "ed72f137",
					"somar(uint256,uint256)": "a112c5da"
				}
			},
			"storageLayout": {
				"storage": [
					{
						"astId": 17,
						"contract": "contracts/test variable.sol:funcoes",
						"label": "name",
						"offset": 0,
						"slot": "0",
						"type": "t_string_storage"
					}
				],
				"types": {
					"t_string_storage": {
						"encoding": "bytes",
						"label": "string",
						"numberOfBytes": "32"
					}
				}
			},
			"userdoc": {
				"kind": "user",
				"methods": {},
				"version": 1
			}
		}
	}
}