{
	"contracts/funcoes2visi.sol": {
		"Visibilidade": {
			"abi": [
				{
					"inputs": [],
					"name": "incrementEx",
					"outputs": [],
					"stateMutability": "nonpayable",
					"type": "function"
				},
				{
					"inputs": [],
					"name": "incrementalResult",
					"outputs": [
						{
							"internalType": "int256",
							"name": "",
							"type": "int256"
						}
					],
					"stateMutability": "view",
					"type": "function"
				},
				{
					"inputs": [],
					"name": "incremetal",
					"outputs": [],
					"stateMutability": "nonpayable",
					"type": "function"
				}
			],
			"devdoc": {
				"kind": "dev",
				"methods": {},
				"version": 1
			},
			"evm": {
				"assembly": "    /* \"contracts/funcoes2visi.sol\":58:511  contract Visibilidade{\r... */\n  mstore(0x40, 0x80)\n    /* \"contracts/funcoes2visi.sol\":101:102  0 */\n  0x00\n    /* \"contracts/funcoes2visi.sol\":86:102  int contagem = 0 */\n  dup1\n  sstore\n    /* \"contracts/funcoes2visi.sol\":58:511  contract Visibilidade{\r... */\n  callvalue\n  dup1\n  iszero\n  tag_1\n  jumpi\n  0x00\n  dup1\n  revert\ntag_1:\n  pop\n  dataSize(sub_0)\n  dup1\n  dataOffset(sub_0)\n  0x00\n  codecopy\n  0x00\n  return\nstop\n\nsub_0: assembly {\n        /* \"contracts/funcoes2visi.sol\":58:511  contract Visibilidade{\r... */\n      mstore(0x40, 0x80)\n      callvalue\n      dup1\n      iszero\n      tag_1\n      jumpi\n      0x00\n      dup1\n      revert\n    tag_1:\n      pop\n      jumpi(tag_2, lt(calldatasize, 0x04))\n      shr(0xe0, calldataload(0x00))\n      dup1\n      0xbbbf3c03\n      eq\n      tag_3\n      jumpi\n      dup1\n      0xcd05f41d\n      eq\n      tag_4\n      jumpi\n      dup1\n      0xf80f29db\n      eq\n      tag_5\n      jumpi\n    tag_2:\n      0x00\n      dup1\n      revert\n        /* \"contracts/funcoes2visi.sol\":200:269  function incrementEx()external{\r... */\n    tag_3:\n      tag_6\n      tag_7\n      jump\t// in\n    tag_6:\n      stop\n        /* \"contracts/funcoes2visi.sol\":424:508  function incrementalResult()public view returns(int){\r... */\n    tag_4:\n      tag_8\n      tag_9\n      jump\t// in\n    tag_8:\n      mload(0x40)\n      tag_10\n      swap2\n      swap1\n      tag_11\n      jump\t// in\n    tag_10:\n      mload(0x40)\n      dup1\n      swap2\n      sub\n      swap1\n      return\n        /* \"contracts/funcoes2visi.sol\":117:195  function  incremetal()public{\r... */\n    tag_5:\n      tag_12\n      tag_13\n      jump\t// in\n    tag_12:\n      stop\n        /* \"contracts/funcoes2visi.sol\":200:269  function incrementEx()external{\r... */\n    tag_7:\n        /* \"contracts/funcoes2visi.sol\":261:262  1 */\n      0x01\n        /* \"contracts/funcoes2visi.sol\":251:259  contagem */\n      sload(0x00)\n        /* \"contracts/funcoes2visi.sol\":251:262  contagem +1 */\n      tag_15\n      swap2\n      swap1\n      tag_16\n      jump\t// in\n    tag_15:\n        /* \"contracts/funcoes2visi.sol\":240:248  contagem */\n      0x00\n        /* \"contracts/funcoes2visi.sol\":240:262  contagem = contagem +1 */\n      dup2\n      swap1\n      sstore\n      pop\n        /* \"contracts/funcoes2visi.sol\":200:269  function incrementEx()external{\r... */\n      jump\t// out\n        /* \"contracts/funcoes2visi.sol\":424:508  function incrementalResult()public view returns(int){\r... */\n    tag_9:\n        /* \"contracts/funcoes2visi.sol\":472:475  int */\n      0x00\n        /* \"contracts/funcoes2visi.sol\":493:501  contagem */\n      dup1\n      sload\n        /* \"contracts/funcoes2visi.sol\":486:501  return contagem */\n      swap1\n      pop\n        /* \"contracts/funcoes2visi.sol\":424:508  function incrementalResult()public view returns(int){\r... */\n      swap1\n      jump\t// out\n        /* \"contracts/funcoes2visi.sol\":117:195  function  incremetal()public{\r... */\n    tag_13:\n        /* \"contracts/funcoes2visi.sol\":185:186  1 */\n      0x01\n        /* \"contracts/funcoes2visi.sol\":175:183  contagem */\n      sload(0x00)\n        /* \"contracts/funcoes2visi.sol\":175:186  contagem +1 */\n      tag_19\n      swap2\n      swap1\n      tag_16\n      jump\t// in\n    tag_19:\n        /* \"contracts/funcoes2visi.sol\":164:172  contagem */\n      0x00\n        /* \"contracts/funcoes2visi.sol\":164:186  contagem = contagem +1 */\n      dup2\n      swap1\n      sstore\n      pop\n        /* \"contracts/funcoes2visi.sol\":117:195  function  incremetal()public{\r... */\n      jump\t// out\n        /* \"#utility.yul\":7:122   */\n    tag_21:\n        /* \"#utility.yul\":92:115   */\n      tag_23\n        /* \"#utility.yul\":109:114   */\n      dup2\n        /* \"#utility.yul\":92:115   */\n      tag_24\n      jump\t// in\n    tag_23:\n        /* \"#utility.yul\":87:90   */\n      dup3\n        /* \"#utility.yul\":80:116   */\n      mstore\n        /* \"#utility.yul\":7:122   */\n      pop\n      pop\n      jump\t// out\n        /* \"#utility.yul\":128:346   */\n    tag_11:\n        /* \"#utility.yul\":219:223   */\n      0x00\n        /* \"#utility.yul\":257:259   */\n      0x20\n        /* \"#utility.yul\":246:255   */\n      dup3\n        /* \"#utility.yul\":242:260   */\n      add\n        /* \"#utility.yul\":234:260   */\n      swap1\n      pop\n        /* \"#utility.yul\":270:339   */\n      tag_26\n        /* \"#utility.yul\":336:337   */\n      0x00\n        /* \"#utility.yul\":325:334   */\n      dup4\n        /* \"#utility.yul\":321:338   */\n      add\n        /* \"#utility.yul\":312:318   */\n      dup5\n        /* \"#utility.yul\":270:339   */\n      tag_21\n      jump\t// in\n    tag_26:\n        /* \"#utility.yul\":128:346   */\n      swap3\n      swap2\n      pop\n      pop\n      jump\t// out\n        /* \"#utility.yul\":352:877   */\n    tag_16:\n        /* \"#utility.yul\":391:394   */\n      0x00\n        /* \"#utility.yul\":410:429   */\n      tag_28\n        /* \"#utility.yul\":427:428   */\n      dup3\n        /* \"#utility.yul\":410:429   */\n      tag_24\n      jump\t// in\n    tag_28:\n        /* \"#utility.yul\":405:429   */\n      swap2\n      pop\n        /* \"#utility.yul\":443:462   */\n      tag_29\n        /* \"#utility.yul\":460:461   */\n      dup4\n        /* \"#utility.yul\":443:462   */\n      tag_24\n      jump\t// in\n    tag_29:\n        /* \"#utility.yul\":438:462   */\n      swap3\n      pop\n        /* \"#utility.yul\":631:632   */\n      dup2\n        /* \"#utility.yul\":563:629   */\n      0x7fffffffffffffffffffffffffffffffffffffffffffffffffffffffffffffff\n        /* \"#utility.yul\":559:633   */\n      sub\n        /* \"#utility.yul\":556:557   */\n      dup4\n        /* \"#utility.yul\":552:634   */\n      sgt\n        /* \"#utility.yul\":547:548   */\n      0x00\n        /* \"#utility.yul\":544:545   */\n      dup4\n        /* \"#utility.yul\":540:549   */\n      slt\n        /* \"#utility.yul\":533:550   */\n      iszero\n        /* \"#utility.yul\":529:635   */\n      and\n        /* \"#utility.yul\":526:658   */\n      iszero\n      tag_30\n      jumpi\n        /* \"#utility.yul\":638:656   */\n      tag_31\n      tag_32\n      jump\t// in\n    tag_31:\n        /* \"#utility.yul\":526:658   */\n    tag_30:\n        /* \"#utility.yul\":818:819   */\n      dup2\n        /* \"#utility.yul\":750:816   */\n      0x8000000000000000000000000000000000000000000000000000000000000000\n        /* \"#utility.yul\":746:820   */\n      sub\n        /* \"#utility.yul\":743:744   */\n      dup4\n        /* \"#utility.yul\":739:821   */\n      slt\n        /* \"#utility.yul\":735:736   */\n      0x00\n        /* \"#utility.yul\":732:733   */\n      dup4\n        /* \"#utility.yul\":728:737   */\n      slt\n        /* \"#utility.yul\":724:822   */\n      and\n        /* \"#utility.yul\":721:845   */\n      iszero\n      tag_33\n      jumpi\n        /* \"#utility.yul\":825:843   */\n      tag_34\n      tag_32\n      jump\t// in\n    tag_34:\n        /* \"#utility.yul\":721:845   */\n    tag_33:\n        /* \"#utility.yul\":869:870   */\n      dup3\n        /* \"#utility.yul\":866:867   */\n      dup3\n        /* \"#utility.yul\":862:871   */\n      add\n        /* \"#utility.yul\":855:871   */\n      swap1\n      pop\n        /* \"#utility.yul\":352:877   */\n      swap3\n      swap2\n      pop\n      pop\n      jump\t// out\n        /* \"#utility.yul\":883:959   */\n    tag_24:\n        /* \"#utility.yul\":919:926   */\n      0x00\n        /* \"#utility.yul\":948:953   */\n      dup2\n        /* \"#utility.yul\":937:953   */\n      swap1\n      pop\n        /* \"#utility.yul\":883:959   */\n      swap2\n      swap1\n      pop\n      jump\t// out\n        /* \"#utility.yul\":965:1145   */\n    tag_32:\n        /* \"#utility.yul\":1013:1090   */\n      0x4e487b7100000000000000000000000000000000000000000000000000000000\n        /* \"#utility.yul\":1010:1011   */\n      0x00\n        /* \"#utility.yul\":1003:1091   */\n      mstore\n        /* \"#utility.yul\":1110:1114   */\n      0x11\n        /* \"#utility.yul\":1107:1108   */\n      0x04\n        /* \"#utility.yul\":1100:1115   */\n      mstore\n        /* \"#utility.yul\":1134:1138   */\n      0x24\n        /* \"#utility.yul\":1131:1132   */\n      0x00\n        /* \"#utility.yul\":1124:1139   */\n      revert\n\n    auxdata: 0xa2646970667358221220879a9042f21b66a2e692265754afd79a416a9466f22f0e71d3422da9974315d364736f6c63430008070033\n}\n",
				"bytecode": {
					"linkReferences": {},
					"object": "60806040526000805534801561001457600080fd5b506101dc806100246000396000f3fe608060405234801561001057600080fd5b50600436106100415760003560e01c8063bbbf3c0314610046578063cd05f41d14610050578063f80f29db1461006e575b600080fd5b61004e610078565b005b61005861008f565b60405161006591906100be565b60405180910390f35b610076610098565b005b600160005461008791906100d9565b600081905550565b60008054905090565b60016000546100a791906100d9565b600081905550565b6100b88161016d565b82525050565b60006020820190506100d360008301846100af565b92915050565b60006100e48261016d565b91506100ef8361016d565b9250817f7fffffffffffffffffffffffffffffffffffffffffffffffffffffffffffffff0383136000831215161561012a57610129610177565b5b817f800000000000000000000000000000000000000000000000000000000000000003831260008312161561016257610161610177565b5b828201905092915050565b6000819050919050565b7f4e487b7100000000000000000000000000000000000000000000000000000000600052601160045260246000fdfea2646970667358221220879a9042f21b66a2e692265754afd79a416a9466f22f0e71d3422da9974315d364736f6c63430008070033",
					"opcodes": "PUSH1 0x80 PUSH1 0x40 MSTORE PUSH1 0x0 DUP1 SSTORE CALLVALUE DUP1 ISZERO PUSH2 0x14 JUMPI PUSH1 0x0 DUP1 REVERT JUMPDEST POP PUSH2 0x1DC DUP1 PUSH2 0x24 PUSH1 0x0 CODECOPY PUSH1 0x0 RETURN INVALID PUSH1 0x80 PUSH1 0x40 MSTORE CALLVALUE DUP1 ISZERO PUSH2 0x10 JUMPI PUSH1 0x0 DUP1 REVERT JUMPDEST POP PUSH1 0x4 CALLDATASIZE LT PUSH2 0x41 JUMPI PUSH1 0x0 CALLDATALOAD PUSH1 0xE0 SHR DUP1 PUSH4 0xBBBF3C03 EQ PUSH2 0x46 JUMPI DUP1 PUSH4 0xCD05F41D EQ PUSH2 0x50 JUMPI DUP1 PUSH4 0xF80F29DB EQ PUSH2 0x6E JUMPI JUMPDEST PUSH1 0x0 DUP1 REVERT JUMPDEST PUSH2 0x4E PUSH2 0x78 JUMP JUMPDEST STOP JUMPDEST PUSH2 0x58 PUSH2 0x8F JUMP JUMPDEST PUSH1 0x40 MLOAD PUSH2 0x65 SWAP2 SWAP1 PUSH2 0xBE JUMP JUMPDEST PUSH1 0x40 MLOAD DUP1 SWAP2 SUB SWAP1 RETURN JUMPDEST PUSH2 0x76 PUSH2 0x98 JUMP JUMPDEST STOP JUMPDEST PUSH1 0x1 PUSH1 0x0 SLOAD PUSH2 0x87 SWAP2 SWAP1 PUSH2 0xD9 JUMP JUMPDEST PUSH1 0x0 DUP2 SWAP1 SSTORE POP JUMP JUMPDEST PUSH1 0x0 DUP1 SLOAD SWAP1 POP SWAP1 JUMP JUMPDEST PUSH1 0x1 PUSH1 0x0 SLOAD PUSH2 0xA7 SWAP2 SWAP1 PUSH2 0xD9 JUMP JUMPDEST PUSH1 0x0 DUP2 SWAP1 SSTORE POP JUMP JUMPDEST PUSH2 0xB8 DUP2 PUSH2 0x16D JUMP JUMPDEST DUP3 MSTORE POP POP JUMP JUMPDEST PUSH1 0x0 PUSH1 0x20 DUP3 ADD SWAP1 POP PUSH2 0xD3 PUSH1 0x0 DUP4 ADD DUP5 PUSH2 0xAF JUMP JUMPDEST SWAP3 SWAP2 POP POP JUMP JUMPDEST PUSH1 0x0 PUSH2 0xE4 DUP3 PUSH2 0x16D JUMP JUMPDEST SWAP2 POP PUSH2 0xEF DUP4 PUSH2 0x16D JUMP JUMPDEST SWAP3 POP DUP2 PUSH32 0x7FFFFFFFFFFFFFFFFFFFFFFFFFFFFFFFFFFFFFFFFFFFFFFFFFFFFFFFFFFFFFFF SUB DUP4 SGT PUSH1 0x0 DUP4 SLT ISZERO AND ISZERO PUSH2 0x12A JUMPI PUSH2 0x129 PUSH2 0x177 JUMP JUMPDEST JUMPDEST DUP2 PUSH32 0x8000000000000000000000000000000000000000000000000000000000000000 SUB DUP4 SLT PUSH1 0x0 DUP4 SLT AND ISZERO PUSH2 0x162 JUMPI PUSH2 0x161 PUSH2 0x177 JUMP JUMPDEST JUMPDEST DUP3 DUP3 ADD SWAP1 POP SWAP3 SWAP2 POP POP JUMP JUMPDEST PUSH1 0x0 DUP2 SWAP1 POP SWAP2 SWAP1 POP JUMP JUMPDEST PUSH32 0x4E487B7100000000000000000000000000000000000000000000000000000000 PUSH1 0x0 MSTORE PUSH1 0x11 PUSH1 0x4 MSTORE PUSH1 0x24 PUSH1 0x0 REVERT INVALID LOG2 PUSH5 0x6970667358 0x22 SLT KECCAK256 DUP8 SWAP11 SWAP1 TIMESTAMP CALLCODE SHL PUSH7 0xA2E692265754AF 0xD7 SWAP11 COINBASE PUSH11 0x9466F22F0E71D3422DA997 NUMBER ISZERO 0xD3 PUSH5 0x736F6C6343 STOP ADDMOD SMOD STOP CALLER "
				},
				"gasEstimates": {
					"creation": {
						"codeDepositCost": "95200",
						"executionCost": "5147",
						"totalCost": "100347"
					},
					"external": {
						"incrementEx()": "infinite",
						"incrementalResult()": "2437",
						"incremetal()": "infinite"
					},
					"internal": {
						"decrementaltEx()": "infinite",
						"incrementalPEx()": "infinite"
					}
				},
				"methodIdentifiers": {
					"incrementEx()": "bbbf3c03",
					"incrementalResult()": "cd05f41d",
					"incremetal()": "f80f29db"
				}
			},
			"storageLayout": {
				"storage": [
					{
						"astId": 4,
						"contract": "contracts/funcoes2visi.sol:Visibilidade",
						"label": "contagem",
						"offset": 0,
						"slot": "0",
						"type": "t_int256"
					}
				],
				"types": {
					"t_int256": {
						"encoding": "inplace",
						"label": "int256",
						"numberOfBytes": "32"
					}
				}
			},
			"userdoc": {
				"kind": "user",
				"methods": {},
				"version": 1
			}
		}
	}
}