{
	"contracts/test variable.sol": {
		"funcoes": {
			"abi": [
				{
					"inputs": [],
					"name": "qualNome",
					"outputs": [
						{
							"internalType": "string",
							"name": "",
							"type": "string"
						}
					],
					"stateMutability": "view",
					"type": "function"
				},
				{
					"inputs": [],
					"name": "qualNumero",
					"outputs": [
						{
							"internalType": "uint256",
							"name": "",
							"type": "uint256"
						}
					],
					"stateMutability": "nonpayable",
					"type": "function"
				},
				{
					"inputs": [],
					"name": "qualNumero2",
					"outputs": [
						{
							"internalType": "uint256",
							"name": "",
							"type": "uint256"
						}
					],
					"stateMutability": "view",
					"type": "function"
				},
				{
					"inputs": [
						{
							"internalType": "uint256",
							"name": "_a",
							"type": "uint256"
						},
						{
							"internalType": "uint256",
							"name": "_b",
							"type": "uint256"
						}
					],
					"name": "somar",
					"outputs": [
						{
							"internalType": "uint256",
							"name": "",
							"type": "uint256"
						}
					],
					"stateMutability": "pure",
					"type": "function"
				}
			],
			"devdoc": {
				"kind": "dev",
				"methods": {},
				"version": 1
			},
			"evm": {
				"assembly": "    /* \"contracts/test variable.sol\":60:569  contract funcoes{\r... */\n  mstore(0x40, 0x80)\n    /* \"contracts/test variable.sol\":179:202  string name = \"edilson\" */\n  mload(0x40)\n  dup1\n  0x40\n  add\n  0x40\n  mstore\n  dup1\n  0x07\n  dup2\n  mstore\n  0x20\n  add\n  0x6564696c736f6e00000000000000000000000000000000000000000000000000\n  dup2\n  mstore\n  pop\n  0x00\n  swap1\n  dup1\n  mload\n  swap1\n  0x20\n  add\n  swap1\n  tag_1\n  swap3\n  swap2\n  swap1\n  tag_2\n  jump\t// in\ntag_1:\n  pop\n    /* \"contracts/test variable.sol\":223:225  12 */\n  0x0c\n    /* \"contracts/test variable.sol\":209:225  uint numero = 12 */\n  0x01\n  sstore\n    /* \"contracts/test variable.sol\":60:569  contract funcoes{\r... */\n  callvalue\n  dup1\n  iszero\n  tag_3\n  jumpi\n  0x00\n  dup1\n  revert\ntag_3:\n  pop\n  jump(tag_4)\ntag_2:\n  dup3\n  dup1\n  sload\n  tag_5\n  swap1\n  tag_6\n  jump\t// in\ntag_5:\n  swap1\n  0x00\n  mstore\n  keccak256(0x00, 0x20)\n  swap1\n  0x1f\n  add\n  0x20\n  swap1\n  div\n  dup2\n  add\n  swap3\n  dup3\n  tag_8\n  jumpi\n  0x00\n  dup6\n  sstore\n  jump(tag_7)\ntag_8:\n  dup3\n  0x1f\n  lt\n  tag_9\n  jumpi\n  dup1\n  mload\n  not(0xff)\n  and\n  dup4\n  dup1\n  add\n  or\n  dup6\n  sstore\n  jump(tag_7)\ntag_9:\n  dup3\n  dup1\n  add\n  0x01\n  add\n  dup6\n  sstore\n  dup3\n  iszero\n  tag_7\n  jumpi\n  swap2\n  dup3\n  add\ntag_10:\n  dup3\n  dup2\n  gt\n  iszero\n  tag_11\n  jumpi\n  dup3\n  mload\n  dup3\n  sstore\n  swap2\n  0x20\n  add\n  swap2\n  swap1\n  0x01\n  add\n  swap1\n  jump(tag_10)\ntag_11:\ntag_7:\n  pop\n  swap1\n  pop\n  tag_12\n  swap2\n  swap1\n  tag_13\n  jump\t// in\ntag_12:\n  pop\n  swap1\n  jump\t// out\ntag_13:\ntag_14:\n  dup1\n  dup3\n  gt\n  iszero\n  tag_15\n  jumpi\n  0x00\n  dup2\n  0x00\n  swap1\n  sstore\n  pop\n  0x01\n  add\n  jump(tag_14)\ntag_15:\n  pop\n  swap1\n  jump\t// out\n    /* \"#utility.yul\":7:327   */\ntag_6:\n  0x00\n    /* \"#utility.yul\":88:89   */\n  0x02\n    /* \"#utility.yul\":82:86   */\n  dup3\n    /* \"#utility.yul\":78:90   */\n  div\n    /* \"#utility.yul\":68:90   */\n  swap1\n  pop\n    /* \"#utility.yul\":135:136   */\n  0x01\n    /* \"#utility.yul\":129:133   */\n  dup3\n    /* \"#utility.yul\":125:137   */\n  and\n    /* \"#utility.yul\":156:174   */\n  dup1\n    /* \"#utility.yul\":146:148   */\n  tag_18\n  jumpi\n    /* \"#utility.yul\":212:216   */\n  0x7f\n    /* \"#utility.yul\":204:210   */\n  dup3\n    /* \"#utility.yul\":200:217   */\n  and\n    /* \"#utility.yul\":190:217   */\n  swap2\n  pop\n    /* \"#utility.yul\":146:148   */\ntag_18:\n    /* \"#utility.yul\":274:276   */\n  0x20\n    /* \"#utility.yul\":266:272   */\n  dup3\n    /* \"#utility.yul\":263:277   */\n  lt\n    /* \"#utility.yul\":243:261   */\n  dup2\n    /* \"#utility.yul\":240:278   */\n  eq\n    /* \"#utility.yul\":237:239   */\n  iszero\n  tag_19\n  jumpi\n    /* \"#utility.yul\":293:311   */\n  tag_20\n  tag_21\n  jump\t// in\ntag_20:\n    /* \"#utility.yul\":237:239   */\ntag_19:\n    /* \"#utility.yul\":58:327   */\n  pop\n  swap2\n  swap1\n  pop\n  jump\t// out\n    /* \"#utility.yul\":333:513   */\ntag_21:\n    /* \"#utility.yul\":381:458   */\n  0x4e487b7100000000000000000000000000000000000000000000000000000000\n    /* \"#utility.yul\":378:379   */\n  0x00\n    /* \"#utility.yul\":371:459   */\n  mstore\n    /* \"#utility.yul\":478:482   */\n  0x22\n    /* \"#utility.yul\":475:476   */\n  0x04\n    /* \"#utility.yul\":468:483   */\n  mstore\n    /* \"#utility.yul\":502:506   */\n  0x24\n    /* \"#utility.yul\":499:500   */\n  0x00\n    /* \"#utility.yul\":492:507   */\n  revert\n    /* \"contracts/test variable.sol\":60:569  contract funcoes{\r... */\ntag_4:\n  dataSize(sub_0)\n  dup1\n  dataOffset(sub_0)\n  0x00\n  codecopy\n  0x00\n  return\nstop\n\nsub_0: assembly {\n        /* \"contracts/test variable.sol\":60:569  contract funcoes{\r... */\n      mstore(0x40, 0x80)\n      callvalue\n      dup1\n      iszero\n      tag_1\n      jumpi\n      0x00\n      dup1\n      revert\n    tag_1:\n      pop\n      jumpi(tag_2, lt(calldatasize, 0x04))\n      shr(0xe0, calldataload(0x00))\n      dup1\n      0x1a60b38b\n      eq\n      tag_3\n      jumpi\n      dup1\n      0x4e1a2f99\n      eq\n      tag_4\n      jumpi\n      dup1\n      0xa112c5da\n      eq\n      tag_5\n      jumpi\n      dup1\n      0xaad34c07\n      eq\n      tag_6\n      jumpi\n    tag_2:\n      0x00\n      dup1\n      revert\n        /* \"contracts/test variable.sol\":232:327  function qualNome()external view returns(string memory){\r... */\n    tag_3:\n      tag_7\n      tag_8\n      jump\t// in\n    tag_7:\n      mload(0x40)\n      tag_9\n      swap2\n      swap1\n      tag_10\n      jump\t// in\n    tag_9:\n      mload(0x40)\n      dup1\n      swap2\n      sub\n      swap1\n      return\n        /* \"contracts/test variable.sol\":335:441  function qualNumero()external returns(uint){   // retorna variavel sem cobrar\r... */\n    tag_4:\n      tag_11\n      tag_12\n      jump\t// in\n    tag_11:\n      mload(0x40)\n      tag_13\n      swap2\n      swap1\n      tag_14\n      jump\t// in\n    tag_13:\n      mload(0x40)\n      dup1\n      swap2\n      sub\n      swap1\n      return\n        /* \"contracts/test variable.sol\":83:173  function somar(uint _a, uint _b) external pure returns(uint){\r... */\n    tag_5:\n      tag_15\n      0x04\n      dup1\n      calldatasize\n      sub\n      dup2\n      add\n      swap1\n      tag_16\n      swap2\n      swap1\n      tag_17\n      jump\t// in\n    tag_16:\n      tag_18\n      jump\t// in\n    tag_15:\n      mload(0x40)\n      tag_19\n      swap2\n      swap1\n      tag_14\n      jump\t// in\n    tag_19:\n      mload(0x40)\n      dup1\n      swap2\n      sub\n      swap1\n      return\n        /* \"contracts/test variable.sol\":447:561  function qualNumero2()external view returns(uint){   // retorna variavel sem cobrar\r... */\n    tag_6:\n      tag_20\n      tag_21\n      jump\t// in\n    tag_20:\n      mload(0x40)\n      tag_22\n      swap2\n      swap1\n      tag_14\n      jump\t// in\n    tag_22:\n      mload(0x40)\n      dup1\n      swap2\n      sub\n      swap1\n      return\n        /* \"contracts/test variable.sol\":232:327  function qualNome()external view returns(string memory){\r... */\n    tag_8:\n        /* \"contracts/test variable.sol\":273:286  string memory */\n      0x60\n        /* \"contracts/test variable.sol\":315:319  name */\n      0x00\n        /* \"contracts/test variable.sol\":308:319  return name */\n      dup1\n      sload\n      tag_24\n      swap1\n      tag_25\n      jump\t// in\n    tag_24:\n      dup1\n      0x1f\n      add\n      0x20\n      dup1\n      swap2\n      div\n      mul\n      0x20\n      add\n      mload(0x40)\n      swap1\n      dup2\n      add\n      0x40\n      mstore\n      dup1\n      swap3\n      swap2\n      swap1\n      dup2\n      dup2\n      mstore\n      0x20\n      add\n      dup3\n      dup1\n      sload\n      tag_26\n      swap1\n      tag_25\n      jump\t// in\n    tag_26:\n      dup1\n      iszero\n      tag_27\n      jumpi\n      dup1\n      0x1f\n      lt\n      tag_28\n      jumpi\n      0x0100\n      dup1\n      dup4\n      sload\n      div\n      mul\n      dup4\n      mstore\n      swap2\n      0x20\n      add\n      swap2\n      jump(tag_27)\n    tag_28:\n      dup3\n      add\n      swap2\n      swap1\n      0x00\n      mstore\n      keccak256(0x00, 0x20)\n      swap1\n    tag_29:\n      dup2\n      sload\n      dup2\n      mstore\n      swap1\n      0x01\n      add\n      swap1\n      0x20\n      add\n      dup1\n      dup4\n      gt\n      tag_29\n      jumpi\n      dup3\n      swap1\n      sub\n      0x1f\n      and\n      dup3\n      add\n      swap2\n    tag_27:\n      pop\n      pop\n      pop\n      pop\n      pop\n      swap1\n      pop\n        /* \"contracts/test variable.sol\":232:327  function qualNome()external view returns(string memory){\r... */\n      swap1\n      jump\t// out\n        /* \"contracts/test variable.sol\":335:441  function qualNumero()external returns(uint){   // retorna variavel sem cobrar\r... */\n    tag_12:\n        /* \"contracts/test variable.sol\":373:377  uint */\n      0x00\n        /* \"contracts/test variable.sol\":427:433  numero */\n      sload(0x01)\n        /* \"contracts/test variable.sol\":420:433  return numero */\n      swap1\n      pop\n        /* \"contracts/test variable.sol\":335:441  function qualNumero()external returns(uint){   // retorna variavel sem cobrar\r... */\n      swap1\n      jump\t// out\n        /* \"contracts/test variable.sol\":83:173  function somar(uint _a, uint _b) external pure returns(uint){\r... */\n    tag_18:\n        /* \"contracts/test variable.sol\":138:142  uint */\n      0x00\n        /* \"contracts/test variable.sol\":163:165  _b */\n      dup2\n        /* \"contracts/test variable.sol\":159:161  _a */\n      dup4\n        /* \"contracts/test variable.sol\":159:165  _a +_b */\n      tag_32\n      swap2\n      swap1\n      tag_33\n      jump\t// in\n    tag_32:\n        /* \"contracts/test variable.sol\":152:165  return _a +_b */\n      swap1\n      pop\n        /* \"contracts/test variable.sol\":83:173  function somar(uint _a, uint _b) external pure returns(uint){\r... */\n      swap3\n      swap2\n      pop\n      pop\n      jump\t// out\n        /* \"contracts/test variable.sol\":447:561  function qualNumero2()external view returns(uint){   // retorna variavel sem cobrar\r... */\n    tag_21:\n        /* \"contracts/test variable.sol\":491:495  uint */\n      0x00\n        /* \"contracts/test variable.sol\":547:553  numero */\n      sload(0x01)\n        /* \"contracts/test variable.sol\":540:553  return numero */\n      swap1\n      pop\n        /* \"contracts/test variable.sol\":447:561  function qualNumero2()external view returns(uint){   // retorna variavel sem cobrar\r... */\n      swap1\n      jump\t// out\n        /* \"#utility.yul\":7:146   */\n    tag_36:\n      0x00\n        /* \"#utility.yul\":91:97   */\n      dup2\n        /* \"#utility.yul\":78:98   */\n      calldataload\n        /* \"#utility.yul\":69:98   */\n      swap1\n      pop\n        /* \"#utility.yul\":107:140   */\n      tag_38\n        /* \"#utility.yul\":134:139   */\n      dup2\n        /* \"#utility.yul\":107:140   */\n      tag_39\n      jump\t// in\n    tag_38:\n        /* \"#utility.yul\":59:146   */\n      swap3\n      swap2\n      pop\n      pop\n      jump\t// out\n        /* \"#utility.yul\":152:559   */\n    tag_17:\n      0x00\n      dup1\n        /* \"#utility.yul\":277:279   */\n      0x40\n        /* \"#utility.yul\":265:274   */\n      dup4\n        /* \"#utility.yul\":256:263   */\n      dup6\n        /* \"#utility.yul\":252:275   */\n      sub\n        /* \"#utility.yul\":248:280   */\n      slt\n        /* \"#utility.yul\":245:247   */\n      iszero\n      tag_41\n      jumpi\n        /* \"#utility.yul\":293:294   */\n      0x00\n        /* \"#utility.yul\":290:291   */\n      dup1\n        /* \"#utility.yul\":283:295   */\n      revert\n        /* \"#utility.yul\":245:247   */\n    tag_41:\n        /* \"#utility.yul\":336:337   */\n      0x00\n        /* \"#utility.yul\":361:414   */\n      tag_42\n        /* \"#utility.yul\":406:413   */\n      dup6\n        /* \"#utility.yul\":397:403   */\n      dup3\n        /* \"#utility.yul\":386:395   */\n      dup7\n        /* \"#utility.yul\":382:404   */\n      add\n        /* \"#utility.yul\":361:414   */\n      tag_36\n      jump\t// in\n    tag_42:\n        /* \"#utility.yul\":351:414   */\n      swap3\n      pop\n        /* \"#utility.yul\":307:424   */\n      pop\n        /* \"#utility.yul\":463:465   */\n      0x20\n        /* \"#utility.yul\":489:542   */\n      tag_43\n        /* \"#utility.yul\":534:541   */\n      dup6\n        /* \"#utility.yul\":525:531   */\n      dup3\n        /* \"#utility.yul\":514:523   */\n      dup7\n        /* \"#utility.yul\":510:532   */\n      add\n        /* \"#utility.yul\":489:542   */\n      tag_36\n      jump\t// in\n    tag_43:\n        /* \"#utility.yul\":479:542   */\n      swap2\n      pop\n        /* \"#utility.yul\":434:552   */\n      pop\n        /* \"#utility.yul\":235:559   */\n      swap3\n      pop\n      swap3\n      swap1\n      pop\n      jump\t// out\n        /* \"#utility.yul\":565:929   */\n    tag_44:\n      0x00\n        /* \"#utility.yul\":681:720   */\n      tag_46\n        /* \"#utility.yul\":714:719   */\n      dup3\n        /* \"#utility.yul\":681:720   */\n      tag_47\n      jump\t// in\n    tag_46:\n        /* \"#utility.yul\":736:807   */\n      tag_48\n        /* \"#utility.yul\":800:806   */\n      dup2\n        /* \"#utility.yul\":795:798   */\n      dup6\n        /* \"#utility.yul\":736:807   */\n      tag_49\n      jump\t// in\n    tag_48:\n        /* \"#utility.yul\":729:807   */\n      swap4\n      pop\n        /* \"#utility.yul\":816:868   */\n      tag_50\n        /* \"#utility.yul\":861:867   */\n      dup2\n        /* \"#utility.yul\":856:859   */\n      dup6\n        /* \"#utility.yul\":849:853   */\n      0x20\n        /* \"#utility.yul\":842:847   */\n      dup7\n        /* \"#utility.yul\":838:854   */\n      add\n        /* \"#utility.yul\":816:868   */\n      tag_51\n      jump\t// in\n    tag_50:\n        /* \"#utility.yul\":893:922   */\n      tag_52\n        /* \"#utility.yul\":915:921   */\n      dup2\n        /* \"#utility.yul\":893:922   */\n      tag_53\n      jump\t// in\n    tag_52:\n        /* \"#utility.yul\":888:891   */\n      dup5\n        /* \"#utility.yul\":884:923   */\n      add\n        /* \"#utility.yul\":877:923   */\n      swap2\n      pop\n        /* \"#utility.yul\":657:929   */\n      pop\n      swap3\n      swap2\n      pop\n      pop\n      jump\t// out\n        /* \"#utility.yul\":935:1053   */\n    tag_54:\n        /* \"#utility.yul\":1022:1046   */\n      tag_56\n        /* \"#utility.yul\":1040:1045   */\n      dup2\n        /* \"#utility.yul\":1022:1046   */\n      tag_57\n      jump\t// in\n    tag_56:\n        /* \"#utility.yul\":1017:1020   */\n      dup3\n        /* \"#utility.yul\":1010:1047   */\n      mstore\n        /* \"#utility.yul\":1000:1053   */\n      pop\n      pop\n      jump\t// out\n        /* \"#utility.yul\":1059:1372   */\n    tag_10:\n      0x00\n        /* \"#utility.yul\":1210:1212   */\n      0x20\n        /* \"#utility.yul\":1199:1208   */\n      dup3\n        /* \"#utility.yul\":1195:1213   */\n      add\n        /* \"#utility.yul\":1187:1213   */\n      swap1\n      pop\n        /* \"#utility.yul\":1259:1268   */\n      dup2\n        /* \"#utility.yul\":1253:1257   */\n      dup2\n        /* \"#utility.yul\":1249:1269   */\n      sub\n        /* \"#utility.yul\":1245:1246   */\n      0x00\n        /* \"#utility.yul\":1234:1243   */\n      dup4\n        /* \"#utility.yul\":1230:1247   */\n      add\n        /* \"#utility.yul\":1223:1270   */\n      mstore\n        /* \"#utility.yul\":1287:1365   */\n      tag_59\n        /* \"#utility.yul\":1360:1364   */\n      dup2\n        /* \"#utility.yul\":1351:1357   */\n      dup5\n        /* \"#utility.yul\":1287:1365   */\n      tag_44\n      jump\t// in\n    tag_59:\n        /* \"#utility.yul\":1279:1365   */\n      swap1\n      pop\n        /* \"#utility.yul\":1177:1372   */\n      swap3\n      swap2\n      pop\n      pop\n      jump\t// out\n        /* \"#utility.yul\":1378:1600   */\n    tag_14:\n      0x00\n        /* \"#utility.yul\":1509:1511   */\n      0x20\n        /* \"#utility.yul\":1498:1507   */\n      dup3\n        /* \"#utility.yul\":1494:1512   */\n      add\n        /* \"#utility.yul\":1486:1512   */\n      swap1\n      pop\n        /* \"#utility.yul\":1522:1593   */\n      tag_61\n        /* \"#utility.yul\":1590:1591   */\n      0x00\n        /* \"#utility.yul\":1579:1588   */\n      dup4\n        /* \"#utility.yul\":1575:1592   */\n      add\n        /* \"#utility.yul\":1566:1572   */\n      dup5\n        /* \"#utility.yul\":1522:1593   */\n      tag_54\n      jump\t// in\n    tag_61:\n        /* \"#utility.yul\":1476:1600   */\n      swap3\n      swap2\n      pop\n      pop\n      jump\t// out\n        /* \"#utility.yul\":1606:1705   */\n    tag_47:\n      0x00\n        /* \"#utility.yul\":1692:1697   */\n      dup2\n        /* \"#utility.yul\":1686:1698   */\n      mload\n        /* \"#utility.yul\":1676:1698   */\n      swap1\n      pop\n        /* \"#utility.yul\":1665:1705   */\n      swap2\n      swap1\n      pop\n      jump\t// out\n        /* \"#utility.yul\":1711:1880   */\n    tag_49:\n      0x00\n        /* \"#utility.yul\":1829:1835   */\n      dup3\n        /* \"#utility.yul\":1824:1827   */\n      dup3\n        /* \"#utility.yul\":1817:1836   */\n      mstore\n        /* \"#utility.yul\":1869:1873   */\n      0x20\n        /* \"#utility.yul\":1864:1867   */\n      dup3\n        /* \"#utility.yul\":1860:1874   */\n      add\n        /* \"#utility.yul\":1845:1874   */\n      swap1\n      pop\n        /* \"#utility.yul\":1807:1880   */\n      swap3\n      swap2\n      pop\n      pop\n      jump\t// out\n        /* \"#utility.yul\":1886:2191   */\n    tag_33:\n      0x00\n        /* \"#utility.yul\":1945:1965   */\n      tag_65\n        /* \"#utility.yul\":1963:1964   */\n      dup3\n        /* \"#utility.yul\":1945:1965   */\n      tag_57\n      jump\t// in\n    tag_65:\n        /* \"#utility.yul\":1940:1965   */\n      swap2\n      pop\n        /* \"#utility.yul\":1979:1999   */\n      tag_66\n        /* \"#utility.yul\":1997:1998   */\n      dup4\n        /* \"#utility.yul\":1979:1999   */\n      tag_57\n      jump\t// in\n    tag_66:\n        /* \"#utility.yul\":1974:1999   */\n      swap3\n      pop\n        /* \"#utility.yul\":2133:2134   */\n      dup3\n        /* \"#utility.yul\":2065:2131   */\n      0xffffffffffffffffffffffffffffffffffffffffffffffffffffffffffffffff\n        /* \"#utility.yul\":2061:2135   */\n      sub\n        /* \"#utility.yul\":2058:2059   */\n      dup3\n        /* \"#utility.yul\":2055:2136   */\n      gt\n        /* \"#utility.yul\":2052:2054   */\n      iszero\n      tag_67\n      jumpi\n        /* \"#utility.yul\":2139:2157   */\n      tag_68\n      tag_69\n      jump\t// in\n    tag_68:\n        /* \"#utility.yul\":2052:2054   */\n    tag_67:\n        /* \"#utility.yul\":2183:2184   */\n      dup3\n        /* \"#utility.yul\":2180:2181   */\n      dup3\n        /* \"#utility.yul\":2176:2185   */\n      add\n        /* \"#utility.yul\":2169:2185   */\n      swap1\n      pop\n        /* \"#utility.yul\":1930:2191   */\n      swap3\n      swap2\n      pop\n      pop\n      jump\t// out\n        /* \"#utility.yul\":2197:2274   */\n    tag_57:\n      0x00\n        /* \"#utility.yul\":2263:2268   */\n      dup2\n        /* \"#utility.yul\":2252:2268   */\n      swap1\n      pop\n        /* \"#utility.yul\":2242:2274   */\n      swap2\n      swap1\n      pop\n      jump\t// out\n        /* \"#utility.yul\":2280:2587   */\n    tag_51:\n        /* \"#utility.yul\":2348:2349   */\n      0x00\n        /* \"#utility.yul\":2358:2471   */\n    tag_72:\n        /* \"#utility.yul\":2372:2378   */\n      dup4\n        /* \"#utility.yul\":2369:2370   */\n      dup2\n        /* \"#utility.yul\":2366:2379   */\n      lt\n        /* \"#utility.yul\":2358:2471   */\n      iszero\n      tag_74\n      jumpi\n        /* \"#utility.yul\":2457:2458   */\n      dup1\n        /* \"#utility.yul\":2452:2455   */\n      dup3\n        /* \"#utility.yul\":2448:2459   */\n      add\n        /* \"#utility.yul\":2442:2460   */\n      mload\n        /* \"#utility.yul\":2438:2439   */\n      dup2\n        /* \"#utility.yul\":2433:2436   */\n      dup5\n        /* \"#utility.yul\":2429:2440   */\n      add\n        /* \"#utility.yul\":2422:2461   */\n      mstore\n        /* \"#utility.yul\":2394:2396   */\n      0x20\n        /* \"#utility.yul\":2391:2392   */\n      dup2\n        /* \"#utility.yul\":2387:2397   */\n      add\n        /* \"#utility.yul\":2382:2397   */\n      swap1\n      pop\n        /* \"#utility.yul\":2358:2471   */\n      jump(tag_72)\n    tag_74:\n        /* \"#utility.yul\":2489:2495   */\n      dup4\n        /* \"#utility.yul\":2486:2487   */\n      dup2\n        /* \"#utility.yul\":2483:2496   */\n      gt\n        /* \"#utility.yul\":2480:2482   */\n      iszero\n      tag_75\n      jumpi\n        /* \"#utility.yul\":2569:2570   */\n      0x00\n        /* \"#utility.yul\":2560:2566   */\n      dup5\n        /* \"#utility.yul\":2555:2558   */\n      dup5\n        /* \"#utility.yul\":2551:2567   */\n      add\n        /* \"#utility.yul\":2544:2571   */\n      mstore\n        /* \"#utility.yul\":2480:2482   */\n    tag_75:\n        /* \"#utility.yul\":2329:2587   */\n      pop\n      pop\n      pop\n      pop\n      jump\t// out\n        /* \"#utility.yul\":2593:2913   */\n    tag_25:\n      0x00\n        /* \"#utility.yul\":2674:2675   */\n      0x02\n        /* \"#utility.yul\":2668:2672   */\n      dup3\n        /* \"#utility.yul\":2664:2676   */\n      div\n        /* \"#utility.yul\":2654:2676   */\n      swap1\n      pop\n        /* \"#utility.yul\":2721:2722   */\n      0x01\n        /* \"#utility.yul\":2715:2719   */\n      dup3\n        /* \"#utility.yul\":2711:2723   */\n      and\n        /* \"#utility.yul\":2742:2760   */\n      dup1\n        /* \"#utility.yul\":2732:2734   */\n      tag_77\n      jumpi\n        /* \"#utility.yul\":2798:2802   */\n      0x7f\n        /* \"#utility.yul\":2790:2796   */\n      dup3\n        /* \"#utility.yul\":2786:2803   */\n      and\n        /* \"#utility.yul\":2776:2803   */\n      swap2\n      pop\n        /* \"#utility.yul\":2732:2734   */\n    tag_77:\n        /* \"#utility.yul\":2860:2862   */\n      0x20\n        /* \"#utility.yul\":2852:2858   */\n      dup3\n        /* \"#utility.yul\":2849:2863   */\n      lt\n        /* \"#utility.yul\":2829:2847   */\n      dup2\n        /* \"#utility.yul\":2826:2864   */\n      eq\n        /* \"#utility.yul\":2823:2825   */\n      iszero\n      tag_78\n      jumpi\n        /* \"#utility.yul\":2879:2897   */\n      tag_79\n      tag_80\n      jump\t// in\n    tag_79:\n        /* \"#utility.yul\":2823:2825   */\n    tag_78:\n        /* \"#utility.yul\":2644:2913   */\n      pop\n      swap2\n      swap1\n      pop\n      jump\t// out\n        /* \"#utility.yul\":2919:3099   */\n    tag_69:\n        /* \"#utility.yul\":2967:3044   */\n      0x4e487b7100000000000000000000000000000000000000000000000000000000\n        /* \"#utility.yul\":2964:2965   */\n      0x00\n        /* \"#utility.yul\":2957:3045   */\n      mstore\n        /* \"#utility.yul\":3064:3068   */\n      0x11\n        /* \"#utility.yul\":3061:3062   */\n      0x04\n        /* \"#utility.yul\":3054:3069   */\n      mstore\n        /* \"#utility.yul\":3088:3092   */\n      0x24\n        /* \"#utility.yul\":3085:3086   */\n      0x00\n        /* \"#utility.yul\":3078:3093   */\n      revert\n        /* \"#utility.yul\":3105:3285   */\n    tag_80:\n        /* \"#utility.yul\":3153:3230   */\n      0x4e487b7100000000000000000000000000000000000000000000000000000000\n        /* \"#utility.yul\":3150:3151   */\n      0x00\n        /* \"#utility.yul\":3143:3231   */\n      mstore\n        /* \"#utility.yul\":3250:3254   */\n      0x22\n        /* \"#utility.yul\":3247:3248   */\n      0x04\n        /* \"#utility.yul\":3240:3255   */\n      mstore\n        /* \"#utility.yul\":3274:3278   */\n      0x24\n        /* \"#utility.yul\":3271:3272   */\n      0x00\n        /* \"#utility.yul\":3264:3279   */\n      revert\n        /* \"#utility.yul\":3291:3393   */\n    tag_53:\n      0x00\n        /* \"#utility.yul\":3383:3385   */\n      0x1f\n        /* \"#utility.yul\":3379:3386   */\n      not\n        /* \"#utility.yul\":3374:3376   */\n      0x1f\n        /* \"#utility.yul\":3367:3372   */\n      dup4\n        /* \"#utility.yul\":3363:3377   */\n      add\n        /* \"#utility.yul\":3359:3387   */\n      and\n        /* \"#utility.yul\":3349:3387   */\n      swap1\n      pop\n        /* \"#utility.yul\":3339:3393   */\n      swap2\n      swap1\n      pop\n      jump\t// out\n        /* \"#utility.yul\":3399:3521   */\n    tag_39:\n        /* \"#utility.yul\":3472:3496   */\n      tag_85\n        /* \"#utility.yul\":3490:3495   */\n      dup2\n        /* \"#utility.yul\":3472:3496   */\n      tag_57\n      jump\t// in\n    tag_85:\n        /* \"#utility.yul\":3465:3470   */\n      dup2\n        /* \"#utility.yul\":3462:3497   */\n      eq\n        /* \"#utility.yul\":3452:3454   */\n      tag_86\n      jumpi\n        /* \"#utility.yul\":3511:3512   */\n      0x00\n        /* \"#utility.yul\":3508:3509   */\n      dup1\n        /* \"#utility.yul\":3501:3513   */\n      revert\n        /* \"#utility.yul\":3452:3454   */\n    tag_86:\n        /* \"#utility.yul\":3442:3521   */\n      pop\n      jump\t// out\n\n    auxdata: 0xa2646970667358221220382797d298c347d6a9cfbaa13f339642cce90d5911e4c67c70648f0bcc486d8364736f6c63430008000033\n}\n",
				"bytecode": {
					"linkReferences": {},
					"object": "60806040526040518060400160405280600781526020017f6564696c736f6e000000000000000000000000000000000000000000000000008152506000908051906020019061004f929190610067565b50600c60015534801561006157600080fd5b5061016b565b8280546100739061010a565b90600052602060002090601f01602090048101928261009557600085556100dc565b82601f106100ae57805160ff19168380011785556100dc565b828001600101855582156100dc579182015b828111156100db5782518255916020019190600101906100c0565b5b5090506100e991906100ed565b5090565b5b808211156101065760008160009055506001016100ee565b5090565b6000600282049050600182168061012257607f821691505b602082108114156101365761013561013c565b5b50919050565b7f4e487b7100000000000000000000000000000000000000000000000000000000600052602260045260246000fd5b61040a8061017a6000396000f3fe608060405234801561001057600080fd5b506004361061004c5760003560e01c80631a60b38b146100515780634e1a2f991461006f578063a112c5da1461008d578063aad34c07146100bd575b600080fd5b6100596100db565b6040516100669190610230565b60405180910390f35b61007761016d565b6040516100849190610252565b60405180910390f35b6100a760048036038101906100a291906101ac565b610177565b6040516100b49190610252565b60405180910390f35b6100c561018d565b6040516100d29190610252565b60405180910390f35b6060600080546100ea9061031c565b80601f01602080910402602001604051908101604052809291908181526020018280546101169061031c565b80156101635780601f1061013857610100808354040283529160200191610163565b820191906000526020600020905b81548152906001019060200180831161014657829003601f168201915b5050505050905090565b6000600154905090565b600081836101859190610289565b905092915050565b6000600154905090565b6000813590506101a6816103bd565b92915050565b600080604083850312156101bf57600080fd5b60006101cd85828601610197565b92505060206101de85828601610197565b9150509250929050565b60006101f38261026d565b6101fd8185610278565b935061020d8185602086016102e9565b610216816103ac565b840191505092915050565b61022a816102df565b82525050565b6000602082019050818103600083015261024a81846101e8565b905092915050565b60006020820190506102676000830184610221565b92915050565b600081519050919050565b600082825260208201905092915050565b6000610294826102df565b915061029f836102df565b9250827fffffffffffffffffffffffffffffffffffffffffffffffffffffffffffffffff038211156102d4576102d361034e565b5b828201905092915050565b6000819050919050565b60005b838110156103075780820151818401526020810190506102ec565b83811115610316576000848401525b50505050565b6000600282049050600182168061033457607f821691505b602082108114156103485761034761037d565b5b50919050565b7f4e487b7100000000000000000000000000000000000000000000000000000000600052601160045260246000fd5b7f4e487b7100000000000000000000000000000000000000000000000000000000600052602260045260246000fd5b6000601f19601f8301169050919050565b6103c6816102df565b81146103d157600080fd5b5056fea2646970667358221220382797d298c347d6a9cfbaa13f339642cce90d5911e4c67c70648f0bcc486d8364736f6c63430008000033",
					"opcodes": "PUSH1 0x80 PUSH1 0x40 MSTORE PUSH1 0x40 MLOAD DUP1 PUSH1 0x40 ADD PUSH1 0x40 MSTORE DUP1 PUSH1 0x7 DUP2 MSTORE PUSH1 0x20 ADD PUSH32 0x6564696C736F6E00000000000000000000000000000000000000000000000000 DUP2 MSTORE POP PUSH1 0x0 SWAP1 DUP1 MLOAD SWAP1 PUSH1 0x20 ADD SWAP1 PUSH2 0x4F SWAP3 SWAP2 SWAP1 PUSH2 0x67 JUMP JUMPDEST POP PUSH1 0xC PUSH1 0x1 SSTORE CALLVALUE DUP1 ISZERO PUSH2 0x61 JUMPI PUSH1 0x0 DUP1 REVERT JUMPDEST POP PUSH2 0x16B JUMP JUMPDEST DUP3 DUP1 SLOAD PUSH2 0x73 SWAP1 PUSH2 0x10A JUMP JUMPDEST SWAP1 PUSH1 0x0 MSTORE PUSH1 0x20 PUSH1 0x0 KECCAK256 SWAP1 PUSH1 0x1F ADD PUSH1 0x20 SWAP1 DIV DUP2 ADD SWAP3 DUP3 PUSH2 0x95 JUMPI PUSH1 0x0 DUP6 SSTORE PUSH2 0xDC JUMP JUMPDEST DUP3 PUSH1 0x1F LT PUSH2 0xAE JUMPI DUP1 MLOAD PUSH1 0xFF NOT AND DUP4 DUP1 ADD OR DUP6 SSTORE PUSH2 0xDC JUMP JUMPDEST DUP3 DUP1 ADD PUSH1 0x1 ADD DUP6 SSTORE DUP3 ISZERO PUSH2 0xDC JUMPI SWAP2 DUP3 ADD JUMPDEST DUP3 DUP2 GT ISZERO PUSH2 0xDB JUMPI DUP3 MLOAD DUP3 SSTORE SWAP2 PUSH1 0x20 ADD SWAP2 SWAP1 PUSH1 0x1 ADD SWAP1 PUSH2 0xC0 JUMP JUMPDEST JUMPDEST POP SWAP1 POP PUSH2 0xE9 SWAP2 SWAP1 PUSH2 0xED JUMP JUMPDEST POP SWAP1 JUMP JUMPDEST JUMPDEST DUP1 DUP3 GT ISZERO PUSH2 0x106 JUMPI PUSH1 0x0 DUP2 PUSH1 0x0 SWAP1 SSTORE POP PUSH1 0x1 ADD PUSH2 0xEE JUMP JUMPDEST POP SWAP1 JUMP JUMPDEST PUSH1 0x0 PUSH1 0x2 DUP3 DIV SWAP1 POP PUSH1 0x1 DUP3 AND DUP1 PUSH2 0x122 JUMPI PUSH1 0x7F DUP3 AND SWAP2 POP JUMPDEST PUSH1 0x20 DUP3 LT DUP2 EQ ISZERO PUSH2 0x136 JUMPI PUSH2 0x135 PUSH2 0x13C JUMP JUMPDEST JUMPDEST POP SWAP2 SWAP1 POP JUMP JUMPDEST PUSH32 0x4E487B7100000000000000000000000000000000000000000000000000000000 PUSH1 0x0 MSTORE PUSH1 0x22 PUSH1 0x4 MSTORE PUSH1 0x24 PUSH1 0x0 REVERT JUMPDEST PUSH2 0x40A DUP1 PUSH2 0x17A PUSH1 0x0 CODECOPY PUSH1 0x0 RETURN INVALID PUSH1 0x80 PUSH1 0x40 MSTORE CALLVALUE DUP1 ISZERO PUSH2 0x10 JUMPI PUSH1 0x0 DUP1 REVERT JUMPDEST POP PUSH1 0x4 CALLDATASIZE LT PUSH2 0x4C JUMPI PUSH1 0x0 CALLDATALOAD PUSH1 0xE0 SHR DUP1 PUSH4 0x1A60B38B EQ PUSH2 0x51 JUMPI DUP1 PUSH4 0x4E1A2F99 EQ PUSH2 0x6F JUMPI DUP1 PUSH4 0xA112C5DA EQ PUSH2 0x8D JUMPI DUP1 PUSH4 0xAAD34C07 EQ PUSH2 0xBD JUMPI JUMPDEST PUSH1 0x0 DUP1 REVERT JUMPDEST PUSH2 0x59 PUSH2 0xDB JUMP JUMPDEST PUSH1 0x40 MLOAD PUSH2 0x66 SWAP2 SWAP1 PUSH2 0x230 JUMP JUMPDEST PUSH1 0x40 MLOAD DUP1 SWAP2 SUB SWAP1 RETURN JUMPDEST PUSH2 0x77 PUSH2 0x16D JUMP JUMPDEST PUSH1 0x40 MLOAD PUSH2 0x84 SWAP2 SWAP1 PUSH2 0x252 JUMP JUMPDEST PUSH1 0x40 MLOAD DUP1 SWAP2 SUB SWAP1 RETURN JUMPDEST PUSH2 0xA7 PUSH1 0x4 DUP1 CALLDATASIZE SUB DUP2 ADD SWAP1 PUSH2 0xA2 SWAP2 SWAP1 PUSH2 0x1AC JUMP JUMPDEST PUSH2 0x177 JUMP JUMPDEST PUSH1 0x40 MLOAD PUSH2 0xB4 SWAP2 SWAP1 PUSH2 0x252 JUMP JUMPDEST PUSH1 0x40 MLOAD DUP1 SWAP2 SUB SWAP1 RETURN JUMPDEST PUSH2 0xC5 PUSH2 0x18D JUMP JUMPDEST PUSH1 0x40 MLOAD PUSH2 0xD2 SWAP2 SWAP1 PUSH2 0x252 JUMP JUMPDEST PUSH1 0x40 MLOAD DUP1 SWAP2 SUB SWAP1 RETURN JUMPDEST PUSH1 0x60 PUSH1 0x0 DUP1 SLOAD PUSH2 0xEA SWAP1 PUSH2 0x31C JUMP JUMPDEST DUP1 PUSH1 0x1F ADD PUSH1 0x20 DUP1 SWAP2 DIV MUL PUSH1 0x20 ADD PUSH1 0x40 MLOAD SWAP1 DUP2 ADD PUSH1 0x40 MSTORE DUP1 SWAP3 SWAP2 SWAP1 DUP2 DUP2 MSTORE PUSH1 0x20 ADD DUP3 DUP1 SLOAD PUSH2 0x116 SWAP1 PUSH2 0x31C JUMP JUMPDEST DUP1 ISZERO PUSH2 0x163 JUMPI DUP1 PUSH1 0x1F LT PUSH2 0x138 JUMPI PUSH2 0x100 DUP1 DUP4 SLOAD DIV MUL DUP4 MSTORE SWAP2 PUSH1 0x20 ADD SWAP2 PUSH2 0x163 JUMP JUMPDEST DUP3 ADD SWAP2 SWAP1 PUSH1 0x0 MSTORE PUSH1 0x20 PUSH1 0x0 KECCAK256 SWAP1 JUMPDEST DUP2 SLOAD DUP2 MSTORE SWAP1 PUSH1 0x1 ADD SWAP1 PUSH1 0x20 ADD DUP1 DUP4 GT PUSH2 0x146 JUMPI DUP3 SWAP1 SUB PUSH1 0x1F AND DUP3 ADD SWAP2 JUMPDEST POP POP POP POP POP SWAP1 POP SWAP1 JUMP JUMPDEST PUSH1 0x0 PUSH1 0x1 SLOAD SWAP1 POP SWAP1 JUMP JUMPDEST PUSH1 0x0 DUP2 DUP4 PUSH2 0x185 SWAP2 SWAP1 PUSH2 0x289 JUMP JUMPDEST SWAP1 POP SWAP3 SWAP2 POP POP JUMP JUMPDEST PUSH1 0x0 PUSH1 0x1 SLOAD SWAP1 POP SWAP1 JUMP JUMPDEST PUSH1 0x0 DUP2 CALLDATALOAD SWAP1 POP PUSH2 0x1A6 DUP2 PUSH2 0x3BD JUMP JUMPDEST SWAP3 SWAP2 POP POP JUMP JUMPDEST PUSH1 0x0 DUP1 PUSH1 0x40 DUP4 DUP6 SUB SLT ISZERO PUSH2 0x1BF JUMPI PUSH1 0x0 DUP1 REVERT JUMPDEST PUSH1 0x0 PUSH2 0x1CD DUP6 DUP3 DUP7 ADD PUSH2 0x197 JUMP JUMPDEST SWAP3 POP POP PUSH1 0x20 PUSH2 0x1DE DUP6 DUP3 DUP7 ADD PUSH2 0x197 JUMP JUMPDEST SWAP2 POP POP SWAP3 POP SWAP3 SWAP1 POP JUMP JUMPDEST PUSH1 0x0 PUSH2 0x1F3 DUP3 PUSH2 0x26D JUMP JUMPDEST PUSH2 0x1FD DUP2 DUP6 PUSH2 0x278 JUMP JUMPDEST SWAP4 POP PUSH2 0x20D DUP2 DUP6 PUSH1 0x20 DUP7 ADD PUSH2 0x2E9 JUMP JUMPDEST PUSH2 0x216 DUP2 PUSH2 0x3AC JUMP JUMPDEST DUP5 ADD SWAP2 POP POP SWAP3 SWAP2 POP POP JUMP JUMPDEST PUSH2 0x22A DUP2 PUSH2 0x2DF JUMP JUMPDEST DUP3 MSTORE POP POP JUMP JUMPDEST PUSH1 0x0 PUSH1 0x20 DUP3 ADD SWAP1 POP DUP2 DUP2 SUB PUSH1 0x0 DUP4 ADD MSTORE PUSH2 0x24A DUP2 DUP5 PUSH2 0x1E8 JUMP JUMPDEST SWAP1 POP SWAP3 SWAP2 POP POP JUMP JUMPDEST PUSH1 0x0 PUSH1 0x20 DUP3 ADD SWAP1 POP PUSH2 0x267 PUSH1 0x0 DUP4 ADD DUP5 PUSH2 0x221 JUMP JUMPDEST SWAP3 SWAP2 POP POP JUMP JUMPDEST PUSH1 0x0 DUP2 MLOAD SWAP1 POP SWAP2 SWAP1 POP JUMP JUMPDEST PUSH1 0x0 DUP3 DUP3 MSTORE PUSH1 0x20 DUP3 ADD SWAP1 POP SWAP3 SWAP2 POP POP JUMP JUMPDEST PUSH1 0x0 PUSH2 0x294 DUP3 PUSH2 0x2DF JUMP JUMPDEST SWAP2 POP PUSH2 0x29F DUP4 PUSH2 0x2DF JUMP JUMPDEST SWAP3 POP DUP3 PUSH32 0xFFFFFFFFFFFFFFFFFFFFFFFFFFFFFFFFFFFFFFFFFFFFFFFFFFFFFFFFFFFFFFFF SUB DUP3 GT ISZERO PUSH2 0x2D4 JUMPI PUSH2 0x2D3 PUSH2 0x34E JUMP JUMPDEST JUMPDEST DUP3 DUP3 ADD SWAP1 POP SWAP3 SWAP2 POP POP JUMP JUMPDEST PUSH1 0x0 DUP2 SWAP1 POP SWAP2 SWAP1 POP JUMP JUMPDEST PUSH1 0x0 JUMPDEST DUP4 DUP2 LT ISZERO PUSH2 0x307 JUMPI DUP1 DUP3 ADD MLOAD DUP2 DUP5 ADD MSTORE PUSH1 0x20 DUP2 ADD SWAP1 POP PUSH2 0x2EC JUMP JUMPDEST DUP4 DUP2 GT ISZERO PUSH2 0x316 JUMPI PUSH1 0x0 DUP5 DUP5 ADD MSTORE JUMPDEST POP POP POP POP JUMP JUMPDEST PUSH1 0x0 PUSH1 0x2 DUP3 DIV SWAP1 POP PUSH1 0x1 DUP3 AND DUP1 PUSH2 0x334 JUMPI PUSH1 0x7F DUP3 AND SWAP2 POP JUMPDEST PUSH1 0x20 DUP3 LT DUP2 EQ ISZERO PUSH2 0x348 JUMPI PUSH2 0x347 PUSH2 0x37D JUMP JUMPDEST JUMPDEST POP SWAP2 SWAP1 POP JUMP JUMPDEST PUSH32 0x4E487B7100000000000000000000000000000000000000000000000000000000 PUSH1 0x0 MSTORE PUSH1 0x11 PUSH1 0x4 MSTORE PUSH1 0x24 PUSH1 0x0 REVERT JUMPDEST PUSH32 0x4E487B7100000000000000000000000000000000000000000000000000000000 PUSH1 0x0 MSTORE PUSH1 0x22 PUSH1 0x4 MSTORE PUSH1 0x24 PUSH1 0x0 REVERT JUMPDEST PUSH1 0x0 PUSH1 0x1F NOT PUSH1 0x1F DUP4 ADD AND SWAP1 POP SWAP2 SWAP1 POP JUMP JUMPDEST PUSH2 0x3C6 DUP2 PUSH2 0x2DF JUMP JUMPDEST DUP2 EQ PUSH2 0x3D1 JUMPI PUSH1 0x0 DUP1 REVERT JUMPDEST POP JUMP INVALID LOG2 PUSH5 0x6970667358 0x22 SLT KECCAK256 CODESIZE 0x27 SWAP8 0xD2 SWAP9 0xC3 SELFBALANCE 0xD6 0xA9 0xCF 0xBA LOG1 EXTCODEHASH CALLER SWAP7 TIMESTAMP 0xCC 0xE9 0xD MSIZE GT 0xE4 0xC6 PUSH29 0x70648F0BCC486D8364736F6C6343000800003300000000000000000000 "
				},
				"gasEstimates": {
					"creation": {
						"codeDepositCost": "206800",
						"executionCost": "infinite",
						"totalCost": "infinite"
					},
					"external": {
						"qualNome()": "infinite",
						"qualNumero()": "1137",
						"qualNumero2()": "1181",
						"somar(uint256,uint256)": "infinite"
					}
				},
				"methodIdentifiers": {
					"qualNome()": "1a60b38b",
					"qualNumero()": "4e1a2f99",
					"qualNumero2()": "aad34c07",
					"somar(uint256,uint256)": "a112c5da"
				}
			},
			"storageLayout": {
				"storage": [
					{
						"astId": 18,
						"contract": "contracts/test variable.sol:funcoes",
						"label": "name",
						"offset": 0,
						"slot": "0",
						"type": "t_string_storage"
					},
					{
						"astId": 21,
						"contract": "contracts/test variable.sol:funcoes",
						"label": "numero",
						"offset": 0,
						"slot": "1",
						"type": "t_uint256"
					}
				],
				"types": {
					"t_string_storage": {
						"encoding": "bytes",
						"label": "string",
						"numberOfBytes": "32"
					},
					"t_uint256": {
						"encoding": "inplace",
						"label": "uint256",
						"numberOfBytes": "32"
					}
				}
			},
			"userdoc": {
				"kind": "user",
				"methods": {},
				"version": 1
			}
		}
	}
}