{
	"contracts/tipos.sol": {
		"Tipos": {
			"abi": [
				{
					"inputs": [],
					"name": "inteiro",
					"outputs": [
						{
							"internalType": "int152",
							"name": "",
							"type": "int152"
						}
					],
					"stateMutability": "view",
					"type": "function"
				},
				{
					"inputs": [],
					"name": "unintzeiro",
					"outputs": [
						{
							"internalType": "uint248",
							"name": "",
							"type": "uint248"
						}
					],
					"stateMutability": "view",
					"type": "function"
				},
				{
					"inputs": [],
					"name": "valorbytes",
					"outputs": [
						{
							"internalType": "bytes2",
							"name": "",
							"type": "bytes2"
						}
					],
					"stateMutability": "view",
					"type": "function"
				},
				{
					"inputs": [],
					"name": "valorbytes3",
					"outputs": [
						{
							"internalType": "bytes3",
							"name": "",
							"type": "bytes3"
						}
					],
					"stateMutability": "view",
					"type": "function"
				}
			],
			"devdoc": {
				"kind": "dev",
				"methods": {},
				"version": 1
			},
			"evm": {
				"assembly": "    /* \"contracts/tipos.sol\":58:246  contract Tipos{\r... */\n  mstore(0x40, 0x80)\n    /* \"contracts/tipos.sol\":103:108  78473 */\n  0x013289\n    /* \"contracts/tipos.sol\":79:108  int152 public inteiro = 78473 */\n  0x00\n  dup1\n  0x0100\n  exp\n  dup2\n  sload\n  dup2\n  0xffffffffffffffffffffffffffffffffffffff\n  mul\n  not\n  and\n  swap1\n  dup4\n  0x12\n  signextend\n  0xffffffffffffffffffffffffffffffffffffff\n  and\n  mul\n  or\n  swap1\n  sstore\n  pop\n    /* \"contracts/tipos.sol\":143:145  10 */\n  0x0a\n    /* \"contracts/tipos.sol\":115:145  uint248 public unintzeiro = 10 */\n  0x01\n  exp(0x0100, 0x00)\n  dup2\n  sload\n  dup2\n  0xffffffffffffffffffffffffffffffffffffffffffffffffffffffffffffff\n  mul\n  not\n  and\n  swap1\n  dup4\n  0xffffffffffffffffffffffffffffffffffffffffffffffffffffffffffffff\n  and\n  mul\n  or\n  swap1\n  sstore\n  pop\n    /* \"contracts/tipos.sol\":179:185  0x34f4 */\n  0x34f4\n    /* \"contracts/tipos.sol\":152:185  bytes2 public valorbytes = 0x34f4 */\n  0xf0\n  shl\n  0x02\n  exp(0x0100, 0x00)\n  dup2\n  sload\n  dup2\n  0xffff\n  mul\n  not\n  and\n  swap1\n  dup4\n  0xf0\n  shr\n  mul\n  or\n  swap1\n  sstore\n  pop\n    /* \"contracts/tipos.sol\":220:228  0x877653 */\n  0x877653\n    /* \"contracts/tipos.sol\":192:228  bytes3 public valorbytes3 = 0x877653 */\n  0xe8\n  shl\n  0x02\n  dup1\n  0x0100\n  exp\n  dup2\n  sload\n  dup2\n  0xffffff\n  mul\n  not\n  and\n  swap1\n  dup4\n  0xe8\n  shr\n  mul\n  or\n  swap1\n  sstore\n  pop\n    /* \"contracts/tipos.sol\":58:246  contract Tipos{\r... */\n  callvalue\n  dup1\n  iszero\n  tag_1\n  jumpi\n  0x00\n  dup1\n  revert\ntag_1:\n  pop\n  dataSize(sub_0)\n  dup1\n  dataOffset(sub_0)\n  0x00\n  codecopy\n  0x00\n  return\nstop\n\nsub_0: assembly {\n        /* \"contracts/tipos.sol\":58:246  contract Tipos{\r... */\n      mstore(0x40, 0x80)\n      callvalue\n      dup1\n      iszero\n      tag_1\n      jumpi\n      0x00\n      dup1\n      revert\n    tag_1:\n      pop\n      jumpi(tag_2, lt(calldatasize, 0x04))\n      shr(0xe0, calldataload(0x00))\n      dup1\n      0x1957a201\n      eq\n      tag_3\n      jumpi\n      dup1\n      0xae45e45d\n      eq\n      tag_4\n      jumpi\n      dup1\n      0xb624cb54\n      eq\n      tag_5\n      jumpi\n      dup1\n      0xf5688131\n      eq\n      tag_6\n      jumpi\n    tag_2:\n      0x00\n      dup1\n      revert\n        /* \"contracts/tipos.sol\":192:228  bytes3 public valorbytes3 = 0x877653 */\n    tag_3:\n      tag_7\n      tag_8\n      jump\t// in\n    tag_7:\n      mload(0x40)\n      tag_9\n      swap2\n      swap1\n      tag_10\n      jump\t// in\n    tag_9:\n      mload(0x40)\n      dup1\n      swap2\n      sub\n      swap1\n      return\n        /* \"contracts/tipos.sol\":115:145  uint248 public unintzeiro = 10 */\n    tag_4:\n      tag_11\n      tag_12\n      jump\t// in\n    tag_11:\n      mload(0x40)\n      tag_13\n      swap2\n      swap1\n      tag_14\n      jump\t// in\n    tag_13:\n      mload(0x40)\n      dup1\n      swap2\n      sub\n      swap1\n      return\n        /* \"contracts/tipos.sol\":79:108  int152 public inteiro = 78473 */\n    tag_5:\n      tag_15\n      tag_16\n      jump\t// in\n    tag_15:\n      mload(0x40)\n      tag_17\n      swap2\n      swap1\n      tag_18\n      jump\t// in\n    tag_17:\n      mload(0x40)\n      dup1\n      swap2\n      sub\n      swap1\n      return\n        /* \"contracts/tipos.sol\":152:185  bytes2 public valorbytes = 0x34f4 */\n    tag_6:\n      tag_19\n      tag_20\n      jump\t// in\n    tag_19:\n      mload(0x40)\n      tag_21\n      swap2\n      swap1\n      tag_22\n      jump\t// in\n    tag_21:\n      mload(0x40)\n      dup1\n      swap2\n      sub\n      swap1\n      return\n        /* \"contracts/tipos.sol\":192:228  bytes3 public valorbytes3 = 0x877653 */\n    tag_8:\n      0x02\n      dup1\n      sload\n      swap1\n      0x0100\n      exp\n      swap1\n      div\n      0xe8\n      shl\n      dup2\n      jump\t// out\n        /* \"contracts/tipos.sol\":115:145  uint248 public unintzeiro = 10 */\n    tag_12:\n      0x01\n      0x00\n      swap1\n      sload\n      swap1\n      0x0100\n      exp\n      swap1\n      div\n      0xffffffffffffffffffffffffffffffffffffffffffffffffffffffffffffff\n      and\n      dup2\n      jump\t// out\n        /* \"contracts/tipos.sol\":79:108  int152 public inteiro = 78473 */\n    tag_16:\n      0x00\n      dup1\n      sload\n      swap1\n      0x0100\n      exp\n      swap1\n      div\n      0x12\n      signextend\n      dup2\n      jump\t// out\n        /* \"contracts/tipos.sol\":152:185  bytes2 public valorbytes = 0x34f4 */\n    tag_20:\n      0x02\n      0x00\n      swap1\n      sload\n      swap1\n      0x0100\n      exp\n      swap1\n      div\n      0xf0\n      shl\n      dup2\n      jump\t// out\n        /* \"#utility.yul\":7:122   */\n    tag_24:\n        /* \"#utility.yul\":92:115   */\n      tag_26\n        /* \"#utility.yul\":109:114   */\n      dup2\n        /* \"#utility.yul\":92:115   */\n      tag_27\n      jump\t// in\n    tag_26:\n        /* \"#utility.yul\":87:90   */\n      dup3\n        /* \"#utility.yul\":80:116   */\n      mstore\n        /* \"#utility.yul\":7:122   */\n      pop\n      pop\n      jump\t// out\n        /* \"#utility.yul\":128:243   */\n    tag_28:\n        /* \"#utility.yul\":213:236   */\n      tag_30\n        /* \"#utility.yul\":230:235   */\n      dup2\n        /* \"#utility.yul\":213:236   */\n      tag_31\n      jump\t// in\n    tag_30:\n        /* \"#utility.yul\":208:211   */\n      dup3\n        /* \"#utility.yul\":201:237   */\n      mstore\n        /* \"#utility.yul\":128:243   */\n      pop\n      pop\n      jump\t// out\n        /* \"#utility.yul\":249:364   */\n    tag_32:\n        /* \"#utility.yul\":334:357   */\n      tag_34\n        /* \"#utility.yul\":351:356   */\n      dup2\n        /* \"#utility.yul\":334:357   */\n      tag_35\n      jump\t// in\n    tag_34:\n        /* \"#utility.yul\":329:332   */\n      dup3\n        /* \"#utility.yul\":322:358   */\n      mstore\n        /* \"#utility.yul\":249:364   */\n      pop\n      pop\n      jump\t// out\n        /* \"#utility.yul\":370:488   */\n    tag_36:\n        /* \"#utility.yul\":457:481   */\n      tag_38\n        /* \"#utility.yul\":475:480   */\n      dup2\n        /* \"#utility.yul\":457:481   */\n      tag_39\n      jump\t// in\n    tag_38:\n        /* \"#utility.yul\":452:455   */\n      dup3\n        /* \"#utility.yul\":445:482   */\n      mstore\n        /* \"#utility.yul\":370:488   */\n      pop\n      pop\n      jump\t// out\n        /* \"#utility.yul\":494:712   */\n    tag_22:\n        /* \"#utility.yul\":585:589   */\n      0x00\n        /* \"#utility.yul\":623:625   */\n      0x20\n        /* \"#utility.yul\":612:621   */\n      dup3\n        /* \"#utility.yul\":608:626   */\n      add\n        /* \"#utility.yul\":600:626   */\n      swap1\n      pop\n        /* \"#utility.yul\":636:705   */\n      tag_41\n        /* \"#utility.yul\":702:703   */\n      0x00\n        /* \"#utility.yul\":691:700   */\n      dup4\n        /* \"#utility.yul\":687:704   */\n      add\n        /* \"#utility.yul\":678:684   */\n      dup5\n        /* \"#utility.yul\":636:705   */\n      tag_24\n      jump\t// in\n    tag_41:\n        /* \"#utility.yul\":494:712   */\n      swap3\n      swap2\n      pop\n      pop\n      jump\t// out\n        /* \"#utility.yul\":718:936   */\n    tag_10:\n        /* \"#utility.yul\":809:813   */\n      0x00\n        /* \"#utility.yul\":847:849   */\n      0x20\n        /* \"#utility.yul\":836:845   */\n      dup3\n        /* \"#utility.yul\":832:850   */\n      add\n        /* \"#utility.yul\":824:850   */\n      swap1\n      pop\n        /* \"#utility.yul\":860:929   */\n      tag_43\n        /* \"#utility.yul\":926:927   */\n      0x00\n        /* \"#utility.yul\":915:924   */\n      dup4\n        /* \"#utility.yul\":911:928   */\n      add\n        /* \"#utility.yul\":902:908   */\n      dup5\n        /* \"#utility.yul\":860:929   */\n      tag_28\n      jump\t// in\n    tag_43:\n        /* \"#utility.yul\":718:936   */\n      swap3\n      swap2\n      pop\n      pop\n      jump\t// out\n        /* \"#utility.yul\":942:1160   */\n    tag_18:\n        /* \"#utility.yul\":1033:1037   */\n      0x00\n        /* \"#utility.yul\":1071:1073   */\n      0x20\n        /* \"#utility.yul\":1060:1069   */\n      dup3\n        /* \"#utility.yul\":1056:1074   */\n      add\n        /* \"#utility.yul\":1048:1074   */\n      swap1\n      pop\n        /* \"#utility.yul\":1084:1153   */\n      tag_45\n        /* \"#utility.yul\":1150:1151   */\n      0x00\n        /* \"#utility.yul\":1139:1148   */\n      dup4\n        /* \"#utility.yul\":1135:1152   */\n      add\n        /* \"#utility.yul\":1126:1132   */\n      dup5\n        /* \"#utility.yul\":1084:1153   */\n      tag_32\n      jump\t// in\n    tag_45:\n        /* \"#utility.yul\":942:1160   */\n      swap3\n      swap2\n      pop\n      pop\n      jump\t// out\n        /* \"#utility.yul\":1166:1388   */\n    tag_14:\n        /* \"#utility.yul\":1259:1263   */\n      0x00\n        /* \"#utility.yul\":1297:1299   */\n      0x20\n        /* \"#utility.yul\":1286:1295   */\n      dup3\n        /* \"#utility.yul\":1282:1300   */\n      add\n        /* \"#utility.yul\":1274:1300   */\n      swap1\n      pop\n        /* \"#utility.yul\":1310:1381   */\n      tag_47\n        /* \"#utility.yul\":1378:1379   */\n      0x00\n        /* \"#utility.yul\":1367:1376   */\n      dup4\n        /* \"#utility.yul\":1363:1380   */\n      add\n        /* \"#utility.yul\":1354:1360   */\n      dup5\n        /* \"#utility.yul\":1310:1381   */\n      tag_36\n      jump\t// in\n    tag_47:\n        /* \"#utility.yul\":1166:1388   */\n      swap3\n      swap2\n      pop\n      pop\n      jump\t// out\n        /* \"#utility.yul\":1394:1543   */\n    tag_27:\n        /* \"#utility.yul\":1430:1437   */\n      0x00\n        /* \"#utility.yul\":1470:1536   */\n      0xffff000000000000000000000000000000000000000000000000000000000000\n        /* \"#utility.yul\":1463:1468   */\n      dup3\n        /* \"#utility.yul\":1459:1537   */\n      and\n        /* \"#utility.yul\":1448:1537   */\n      swap1\n      pop\n        /* \"#utility.yul\":1394:1543   */\n      swap2\n      swap1\n      pop\n      jump\t// out\n        /* \"#utility.yul\":1549:1698   */\n    tag_31:\n        /* \"#utility.yul\":1585:1592   */\n      0x00\n        /* \"#utility.yul\":1625:1691   */\n      0xffffff0000000000000000000000000000000000000000000000000000000000\n        /* \"#utility.yul\":1618:1623   */\n      dup3\n        /* \"#utility.yul\":1614:1692   */\n      and\n        /* \"#utility.yul\":1603:1692   */\n      swap1\n      pop\n        /* \"#utility.yul\":1549:1698   */\n      swap2\n      swap1\n      pop\n      jump\t// out\n        /* \"#utility.yul\":1704:1796   */\n    tag_35:\n        /* \"#utility.yul\":1740:1747   */\n      0x00\n        /* \"#utility.yul\":1784:1789   */\n      dup2\n        /* \"#utility.yul\":1780:1782   */\n      0x12\n        /* \"#utility.yul\":1769:1790   */\n      signextend\n        /* \"#utility.yul\":1758:1790   */\n      swap1\n      pop\n        /* \"#utility.yul\":1704:1796   */\n      swap2\n      swap1\n      pop\n      jump\t// out\n        /* \"#utility.yul\":1802:1950   */\n    tag_39:\n        /* \"#utility.yul\":1839:1846   */\n      0x00\n        /* \"#utility.yul\":1879:1943   */\n      0xffffffffffffffffffffffffffffffffffffffffffffffffffffffffffffff\n        /* \"#utility.yul\":1872:1877   */\n      dup3\n        /* \"#utility.yul\":1868:1944   */\n      and\n        /* \"#utility.yul\":1857:1944   */\n      swap1\n      pop\n        /* \"#utility.yul\":1802:1950   */\n      swap2\n      swap1\n      pop\n      jump\t// out\n\n    auxdata: 0xa264697066735822122083ff6e950694d9923df1485b77b243a6a4631886c6a6377007f99cbc0315711364736f6c63430008070033\n}\n",
				"bytecode": {
					"linkReferences": {},
					"object": "6080604052620132896000806101000a81548172ffffffffffffffffffffffffffffffffffffff021916908360120b72ffffffffffffffffffffffffffffffffffffff160217905550600a600160006101000a8154817effffffffffffffffffffffffffffffffffffffffffffffffffffffffffffff02191690837effffffffffffffffffffffffffffffffffffffffffffffffffffffffffffff1602179055506134f460f01b600260006101000a81548161ffff021916908360f01c02179055506287765360e81b6002806101000a81548162ffffff021916908360e81c02179055503480156100ef57600080fd5b5061029d806100ff6000396000f3fe608060405234801561001057600080fd5b506004361061004c5760003560e01c80631957a20114610051578063ae45e45d1461006f578063b624cb541461008d578063f5688131146100ab575b600080fd5b6100596100c9565b6040516100669190610186565b60405180910390f35b6100776100da565b60405161008491906101bc565b60405180910390f35b61009561010b565b6040516100a291906101a1565b60405180910390f35b6100b361011c565b6040516100c0919061016b565b60405180910390f35b60028054906101000a900460e81b81565b600160009054906101000a90047effffffffffffffffffffffffffffffffffffffffffffffffffffffffffffff1681565b60008054906101000a900460120b81565b600260009054906101000a900460f01b81565b610138816101d7565b82525050565b61014781610203565b82525050565b6101568161022f565b82525050565b6101658161023c565b82525050565b6000602082019050610180600083018461012f565b92915050565b600060208201905061019b600083018461013e565b92915050565b60006020820190506101b6600083018461014d565b92915050565b60006020820190506101d1600083018461015c565b92915050565b60007fffff00000000000000000000000000000000000000000000000000000000000082169050919050565b60007fffffff000000000000000000000000000000000000000000000000000000000082169050919050565b60008160120b9050919050565b60007effffffffffffffffffffffffffffffffffffffffffffffffffffffffffffff8216905091905056fea264697066735822122083ff6e950694d9923df1485b77b243a6a4631886c6a6377007f99cbc0315711364736f6c63430008070033",
					"opcodes": "PUSH1 0x80 PUSH1 0x40 MSTORE PUSH3 0x13289 PUSH1 0x0 DUP1 PUSH2 0x100 EXP DUP2 SLOAD DUP2 PUSH19 0xFFFFFFFFFFFFFFFFFFFFFFFFFFFFFFFFFFFFFF MUL NOT AND SWAP1 DUP4 PUSH1 0x12 SIGNEXTEND PUSH19 0xFFFFFFFFFFFFFFFFFFFFFFFFFFFFFFFFFFFFFF AND MUL OR SWAP1 SSTORE POP PUSH1 0xA PUSH1 0x1 PUSH1 0x0 PUSH2 0x100 EXP DUP2 SLOAD DUP2 PUSH31 0xFFFFFFFFFFFFFFFFFFFFFFFFFFFFFFFFFFFFFFFFFFFFFFFFFFFFFFFFFFFFFF MUL NOT AND SWAP1 DUP4 PUSH31 0xFFFFFFFFFFFFFFFFFFFFFFFFFFFFFFFFFFFFFFFFFFFFFFFFFFFFFFFFFFFFFF AND MUL OR SWAP1 SSTORE POP PUSH2 0x34F4 PUSH1 0xF0 SHL PUSH1 0x2 PUSH1 0x0 PUSH2 0x100 EXP DUP2 SLOAD DUP2 PUSH2 0xFFFF MUL NOT AND SWAP1 DUP4 PUSH1 0xF0 SHR MUL OR SWAP1 SSTORE POP PUSH3 0x877653 PUSH1 0xE8 SHL PUSH1 0x2 DUP1 PUSH2 0x100 EXP DUP2 SLOAD DUP2 PUSH3 0xFFFFFF MUL NOT AND SWAP1 DUP4 PUSH1 0xE8 SHR MUL OR SWAP1 SSTORE POP CALLVALUE DUP1 ISZERO PUSH2 0xEF JUMPI PUSH1 0x0 DUP1 REVERT JUMPDEST POP PUSH2 0x29D DUP1 PUSH2 0xFF PUSH1 0x0 CODECOPY PUSH1 0x0 RETURN INVALID PUSH1 0x80 PUSH1 0x40 MSTORE CALLVALUE DUP1 ISZERO PUSH2 0x10 JUMPI PUSH1 0x0 DUP1 REVERT JUMPDEST POP PUSH1 0x4 CALLDATASIZE LT PUSH2 0x4C JUMPI PUSH1 0x0 CALLDATALOAD PUSH1 0xE0 SHR DUP1 PUSH4 0x1957A201 EQ PUSH2 0x51 JUMPI DUP1 PUSH4 0xAE45E45D EQ PUSH2 0x6F JUMPI DUP1 PUSH4 0xB624CB54 EQ PUSH2 0x8D JUMPI DUP1 PUSH4 0xF5688131 EQ PUSH2 0xAB JUMPI JUMPDEST PUSH1 0x0 DUP1 REVERT JUMPDEST PUSH2 0x59 PUSH2 0xC9 JUMP JUMPDEST PUSH1 0x40 MLOAD PUSH2 0x66 SWAP2 SWAP1 PUSH2 0x186 JUMP JUMPDEST PUSH1 0x40 MLOAD DUP1 SWAP2 SUB SWAP1 RETURN JUMPDEST PUSH2 0x77 PUSH2 0xDA JUMP JUMPDEST PUSH1 0x40 MLOAD PUSH2 0x84 SWAP2 SWAP1 PUSH2 0x1BC JUMP JUMPDEST PUSH1 0x40 MLOAD DUP1 SWAP2 SUB SWAP1 RETURN JUMPDEST PUSH2 0x95 PUSH2 0x10B JUMP JUMPDEST PUSH1 0x40 MLOAD PUSH2 0xA2 SWAP2 SWAP1 PUSH2 0x1A1 JUMP JUMPDEST PUSH1 0x40 MLOAD DUP1 SWAP2 SUB SWAP1 RETURN JUMPDEST PUSH2 0xB3 PUSH2 0x11C JUMP JUMPDEST PUSH1 0x40 MLOAD PUSH2 0xC0 SWAP2 SWAP1 PUSH2 0x16B JUMP JUMPDEST PUSH1 0x40 MLOAD DUP1 SWAP2 SUB SWAP1 RETURN JUMPDEST PUSH1 0x2 DUP1 SLOAD SWAP1 PUSH2 0x100 EXP SWAP1 DIV PUSH1 0xE8 SHL DUP2 JUMP JUMPDEST PUSH1 0x1 PUSH1 0x0 SWAP1 SLOAD SWAP1 PUSH2 0x100 EXP SWAP1 DIV PUSH31 0xFFFFFFFFFFFFFFFFFFFFFFFFFFFFFFFFFFFFFFFFFFFFFFFFFFFFFFFFFFFFFF AND DUP2 JUMP JUMPDEST PUSH1 0x0 DUP1 SLOAD SWAP1 PUSH2 0x100 EXP SWAP1 DIV PUSH1 0x12 SIGNEXTEND DUP2 JUMP JUMPDEST PUSH1 0x2 PUSH1 0x0 SWAP1 SLOAD SWAP1 PUSH2 0x100 EXP SWAP1 DIV PUSH1 0xF0 SHL DUP2 JUMP JUMPDEST PUSH2 0x138 DUP2 PUSH2 0x1D7 JUMP JUMPDEST DUP3 MSTORE POP POP JUMP JUMPDEST PUSH2 0x147 DUP2 PUSH2 0x203 JUMP JUMPDEST DUP3 MSTORE POP POP JUMP JUMPDEST PUSH2 0x156 DUP2 PUSH2 0x22F JUMP JUMPDEST DUP3 MSTORE POP POP JUMP JUMPDEST PUSH2 0x165 DUP2 PUSH2 0x23C JUMP JUMPDEST DUP3 MSTORE POP POP JUMP JUMPDEST PUSH1 0x0 PUSH1 0x20 DUP3 ADD SWAP1 POP PUSH2 0x180 PUSH1 0x0 DUP4 ADD DUP5 PUSH2 0x12F JUMP JUMPDEST SWAP3 SWAP2 POP POP JUMP JUMPDEST PUSH1 0x0 PUSH1 0x20 DUP3 ADD SWAP1 POP PUSH2 0x19B PUSH1 0x0 DUP4 ADD DUP5 PUSH2 0x13E JUMP JUMPDEST SWAP3 SWAP2 POP POP JUMP JUMPDEST PUSH1 0x0 PUSH1 0x20 DUP3 ADD SWAP1 POP PUSH2 0x1B6 PUSH1 0x0 DUP4 ADD DUP5 PUSH2 0x14D JUMP JUMPDEST SWAP3 SWAP2 POP POP JUMP JUMPDEST PUSH1 0x0 PUSH1 0x20 DUP3 ADD SWAP1 POP PUSH2 0x1D1 PUSH1 0x0 DUP4 ADD DUP5 PUSH2 0x15C JUMP JUMPDEST SWAP3 SWAP2 POP POP JUMP JUMPDEST PUSH1 0x0 PUSH32 0xFFFF000000000000000000000000000000000000000000000000000000000000 DUP3 AND SWAP1 POP SWAP2 SWAP1 POP JUMP JUMPDEST PUSH1 0x0 PUSH32 0xFFFFFF0000000000000000000000000000000000000000000000000000000000 DUP3 AND SWAP1 POP SWAP2 SWAP1 POP JUMP JUMPDEST PUSH1 0x0 DUP2 PUSH1 0x12 SIGNEXTEND SWAP1 POP SWAP2 SWAP1 POP JUMP JUMPDEST PUSH1 0x0 PUSH31 0xFFFFFFFFFFFFFFFFFFFFFFFFFFFFFFFFFFFFFFFFFFFFFFFFFFFFFFFFFFFFFF DUP3 AND SWAP1 POP SWAP2 SWAP1 POP JUMP INVALID LOG2 PUSH5 0x6970667358 0x22 SLT KECCAK256 DUP4 SELFDESTRUCT PUSH15 0x950694D9923DF1485B77B243A6A463 XOR DUP7 0xC6 0xA6 CALLDATACOPY PUSH17 0x7F99CBC0315711364736F6C6343000807 STOP CALLER "
				},
				"gasEstimates": {
					"creation": {
						"codeDepositCost": "133800",
						"executionCost": "97315",
						"totalCost": "231115"
					},
					"external": {
						"inteiro()": "2494",
						"unintzeiro()": "2471",
						"valorbytes()": "2515",
						"valorbytes3()": "2496"
					}
				},
				"methodIdentifiers": {
					"inteiro()": "b624cb54",
					"unintzeiro()": "ae45e45d",
					"valorbytes()": "f5688131",
					"valorbytes3()": "1957a201"
				}
			},
			"storageLayout": {
				"storage": [
					{
						"astId": 4,
						"contract": "contracts/tipos.sol:Tipos",
						"label": "inteiro",
						"offset": 0,
						"slot": "0",
						"type": "t_int152"
					},
					{
						"astId": 7,
						"contract": "contracts/tipos.sol:Tipos",
						"label": "unintzeiro",
						"offset": 0,
						"slot": "1",
						"type": "t_uint248"
					},
					{
						"astId": 10,
						"contract": "contracts/tipos.sol:Tipos",
						"label": "valorbytes",
						"offset": 0,
						"slot": "2",
						"type": "t_bytes2"
					},
					{
						"astId": 13,
						"contract": "contracts/tipos.sol:Tipos",
						"label": "valorbytes3",
						"offset": 2,
						"slot": "2",
						"type": "t_bytes3"
					}
				],
				"types": {
					"t_bytes2": {
						"encoding": "inplace",
						"label": "bytes2",
						"numberOfBytes": "2"
					},
					"t_bytes3": {
						"encoding": "inplace",
						"label": "bytes3",
						"numberOfBytes": "3"
					},
					"t_int152": {
						"encoding": "inplace",
						"label": "int152",
						"numberOfBytes": "19"
					},
					"t_uint248": {
						"encoding": "inplace",
						"label": "uint248",
						"numberOfBytes": "31"
					}
				}
			},
			"userdoc": {
				"kind": "user",
				"methods": {},
				"version": 1
			}
		}
	}
}