{
	"contracts/Vote2.sol": {
		"Vote2": {
			"abi": [
				{
					"inputs": [
						{
							"internalType": "address",
							"name": "",
							"type": "address"
						}
					],
					"name": "dataUser",
					"outputs": [
						{
							"internalType": "address",
							"name": "delegate",
							"type": "address"
						},
						{
							"internalType": "string",
							"name": "vote",
							"type": "string"
						},
						{
							"internalType": "uint16",
							"name": "age",
							"type": "uint16"
						},
						{
							"internalType": "bool",
							"name": "isMarried",
							"type": "bool"
						},
						{
							"internalType": "uint256",
							"name": "balance",
							"type": "uint256"
						}
					],
					"stateMutability": "view",
					"type": "function"
				},
				{
					"inputs": [],
					"name": "owner",
					"outputs": [
						{
							"internalType": "address",
							"name": "",
							"type": "address"
						}
					],
					"stateMutability": "view",
					"type": "function"
				}
			],
			"devdoc": {
				"kind": "dev",
				"methods": {},
				"version": 1
			},
			"evm": {
				"assembly": "    /* \"contracts/Vote2.sol\":58:291  contract Vote2{\r... */\n  mstore(0x40, 0x80)\n  callvalue\n  dup1\n  iszero\n  tag_1\n  jumpi\n  0x00\n  dup1\n  revert\ntag_1:\n  pop\n  dataSize(sub_0)\n  dup1\n  dataOffset(sub_0)\n  0x00\n  codecopy\n  0x00\n  return\nstop\n\nsub_0: assembly {\n        /* \"contracts/Vote2.sol\":58:291  contract Vote2{\r... */\n      mstore(0x40, 0x80)\n      callvalue\n      dup1\n      iszero\n      tag_1\n      jumpi\n      0x00\n      dup1\n      revert\n    tag_1:\n      pop\n      jumpi(tag_2, lt(calldatasize, 0x04))\n      shr(0xe0, calldataload(0x00))\n      dup1\n      0x565bfed4\n      eq\n      tag_3\n      jumpi\n      dup1\n      0x8da5cb5b\n      eq\n      tag_4\n      jumpi\n    tag_2:\n      0x00\n      dup1\n      revert\n        /* \"contracts/Vote2.sol\":239:280  mapping(address => Voter) public dataUser */\n    tag_3:\n      tag_5\n      0x04\n      dup1\n      calldatasize\n      sub\n      dup2\n      add\n      swap1\n      tag_6\n      swap2\n      swap1\n      tag_7\n      jump\t// in\n    tag_6:\n      tag_8\n      jump\t// in\n    tag_5:\n      mload(0x40)\n      tag_9\n      swap6\n      swap5\n      swap4\n      swap3\n      swap2\n      swap1\n      tag_10\n      jump\t// in\n    tag_9:\n      mload(0x40)\n      dup1\n      swap2\n      sub\n      swap1\n      return\n        /* \"contracts/Vote2.sol\":75:95  address public owner */\n    tag_4:\n      tag_11\n      tag_12\n      jump\t// in\n    tag_11:\n      mload(0x40)\n      tag_13\n      swap2\n      swap1\n      tag_14\n      jump\t// in\n    tag_13:\n      mload(0x40)\n      dup1\n      swap2\n      sub\n      swap1\n      return\n        /* \"contracts/Vote2.sol\":239:280  mapping(address => Voter) public dataUser */\n    tag_8:\n      mstore(0x20, 0x01)\n      dup1\n      0x00\n      mstore\n      keccak256(0x00, 0x40)\n      0x00\n      swap2\n      pop\n      swap1\n      pop\n      dup1\n      0x00\n      add\n      0x00\n      swap1\n      sload\n      swap1\n      0x0100\n      exp\n      swap1\n      div\n      0xffffffffffffffffffffffffffffffffffffffff\n      and\n      swap1\n      dup1\n      0x01\n      add\n      dup1\n      sload\n      tag_15\n      swap1\n      tag_16\n      jump\t// in\n    tag_15:\n      dup1\n      0x1f\n      add\n      0x20\n      dup1\n      swap2\n      div\n      mul\n      0x20\n      add\n      mload(0x40)\n      swap1\n      dup2\n      add\n      0x40\n      mstore\n      dup1\n      swap3\n      swap2\n      swap1\n      dup2\n      dup2\n      mstore\n      0x20\n      add\n      dup3\n      dup1\n      sload\n      tag_17\n      swap1\n      tag_16\n      jump\t// in\n    tag_17:\n      dup1\n      iszero\n      tag_18\n      jumpi\n      dup1\n      0x1f\n      lt\n      tag_19\n      jumpi\n      0x0100\n      dup1\n      dup4\n      sload\n      div\n      mul\n      dup4\n      mstore\n      swap2\n      0x20\n      add\n      swap2\n      jump(tag_18)\n    tag_19:\n      dup3\n      add\n      swap2\n      swap1\n      0x00\n      mstore\n      keccak256(0x00, 0x20)\n      swap1\n    tag_20:\n      dup2\n      sload\n      dup2\n      mstore\n      swap1\n      0x01\n      add\n      swap1\n      0x20\n      add\n      dup1\n      dup4\n      gt\n      tag_20\n      jumpi\n      dup3\n      swap1\n      sub\n      0x1f\n      and\n      dup3\n      add\n      swap2\n    tag_18:\n      pop\n      pop\n      pop\n      pop\n      pop\n      swap1\n      dup1\n      0x02\n      add\n      0x00\n      swap1\n      sload\n      swap1\n      0x0100\n      exp\n      swap1\n      div\n      0xffff\n      and\n      swap1\n      dup1\n      0x02\n      add\n      0x02\n      swap1\n      sload\n      swap1\n      0x0100\n      exp\n      swap1\n      div\n      0xff\n      and\n      swap1\n      dup1\n      0x03\n      add\n      sload\n      swap1\n      pop\n      dup6\n      jump\t// out\n        /* \"contracts/Vote2.sol\":75:95  address public owner */\n    tag_12:\n      0x00\n      dup1\n      sload\n      swap1\n      0x0100\n      exp\n      swap1\n      div\n      0xffffffffffffffffffffffffffffffffffffffff\n      and\n      dup2\n      jump\t// out\n        /* \"#utility.yul\":7:146   */\n    tag_22:\n        /* \"#utility.yul\":53:58   */\n      0x00\n        /* \"#utility.yul\":91:97   */\n      dup2\n        /* \"#utility.yul\":78:98   */\n      calldataload\n        /* \"#utility.yul\":69:98   */\n      swap1\n      pop\n        /* \"#utility.yul\":107:140   */\n      tag_24\n        /* \"#utility.yul\":134:139   */\n      dup2\n        /* \"#utility.yul\":107:140   */\n      tag_25\n      jump\t// in\n    tag_24:\n        /* \"#utility.yul\":7:146   */\n      swap3\n      swap2\n      pop\n      pop\n      jump\t// out\n        /* \"#utility.yul\":152:481   */\n    tag_7:\n        /* \"#utility.yul\":211:217   */\n      0x00\n        /* \"#utility.yul\":260:262   */\n      0x20\n        /* \"#utility.yul\":248:257   */\n      dup3\n        /* \"#utility.yul\":239:246   */\n      dup5\n        /* \"#utility.yul\":235:258   */\n      sub\n        /* \"#utility.yul\":231:263   */\n      slt\n        /* \"#utility.yul\":228:347   */\n      iszero\n      tag_27\n      jumpi\n        /* \"#utility.yul\":266:345   */\n      tag_28\n      tag_29\n      jump\t// in\n    tag_28:\n        /* \"#utility.yul\":228:347   */\n    tag_27:\n        /* \"#utility.yul\":386:387   */\n      0x00\n        /* \"#utility.yul\":411:464   */\n      tag_30\n        /* \"#utility.yul\":456:463   */\n      dup5\n        /* \"#utility.yul\":447:453   */\n      dup3\n        /* \"#utility.yul\":436:445   */\n      dup6\n        /* \"#utility.yul\":432:454   */\n      add\n        /* \"#utility.yul\":411:464   */\n      tag_22\n      jump\t// in\n    tag_30:\n        /* \"#utility.yul\":401:464   */\n      swap2\n      pop\n        /* \"#utility.yul\":357:474   */\n      pop\n        /* \"#utility.yul\":152:481   */\n      swap3\n      swap2\n      pop\n      pop\n      jump\t// out\n        /* \"#utility.yul\":487:605   */\n    tag_31:\n        /* \"#utility.yul\":574:598   */\n      tag_33\n        /* \"#utility.yul\":592:597   */\n      dup2\n        /* \"#utility.yul\":574:598   */\n      tag_34\n      jump\t// in\n    tag_33:\n        /* \"#utility.yul\":569:572   */\n      dup3\n        /* \"#utility.yul\":562:599   */\n      mstore\n        /* \"#utility.yul\":487:605   */\n      pop\n      pop\n      jump\t// out\n        /* \"#utility.yul\":611:720   */\n    tag_35:\n        /* \"#utility.yul\":692:713   */\n      tag_37\n        /* \"#utility.yul\":707:712   */\n      dup2\n        /* \"#utility.yul\":692:713   */\n      tag_38\n      jump\t// in\n    tag_37:\n        /* \"#utility.yul\":687:690   */\n      dup3\n        /* \"#utility.yul\":680:714   */\n      mstore\n        /* \"#utility.yul\":611:720   */\n      pop\n      pop\n      jump\t// out\n        /* \"#utility.yul\":726:1090   */\n    tag_39:\n        /* \"#utility.yul\":814:817   */\n      0x00\n        /* \"#utility.yul\":842:881   */\n      tag_41\n        /* \"#utility.yul\":875:880   */\n      dup3\n        /* \"#utility.yul\":842:881   */\n      tag_42\n      jump\t// in\n    tag_41:\n        /* \"#utility.yul\":897:968   */\n      tag_43\n        /* \"#utility.yul\":961:967   */\n      dup2\n        /* \"#utility.yul\":956:959   */\n      dup6\n        /* \"#utility.yul\":897:968   */\n      tag_44\n      jump\t// in\n    tag_43:\n        /* \"#utility.yul\":890:968   */\n      swap4\n      pop\n        /* \"#utility.yul\":977:1029   */\n      tag_45\n        /* \"#utility.yul\":1022:1028   */\n      dup2\n        /* \"#utility.yul\":1017:1020   */\n      dup6\n        /* \"#utility.yul\":1010:1014   */\n      0x20\n        /* \"#utility.yul\":1003:1008   */\n      dup7\n        /* \"#utility.yul\":999:1015   */\n      add\n        /* \"#utility.yul\":977:1029   */\n      tag_46\n      jump\t// in\n    tag_45:\n        /* \"#utility.yul\":1054:1083   */\n      tag_47\n        /* \"#utility.yul\":1076:1082   */\n      dup2\n        /* \"#utility.yul\":1054:1083   */\n      tag_48\n      jump\t// in\n    tag_47:\n        /* \"#utility.yul\":1049:1052   */\n      dup5\n        /* \"#utility.yul\":1045:1084   */\n      add\n        /* \"#utility.yul\":1038:1084   */\n      swap2\n      pop\n        /* \"#utility.yul\":818:1090   */\n      pop\n        /* \"#utility.yul\":726:1090   */\n      swap3\n      swap2\n      pop\n      pop\n      jump\t// out\n        /* \"#utility.yul\":1096:1211   */\n    tag_49:\n        /* \"#utility.yul\":1181:1204   */\n      tag_51\n        /* \"#utility.yul\":1198:1203   */\n      dup2\n        /* \"#utility.yul\":1181:1204   */\n      tag_52\n      jump\t// in\n    tag_51:\n        /* \"#utility.yul\":1176:1179   */\n      dup3\n        /* \"#utility.yul\":1169:1205   */\n      mstore\n        /* \"#utility.yul\":1096:1211   */\n      pop\n      pop\n      jump\t// out\n        /* \"#utility.yul\":1217:1335   */\n    tag_53:\n        /* \"#utility.yul\":1304:1328   */\n      tag_55\n        /* \"#utility.yul\":1322:1327   */\n      dup2\n        /* \"#utility.yul\":1304:1328   */\n      tag_56\n      jump\t// in\n    tag_55:\n        /* \"#utility.yul\":1299:1302   */\n      dup3\n        /* \"#utility.yul\":1292:1329   */\n      mstore\n        /* \"#utility.yul\":1217:1335   */\n      pop\n      pop\n      jump\t// out\n        /* \"#utility.yul\":1341:1563   */\n    tag_14:\n        /* \"#utility.yul\":1434:1438   */\n      0x00\n        /* \"#utility.yul\":1472:1474   */\n      0x20\n        /* \"#utility.yul\":1461:1470   */\n      dup3\n        /* \"#utility.yul\":1457:1475   */\n      add\n        /* \"#utility.yul\":1449:1475   */\n      swap1\n      pop\n        /* \"#utility.yul\":1485:1556   */\n      tag_58\n        /* \"#utility.yul\":1553:1554   */\n      0x00\n        /* \"#utility.yul\":1542:1551   */\n      dup4\n        /* \"#utility.yul\":1538:1555   */\n      add\n        /* \"#utility.yul\":1529:1535   */\n      dup5\n        /* \"#utility.yul\":1485:1556   */\n      tag_31\n      jump\t// in\n    tag_58:\n        /* \"#utility.yul\":1341:1563   */\n      swap3\n      swap2\n      pop\n      pop\n      jump\t// out\n        /* \"#utility.yul\":1569:2308   */\n    tag_10:\n        /* \"#utility.yul\":1786:1790   */\n      0x00\n        /* \"#utility.yul\":1824:1827   */\n      0xa0\n        /* \"#utility.yul\":1813:1822   */\n      dup3\n        /* \"#utility.yul\":1809:1828   */\n      add\n        /* \"#utility.yul\":1801:1828   */\n      swap1\n      pop\n        /* \"#utility.yul\":1838:1909   */\n      tag_60\n        /* \"#utility.yul\":1906:1907   */\n      0x00\n        /* \"#utility.yul\":1895:1904   */\n      dup4\n        /* \"#utility.yul\":1891:1908   */\n      add\n        /* \"#utility.yul\":1882:1888   */\n      dup9\n        /* \"#utility.yul\":1838:1909   */\n      tag_31\n      jump\t// in\n    tag_60:\n        /* \"#utility.yul\":1956:1965   */\n      dup2\n        /* \"#utility.yul\":1950:1954   */\n      dup2\n        /* \"#utility.yul\":1946:1966   */\n      sub\n        /* \"#utility.yul\":1941:1943   */\n      0x20\n        /* \"#utility.yul\":1930:1939   */\n      dup4\n        /* \"#utility.yul\":1926:1944   */\n      add\n        /* \"#utility.yul\":1919:1967   */\n      mstore\n        /* \"#utility.yul\":1984:2062   */\n      tag_61\n        /* \"#utility.yul\":2057:2061   */\n      dup2\n        /* \"#utility.yul\":2048:2054   */\n      dup8\n        /* \"#utility.yul\":1984:2062   */\n      tag_39\n      jump\t// in\n    tag_61:\n        /* \"#utility.yul\":1976:2062   */\n      swap1\n      pop\n        /* \"#utility.yul\":2072:2142   */\n      tag_62\n        /* \"#utility.yul\":2138:2140   */\n      0x40\n        /* \"#utility.yul\":2127:2136   */\n      dup4\n        /* \"#utility.yul\":2123:2141   */\n      add\n        /* \"#utility.yul\":2114:2120   */\n      dup7\n        /* \"#utility.yul\":2072:2142   */\n      tag_49\n      jump\t// in\n    tag_62:\n        /* \"#utility.yul\":2152:2218   */\n      tag_63\n        /* \"#utility.yul\":2214:2216   */\n      0x60\n        /* \"#utility.yul\":2203:2212   */\n      dup4\n        /* \"#utility.yul\":2199:2217   */\n      add\n        /* \"#utility.yul\":2190:2196   */\n      dup6\n        /* \"#utility.yul\":2152:2218   */\n      tag_35\n      jump\t// in\n    tag_63:\n        /* \"#utility.yul\":2228:2301   */\n      tag_64\n        /* \"#utility.yul\":2296:2299   */\n      0x80\n        /* \"#utility.yul\":2285:2294   */\n      dup4\n        /* \"#utility.yul\":2281:2300   */\n      add\n        /* \"#utility.yul\":2272:2278   */\n      dup5\n        /* \"#utility.yul\":2228:2301   */\n      tag_53\n      jump\t// in\n    tag_64:\n        /* \"#utility.yul\":1569:2308   */\n      swap7\n      swap6\n      pop\n      pop\n      pop\n      pop\n      pop\n      pop\n      jump\t// out\n        /* \"#utility.yul\":2395:2494   */\n    tag_42:\n        /* \"#utility.yul\":2447:2453   */\n      0x00\n        /* \"#utility.yul\":2481:2486   */\n      dup2\n        /* \"#utility.yul\":2475:2487   */\n      mload\n        /* \"#utility.yul\":2465:2487   */\n      swap1\n      pop\n        /* \"#utility.yul\":2395:2494   */\n      swap2\n      swap1\n      pop\n      jump\t// out\n        /* \"#utility.yul\":2500:2669   */\n    tag_44:\n        /* \"#utility.yul\":2584:2595   */\n      0x00\n        /* \"#utility.yul\":2618:2624   */\n      dup3\n        /* \"#utility.yul\":2613:2616   */\n      dup3\n        /* \"#utility.yul\":2606:2625   */\n      mstore\n        /* \"#utility.yul\":2658:2662   */\n      0x20\n        /* \"#utility.yul\":2653:2656   */\n      dup3\n        /* \"#utility.yul\":2649:2663   */\n      add\n        /* \"#utility.yul\":2634:2663   */\n      swap1\n      pop\n        /* \"#utility.yul\":2500:2669   */\n      swap3\n      swap2\n      pop\n      pop\n      jump\t// out\n        /* \"#utility.yul\":2675:2771   */\n    tag_34:\n        /* \"#utility.yul\":2712:2719   */\n      0x00\n        /* \"#utility.yul\":2741:2765   */\n      tag_70\n        /* \"#utility.yul\":2759:2764   */\n      dup3\n        /* \"#utility.yul\":2741:2765   */\n      tag_71\n      jump\t// in\n    tag_70:\n        /* \"#utility.yul\":2730:2765   */\n      swap1\n      pop\n        /* \"#utility.yul\":2675:2771   */\n      swap2\n      swap1\n      pop\n      jump\t// out\n        /* \"#utility.yul\":2777:2867   */\n    tag_38:\n        /* \"#utility.yul\":2811:2818   */\n      0x00\n        /* \"#utility.yul\":2854:2859   */\n      dup2\n        /* \"#utility.yul\":2847:2860   */\n      iszero\n        /* \"#utility.yul\":2840:2861   */\n      iszero\n        /* \"#utility.yul\":2829:2861   */\n      swap1\n      pop\n        /* \"#utility.yul\":2777:2867   */\n      swap2\n      swap1\n      pop\n      jump\t// out\n        /* \"#utility.yul\":2873:2962   */\n    tag_52:\n        /* \"#utility.yul\":2909:2916   */\n      0x00\n        /* \"#utility.yul\":2949:2955   */\n      0xffff\n        /* \"#utility.yul\":2942:2947   */\n      dup3\n        /* \"#utility.yul\":2938:2956   */\n      and\n        /* \"#utility.yul\":2927:2956   */\n      swap1\n      pop\n        /* \"#utility.yul\":2873:2962   */\n      swap2\n      swap1\n      pop\n      jump\t// out\n        /* \"#utility.yul\":2968:3094   */\n    tag_71:\n        /* \"#utility.yul\":3005:3012   */\n      0x00\n        /* \"#utility.yul\":3045:3087   */\n      0xffffffffffffffffffffffffffffffffffffffff\n        /* \"#utility.yul\":3038:3043   */\n      dup3\n        /* \"#utility.yul\":3034:3088   */\n      and\n        /* \"#utility.yul\":3023:3088   */\n      swap1\n      pop\n        /* \"#utility.yul\":2968:3094   */\n      swap2\n      swap1\n      pop\n      jump\t// out\n        /* \"#utility.yul\":3100:3177   */\n    tag_56:\n        /* \"#utility.yul\":3137:3144   */\n      0x00\n        /* \"#utility.yul\":3166:3171   */\n      dup2\n        /* \"#utility.yul\":3155:3171   */\n      swap1\n      pop\n        /* \"#utility.yul\":3100:3177   */\n      swap2\n      swap1\n      pop\n      jump\t// out\n        /* \"#utility.yul\":3183:3490   */\n    tag_46:\n        /* \"#utility.yul\":3251:3252   */\n      0x00\n        /* \"#utility.yul\":3261:3374   */\n    tag_77:\n        /* \"#utility.yul\":3275:3281   */\n      dup4\n        /* \"#utility.yul\":3272:3273   */\n      dup2\n        /* \"#utility.yul\":3269:3282   */\n      lt\n        /* \"#utility.yul\":3261:3374   */\n      iszero\n      tag_79\n      jumpi\n        /* \"#utility.yul\":3360:3361   */\n      dup1\n        /* \"#utility.yul\":3355:3358   */\n      dup3\n        /* \"#utility.yul\":3351:3362   */\n      add\n        /* \"#utility.yul\":3345:3363   */\n      mload\n        /* \"#utility.yul\":3341:3342   */\n      dup2\n        /* \"#utility.yul\":3336:3339   */\n      dup5\n        /* \"#utility.yul\":3332:3343   */\n      add\n        /* \"#utility.yul\":3325:3364   */\n      mstore\n        /* \"#utility.yul\":3297:3299   */\n      0x20\n        /* \"#utility.yul\":3294:3295   */\n      dup2\n        /* \"#utility.yul\":3290:3300   */\n      add\n        /* \"#utility.yul\":3285:3300   */\n      swap1\n      pop\n        /* \"#utility.yul\":3261:3374   */\n      jump(tag_77)\n    tag_79:\n        /* \"#utility.yul\":3392:3398   */\n      dup4\n        /* \"#utility.yul\":3389:3390   */\n      dup2\n        /* \"#utility.yul\":3386:3399   */\n      gt\n        /* \"#utility.yul\":3383:3484   */\n      iszero\n      tag_80\n      jumpi\n        /* \"#utility.yul\":3472:3473   */\n      0x00\n        /* \"#utility.yul\":3463:3469   */\n      dup5\n        /* \"#utility.yul\":3458:3461   */\n      dup5\n        /* \"#utility.yul\":3454:3470   */\n      add\n        /* \"#utility.yul\":3447:3474   */\n      mstore\n        /* \"#utility.yul\":3383:3484   */\n    tag_80:\n        /* \"#utility.yul\":3232:3490   */\n      pop\n        /* \"#utility.yul\":3183:3490   */\n      pop\n      pop\n      pop\n      jump\t// out\n        /* \"#utility.yul\":3496:3816   */\n    tag_16:\n        /* \"#utility.yul\":3540:3546   */\n      0x00\n        /* \"#utility.yul\":3577:3578   */\n      0x02\n        /* \"#utility.yul\":3571:3575   */\n      dup3\n        /* \"#utility.yul\":3567:3579   */\n      div\n        /* \"#utility.yul\":3557:3579   */\n      swap1\n      pop\n        /* \"#utility.yul\":3624:3625   */\n      0x01\n        /* \"#utility.yul\":3618:3622   */\n      dup3\n        /* \"#utility.yul\":3614:3626   */\n      and\n        /* \"#utility.yul\":3645:3663   */\n      dup1\n        /* \"#utility.yul\":3635:3716   */\n      tag_82\n      jumpi\n        /* \"#utility.yul\":3701:3705   */\n      0x7f\n        /* \"#utility.yul\":3693:3699   */\n      dup3\n        /* \"#utility.yul\":3689:3706   */\n      and\n        /* \"#utility.yul\":3679:3706   */\n      swap2\n      pop\n        /* \"#utility.yul\":3635:3716   */\n    tag_82:\n        /* \"#utility.yul\":3763:3765   */\n      0x20\n        /* \"#utility.yul\":3755:3761   */\n      dup3\n        /* \"#utility.yul\":3752:3766   */\n      lt\n        /* \"#utility.yul\":3732:3750   */\n      dup2\n        /* \"#utility.yul\":3729:3767   */\n      eq\n        /* \"#utility.yul\":3726:3810   */\n      iszero\n      tag_83\n      jumpi\n        /* \"#utility.yul\":3782:3800   */\n      tag_84\n      tag_85\n      jump\t// in\n    tag_84:\n        /* \"#utility.yul\":3726:3810   */\n    tag_83:\n        /* \"#utility.yul\":3547:3816   */\n      pop\n        /* \"#utility.yul\":3496:3816   */\n      swap2\n      swap1\n      pop\n      jump\t// out\n        /* \"#utility.yul\":3822:4002   */\n    tag_85:\n        /* \"#utility.yul\":3870:3947   */\n      0x4e487b7100000000000000000000000000000000000000000000000000000000\n        /* \"#utility.yul\":3867:3868   */\n      0x00\n        /* \"#utility.yul\":3860:3948   */\n      mstore\n        /* \"#utility.yul\":3967:3971   */\n      0x22\n        /* \"#utility.yul\":3964:3965   */\n      0x04\n        /* \"#utility.yul\":3957:3972   */\n      mstore\n        /* \"#utility.yul\":3991:3995   */\n      0x24\n        /* \"#utility.yul\":3988:3989   */\n      0x00\n        /* \"#utility.yul\":3981:3996   */\n      revert\n        /* \"#utility.yul\":4131:4248   */\n    tag_29:\n        /* \"#utility.yul\":4240:4241   */\n      0x00\n        /* \"#utility.yul\":4237:4238   */\n      dup1\n        /* \"#utility.yul\":4230:4242   */\n      revert\n        /* \"#utility.yul\":4254:4356   */\n    tag_48:\n        /* \"#utility.yul\":4295:4301   */\n      0x00\n        /* \"#utility.yul\":4346:4348   */\n      0x1f\n        /* \"#utility.yul\":4342:4349   */\n      not\n        /* \"#utility.yul\":4337:4339   */\n      0x1f\n        /* \"#utility.yul\":4330:4335   */\n      dup4\n        /* \"#utility.yul\":4326:4340   */\n      add\n        /* \"#utility.yul\":4322:4350   */\n      and\n        /* \"#utility.yul\":4312:4350   */\n      swap1\n      pop\n        /* \"#utility.yul\":4254:4356   */\n      swap2\n      swap1\n      pop\n      jump\t// out\n        /* \"#utility.yul\":4362:4484   */\n    tag_25:\n        /* \"#utility.yul\":4435:4459   */\n      tag_92\n        /* \"#utility.yul\":4453:4458   */\n      dup2\n        /* \"#utility.yul\":4435:4459   */\n      tag_34\n      jump\t// in\n    tag_92:\n        /* \"#utility.yul\":4428:4433   */\n      dup2\n        /* \"#utility.yul\":4425:4460   */\n      eq\n        /* \"#utility.yul\":4415:4478   */\n      tag_93\n      jumpi\n        /* \"#utility.yul\":4474:4475   */\n      0x00\n        /* \"#utility.yul\":4471:4472   */\n      dup1\n        /* \"#utility.yul\":4464:4476   */\n      revert\n        /* \"#utility.yul\":4415:4478   */\n    tag_93:\n        /* \"#utility.yul\":4362:4484   */\n      pop\n      jump\t// out\n\n    auxdata: 0xa2646970667358221220e8e410a3e1926e10d19524ef28189dcffa15db331aa3c8400d1dc0c3511d06c364736f6c63430008070033\n}\n",
				"bytecode": {
					"linkReferences": {},
					"object": "608060405234801561001057600080fd5b5061043f806100206000396000f3fe608060405234801561001057600080fd5b50600436106100365760003560e01c8063565bfed41461003b5780638da5cb5b1461006f575b600080fd5b610055600480360381019061005091906101bf565b61008d565b60405161006695949392919061027c565b60405180910390f35b610077610186565b6040516100849190610261565b60405180910390f35b60016020528060005260406000206000915090508060000160009054906101000a900473ffffffffffffffffffffffffffffffffffffffff16908060010180546100d69061037b565b80601f01602080910402602001604051908101604052809291908181526020018280546101029061037b565b801561014f5780601f106101245761010080835404028352916020019161014f565b820191906000526020600020905b81548152906001019060200180831161013257829003601f168201915b5050505050908060020160009054906101000a900461ffff16908060020160029054906101000a900460ff16908060030154905085565b60008054906101000a900473ffffffffffffffffffffffffffffffffffffffff1681565b6000813590506101b9816103f2565b92915050565b6000602082840312156101d5576101d46103dc565b5b60006101e3848285016101aa565b91505092915050565b6101f5816102f2565b82525050565b61020481610304565b82525050565b6000610215826102d6565b61021f81856102e1565b935061022f818560208601610348565b610238816103e1565b840191505092915050565b61024c81610310565b82525050565b61025b8161033e565b82525050565b600060208201905061027660008301846101ec565b92915050565b600060a08201905061029160008301886101ec565b81810360208301526102a3818761020a565b90506102b26040830186610243565b6102bf60608301856101fb565b6102cc6080830184610252565b9695505050505050565b600081519050919050565b600082825260208201905092915050565b60006102fd8261031e565b9050919050565b60008115159050919050565b600061ffff82169050919050565b600073ffffffffffffffffffffffffffffffffffffffff82169050919050565b6000819050919050565b60005b8381101561036657808201518184015260208101905061034b565b83811115610375576000848401525b50505050565b6000600282049050600182168061039357607f821691505b602082108114156103a7576103a66103ad565b5b50919050565b7f4e487b7100000000000000000000000000000000000000000000000000000000600052602260045260246000fd5b600080fd5b6000601f19601f8301169050919050565b6103fb816102f2565b811461040657600080fd5b5056fea2646970667358221220e8e410a3e1926e10d19524ef28189dcffa15db331aa3c8400d1dc0c3511d06c364736f6c63430008070033",
					"opcodes": "PUSH1 0x80 PUSH1 0x40 MSTORE CALLVALUE DUP1 ISZERO PUSH2 0x10 JUMPI PUSH1 0x0 DUP1 REVERT JUMPDEST POP PUSH2 0x43F DUP1 PUSH2 0x20 PUSH1 0x0 CODECOPY PUSH1 0x0 RETURN INVALID PUSH1 0x80 PUSH1 0x40 MSTORE CALLVALUE DUP1 ISZERO PUSH2 0x10 JUMPI PUSH1 0x0 DUP1 REVERT JUMPDEST POP PUSH1 0x4 CALLDATASIZE LT PUSH2 0x36 JUMPI PUSH1 0x0 CALLDATALOAD PUSH1 0xE0 SHR DUP1 PUSH4 0x565BFED4 EQ PUSH2 0x3B JUMPI DUP1 PUSH4 0x8DA5CB5B EQ PUSH2 0x6F JUMPI JUMPDEST PUSH1 0x0 DUP1 REVERT JUMPDEST PUSH2 0x55 PUSH1 0x4 DUP1 CALLDATASIZE SUB DUP2 ADD SWAP1 PUSH2 0x50 SWAP2 SWAP1 PUSH2 0x1BF JUMP JUMPDEST PUSH2 0x8D JUMP JUMPDEST PUSH1 0x40 MLOAD PUSH2 0x66 SWAP6 SWAP5 SWAP4 SWAP3 SWAP2 SWAP1 PUSH2 0x27C JUMP JUMPDEST PUSH1 0x40 MLOAD DUP1 SWAP2 SUB SWAP1 RETURN JUMPDEST PUSH2 0x77 PUSH2 0x186 JUMP JUMPDEST PUSH1 0x40 MLOAD PUSH2 0x84 SWAP2 SWAP1 PUSH2 0x261 JUMP JUMPDEST PUSH1 0x40 MLOAD DUP1 SWAP2 SUB SWAP1 RETURN JUMPDEST PUSH1 0x1 PUSH1 0x20 MSTORE DUP1 PUSH1 0x0 MSTORE PUSH1 0x40 PUSH1 0x0 KECCAK256 PUSH1 0x0 SWAP2 POP SWAP1 POP DUP1 PUSH1 0x0 ADD PUSH1 0x0 SWAP1 SLOAD SWAP1 PUSH2 0x100 EXP SWAP1 DIV PUSH20 0xFFFFFFFFFFFFFFFFFFFFFFFFFFFFFFFFFFFFFFFF AND SWAP1 DUP1 PUSH1 0x1 ADD DUP1 SLOAD PUSH2 0xD6 SWAP1 PUSH2 0x37B JUMP JUMPDEST DUP1 PUSH1 0x1F ADD PUSH1 0x20 DUP1 SWAP2 DIV MUL PUSH1 0x20 ADD PUSH1 0x40 MLOAD SWAP1 DUP2 ADD PUSH1 0x40 MSTORE DUP1 SWAP3 SWAP2 SWAP1 DUP2 DUP2 MSTORE PUSH1 0x20 ADD DUP3 DUP1 SLOAD PUSH2 0x102 SWAP1 PUSH2 0x37B JUMP JUMPDEST DUP1 ISZERO PUSH2 0x14F JUMPI DUP1 PUSH1 0x1F LT PUSH2 0x124 JUMPI PUSH2 0x100 DUP1 DUP4 SLOAD DIV MUL DUP4 MSTORE SWAP2 PUSH1 0x20 ADD SWAP2 PUSH2 0x14F JUMP JUMPDEST DUP3 ADD SWAP2 SWAP1 PUSH1 0x0 MSTORE PUSH1 0x20 PUSH1 0x0 KECCAK256 SWAP1 JUMPDEST DUP2 SLOAD DUP2 MSTORE SWAP1 PUSH1 0x1 ADD SWAP1 PUSH1 0x20 ADD DUP1 DUP4 GT PUSH2 0x132 JUMPI DUP3 SWAP1 SUB PUSH1 0x1F AND DUP3 ADD SWAP2 JUMPDEST POP POP POP POP POP SWAP1 DUP1 PUSH1 0x2 ADD PUSH1 0x0 SWAP1 SLOAD SWAP1 PUSH2 0x100 EXP SWAP1 DIV PUSH2 0xFFFF AND SWAP1 DUP1 PUSH1 0x2 ADD PUSH1 0x2 SWAP1 SLOAD SWAP1 PUSH2 0x100 EXP SWAP1 DIV PUSH1 0xFF AND SWAP1 DUP1 PUSH1 0x3 ADD SLOAD SWAP1 POP DUP6 JUMP JUMPDEST PUSH1 0x0 DUP1 SLOAD SWAP1 PUSH2 0x100 EXP SWAP1 DIV PUSH20 0xFFFFFFFFFFFFFFFFFFFFFFFFFFFFFFFFFFFFFFFF AND DUP2 JUMP JUMPDEST PUSH1 0x0 DUP2 CALLDATALOAD SWAP1 POP PUSH2 0x1B9 DUP2 PUSH2 0x3F2 JUMP JUMPDEST SWAP3 SWAP2 POP POP JUMP JUMPDEST PUSH1 0x0 PUSH1 0x20 DUP3 DUP5 SUB SLT ISZERO PUSH2 0x1D5 JUMPI PUSH2 0x1D4 PUSH2 0x3DC JUMP JUMPDEST JUMPDEST PUSH1 0x0 PUSH2 0x1E3 DUP5 DUP3 DUP6 ADD PUSH2 0x1AA JUMP JUMPDEST SWAP2 POP POP SWAP3 SWAP2 POP POP JUMP JUMPDEST PUSH2 0x1F5 DUP2 PUSH2 0x2F2 JUMP JUMPDEST DUP3 MSTORE POP POP JUMP JUMPDEST PUSH2 0x204 DUP2 PUSH2 0x304 JUMP JUMPDEST DUP3 MSTORE POP POP JUMP JUMPDEST PUSH1 0x0 PUSH2 0x215 DUP3 PUSH2 0x2D6 JUMP JUMPDEST PUSH2 0x21F DUP2 DUP6 PUSH2 0x2E1 JUMP JUMPDEST SWAP4 POP PUSH2 0x22F DUP2 DUP6 PUSH1 0x20 DUP7 ADD PUSH2 0x348 JUMP JUMPDEST PUSH2 0x238 DUP2 PUSH2 0x3E1 JUMP JUMPDEST DUP5 ADD SWAP2 POP POP SWAP3 SWAP2 POP POP JUMP JUMPDEST PUSH2 0x24C DUP2 PUSH2 0x310 JUMP JUMPDEST DUP3 MSTORE POP POP JUMP JUMPDEST PUSH2 0x25B DUP2 PUSH2 0x33E JUMP JUMPDEST DUP3 MSTORE POP POP JUMP JUMPDEST PUSH1 0x0 PUSH1 0x20 DUP3 ADD SWAP1 POP PUSH2 0x276 PUSH1 0x0 DUP4 ADD DUP5 PUSH2 0x1EC JUMP JUMPDEST SWAP3 SWAP2 POP POP JUMP JUMPDEST PUSH1 0x0 PUSH1 0xA0 DUP3 ADD SWAP1 POP PUSH2 0x291 PUSH1 0x0 DUP4 ADD DUP9 PUSH2 0x1EC JUMP JUMPDEST DUP2 DUP2 SUB PUSH1 0x20 DUP4 ADD MSTORE PUSH2 0x2A3 DUP2 DUP8 PUSH2 0x20A JUMP JUMPDEST SWAP1 POP PUSH2 0x2B2 PUSH1 0x40 DUP4 ADD DUP7 PUSH2 0x243 JUMP JUMPDEST PUSH2 0x2BF PUSH1 0x60 DUP4 ADD DUP6 PUSH2 0x1FB JUMP JUMPDEST PUSH2 0x2CC PUSH1 0x80 DUP4 ADD DUP5 PUSH2 0x252 JUMP JUMPDEST SWAP7 SWAP6 POP POP POP POP POP POP JUMP JUMPDEST PUSH1 0x0 DUP2 MLOAD SWAP1 POP SWAP2 SWAP1 POP JUMP JUMPDEST PUSH1 0x0 DUP3 DUP3 MSTORE PUSH1 0x20 DUP3 ADD SWAP1 POP SWAP3 SWAP2 POP POP JUMP JUMPDEST PUSH1 0x0 PUSH2 0x2FD DUP3 PUSH2 0x31E JUMP JUMPDEST SWAP1 POP SWAP2 SWAP1 POP JUMP JUMPDEST PUSH1 0x0 DUP2 ISZERO ISZERO SWAP1 POP SWAP2 SWAP1 POP JUMP JUMPDEST PUSH1 0x0 PUSH2 0xFFFF DUP3 AND SWAP1 POP SWAP2 SWAP1 POP JUMP JUMPDEST PUSH1 0x0 PUSH20 0xFFFFFFFFFFFFFFFFFFFFFFFFFFFFFFFFFFFFFFFF DUP3 AND SWAP1 POP SWAP2 SWAP1 POP JUMP JUMPDEST PUSH1 0x0 DUP2 SWAP1 POP SWAP2 SWAP1 POP JUMP JUMPDEST PUSH1 0x0 JUMPDEST DUP4 DUP2 LT ISZERO PUSH2 0x366 JUMPI DUP1 DUP3 ADD MLOAD DUP2 DUP5 ADD MSTORE PUSH1 0x20 DUP2 ADD SWAP1 POP PUSH2 0x34B JUMP JUMPDEST DUP4 DUP2 GT ISZERO PUSH2 0x375 JUMPI PUSH1 0x0 DUP5 DUP5 ADD MSTORE JUMPDEST POP POP POP POP JUMP JUMPDEST PUSH1 0x0 PUSH1 0x2 DUP3 DIV SWAP1 POP PUSH1 0x1 DUP3 AND DUP1 PUSH2 0x393 JUMPI PUSH1 0x7F DUP3 AND SWAP2 POP JUMPDEST PUSH1 0x20 DUP3 LT DUP2 EQ ISZERO PUSH2 0x3A7 JUMPI PUSH2 0x3A6 PUSH2 0x3AD JUMP JUMPDEST JUMPDEST POP SWAP2 SWAP1 POP JUMP JUMPDEST PUSH32 0x4E487B7100000000000000000000000000000000000000000000000000000000 PUSH1 0x0 MSTORE PUSH1 0x22 PUSH1 0x4 MSTORE PUSH1 0x24 PUSH1 0x0 REVERT JUMPDEST PUSH1 0x0 DUP1 REVERT JUMPDEST PUSH1 0x0 PUSH1 0x1F NOT PUSH1 0x1F DUP4 ADD AND SWAP1 POP SWAP2 SWAP1 POP JUMP JUMPDEST PUSH2 0x3FB DUP2 PUSH2 0x2F2 JUMP JUMPDEST DUP2 EQ PUSH2 0x406 JUMPI PUSH1 0x0 DUP1 REVERT JUMPDEST POP JUMP INVALID LOG2 PUSH5 0x6970667358 0x22 SLT KECCAK256 0xE8 0xE4 LT LOG3 0xE1 SWAP3 PUSH15 0x10D19524EF28189DCFFA15DB331AA3 0xC8 BLOCKHASH 0xD SAR 0xC0 0xC3 MLOAD SAR MOD 0xC3 PUSH5 0x736F6C6343 STOP ADDMOD SMOD STOP CALLER "
				},
				"gasEstimates": {
					"creation": {
						"codeDepositCost": "217400",
						"executionCost": "257",
						"totalCost": "217657"
					},
					"external": {
						"dataUser(address)": "infinite",
						"owner()": "2511"
					}
				},
				"methodIdentifiers": {
					"dataUser(address)": "565bfed4",
					"owner()": "8da5cb5b"
				}
			},
			"storageLayout": {
				"storage": [
					{
						"astId": 3,
						"contract": "contracts/Vote2.sol:Vote2",
						"label": "owner",
						"offset": 0,
						"slot": "0",
						"type": "t_address"
					},
					{
						"astId": 19,
						"contract": "contracts/Vote2.sol:Vote2",
						"label": "dataUser",
						"offset": 0,
						"slot": "1",
						"type": "t_mapping(t_address,t_struct(Voter)14_storage)"
					}
				],
				"types": {
					"t_address": {
						"encoding": "inplace",
						"label": "address",
						"numberOfBytes": "20"
					},
					"t_bool": {
						"encoding": "inplace",
						"label": "bool",
						"numberOfBytes": "1"
					},
					"t_mapping(t_address,t_struct(Voter)14_storage)": {
						"encoding": "mapping",
						"key": "t_address",
						"label": "mapping(address => struct Vote2.Voter)",
						"numberOfBytes": "32",
						"value": "t_struct(Voter)14_storage"
					},
					"t_string_storage": {
						"encoding": "bytes",
						"label": "string",
						"numberOfBytes": "32"
					},
					"t_struct(Voter)14_storage": {
						"encoding": "inplace",
						"label": "struct Vote2.Voter",
						"members": [
							{
								"astId": 5,
								"contract": "contracts/Vote2.sol:Vote2",
								"label": "delegate",
								"offset": 0,
								"slot": "0",
								"type": "t_address"
							},
							{
								"astId": 7,
								"contract": "contracts/Vote2.sol:Vote2",
								"label": "vote",
								"offset": 0,
								"slot": "1",
								"type": "t_string_storage"
							},
							{
								"astId": 9,
								"contract": "contracts/Vote2.sol:Vote2",
								"label": "age",
								"offset": 0,
								"slot": "2",
								"type": "t_uint16"
							},
							{
								"astId": 11,
								"contract": "contracts/Vote2.sol:Vote2",
								"label": "isMarried",
								"offset": 2,
								"slot": "2",
								"type": "t_bool"
							},
							{
								"astId": 13,
								"contract": "contracts/Vote2.sol:Vote2",
								"label": "balance",
								"offset": 0,
								"slot": "3",
								"type": "t_uint256"
							}
						],
						"numberOfBytes": "128"
					},
					"t_uint16": {
						"encoding": "inplace",
						"label": "uint16",
						"numberOfBytes": "2"
					},
					"t_uint256": {
						"encoding": "inplace",
						"label": "uint256",
						"numberOfBytes": "32"
					}
				}
			},
			"userdoc": {
				"kind": "user",
				"methods": {},
				"version": 1
			}
		}
	}
}