{
	"contracts/Vote2.sol": {
		"Vote2": {
			"abi": [
				{
					"inputs": [
						{
							"internalType": "address",
							"name": "",
							"type": "address"
						}
					],
					"name": "dataUser",
					"outputs": [
						{
							"internalType": "address",
							"name": "delegate",
							"type": "address"
						},
						{
							"internalType": "string",
							"name": "vote",
							"type": "string"
						},
						{
							"internalType": "uint16",
							"name": "weight",
							"type": "uint16"
						},
						{
							"internalType": "bool",
							"name": "voted",
							"type": "bool"
						}
					],
					"stateMutability": "view",
					"type": "function"
				},
				{
					"inputs": [],
					"name": "owner",
					"outputs": [
						{
							"internalType": "address",
							"name": "",
							"type": "address"
						}
					],
					"stateMutability": "view",
					"type": "function"
				}
			],
			"devdoc": {
				"kind": "dev",
				"methods": {},
				"version": 1
			},
			"evm": {
				"assembly": "    /* \"contracts/Vote2.sol\":58:275  contract Vote2{\r... */\n  mstore(0x40, 0x80)\n  callvalue\n  dup1\n  iszero\n  tag_1\n  jumpi\n  0x00\n  dup1\n  revert\ntag_1:\n  pop\n  dataSize(sub_0)\n  dup1\n  dataOffset(sub_0)\n  0x00\n  codecopy\n  0x00\n  return\nstop\n\nsub_0: assembly {\n        /* \"contracts/Vote2.sol\":58:275  contract Vote2{\r... */\n      mstore(0x40, 0x80)\n      callvalue\n      dup1\n      iszero\n      tag_1\n      jumpi\n      0x00\n      dup1\n      revert\n    tag_1:\n      pop\n      jumpi(tag_2, lt(calldatasize, 0x04))\n      shr(0xe0, calldataload(0x00))\n      dup1\n      0x565bfed4\n      eq\n      tag_3\n      jumpi\n      dup1\n      0x8da5cb5b\n      eq\n      tag_4\n      jumpi\n    tag_2:\n      0x00\n      dup1\n      revert\n        /* \"contracts/Vote2.sol\":223:264  mapping(address => Voter) public dataUser */\n    tag_3:\n      tag_5\n      0x04\n      dup1\n      calldatasize\n      sub\n      dup2\n      add\n      swap1\n      tag_6\n      swap2\n      swap1\n      tag_7\n      jump\t// in\n    tag_6:\n      tag_8\n      jump\t// in\n    tag_5:\n      mload(0x40)\n      tag_9\n      swap5\n      swap4\n      swap3\n      swap2\n      swap1\n      tag_10\n      jump\t// in\n    tag_9:\n      mload(0x40)\n      dup1\n      swap2\n      sub\n      swap1\n      return\n        /* \"contracts/Vote2.sol\":75:95  address public owner */\n    tag_4:\n      tag_11\n      tag_12\n      jump\t// in\n    tag_11:\n      mload(0x40)\n      tag_13\n      swap2\n      swap1\n      tag_14\n      jump\t// in\n    tag_13:\n      mload(0x40)\n      dup1\n      swap2\n      sub\n      swap1\n      return\n        /* \"contracts/Vote2.sol\":223:264  mapping(address => Voter) public dataUser */\n    tag_8:\n      mstore(0x20, 0x01)\n      dup1\n      0x00\n      mstore\n      keccak256(0x00, 0x40)\n      0x00\n      swap2\n      pop\n      swap1\n      pop\n      dup1\n      0x00\n      add\n      0x00\n      swap1\n      sload\n      swap1\n      0x0100\n      exp\n      swap1\n      div\n      0xffffffffffffffffffffffffffffffffffffffff\n      and\n      swap1\n      dup1\n      0x01\n      add\n      dup1\n      sload\n      tag_15\n      swap1\n      tag_16\n      jump\t// in\n    tag_15:\n      dup1\n      0x1f\n      add\n      0x20\n      dup1\n      swap2\n      div\n      mul\n      0x20\n      add\n      mload(0x40)\n      swap1\n      dup2\n      add\n      0x40\n      mstore\n      dup1\n      swap3\n      swap2\n      swap1\n      dup2\n      dup2\n      mstore\n      0x20\n      add\n      dup3\n      dup1\n      sload\n      tag_17\n      swap1\n      tag_16\n      jump\t// in\n    tag_17:\n      dup1\n      iszero\n      tag_18\n      jumpi\n      dup1\n      0x1f\n      lt\n      tag_19\n      jumpi\n      0x0100\n      dup1\n      dup4\n      sload\n      div\n      mul\n      dup4\n      mstore\n      swap2\n      0x20\n      add\n      swap2\n      jump(tag_18)\n    tag_19:\n      dup3\n      add\n      swap2\n      swap1\n      0x00\n      mstore\n      keccak256(0x00, 0x20)\n      swap1\n    tag_20:\n      dup2\n      sload\n      dup2\n      mstore\n      swap1\n      0x01\n      add\n      swap1\n      0x20\n      add\n      dup1\n      dup4\n      gt\n      tag_20\n      jumpi\n      dup3\n      swap1\n      sub\n      0x1f\n      and\n      dup3\n      add\n      swap2\n    tag_18:\n      pop\n      pop\n      pop\n      pop\n      pop\n      swap1\n      dup1\n      0x02\n      add\n      0x00\n      swap1\n      sload\n      swap1\n      0x0100\n      exp\n      swap1\n      div\n      0xffff\n      and\n      swap1\n      dup1\n      0x02\n      add\n      0x02\n      swap1\n      sload\n      swap1\n      0x0100\n      exp\n      swap1\n      div\n      0xff\n      and\n      swap1\n      pop\n      dup5\n      jump\t// out\n        /* \"contracts/Vote2.sol\":75:95  address public owner */\n    tag_12:\n      0x00\n      dup1\n      sload\n      swap1\n      0x0100\n      exp\n      swap1\n      div\n      0xffffffffffffffffffffffffffffffffffffffff\n      and\n      dup2\n      jump\t// out\n        /* \"#utility.yul\":7:146   */\n    tag_22:\n        /* \"#utility.yul\":53:58   */\n      0x00\n        /* \"#utility.yul\":91:97   */\n      dup2\n        /* \"#utility.yul\":78:98   */\n      calldataload\n        /* \"#utility.yul\":69:98   */\n      swap1\n      pop\n        /* \"#utility.yul\":107:140   */\n      tag_24\n        /* \"#utility.yul\":134:139   */\n      dup2\n        /* \"#utility.yul\":107:140   */\n      tag_25\n      jump\t// in\n    tag_24:\n        /* \"#utility.yul\":7:146   */\n      swap3\n      swap2\n      pop\n      pop\n      jump\t// out\n        /* \"#utility.yul\":152:481   */\n    tag_7:\n        /* \"#utility.yul\":211:217   */\n      0x00\n        /* \"#utility.yul\":260:262   */\n      0x20\n        /* \"#utility.yul\":248:257   */\n      dup3\n        /* \"#utility.yul\":239:246   */\n      dup5\n        /* \"#utility.yul\":235:258   */\n      sub\n        /* \"#utility.yul\":231:263   */\n      slt\n        /* \"#utility.yul\":228:347   */\n      iszero\n      tag_27\n      jumpi\n        /* \"#utility.yul\":266:345   */\n      tag_28\n      tag_29\n      jump\t// in\n    tag_28:\n        /* \"#utility.yul\":228:347   */\n    tag_27:\n        /* \"#utility.yul\":386:387   */\n      0x00\n        /* \"#utility.yul\":411:464   */\n      tag_30\n        /* \"#utility.yul\":456:463   */\n      dup5\n        /* \"#utility.yul\":447:453   */\n      dup3\n        /* \"#utility.yul\":436:445   */\n      dup6\n        /* \"#utility.yul\":432:454   */\n      add\n        /* \"#utility.yul\":411:464   */\n      tag_22\n      jump\t// in\n    tag_30:\n        /* \"#utility.yul\":401:464   */\n      swap2\n      pop\n        /* \"#utility.yul\":357:474   */\n      pop\n        /* \"#utility.yul\":152:481   */\n      swap3\n      swap2\n      pop\n      pop\n      jump\t// out\n        /* \"#utility.yul\":487:605   */\n    tag_31:\n        /* \"#utility.yul\":574:598   */\n      tag_33\n        /* \"#utility.yul\":592:597   */\n      dup2\n        /* \"#utility.yul\":574:598   */\n      tag_34\n      jump\t// in\n    tag_33:\n        /* \"#utility.yul\":569:572   */\n      dup3\n        /* \"#utility.yul\":562:599   */\n      mstore\n        /* \"#utility.yul\":487:605   */\n      pop\n      pop\n      jump\t// out\n        /* \"#utility.yul\":611:720   */\n    tag_35:\n        /* \"#utility.yul\":692:713   */\n      tag_37\n        /* \"#utility.yul\":707:712   */\n      dup2\n        /* \"#utility.yul\":692:713   */\n      tag_38\n      jump\t// in\n    tag_37:\n        /* \"#utility.yul\":687:690   */\n      dup3\n        /* \"#utility.yul\":680:714   */\n      mstore\n        /* \"#utility.yul\":611:720   */\n      pop\n      pop\n      jump\t// out\n        /* \"#utility.yul\":726:1090   */\n    tag_39:\n        /* \"#utility.yul\":814:817   */\n      0x00\n        /* \"#utility.yul\":842:881   */\n      tag_41\n        /* \"#utility.yul\":875:880   */\n      dup3\n        /* \"#utility.yul\":842:881   */\n      tag_42\n      jump\t// in\n    tag_41:\n        /* \"#utility.yul\":897:968   */\n      tag_43\n        /* \"#utility.yul\":961:967   */\n      dup2\n        /* \"#utility.yul\":956:959   */\n      dup6\n        /* \"#utility.yul\":897:968   */\n      tag_44\n      jump\t// in\n    tag_43:\n        /* \"#utility.yul\":890:968   */\n      swap4\n      pop\n        /* \"#utility.yul\":977:1029   */\n      tag_45\n        /* \"#utility.yul\":1022:1028   */\n      dup2\n        /* \"#utility.yul\":1017:1020   */\n      dup6\n        /* \"#utility.yul\":1010:1014   */\n      0x20\n        /* \"#utility.yul\":1003:1008   */\n      dup7\n        /* \"#utility.yul\":999:1015   */\n      add\n        /* \"#utility.yul\":977:1029   */\n      tag_46\n      jump\t// in\n    tag_45:\n        /* \"#utility.yul\":1054:1083   */\n      tag_47\n        /* \"#utility.yul\":1076:1082   */\n      dup2\n        /* \"#utility.yul\":1054:1083   */\n      tag_48\n      jump\t// in\n    tag_47:\n        /* \"#utility.yul\":1049:1052   */\n      dup5\n        /* \"#utility.yul\":1045:1084   */\n      add\n        /* \"#utility.yul\":1038:1084   */\n      swap2\n      pop\n        /* \"#utility.yul\":818:1090   */\n      pop\n        /* \"#utility.yul\":726:1090   */\n      swap3\n      swap2\n      pop\n      pop\n      jump\t// out\n        /* \"#utility.yul\":1096:1211   */\n    tag_49:\n        /* \"#utility.yul\":1181:1204   */\n      tag_51\n        /* \"#utility.yul\":1198:1203   */\n      dup2\n        /* \"#utility.yul\":1181:1204   */\n      tag_52\n      jump\t// in\n    tag_51:\n        /* \"#utility.yul\":1176:1179   */\n      dup3\n        /* \"#utility.yul\":1169:1205   */\n      mstore\n        /* \"#utility.yul\":1096:1211   */\n      pop\n      pop\n      jump\t// out\n        /* \"#utility.yul\":1217:1439   */\n    tag_14:\n        /* \"#utility.yul\":1310:1314   */\n      0x00\n        /* \"#utility.yul\":1348:1350   */\n      0x20\n        /* \"#utility.yul\":1337:1346   */\n      dup3\n        /* \"#utility.yul\":1333:1351   */\n      add\n        /* \"#utility.yul\":1325:1351   */\n      swap1\n      pop\n        /* \"#utility.yul\":1361:1432   */\n      tag_54\n        /* \"#utility.yul\":1429:1430   */\n      0x00\n        /* \"#utility.yul\":1418:1427   */\n      dup4\n        /* \"#utility.yul\":1414:1431   */\n      add\n        /* \"#utility.yul\":1405:1411   */\n      dup5\n        /* \"#utility.yul\":1361:1432   */\n      tag_31\n      jump\t// in\n    tag_54:\n        /* \"#utility.yul\":1217:1439   */\n      swap3\n      swap2\n      pop\n      pop\n      jump\t// out\n        /* \"#utility.yul\":1445:2073   */\n    tag_10:\n        /* \"#utility.yul\":1634:1638   */\n      0x00\n        /* \"#utility.yul\":1672:1675   */\n      0x80\n        /* \"#utility.yul\":1661:1670   */\n      dup3\n        /* \"#utility.yul\":1657:1676   */\n      add\n        /* \"#utility.yul\":1649:1676   */\n      swap1\n      pop\n        /* \"#utility.yul\":1686:1757   */\n      tag_56\n        /* \"#utility.yul\":1754:1755   */\n      0x00\n        /* \"#utility.yul\":1743:1752   */\n      dup4\n        /* \"#utility.yul\":1739:1756   */\n      add\n        /* \"#utility.yul\":1730:1736   */\n      dup8\n        /* \"#utility.yul\":1686:1757   */\n      tag_31\n      jump\t// in\n    tag_56:\n        /* \"#utility.yul\":1804:1813   */\n      dup2\n        /* \"#utility.yul\":1798:1802   */\n      dup2\n        /* \"#utility.yul\":1794:1814   */\n      sub\n        /* \"#utility.yul\":1789:1791   */\n      0x20\n        /* \"#utility.yul\":1778:1787   */\n      dup4\n        /* \"#utility.yul\":1774:1792   */\n      add\n        /* \"#utility.yul\":1767:1815   */\n      mstore\n        /* \"#utility.yul\":1832:1910   */\n      tag_57\n        /* \"#utility.yul\":1905:1909   */\n      dup2\n        /* \"#utility.yul\":1896:1902   */\n      dup7\n        /* \"#utility.yul\":1832:1910   */\n      tag_39\n      jump\t// in\n    tag_57:\n        /* \"#utility.yul\":1824:1910   */\n      swap1\n      pop\n        /* \"#utility.yul\":1920:1990   */\n      tag_58\n        /* \"#utility.yul\":1986:1988   */\n      0x40\n        /* \"#utility.yul\":1975:1984   */\n      dup4\n        /* \"#utility.yul\":1971:1989   */\n      add\n        /* \"#utility.yul\":1962:1968   */\n      dup6\n        /* \"#utility.yul\":1920:1990   */\n      tag_49\n      jump\t// in\n    tag_58:\n        /* \"#utility.yul\":2000:2066   */\n      tag_59\n        /* \"#utility.yul\":2062:2064   */\n      0x60\n        /* \"#utility.yul\":2051:2060   */\n      dup4\n        /* \"#utility.yul\":2047:2065   */\n      add\n        /* \"#utility.yul\":2038:2044   */\n      dup5\n        /* \"#utility.yul\":2000:2066   */\n      tag_35\n      jump\t// in\n    tag_59:\n        /* \"#utility.yul\":1445:2073   */\n      swap6\n      swap5\n      pop\n      pop\n      pop\n      pop\n      pop\n      jump\t// out\n        /* \"#utility.yul\":2160:2259   */\n    tag_42:\n        /* \"#utility.yul\":2212:2218   */\n      0x00\n        /* \"#utility.yul\":2246:2251   */\n      dup2\n        /* \"#utility.yul\":2240:2252   */\n      mload\n        /* \"#utility.yul\":2230:2252   */\n      swap1\n      pop\n        /* \"#utility.yul\":2160:2259   */\n      swap2\n      swap1\n      pop\n      jump\t// out\n        /* \"#utility.yul\":2265:2434   */\n    tag_44:\n        /* \"#utility.yul\":2349:2360   */\n      0x00\n        /* \"#utility.yul\":2383:2389   */\n      dup3\n        /* \"#utility.yul\":2378:2381   */\n      dup3\n        /* \"#utility.yul\":2371:2390   */\n      mstore\n        /* \"#utility.yul\":2423:2427   */\n      0x20\n        /* \"#utility.yul\":2418:2421   */\n      dup3\n        /* \"#utility.yul\":2414:2428   */\n      add\n        /* \"#utility.yul\":2399:2428   */\n      swap1\n      pop\n        /* \"#utility.yul\":2265:2434   */\n      swap3\n      swap2\n      pop\n      pop\n      jump\t// out\n        /* \"#utility.yul\":2440:2536   */\n    tag_34:\n        /* \"#utility.yul\":2477:2484   */\n      0x00\n        /* \"#utility.yul\":2506:2530   */\n      tag_65\n        /* \"#utility.yul\":2524:2529   */\n      dup3\n        /* \"#utility.yul\":2506:2530   */\n      tag_66\n      jump\t// in\n    tag_65:\n        /* \"#utility.yul\":2495:2530   */\n      swap1\n      pop\n        /* \"#utility.yul\":2440:2536   */\n      swap2\n      swap1\n      pop\n      jump\t// out\n        /* \"#utility.yul\":2542:2632   */\n    tag_38:\n        /* \"#utility.yul\":2576:2583   */\n      0x00\n        /* \"#utility.yul\":2619:2624   */\n      dup2\n        /* \"#utility.yul\":2612:2625   */\n      iszero\n        /* \"#utility.yul\":2605:2626   */\n      iszero\n        /* \"#utility.yul\":2594:2626   */\n      swap1\n      pop\n        /* \"#utility.yul\":2542:2632   */\n      swap2\n      swap1\n      pop\n      jump\t// out\n        /* \"#utility.yul\":2638:2727   */\n    tag_52:\n        /* \"#utility.yul\":2674:2681   */\n      0x00\n        /* \"#utility.yul\":2714:2720   */\n      0xffff\n        /* \"#utility.yul\":2707:2712   */\n      dup3\n        /* \"#utility.yul\":2703:2721   */\n      and\n        /* \"#utility.yul\":2692:2721   */\n      swap1\n      pop\n        /* \"#utility.yul\":2638:2727   */\n      swap2\n      swap1\n      pop\n      jump\t// out\n        /* \"#utility.yul\":2733:2859   */\n    tag_66:\n        /* \"#utility.yul\":2770:2777   */\n      0x00\n        /* \"#utility.yul\":2810:2852   */\n      0xffffffffffffffffffffffffffffffffffffffff\n        /* \"#utility.yul\":2803:2808   */\n      dup3\n        /* \"#utility.yul\":2799:2853   */\n      and\n        /* \"#utility.yul\":2788:2853   */\n      swap1\n      pop\n        /* \"#utility.yul\":2733:2859   */\n      swap2\n      swap1\n      pop\n      jump\t// out\n        /* \"#utility.yul\":2865:3172   */\n    tag_46:\n        /* \"#utility.yul\":2933:2934   */\n      0x00\n        /* \"#utility.yul\":2943:3056   */\n    tag_71:\n        /* \"#utility.yul\":2957:2963   */\n      dup4\n        /* \"#utility.yul\":2954:2955   */\n      dup2\n        /* \"#utility.yul\":2951:2964   */\n      lt\n        /* \"#utility.yul\":2943:3056   */\n      iszero\n      tag_73\n      jumpi\n        /* \"#utility.yul\":3042:3043   */\n      dup1\n        /* \"#utility.yul\":3037:3040   */\n      dup3\n        /* \"#utility.yul\":3033:3044   */\n      add\n        /* \"#utility.yul\":3027:3045   */\n      mload\n        /* \"#utility.yul\":3023:3024   */\n      dup2\n        /* \"#utility.yul\":3018:3021   */\n      dup5\n        /* \"#utility.yul\":3014:3025   */\n      add\n        /* \"#utility.yul\":3007:3046   */\n      mstore\n        /* \"#utility.yul\":2979:2981   */\n      0x20\n        /* \"#utility.yul\":2976:2977   */\n      dup2\n        /* \"#utility.yul\":2972:2982   */\n      add\n        /* \"#utility.yul\":2967:2982   */\n      swap1\n      pop\n        /* \"#utility.yul\":2943:3056   */\n      jump(tag_71)\n    tag_73:\n        /* \"#utility.yul\":3074:3080   */\n      dup4\n        /* \"#utility.yul\":3071:3072   */\n      dup2\n        /* \"#utility.yul\":3068:3081   */\n      gt\n        /* \"#utility.yul\":3065:3166   */\n      iszero\n      tag_74\n      jumpi\n        /* \"#utility.yul\":3154:3155   */\n      0x00\n        /* \"#utility.yul\":3145:3151   */\n      dup5\n        /* \"#utility.yul\":3140:3143   */\n      dup5\n        /* \"#utility.yul\":3136:3152   */\n      add\n        /* \"#utility.yul\":3129:3156   */\n      mstore\n        /* \"#utility.yul\":3065:3166   */\n    tag_74:\n        /* \"#utility.yul\":2914:3172   */\n      pop\n        /* \"#utility.yul\":2865:3172   */\n      pop\n      pop\n      pop\n      jump\t// out\n        /* \"#utility.yul\":3178:3498   */\n    tag_16:\n        /* \"#utility.yul\":3222:3228   */\n      0x00\n        /* \"#utility.yul\":3259:3260   */\n      0x02\n        /* \"#utility.yul\":3253:3257   */\n      dup3\n        /* \"#utility.yul\":3249:3261   */\n      div\n        /* \"#utility.yul\":3239:3261   */\n      swap1\n      pop\n        /* \"#utility.yul\":3306:3307   */\n      0x01\n        /* \"#utility.yul\":3300:3304   */\n      dup3\n        /* \"#utility.yul\":3296:3308   */\n      and\n        /* \"#utility.yul\":3327:3345   */\n      dup1\n        /* \"#utility.yul\":3317:3398   */\n      tag_76\n      jumpi\n        /* \"#utility.yul\":3383:3387   */\n      0x7f\n        /* \"#utility.yul\":3375:3381   */\n      dup3\n        /* \"#utility.yul\":3371:3388   */\n      and\n        /* \"#utility.yul\":3361:3388   */\n      swap2\n      pop\n        /* \"#utility.yul\":3317:3398   */\n    tag_76:\n        /* \"#utility.yul\":3445:3447   */\n      0x20\n        /* \"#utility.yul\":3437:3443   */\n      dup3\n        /* \"#utility.yul\":3434:3448   */\n      lt\n        /* \"#utility.yul\":3414:3432   */\n      dup2\n        /* \"#utility.yul\":3411:3449   */\n      eq\n        /* \"#utility.yul\":3408:3492   */\n      iszero\n      tag_77\n      jumpi\n        /* \"#utility.yul\":3464:3482   */\n      tag_78\n      tag_79\n      jump\t// in\n    tag_78:\n        /* \"#utility.yul\":3408:3492   */\n    tag_77:\n        /* \"#utility.yul\":3229:3498   */\n      pop\n        /* \"#utility.yul\":3178:3498   */\n      swap2\n      swap1\n      pop\n      jump\t// out\n        /* \"#utility.yul\":3504:3684   */\n    tag_79:\n        /* \"#utility.yul\":3552:3629   */\n      0x4e487b7100000000000000000000000000000000000000000000000000000000\n        /* \"#utility.yul\":3549:3550   */\n      0x00\n        /* \"#utility.yul\":3542:3630   */\n      mstore\n        /* \"#utility.yul\":3649:3653   */\n      0x22\n        /* \"#utility.yul\":3646:3647   */\n      0x04\n        /* \"#utility.yul\":3639:3654   */\n      mstore\n        /* \"#utility.yul\":3673:3677   */\n      0x24\n        /* \"#utility.yul\":3670:3671   */\n      0x00\n        /* \"#utility.yul\":3663:3678   */\n      revert\n        /* \"#utility.yul\":3813:3930   */\n    tag_29:\n        /* \"#utility.yul\":3922:3923   */\n      0x00\n        /* \"#utility.yul\":3919:3920   */\n      dup1\n        /* \"#utility.yul\":3912:3924   */\n      revert\n        /* \"#utility.yul\":3936:4038   */\n    tag_48:\n        /* \"#utility.yul\":3977:3983   */\n      0x00\n        /* \"#utility.yul\":4028:4030   */\n      0x1f\n        /* \"#utility.yul\":4024:4031   */\n      not\n        /* \"#utility.yul\":4019:4021   */\n      0x1f\n        /* \"#utility.yul\":4012:4017   */\n      dup4\n        /* \"#utility.yul\":4008:4022   */\n      add\n        /* \"#utility.yul\":4004:4032   */\n      and\n        /* \"#utility.yul\":3994:4032   */\n      swap1\n      pop\n        /* \"#utility.yul\":3936:4038   */\n      swap2\n      swap1\n      pop\n      jump\t// out\n        /* \"#utility.yul\":4044:4166   */\n    tag_25:\n        /* \"#utility.yul\":4117:4141   */\n      tag_86\n        /* \"#utility.yul\":4135:4140   */\n      dup2\n        /* \"#utility.yul\":4117:4141   */\n      tag_34\n      jump\t// in\n    tag_86:\n        /* \"#utility.yul\":4110:4115   */\n      dup2\n        /* \"#utility.yul\":4107:4142   */\n      eq\n        /* \"#utility.yul\":4097:4160   */\n      tag_87\n      jumpi\n        /* \"#utility.yul\":4156:4157   */\n      0x00\n        /* \"#utility.yul\":4153:4154   */\n      dup1\n        /* \"#utility.yul\":4146:4158   */\n      revert\n        /* \"#utility.yul\":4097:4160   */\n    tag_87:\n        /* \"#utility.yul\":4044:4166   */\n      pop\n      jump\t// out\n\n    auxdata: 0xa2646970667358221220459e47752635c94138680151a5b3a2d7d52df5d45e68a7dc11906935a3bef91664736f6c63430008070033\n}\n",
				"bytecode": {
					"linkReferences": {},
					"object": "608060405234801561001057600080fd5b50610411806100206000396000f3fe608060405234801561001057600080fd5b50600436106100365760003560e01c8063565bfed41461003b5780638da5cb5b1461006e575b600080fd5b610055600480360381019061005091906101b8565b61008c565b6040516100659493929190610266565b60405180910390f35b61007661017f565b604051610083919061024b565b60405180910390f35b60016020528060005260406000206000915090508060000160009054906101000a900473ffffffffffffffffffffffffffffffffffffffff16908060010180546100d59061034d565b80601f01602080910402602001604051908101604052809291908181526020018280546101019061034d565b801561014e5780601f106101235761010080835404028352916020019161014e565b820191906000526020600020905b81548152906001019060200180831161013157829003601f168201915b5050505050908060020160009054906101000a900461ffff16908060020160029054906101000a900460ff16905084565b60008054906101000a900473ffffffffffffffffffffffffffffffffffffffff1681565b6000813590506101b2816103c4565b92915050565b6000602082840312156101ce576101cd6103ae565b5b60006101dc848285016101a3565b91505092915050565b6101ee816102ce565b82525050565b6101fd816102e0565b82525050565b600061020e826102b2565b61021881856102bd565b935061022881856020860161031a565b610231816103b3565b840191505092915050565b610245816102ec565b82525050565b600060208201905061026060008301846101e5565b92915050565b600060808201905061027b60008301876101e5565b818103602083015261028d8186610203565b905061029c604083018561023c565b6102a960608301846101f4565b95945050505050565b600081519050919050565b600082825260208201905092915050565b60006102d9826102fa565b9050919050565b60008115159050919050565b600061ffff82169050919050565b600073ffffffffffffffffffffffffffffffffffffffff82169050919050565b60005b8381101561033857808201518184015260208101905061031d565b83811115610347576000848401525b50505050565b6000600282049050600182168061036557607f821691505b602082108114156103795761037861037f565b5b50919050565b7f4e487b7100000000000000000000000000000000000000000000000000000000600052602260045260246000fd5b600080fd5b6000601f19601f8301169050919050565b6103cd816102ce565b81146103d857600080fd5b5056fea2646970667358221220459e47752635c94138680151a5b3a2d7d52df5d45e68a7dc11906935a3bef91664736f6c63430008070033",
					"opcodes": "PUSH1 0x80 PUSH1 0x40 MSTORE CALLVALUE DUP1 ISZERO PUSH2 0x10 JUMPI PUSH1 0x0 DUP1 REVERT JUMPDEST POP PUSH2 0x411 DUP1 PUSH2 0x20 PUSH1 0x0 CODECOPY PUSH1 0x0 RETURN INVALID PUSH1 0x80 PUSH1 0x40 MSTORE CALLVALUE DUP1 ISZERO PUSH2 0x10 JUMPI PUSH1 0x0 DUP1 REVERT JUMPDEST POP PUSH1 0x4 CALLDATASIZE LT PUSH2 0x36 JUMPI PUSH1 0x0 CALLDATALOAD PUSH1 0xE0 SHR DUP1 PUSH4 0x565BFED4 EQ PUSH2 0x3B JUMPI DUP1 PUSH4 0x8DA5CB5B EQ PUSH2 0x6E JUMPI JUMPDEST PUSH1 0x0 DUP1 REVERT JUMPDEST PUSH2 0x55 PUSH1 0x4 DUP1 CALLDATASIZE SUB DUP2 ADD SWAP1 PUSH2 0x50 SWAP2 SWAP1 PUSH2 0x1B8 JUMP JUMPDEST PUSH2 0x8C JUMP JUMPDEST PUSH1 0x40 MLOAD PUSH2 0x65 SWAP5 SWAP4 SWAP3 SWAP2 SWAP1 PUSH2 0x266 JUMP JUMPDEST PUSH1 0x40 MLOAD DUP1 SWAP2 SUB SWAP1 RETURN JUMPDEST PUSH2 0x76 PUSH2 0x17F JUMP JUMPDEST PUSH1 0x40 MLOAD PUSH2 0x83 SWAP2 SWAP1 PUSH2 0x24B JUMP JUMPDEST PUSH1 0x40 MLOAD DUP1 SWAP2 SUB SWAP1 RETURN JUMPDEST PUSH1 0x1 PUSH1 0x20 MSTORE DUP1 PUSH1 0x0 MSTORE PUSH1 0x40 PUSH1 0x0 KECCAK256 PUSH1 0x0 SWAP2 POP SWAP1 POP DUP1 PUSH1 0x0 ADD PUSH1 0x0 SWAP1 SLOAD SWAP1 PUSH2 0x100 EXP SWAP1 DIV PUSH20 0xFFFFFFFFFFFFFFFFFFFFFFFFFFFFFFFFFFFFFFFF AND SWAP1 DUP1 PUSH1 0x1 ADD DUP1 SLOAD PUSH2 0xD5 SWAP1 PUSH2 0x34D JUMP JUMPDEST DUP1 PUSH1 0x1F ADD PUSH1 0x20 DUP1 SWAP2 DIV MUL PUSH1 0x20 ADD PUSH1 0x40 MLOAD SWAP1 DUP2 ADD PUSH1 0x40 MSTORE DUP1 SWAP3 SWAP2 SWAP1 DUP2 DUP2 MSTORE PUSH1 0x20 ADD DUP3 DUP1 SLOAD PUSH2 0x101 SWAP1 PUSH2 0x34D JUMP JUMPDEST DUP1 ISZERO PUSH2 0x14E JUMPI DUP1 PUSH1 0x1F LT PUSH2 0x123 JUMPI PUSH2 0x100 DUP1 DUP4 SLOAD DIV MUL DUP4 MSTORE SWAP2 PUSH1 0x20 ADD SWAP2 PUSH2 0x14E JUMP JUMPDEST DUP3 ADD SWAP2 SWAP1 PUSH1 0x0 MSTORE PUSH1 0x20 PUSH1 0x0 KECCAK256 SWAP1 JUMPDEST DUP2 SLOAD DUP2 MSTORE SWAP1 PUSH1 0x1 ADD SWAP1 PUSH1 0x20 ADD DUP1 DUP4 GT PUSH2 0x131 JUMPI DUP3 SWAP1 SUB PUSH1 0x1F AND DUP3 ADD SWAP2 JUMPDEST POP POP POP POP POP SWAP1 DUP1 PUSH1 0x2 ADD PUSH1 0x0 SWAP1 SLOAD SWAP1 PUSH2 0x100 EXP SWAP1 DIV PUSH2 0xFFFF AND SWAP1 DUP1 PUSH1 0x2 ADD PUSH1 0x2 SWAP1 SLOAD SWAP1 PUSH2 0x100 EXP SWAP1 DIV PUSH1 0xFF AND SWAP1 POP DUP5 JUMP JUMPDEST PUSH1 0x0 DUP1 SLOAD SWAP1 PUSH2 0x100 EXP SWAP1 DIV PUSH20 0xFFFFFFFFFFFFFFFFFFFFFFFFFFFFFFFFFFFFFFFF AND DUP2 JUMP JUMPDEST PUSH1 0x0 DUP2 CALLDATALOAD SWAP1 POP PUSH2 0x1B2 DUP2 PUSH2 0x3C4 JUMP JUMPDEST SWAP3 SWAP2 POP POP JUMP JUMPDEST PUSH1 0x0 PUSH1 0x20 DUP3 DUP5 SUB SLT ISZERO PUSH2 0x1CE JUMPI PUSH2 0x1CD PUSH2 0x3AE JUMP JUMPDEST JUMPDEST PUSH1 0x0 PUSH2 0x1DC DUP5 DUP3 DUP6 ADD PUSH2 0x1A3 JUMP JUMPDEST SWAP2 POP POP SWAP3 SWAP2 POP POP JUMP JUMPDEST PUSH2 0x1EE DUP2 PUSH2 0x2CE JUMP JUMPDEST DUP3 MSTORE POP POP JUMP JUMPDEST PUSH2 0x1FD DUP2 PUSH2 0x2E0 JUMP JUMPDEST DUP3 MSTORE POP POP JUMP JUMPDEST PUSH1 0x0 PUSH2 0x20E DUP3 PUSH2 0x2B2 JUMP JUMPDEST PUSH2 0x218 DUP2 DUP6 PUSH2 0x2BD JUMP JUMPDEST SWAP4 POP PUSH2 0x228 DUP2 DUP6 PUSH1 0x20 DUP7 ADD PUSH2 0x31A JUMP JUMPDEST PUSH2 0x231 DUP2 PUSH2 0x3B3 JUMP JUMPDEST DUP5 ADD SWAP2 POP POP SWAP3 SWAP2 POP POP JUMP JUMPDEST PUSH2 0x245 DUP2 PUSH2 0x2EC JUMP JUMPDEST DUP3 MSTORE POP POP JUMP JUMPDEST PUSH1 0x0 PUSH1 0x20 DUP3 ADD SWAP1 POP PUSH2 0x260 PUSH1 0x0 DUP4 ADD DUP5 PUSH2 0x1E5 JUMP JUMPDEST SWAP3 SWAP2 POP POP JUMP JUMPDEST PUSH1 0x0 PUSH1 0x80 DUP3 ADD SWAP1 POP PUSH2 0x27B PUSH1 0x0 DUP4 ADD DUP8 PUSH2 0x1E5 JUMP JUMPDEST DUP2 DUP2 SUB PUSH1 0x20 DUP4 ADD MSTORE PUSH2 0x28D DUP2 DUP7 PUSH2 0x203 JUMP JUMPDEST SWAP1 POP PUSH2 0x29C PUSH1 0x40 DUP4 ADD DUP6 PUSH2 0x23C JUMP JUMPDEST PUSH2 0x2A9 PUSH1 0x60 DUP4 ADD DUP5 PUSH2 0x1F4 JUMP JUMPDEST SWAP6 SWAP5 POP POP POP POP POP JUMP JUMPDEST PUSH1 0x0 DUP2 MLOAD SWAP1 POP SWAP2 SWAP1 POP JUMP JUMPDEST PUSH1 0x0 DUP3 DUP3 MSTORE PUSH1 0x20 DUP3 ADD SWAP1 POP SWAP3 SWAP2 POP POP JUMP JUMPDEST PUSH1 0x0 PUSH2 0x2D9 DUP3 PUSH2 0x2FA JUMP JUMPDEST SWAP1 POP SWAP2 SWAP1 POP JUMP JUMPDEST PUSH1 0x0 DUP2 ISZERO ISZERO SWAP1 POP SWAP2 SWAP1 POP JUMP JUMPDEST PUSH1 0x0 PUSH2 0xFFFF DUP3 AND SWAP1 POP SWAP2 SWAP1 POP JUMP JUMPDEST PUSH1 0x0 PUSH20 0xFFFFFFFFFFFFFFFFFFFFFFFFFFFFFFFFFFFFFFFF DUP3 AND SWAP1 POP SWAP2 SWAP1 POP JUMP JUMPDEST PUSH1 0x0 JUMPDEST DUP4 DUP2 LT ISZERO PUSH2 0x338 JUMPI DUP1 DUP3 ADD MLOAD DUP2 DUP5 ADD MSTORE PUSH1 0x20 DUP2 ADD SWAP1 POP PUSH2 0x31D JUMP JUMPDEST DUP4 DUP2 GT ISZERO PUSH2 0x347 JUMPI PUSH1 0x0 DUP5 DUP5 ADD MSTORE JUMPDEST POP POP POP POP JUMP JUMPDEST PUSH1 0x0 PUSH1 0x2 DUP3 DIV SWAP1 POP PUSH1 0x1 DUP3 AND DUP1 PUSH2 0x365 JUMPI PUSH1 0x7F DUP3 AND SWAP2 POP JUMPDEST PUSH1 0x20 DUP3 LT DUP2 EQ ISZERO PUSH2 0x379 JUMPI PUSH2 0x378 PUSH2 0x37F JUMP JUMPDEST JUMPDEST POP SWAP2 SWAP1 POP JUMP JUMPDEST PUSH32 0x4E487B7100000000000000000000000000000000000000000000000000000000 PUSH1 0x0 MSTORE PUSH1 0x22 PUSH1 0x4 MSTORE PUSH1 0x24 PUSH1 0x0 REVERT JUMPDEST PUSH1 0x0 DUP1 REVERT JUMPDEST PUSH1 0x0 PUSH1 0x1F NOT PUSH1 0x1F DUP4 ADD AND SWAP1 POP SWAP2 SWAP1 POP JUMP JUMPDEST PUSH2 0x3CD DUP2 PUSH2 0x2CE JUMP JUMPDEST DUP2 EQ PUSH2 0x3D8 JUMPI PUSH1 0x0 DUP1 REVERT JUMPDEST POP JUMP INVALID LOG2 PUSH5 0x6970667358 0x22 SLT KECCAK256 GASLIMIT SWAP15 SELFBALANCE PUSH22 0x2635C94138680151A5B3A2D7D52DF5D45E68A7DC1190 PUSH10 0x35A3BEF91664736F6C63 NUMBER STOP ADDMOD SMOD STOP CALLER "
				},
				"gasEstimates": {
					"creation": {
						"codeDepositCost": "208200",
						"executionCost": "251",
						"totalCost": "208451"
					},
					"external": {
						"dataUser(address)": "infinite",
						"owner()": "2511"
					}
				},
				"methodIdentifiers": {
					"dataUser(address)": "565bfed4",
					"owner()": "8da5cb5b"
				}
			},
			"storageLayout": {
				"storage": [
					{
						"astId": 3,
						"contract": "contracts/Vote2.sol:Vote2",
						"label": "owner",
						"offset": 0,
						"slot": "0",
						"type": "t_address"
					},
					{
						"astId": 17,
						"contract": "contracts/Vote2.sol:Vote2",
						"label": "dataUser",
						"offset": 0,
						"slot": "1",
						"type": "t_mapping(t_address,t_struct(Voter)12_storage)"
					}
				],
				"types": {
					"t_address": {
						"encoding": "inplace",
						"label": "address",
						"numberOfBytes": "20"
					},
					"t_bool": {
						"encoding": "inplace",
						"label": "bool",
						"numberOfBytes": "1"
					},
					"t_mapping(t_address,t_struct(Voter)12_storage)": {
						"encoding": "mapping",
						"key": "t_address",
						"label": "mapping(address => struct Vote2.Voter)",
						"numberOfBytes": "32",
						"value": "t_struct(Voter)12_storage"
					},
					"t_string_storage": {
						"encoding": "bytes",
						"label": "string",
						"numberOfBytes": "32"
					},
					"t_struct(Voter)12_storage": {
						"encoding": "inplace",
						"label": "struct Vote2.Voter",
						"members": [
							{
								"astId": 5,
								"contract": "contracts/Vote2.sol:Vote2",
								"label": "delegate",
								"offset": 0,
								"slot": "0",
								"type": "t_address"
							},
							{
								"astId": 7,
								"contract": "contracts/Vote2.sol:Vote2",
								"label": "vote",
								"offset": 0,
								"slot": "1",
								"type": "t_string_storage"
							},
							{
								"astId": 9,
								"contract": "contracts/Vote2.sol:Vote2",
								"label": "weight",
								"offset": 0,
								"slot": "2",
								"type": "t_uint16"
							},
							{
								"astId": 11,
								"contract": "contracts/Vote2.sol:Vote2",
								"label": "voted",
								"offset": 2,
								"slot": "2",
								"type": "t_bool"
							}
						],
						"numberOfBytes": "96"
					},
					"t_uint16": {
						"encoding": "inplace",
						"label": "uint16",
						"numberOfBytes": "2"
					}
				}
			},
			"userdoc": {
				"kind": "user",
				"methods": {},
				"version": 1
			}
		}
	}
}