{
	"contracts/test variable.sol": {
		"funcoes": {
			"abi": [
				{
					"inputs": [],
					"name": "qualNome",
					"outputs": [
						{
							"internalType": "string",
							"name": "",
							"type": "string"
						}
					],
					"stateMutability": "view",
					"type": "function"
				},
				{
					"inputs": [
						{
							"internalType": "uint256",
							"name": "_a",
							"type": "uint256"
						},
						{
							"internalType": "uint256",
							"name": "_b",
							"type": "uint256"
						}
					],
					"name": "somar",
					"outputs": [
						{
							"internalType": "uint256",
							"name": "",
							"type": "uint256"
						}
					],
					"stateMutability": "pure",
					"type": "function"
				}
			],
			"devdoc": {
				"kind": "dev",
				"methods": {},
				"version": 1
			},
			"evm": {
				"assembly": "    /* \"contracts/test variable.sol\":60:296  contract funcoes{\r... */\n  mstore(0x40, 0x80)\n  callvalue\n  dup1\n  iszero\n  tag_1\n  jumpi\n  0x00\n  dup1\n  revert\ntag_1:\n  pop\n  dataSize(sub_0)\n  dup1\n  dataOffset(sub_0)\n  0x00\n  codecopy\n  0x00\n  return\nstop\n\nsub_0: assembly {\n        /* \"contracts/test variable.sol\":60:296  contract funcoes{\r... */\n      mstore(0x40, 0x80)\n      callvalue\n      dup1\n      iszero\n      tag_1\n      jumpi\n      0x00\n      dup1\n      revert\n    tag_1:\n      pop\n      jumpi(tag_2, lt(calldatasize, 0x04))\n      shr(0xe0, calldataload(0x00))\n      dup1\n      0x1a60b38b\n      eq\n      tag_3\n      jumpi\n      dup1\n      0xa112c5da\n      eq\n      tag_4\n      jumpi\n    tag_2:\n      0x00\n      dup1\n      revert\n        /* \"contracts/test variable.sol\":198:293  function qualNome()external view returns(string memory){\r... */\n    tag_3:\n      tag_5\n      tag_6\n      jump\t// in\n    tag_5:\n      mload(0x40)\n      tag_7\n      swap2\n      swap1\n      tag_8\n      jump\t// in\n    tag_7:\n      mload(0x40)\n      dup1\n      swap2\n      sub\n      swap1\n      return\n        /* \"contracts/test variable.sol\":83:173  function somar(uint _a, uint _b) external pure returns(uint){\r... */\n    tag_4:\n      tag_9\n      0x04\n      dup1\n      calldatasize\n      sub\n      dup2\n      add\n      swap1\n      tag_10\n      swap2\n      swap1\n      tag_11\n      jump\t// in\n    tag_10:\n      tag_12\n      jump\t// in\n    tag_9:\n      mload(0x40)\n      tag_13\n      swap2\n      swap1\n      tag_14\n      jump\t// in\n    tag_13:\n      mload(0x40)\n      dup1\n      swap2\n      sub\n      swap1\n      return\n        /* \"contracts/test variable.sol\":198:293  function qualNome()external view returns(string memory){\r... */\n    tag_6:\n        /* \"contracts/test variable.sol\":239:252  string memory */\n      0x60\n        /* \"contracts/test variable.sol\":281:285  name */\n      0x00\n        /* \"contracts/test variable.sol\":274:285  return name */\n      dup1\n      sload\n      tag_16\n      swap1\n      tag_17\n      jump\t// in\n    tag_16:\n      dup1\n      0x1f\n      add\n      0x20\n      dup1\n      swap2\n      div\n      mul\n      0x20\n      add\n      mload(0x40)\n      swap1\n      dup2\n      add\n      0x40\n      mstore\n      dup1\n      swap3\n      swap2\n      swap1\n      dup2\n      dup2\n      mstore\n      0x20\n      add\n      dup3\n      dup1\n      sload\n      tag_18\n      swap1\n      tag_17\n      jump\t// in\n    tag_18:\n      dup1\n      iszero\n      tag_19\n      jumpi\n      dup1\n      0x1f\n      lt\n      tag_20\n      jumpi\n      0x0100\n      dup1\n      dup4\n      sload\n      div\n      mul\n      dup4\n      mstore\n      swap2\n      0x20\n      add\n      swap2\n      jump(tag_19)\n    tag_20:\n      dup3\n      add\n      swap2\n      swap1\n      0x00\n      mstore\n      keccak256(0x00, 0x20)\n      swap1\n    tag_21:\n      dup2\n      sload\n      dup2\n      mstore\n      swap1\n      0x01\n      add\n      swap1\n      0x20\n      add\n      dup1\n      dup4\n      gt\n      tag_21\n      jumpi\n      dup3\n      swap1\n      sub\n      0x1f\n      and\n      dup3\n      add\n      swap2\n    tag_19:\n      pop\n      pop\n      pop\n      pop\n      pop\n      swap1\n      pop\n        /* \"contracts/test variable.sol\":198:293  function qualNome()external view returns(string memory){\r... */\n      swap1\n      jump\t// out\n        /* \"contracts/test variable.sol\":83:173  function somar(uint _a, uint _b) external pure returns(uint){\r... */\n    tag_12:\n        /* \"contracts/test variable.sol\":138:142  uint */\n      0x00\n        /* \"contracts/test variable.sol\":163:165  _b */\n      dup2\n        /* \"contracts/test variable.sol\":159:161  _a */\n      dup4\n        /* \"contracts/test variable.sol\":159:165  _a +_b */\n      tag_23\n      swap2\n      swap1\n      tag_24\n      jump\t// in\n    tag_23:\n        /* \"contracts/test variable.sol\":152:165  return _a +_b */\n      swap1\n      pop\n        /* \"contracts/test variable.sol\":83:173  function somar(uint _a, uint _b) external pure returns(uint){\r... */\n      swap3\n      swap2\n      pop\n      pop\n      jump\t// out\n        /* \"#utility.yul\":7:146   */\n    tag_26:\n        /* \"#utility.yul\":53:58   */\n      0x00\n        /* \"#utility.yul\":91:97   */\n      dup2\n        /* \"#utility.yul\":78:98   */\n      calldataload\n        /* \"#utility.yul\":69:98   */\n      swap1\n      pop\n        /* \"#utility.yul\":107:140   */\n      tag_28\n        /* \"#utility.yul\":134:139   */\n      dup2\n        /* \"#utility.yul\":107:140   */\n      tag_29\n      jump\t// in\n    tag_28:\n        /* \"#utility.yul\":7:146   */\n      swap3\n      swap2\n      pop\n      pop\n      jump\t// out\n        /* \"#utility.yul\":152:626   */\n    tag_11:\n        /* \"#utility.yul\":220:226   */\n      0x00\n        /* \"#utility.yul\":228:234   */\n      dup1\n        /* \"#utility.yul\":277:279   */\n      0x40\n        /* \"#utility.yul\":265:274   */\n      dup4\n        /* \"#utility.yul\":256:263   */\n      dup6\n        /* \"#utility.yul\":252:275   */\n      sub\n        /* \"#utility.yul\":248:280   */\n      slt\n        /* \"#utility.yul\":245:364   */\n      iszero\n      tag_31\n      jumpi\n        /* \"#utility.yul\":283:362   */\n      tag_32\n      tag_33\n      jump\t// in\n    tag_32:\n        /* \"#utility.yul\":245:364   */\n    tag_31:\n        /* \"#utility.yul\":403:404   */\n      0x00\n        /* \"#utility.yul\":428:481   */\n      tag_34\n        /* \"#utility.yul\":473:480   */\n      dup6\n        /* \"#utility.yul\":464:470   */\n      dup3\n        /* \"#utility.yul\":453:462   */\n      dup7\n        /* \"#utility.yul\":449:471   */\n      add\n        /* \"#utility.yul\":428:481   */\n      tag_26\n      jump\t// in\n    tag_34:\n        /* \"#utility.yul\":418:481   */\n      swap3\n      pop\n        /* \"#utility.yul\":374:491   */\n      pop\n        /* \"#utility.yul\":530:532   */\n      0x20\n        /* \"#utility.yul\":556:609   */\n      tag_35\n        /* \"#utility.yul\":601:608   */\n      dup6\n        /* \"#utility.yul\":592:598   */\n      dup3\n        /* \"#utility.yul\":581:590   */\n      dup7\n        /* \"#utility.yul\":577:599   */\n      add\n        /* \"#utility.yul\":556:609   */\n      tag_26\n      jump\t// in\n    tag_35:\n        /* \"#utility.yul\":546:609   */\n      swap2\n      pop\n        /* \"#utility.yul\":501:619   */\n      pop\n        /* \"#utility.yul\":152:626   */\n      swap3\n      pop\n      swap3\n      swap1\n      pop\n      jump\t// out\n        /* \"#utility.yul\":632:996   */\n    tag_36:\n        /* \"#utility.yul\":720:723   */\n      0x00\n        /* \"#utility.yul\":748:787   */\n      tag_38\n        /* \"#utility.yul\":781:786   */\n      dup3\n        /* \"#utility.yul\":748:787   */\n      tag_39\n      jump\t// in\n    tag_38:\n        /* \"#utility.yul\":803:874   */\n      tag_40\n        /* \"#utility.yul\":867:873   */\n      dup2\n        /* \"#utility.yul\":862:865   */\n      dup6\n        /* \"#utility.yul\":803:874   */\n      tag_41\n      jump\t// in\n    tag_40:\n        /* \"#utility.yul\":796:874   */\n      swap4\n      pop\n        /* \"#utility.yul\":883:935   */\n      tag_42\n        /* \"#utility.yul\":928:934   */\n      dup2\n        /* \"#utility.yul\":923:926   */\n      dup6\n        /* \"#utility.yul\":916:920   */\n      0x20\n        /* \"#utility.yul\":909:914   */\n      dup7\n        /* \"#utility.yul\":905:921   */\n      add\n        /* \"#utility.yul\":883:935   */\n      tag_43\n      jump\t// in\n    tag_42:\n        /* \"#utility.yul\":960:989   */\n      tag_44\n        /* \"#utility.yul\":982:988   */\n      dup2\n        /* \"#utility.yul\":960:989   */\n      tag_45\n      jump\t// in\n    tag_44:\n        /* \"#utility.yul\":955:958   */\n      dup5\n        /* \"#utility.yul\":951:990   */\n      add\n        /* \"#utility.yul\":944:990   */\n      swap2\n      pop\n        /* \"#utility.yul\":724:996   */\n      pop\n        /* \"#utility.yul\":632:996   */\n      swap3\n      swap2\n      pop\n      pop\n      jump\t// out\n        /* \"#utility.yul\":1002:1120   */\n    tag_46:\n        /* \"#utility.yul\":1089:1113   */\n      tag_48\n        /* \"#utility.yul\":1107:1112   */\n      dup2\n        /* \"#utility.yul\":1089:1113   */\n      tag_49\n      jump\t// in\n    tag_48:\n        /* \"#utility.yul\":1084:1087   */\n      dup3\n        /* \"#utility.yul\":1077:1114   */\n      mstore\n        /* \"#utility.yul\":1002:1120   */\n      pop\n      pop\n      jump\t// out\n        /* \"#utility.yul\":1126:1439   */\n    tag_8:\n        /* \"#utility.yul\":1239:1243   */\n      0x00\n        /* \"#utility.yul\":1277:1279   */\n      0x20\n        /* \"#utility.yul\":1266:1275   */\n      dup3\n        /* \"#utility.yul\":1262:1280   */\n      add\n        /* \"#utility.yul\":1254:1280   */\n      swap1\n      pop\n        /* \"#utility.yul\":1326:1335   */\n      dup2\n        /* \"#utility.yul\":1320:1324   */\n      dup2\n        /* \"#utility.yul\":1316:1336   */\n      sub\n        /* \"#utility.yul\":1312:1313   */\n      0x00\n        /* \"#utility.yul\":1301:1310   */\n      dup4\n        /* \"#utility.yul\":1297:1314   */\n      add\n        /* \"#utility.yul\":1290:1337   */\n      mstore\n        /* \"#utility.yul\":1354:1432   */\n      tag_51\n        /* \"#utility.yul\":1427:1431   */\n      dup2\n        /* \"#utility.yul\":1418:1424   */\n      dup5\n        /* \"#utility.yul\":1354:1432   */\n      tag_36\n      jump\t// in\n    tag_51:\n        /* \"#utility.yul\":1346:1432   */\n      swap1\n      pop\n        /* \"#utility.yul\":1126:1439   */\n      swap3\n      swap2\n      pop\n      pop\n      jump\t// out\n        /* \"#utility.yul\":1445:1667   */\n    tag_14:\n        /* \"#utility.yul\":1538:1542   */\n      0x00\n        /* \"#utility.yul\":1576:1578   */\n      0x20\n        /* \"#utility.yul\":1565:1574   */\n      dup3\n        /* \"#utility.yul\":1561:1579   */\n      add\n        /* \"#utility.yul\":1553:1579   */\n      swap1\n      pop\n        /* \"#utility.yul\":1589:1660   */\n      tag_53\n        /* \"#utility.yul\":1657:1658   */\n      0x00\n        /* \"#utility.yul\":1646:1655   */\n      dup4\n        /* \"#utility.yul\":1642:1659   */\n      add\n        /* \"#utility.yul\":1633:1639   */\n      dup5\n        /* \"#utility.yul\":1589:1660   */\n      tag_46\n      jump\t// in\n    tag_53:\n        /* \"#utility.yul\":1445:1667   */\n      swap3\n      swap2\n      pop\n      pop\n      jump\t// out\n        /* \"#utility.yul\":1754:1853   */\n    tag_39:\n        /* \"#utility.yul\":1806:1812   */\n      0x00\n        /* \"#utility.yul\":1840:1845   */\n      dup2\n        /* \"#utility.yul\":1834:1846   */\n      mload\n        /* \"#utility.yul\":1824:1846   */\n      swap1\n      pop\n        /* \"#utility.yul\":1754:1853   */\n      swap2\n      swap1\n      pop\n      jump\t// out\n        /* \"#utility.yul\":1859:2028   */\n    tag_41:\n        /* \"#utility.yul\":1943:1954   */\n      0x00\n        /* \"#utility.yul\":1977:1983   */\n      dup3\n        /* \"#utility.yul\":1972:1975   */\n      dup3\n        /* \"#utility.yul\":1965:1984   */\n      mstore\n        /* \"#utility.yul\":2017:2021   */\n      0x20\n        /* \"#utility.yul\":2012:2015   */\n      dup3\n        /* \"#utility.yul\":2008:2022   */\n      add\n        /* \"#utility.yul\":1993:2022   */\n      swap1\n      pop\n        /* \"#utility.yul\":1859:2028   */\n      swap3\n      swap2\n      pop\n      pop\n      jump\t// out\n        /* \"#utility.yul\":2034:2339   */\n    tag_24:\n        /* \"#utility.yul\":2074:2077   */\n      0x00\n        /* \"#utility.yul\":2093:2113   */\n      tag_59\n        /* \"#utility.yul\":2111:2112   */\n      dup3\n        /* \"#utility.yul\":2093:2113   */\n      tag_49\n      jump\t// in\n    tag_59:\n        /* \"#utility.yul\":2088:2113   */\n      swap2\n      pop\n        /* \"#utility.yul\":2127:2147   */\n      tag_60\n        /* \"#utility.yul\":2145:2146   */\n      dup4\n        /* \"#utility.yul\":2127:2147   */\n      tag_49\n      jump\t// in\n    tag_60:\n        /* \"#utility.yul\":2122:2147   */\n      swap3\n      pop\n        /* \"#utility.yul\":2281:2282   */\n      dup3\n        /* \"#utility.yul\":2213:2279   */\n      0xffffffffffffffffffffffffffffffffffffffffffffffffffffffffffffffff\n        /* \"#utility.yul\":2209:2283   */\n      sub\n        /* \"#utility.yul\":2206:2207   */\n      dup3\n        /* \"#utility.yul\":2203:2284   */\n      gt\n        /* \"#utility.yul\":2200:2307   */\n      iszero\n      tag_61\n      jumpi\n        /* \"#utility.yul\":2287:2305   */\n      tag_62\n      tag_63\n      jump\t// in\n    tag_62:\n        /* \"#utility.yul\":2200:2307   */\n    tag_61:\n        /* \"#utility.yul\":2331:2332   */\n      dup3\n        /* \"#utility.yul\":2328:2329   */\n      dup3\n        /* \"#utility.yul\":2324:2333   */\n      add\n        /* \"#utility.yul\":2317:2333   */\n      swap1\n      pop\n        /* \"#utility.yul\":2034:2339   */\n      swap3\n      swap2\n      pop\n      pop\n      jump\t// out\n        /* \"#utility.yul\":2345:2422   */\n    tag_49:\n        /* \"#utility.yul\":2382:2389   */\n      0x00\n        /* \"#utility.yul\":2411:2416   */\n      dup2\n        /* \"#utility.yul\":2400:2416   */\n      swap1\n      pop\n        /* \"#utility.yul\":2345:2422   */\n      swap2\n      swap1\n      pop\n      jump\t// out\n        /* \"#utility.yul\":2428:2735   */\n    tag_43:\n        /* \"#utility.yul\":2496:2497   */\n      0x00\n        /* \"#utility.yul\":2506:2619   */\n    tag_66:\n        /* \"#utility.yul\":2520:2526   */\n      dup4\n        /* \"#utility.yul\":2517:2518   */\n      dup2\n        /* \"#utility.yul\":2514:2527   */\n      lt\n        /* \"#utility.yul\":2506:2619   */\n      iszero\n      tag_68\n      jumpi\n        /* \"#utility.yul\":2605:2606   */\n      dup1\n        /* \"#utility.yul\":2600:2603   */\n      dup3\n        /* \"#utility.yul\":2596:2607   */\n      add\n        /* \"#utility.yul\":2590:2608   */\n      mload\n        /* \"#utility.yul\":2586:2587   */\n      dup2\n        /* \"#utility.yul\":2581:2584   */\n      dup5\n        /* \"#utility.yul\":2577:2588   */\n      add\n        /* \"#utility.yul\":2570:2609   */\n      mstore\n        /* \"#utility.yul\":2542:2544   */\n      0x20\n        /* \"#utility.yul\":2539:2540   */\n      dup2\n        /* \"#utility.yul\":2535:2545   */\n      add\n        /* \"#utility.yul\":2530:2545   */\n      swap1\n      pop\n        /* \"#utility.yul\":2506:2619   */\n      jump(tag_66)\n    tag_68:\n        /* \"#utility.yul\":2637:2643   */\n      dup4\n        /* \"#utility.yul\":2634:2635   */\n      dup2\n        /* \"#utility.yul\":2631:2644   */\n      gt\n        /* \"#utility.yul\":2628:2729   */\n      iszero\n      tag_69\n      jumpi\n        /* \"#utility.yul\":2717:2718   */\n      0x00\n        /* \"#utility.yul\":2708:2714   */\n      dup5\n        /* \"#utility.yul\":2703:2706   */\n      dup5\n        /* \"#utility.yul\":2699:2715   */\n      add\n        /* \"#utility.yul\":2692:2719   */\n      mstore\n        /* \"#utility.yul\":2628:2729   */\n    tag_69:\n        /* \"#utility.yul\":2477:2735   */\n      pop\n        /* \"#utility.yul\":2428:2735   */\n      pop\n      pop\n      pop\n      jump\t// out\n        /* \"#utility.yul\":2741:3061   */\n    tag_17:\n        /* \"#utility.yul\":2785:2791   */\n      0x00\n        /* \"#utility.yul\":2822:2823   */\n      0x02\n        /* \"#utility.yul\":2816:2820   */\n      dup3\n        /* \"#utility.yul\":2812:2824   */\n      div\n        /* \"#utility.yul\":2802:2824   */\n      swap1\n      pop\n        /* \"#utility.yul\":2869:2870   */\n      0x01\n        /* \"#utility.yul\":2863:2867   */\n      dup3\n        /* \"#utility.yul\":2859:2871   */\n      and\n        /* \"#utility.yul\":2890:2908   */\n      dup1\n        /* \"#utility.yul\":2880:2961   */\n      tag_71\n      jumpi\n        /* \"#utility.yul\":2946:2950   */\n      0x7f\n        /* \"#utility.yul\":2938:2944   */\n      dup3\n        /* \"#utility.yul\":2934:2951   */\n      and\n        /* \"#utility.yul\":2924:2951   */\n      swap2\n      pop\n        /* \"#utility.yul\":2880:2961   */\n    tag_71:\n        /* \"#utility.yul\":3008:3010   */\n      0x20\n        /* \"#utility.yul\":3000:3006   */\n      dup3\n        /* \"#utility.yul\":2997:3011   */\n      lt\n        /* \"#utility.yul\":2977:2995   */\n      dup2\n        /* \"#utility.yul\":2974:3012   */\n      eq\n        /* \"#utility.yul\":2971:3055   */\n      iszero\n      tag_72\n      jumpi\n        /* \"#utility.yul\":3027:3045   */\n      tag_73\n      tag_74\n      jump\t// in\n    tag_73:\n        /* \"#utility.yul\":2971:3055   */\n    tag_72:\n        /* \"#utility.yul\":2792:3061   */\n      pop\n        /* \"#utility.yul\":2741:3061   */\n      swap2\n      swap1\n      pop\n      jump\t// out\n        /* \"#utility.yul\":3067:3247   */\n    tag_63:\n        /* \"#utility.yul\":3115:3192   */\n      0x4e487b7100000000000000000000000000000000000000000000000000000000\n        /* \"#utility.yul\":3112:3113   */\n      0x00\n        /* \"#utility.yul\":3105:3193   */\n      mstore\n        /* \"#utility.yul\":3212:3216   */\n      0x11\n        /* \"#utility.yul\":3209:3210   */\n      0x04\n        /* \"#utility.yul\":3202:3217   */\n      mstore\n        /* \"#utility.yul\":3236:3240   */\n      0x24\n        /* \"#utility.yul\":3233:3234   */\n      0x00\n        /* \"#utility.yul\":3226:3241   */\n      revert\n        /* \"#utility.yul\":3253:3433   */\n    tag_74:\n        /* \"#utility.yul\":3301:3378   */\n      0x4e487b7100000000000000000000000000000000000000000000000000000000\n        /* \"#utility.yul\":3298:3299   */\n      0x00\n        /* \"#utility.yul\":3291:3379   */\n      mstore\n        /* \"#utility.yul\":3398:3402   */\n      0x22\n        /* \"#utility.yul\":3395:3396   */\n      0x04\n        /* \"#utility.yul\":3388:3403   */\n      mstore\n        /* \"#utility.yul\":3422:3426   */\n      0x24\n        /* \"#utility.yul\":3419:3420   */\n      0x00\n        /* \"#utility.yul\":3412:3427   */\n      revert\n        /* \"#utility.yul\":3562:3679   */\n    tag_33:\n        /* \"#utility.yul\":3671:3672   */\n      0x00\n        /* \"#utility.yul\":3668:3669   */\n      dup1\n        /* \"#utility.yul\":3661:3673   */\n      revert\n        /* \"#utility.yul\":3685:3787   */\n    tag_45:\n        /* \"#utility.yul\":3726:3732   */\n      0x00\n        /* \"#utility.yul\":3777:3779   */\n      0x1f\n        /* \"#utility.yul\":3773:3780   */\n      not\n        /* \"#utility.yul\":3768:3770   */\n      0x1f\n        /* \"#utility.yul\":3761:3766   */\n      dup4\n        /* \"#utility.yul\":3757:3771   */\n      add\n        /* \"#utility.yul\":3753:3781   */\n      and\n        /* \"#utility.yul\":3743:3781   */\n      swap1\n      pop\n        /* \"#utility.yul\":3685:3787   */\n      swap2\n      swap1\n      pop\n      jump\t// out\n        /* \"#utility.yul\":3793:3915   */\n    tag_29:\n        /* \"#utility.yul\":3866:3890   */\n      tag_82\n        /* \"#utility.yul\":3884:3889   */\n      dup2\n        /* \"#utility.yul\":3866:3890   */\n      tag_49\n      jump\t// in\n    tag_82:\n        /* \"#utility.yul\":3859:3864   */\n      dup2\n        /* \"#utility.yul\":3856:3891   */\n      eq\n        /* \"#utility.yul\":3846:3909   */\n      tag_83\n      jumpi\n        /* \"#utility.yul\":3905:3906   */\n      0x00\n        /* \"#utility.yul\":3902:3903   */\n      dup1\n        /* \"#utility.yul\":3895:3907   */\n      revert\n        /* \"#utility.yul\":3846:3909   */\n    tag_83:\n        /* \"#utility.yul\":3793:3915   */\n      pop\n      jump\t// out\n\n    auxdata: 0xa26469706673582212201ce6197bdf3662742a59ab9d49afaa247f606885ad641a2ef55590f4a6772db964736f6c63430008070033\n}\n",
				"bytecode": {
					"linkReferences": {},
					"object": "608060405234801561001057600080fd5b506103ad806100206000396000f3fe608060405234801561001057600080fd5b50600436106100365760003560e01c80631a60b38b1461003b578063a112c5da14610059575b600080fd5b610043610089565b60405161005091906101ce565b60405180910390f35b610073600480360381019061006e9190610146565b61011b565b60405161008091906101f0565b60405180910390f35b606060008054610098906102ba565b80601f01602080910402602001604051908101604052809291908181526020018280546100c4906102ba565b80156101115780601f106100e657610100808354040283529160200191610111565b820191906000526020600020905b8154815290600101906020018083116100f457829003601f168201915b5050505050905090565b600081836101299190610227565b905092915050565b60008135905061014081610360565b92915050565b6000806040838503121561015d5761015c61034a565b5b600061016b85828601610131565b925050602061017c85828601610131565b9150509250929050565b60006101918261020b565b61019b8185610216565b93506101ab818560208601610287565b6101b48161034f565b840191505092915050565b6101c88161027d565b82525050565b600060208201905081810360008301526101e88184610186565b905092915050565b600060208201905061020560008301846101bf565b92915050565b600081519050919050565b600082825260208201905092915050565b60006102328261027d565b915061023d8361027d565b9250827fffffffffffffffffffffffffffffffffffffffffffffffffffffffffffffffff03821115610272576102716102ec565b5b828201905092915050565b6000819050919050565b60005b838110156102a557808201518184015260208101905061028a565b838111156102b4576000848401525b50505050565b600060028204905060018216806102d257607f821691505b602082108114156102e6576102e561031b565b5b50919050565b7f4e487b7100000000000000000000000000000000000000000000000000000000600052601160045260246000fd5b7f4e487b7100000000000000000000000000000000000000000000000000000000600052602260045260246000fd5b600080fd5b6000601f19601f8301169050919050565b6103698161027d565b811461037457600080fd5b5056fea26469706673582212201ce6197bdf3662742a59ab9d49afaa247f606885ad641a2ef55590f4a6772db964736f6c63430008070033",
					"opcodes": "PUSH1 0x80 PUSH1 0x40 MSTORE CALLVALUE DUP1 ISZERO PUSH2 0x10 JUMPI PUSH1 0x0 DUP1 REVERT JUMPDEST POP PUSH2 0x3AD DUP1 PUSH2 0x20 PUSH1 0x0 CODECOPY PUSH1 0x0 RETURN INVALID PUSH1 0x80 PUSH1 0x40 MSTORE CALLVALUE DUP1 ISZERO PUSH2 0x10 JUMPI PUSH1 0x0 DUP1 REVERT JUMPDEST POP PUSH1 0x4 CALLDATASIZE LT PUSH2 0x36 JUMPI PUSH1 0x0 CALLDATALOAD PUSH1 0xE0 SHR DUP1 PUSH4 0x1A60B38B EQ PUSH2 0x3B JUMPI DUP1 PUSH4 0xA112C5DA EQ PUSH2 0x59 JUMPI JUMPDEST PUSH1 0x0 DUP1 REVERT JUMPDEST PUSH2 0x43 PUSH2 0x89 JUMP JUMPDEST PUSH1 0x40 MLOAD PUSH2 0x50 SWAP2 SWAP1 PUSH2 0x1CE JUMP JUMPDEST PUSH1 0x40 MLOAD DUP1 SWAP2 SUB SWAP1 RETURN JUMPDEST PUSH2 0x73 PUSH1 0x4 DUP1 CALLDATASIZE SUB DUP2 ADD SWAP1 PUSH2 0x6E SWAP2 SWAP1 PUSH2 0x146 JUMP JUMPDEST PUSH2 0x11B JUMP JUMPDEST PUSH1 0x40 MLOAD PUSH2 0x80 SWAP2 SWAP1 PUSH2 0x1F0 JUMP JUMPDEST PUSH1 0x40 MLOAD DUP1 SWAP2 SUB SWAP1 RETURN JUMPDEST PUSH1 0x60 PUSH1 0x0 DUP1 SLOAD PUSH2 0x98 SWAP1 PUSH2 0x2BA JUMP JUMPDEST DUP1 PUSH1 0x1F ADD PUSH1 0x20 DUP1 SWAP2 DIV MUL PUSH1 0x20 ADD PUSH1 0x40 MLOAD SWAP1 DUP2 ADD PUSH1 0x40 MSTORE DUP1 SWAP3 SWAP2 SWAP1 DUP2 DUP2 MSTORE PUSH1 0x20 ADD DUP3 DUP1 SLOAD PUSH2 0xC4 SWAP1 PUSH2 0x2BA JUMP JUMPDEST DUP1 ISZERO PUSH2 0x111 JUMPI DUP1 PUSH1 0x1F LT PUSH2 0xE6 JUMPI PUSH2 0x100 DUP1 DUP4 SLOAD DIV MUL DUP4 MSTORE SWAP2 PUSH1 0x20 ADD SWAP2 PUSH2 0x111 JUMP JUMPDEST DUP3 ADD SWAP2 SWAP1 PUSH1 0x0 MSTORE PUSH1 0x20 PUSH1 0x0 KECCAK256 SWAP1 JUMPDEST DUP2 SLOAD DUP2 MSTORE SWAP1 PUSH1 0x1 ADD SWAP1 PUSH1 0x20 ADD DUP1 DUP4 GT PUSH2 0xF4 JUMPI DUP3 SWAP1 SUB PUSH1 0x1F AND DUP3 ADD SWAP2 JUMPDEST POP POP POP POP POP SWAP1 POP SWAP1 JUMP JUMPDEST PUSH1 0x0 DUP2 DUP4 PUSH2 0x129 SWAP2 SWAP1 PUSH2 0x227 JUMP JUMPDEST SWAP1 POP SWAP3 SWAP2 POP POP JUMP JUMPDEST PUSH1 0x0 DUP2 CALLDATALOAD SWAP1 POP PUSH2 0x140 DUP2 PUSH2 0x360 JUMP JUMPDEST SWAP3 SWAP2 POP POP JUMP JUMPDEST PUSH1 0x0 DUP1 PUSH1 0x40 DUP4 DUP6 SUB SLT ISZERO PUSH2 0x15D JUMPI PUSH2 0x15C PUSH2 0x34A JUMP JUMPDEST JUMPDEST PUSH1 0x0 PUSH2 0x16B DUP6 DUP3 DUP7 ADD PUSH2 0x131 JUMP JUMPDEST SWAP3 POP POP PUSH1 0x20 PUSH2 0x17C DUP6 DUP3 DUP7 ADD PUSH2 0x131 JUMP JUMPDEST SWAP2 POP POP SWAP3 POP SWAP3 SWAP1 POP JUMP JUMPDEST PUSH1 0x0 PUSH2 0x191 DUP3 PUSH2 0x20B JUMP JUMPDEST PUSH2 0x19B DUP2 DUP6 PUSH2 0x216 JUMP JUMPDEST SWAP4 POP PUSH2 0x1AB DUP2 DUP6 PUSH1 0x20 DUP7 ADD PUSH2 0x287 JUMP JUMPDEST PUSH2 0x1B4 DUP2 PUSH2 0x34F JUMP JUMPDEST DUP5 ADD SWAP2 POP POP SWAP3 SWAP2 POP POP JUMP JUMPDEST PUSH2 0x1C8 DUP2 PUSH2 0x27D JUMP JUMPDEST DUP3 MSTORE POP POP JUMP JUMPDEST PUSH1 0x0 PUSH1 0x20 DUP3 ADD SWAP1 POP DUP2 DUP2 SUB PUSH1 0x0 DUP4 ADD MSTORE PUSH2 0x1E8 DUP2 DUP5 PUSH2 0x186 JUMP JUMPDEST SWAP1 POP SWAP3 SWAP2 POP POP JUMP JUMPDEST PUSH1 0x0 PUSH1 0x20 DUP3 ADD SWAP1 POP PUSH2 0x205 PUSH1 0x0 DUP4 ADD DUP5 PUSH2 0x1BF JUMP JUMPDEST SWAP3 SWAP2 POP POP JUMP JUMPDEST PUSH1 0x0 DUP2 MLOAD SWAP1 POP SWAP2 SWAP1 POP JUMP JUMPDEST PUSH1 0x0 DUP3 DUP3 MSTORE PUSH1 0x20 DUP3 ADD SWAP1 POP SWAP3 SWAP2 POP POP JUMP JUMPDEST PUSH1 0x0 PUSH2 0x232 DUP3 PUSH2 0x27D JUMP JUMPDEST SWAP2 POP PUSH2 0x23D DUP4 PUSH2 0x27D JUMP JUMPDEST SWAP3 POP DUP3 PUSH32 0xFFFFFFFFFFFFFFFFFFFFFFFFFFFFFFFFFFFFFFFFFFFFFFFFFFFFFFFFFFFFFFFF SUB DUP3 GT ISZERO PUSH2 0x272 JUMPI PUSH2 0x271 PUSH2 0x2EC JUMP JUMPDEST JUMPDEST DUP3 DUP3 ADD SWAP1 POP SWAP3 SWAP2 POP POP JUMP JUMPDEST PUSH1 0x0 DUP2 SWAP1 POP SWAP2 SWAP1 POP JUMP JUMPDEST PUSH1 0x0 JUMPDEST DUP4 DUP2 LT ISZERO PUSH2 0x2A5 JUMPI DUP1 DUP3 ADD MLOAD DUP2 DUP5 ADD MSTORE PUSH1 0x20 DUP2 ADD SWAP1 POP PUSH2 0x28A JUMP JUMPDEST DUP4 DUP2 GT ISZERO PUSH2 0x2B4 JUMPI PUSH1 0x0 DUP5 DUP5 ADD MSTORE JUMPDEST POP POP POP POP JUMP JUMPDEST PUSH1 0x0 PUSH1 0x2 DUP3 DIV SWAP1 POP PUSH1 0x1 DUP3 AND DUP1 PUSH2 0x2D2 JUMPI PUSH1 0x7F DUP3 AND SWAP2 POP JUMPDEST PUSH1 0x20 DUP3 LT DUP2 EQ ISZERO PUSH2 0x2E6 JUMPI PUSH2 0x2E5 PUSH2 0x31B JUMP JUMPDEST JUMPDEST POP SWAP2 SWAP1 POP JUMP JUMPDEST PUSH32 0x4E487B7100000000000000000000000000000000000000000000000000000000 PUSH1 0x0 MSTORE PUSH1 0x11 PUSH1 0x4 MSTORE PUSH1 0x24 PUSH1 0x0 REVERT JUMPDEST PUSH32 0x4E487B7100000000000000000000000000000000000000000000000000000000 PUSH1 0x0 MSTORE PUSH1 0x22 PUSH1 0x4 MSTORE PUSH1 0x24 PUSH1 0x0 REVERT JUMPDEST PUSH1 0x0 DUP1 REVERT JUMPDEST PUSH1 0x0 PUSH1 0x1F NOT PUSH1 0x1F DUP4 ADD AND SWAP1 POP SWAP2 SWAP1 POP JUMP JUMPDEST PUSH2 0x369 DUP2 PUSH2 0x27D JUMP JUMPDEST DUP2 EQ PUSH2 0x374 JUMPI PUSH1 0x0 DUP1 REVERT JUMPDEST POP JUMP INVALID LOG2 PUSH5 0x6970667358 0x22 SLT KECCAK256 SHR 0xE6 NOT PUSH28 0xDF3662742A59AB9D49AFAA247F606885AD641A2EF55590F4A6772DB9 PUSH5 0x736F6C6343 STOP ADDMOD SMOD STOP CALLER "
				},
				"gasEstimates": {
					"creation": {
						"codeDepositCost": "188200",
						"executionCost": "232",
						"totalCost": "188432"
					},
					"external": {
						"qualNome()": "infinite",
						"somar(uint256,uint256)": "infinite"
					}
				},
				"methodIdentifiers": {
					"qualNome()": "1a60b38b",
					"somar(uint256,uint256)": "a112c5da"
				}
			},
			"storageLayout": {
				"storage": [
					{
						"astId": 17,
						"contract": "contracts/test variable.sol:funcoes",
						"label": "name",
						"offset": 0,
						"slot": "0",
						"type": "t_string_storage"
					}
				],
				"types": {
					"t_string_storage": {
						"encoding": "bytes",
						"label": "string",
						"numberOfBytes": "32"
					}
				}
			},
			"userdoc": {
				"kind": "user",
				"methods": {},
				"version": 1
			}
		}
	}
}