{
	"contracts/tipos.sol": {
		"Tipos": {
			"abi": [
				{
					"inputs": [],
					"name": "inteiro",
					"outputs": [
						{
							"internalType": "int152",
							"name": "",
							"type": "int152"
						}
					],
					"stateMutability": "view",
					"type": "function"
				},
				{
					"inputs": [],
					"name": "unintzeiro",
					"outputs": [
						{
							"internalType": "uint248",
							"name": "",
							"type": "uint248"
						}
					],
					"stateMutability": "view",
					"type": "function"
				}
			],
			"devdoc": {
				"kind": "dev",
				"methods": {},
				"version": 1
			},
			"evm": {
				"assembly": "    /* \"contracts/tipos.sol\":58:167  contract Tipos{\r... */\n  mstore(0x40, 0x80)\n    /* \"contracts/tipos.sol\":103:108  78473 */\n  0x013289\n    /* \"contracts/tipos.sol\":79:108  int152 public inteiro = 78473 */\n  0x00\n  dup1\n  0x0100\n  exp\n  dup2\n  sload\n  dup2\n  0xffffffffffffffffffffffffffffffffffffff\n  mul\n  not\n  and\n  swap1\n  dup4\n  0x12\n  signextend\n  0xffffffffffffffffffffffffffffffffffffff\n  and\n  mul\n  or\n  swap1\n  sstore\n  pop\n    /* \"contracts/tipos.sol\":143:145  10 */\n  0x0a\n    /* \"contracts/tipos.sol\":115:145  uint248 public unintzeiro = 10 */\n  0x01\n  exp(0x0100, 0x00)\n  dup2\n  sload\n  dup2\n  0xffffffffffffffffffffffffffffffffffffffffffffffffffffffffffffff\n  mul\n  not\n  and\n  swap1\n  dup4\n  0xffffffffffffffffffffffffffffffffffffffffffffffffffffffffffffff\n  and\n  mul\n  or\n  swap1\n  sstore\n  pop\n    /* \"contracts/tipos.sol\":58:167  contract Tipos{\r... */\n  callvalue\n  dup1\n  iszero\n  tag_1\n  jumpi\n  0x00\n  dup1\n  revert\ntag_1:\n  pop\n  dataSize(sub_0)\n  dup1\n  dataOffset(sub_0)\n  0x00\n  codecopy\n  0x00\n  return\nstop\n\nsub_0: assembly {\n        /* \"contracts/tipos.sol\":58:167  contract Tipos{\r... */\n      mstore(0x40, 0x80)\n      callvalue\n      dup1\n      iszero\n      tag_1\n      jumpi\n      0x00\n      dup1\n      revert\n    tag_1:\n      pop\n      jumpi(tag_2, lt(calldatasize, 0x04))\n      shr(0xe0, calldataload(0x00))\n      dup1\n      0xae45e45d\n      eq\n      tag_3\n      jumpi\n      dup1\n      0xb624cb54\n      eq\n      tag_4\n      jumpi\n    tag_2:\n      0x00\n      dup1\n      revert\n        /* \"contracts/tipos.sol\":115:145  uint248 public unintzeiro = 10 */\n    tag_3:\n      tag_5\n      tag_6\n      jump\t// in\n    tag_5:\n      mload(0x40)\n      tag_7\n      swap2\n      swap1\n      tag_8\n      jump\t// in\n    tag_7:\n      mload(0x40)\n      dup1\n      swap2\n      sub\n      swap1\n      return\n        /* \"contracts/tipos.sol\":79:108  int152 public inteiro = 78473 */\n    tag_4:\n      tag_9\n      tag_10\n      jump\t// in\n    tag_9:\n      mload(0x40)\n      tag_11\n      swap2\n      swap1\n      tag_12\n      jump\t// in\n    tag_11:\n      mload(0x40)\n      dup1\n      swap2\n      sub\n      swap1\n      return\n        /* \"contracts/tipos.sol\":115:145  uint248 public unintzeiro = 10 */\n    tag_6:\n      0x01\n      0x00\n      swap1\n      sload\n      swap1\n      0x0100\n      exp\n      swap1\n      div\n      0xffffffffffffffffffffffffffffffffffffffffffffffffffffffffffffff\n      and\n      dup2\n      jump\t// out\n        /* \"contracts/tipos.sol\":79:108  int152 public inteiro = 78473 */\n    tag_10:\n      0x00\n      dup1\n      sload\n      swap1\n      0x0100\n      exp\n      swap1\n      div\n      0x12\n      signextend\n      dup2\n      jump\t// out\n        /* \"#utility.yul\":7:122   */\n    tag_14:\n        /* \"#utility.yul\":92:115   */\n      tag_16\n        /* \"#utility.yul\":109:114   */\n      dup2\n        /* \"#utility.yul\":92:115   */\n      tag_17\n      jump\t// in\n    tag_16:\n        /* \"#utility.yul\":87:90   */\n      dup3\n        /* \"#utility.yul\":80:116   */\n      mstore\n        /* \"#utility.yul\":7:122   */\n      pop\n      pop\n      jump\t// out\n        /* \"#utility.yul\":128:246   */\n    tag_18:\n        /* \"#utility.yul\":215:239   */\n      tag_20\n        /* \"#utility.yul\":233:238   */\n      dup2\n        /* \"#utility.yul\":215:239   */\n      tag_21\n      jump\t// in\n    tag_20:\n        /* \"#utility.yul\":210:213   */\n      dup3\n        /* \"#utility.yul\":203:240   */\n      mstore\n        /* \"#utility.yul\":128:246   */\n      pop\n      pop\n      jump\t// out\n        /* \"#utility.yul\":252:470   */\n    tag_12:\n        /* \"#utility.yul\":343:347   */\n      0x00\n        /* \"#utility.yul\":381:383   */\n      0x20\n        /* \"#utility.yul\":370:379   */\n      dup3\n        /* \"#utility.yul\":366:384   */\n      add\n        /* \"#utility.yul\":358:384   */\n      swap1\n      pop\n        /* \"#utility.yul\":394:463   */\n      tag_23\n        /* \"#utility.yul\":460:461   */\n      0x00\n        /* \"#utility.yul\":449:458   */\n      dup4\n        /* \"#utility.yul\":445:462   */\n      add\n        /* \"#utility.yul\":436:442   */\n      dup5\n        /* \"#utility.yul\":394:463   */\n      tag_14\n      jump\t// in\n    tag_23:\n        /* \"#utility.yul\":252:470   */\n      swap3\n      swap2\n      pop\n      pop\n      jump\t// out\n        /* \"#utility.yul\":476:698   */\n    tag_8:\n        /* \"#utility.yul\":569:573   */\n      0x00\n        /* \"#utility.yul\":607:609   */\n      0x20\n        /* \"#utility.yul\":596:605   */\n      dup3\n        /* \"#utility.yul\":592:610   */\n      add\n        /* \"#utility.yul\":584:610   */\n      swap1\n      pop\n        /* \"#utility.yul\":620:691   */\n      tag_25\n        /* \"#utility.yul\":688:689   */\n      0x00\n        /* \"#utility.yul\":677:686   */\n      dup4\n        /* \"#utility.yul\":673:690   */\n      add\n        /* \"#utility.yul\":664:670   */\n      dup5\n        /* \"#utility.yul\":620:691   */\n      tag_18\n      jump\t// in\n    tag_25:\n        /* \"#utility.yul\":476:698   */\n      swap3\n      swap2\n      pop\n      pop\n      jump\t// out\n        /* \"#utility.yul\":704:796   */\n    tag_17:\n        /* \"#utility.yul\":740:747   */\n      0x00\n        /* \"#utility.yul\":784:789   */\n      dup2\n        /* \"#utility.yul\":780:782   */\n      0x12\n        /* \"#utility.yul\":769:790   */\n      signextend\n        /* \"#utility.yul\":758:790   */\n      swap1\n      pop\n        /* \"#utility.yul\":704:796   */\n      swap2\n      swap1\n      pop\n      jump\t// out\n        /* \"#utility.yul\":802:950   */\n    tag_21:\n        /* \"#utility.yul\":839:846   */\n      0x00\n        /* \"#utility.yul\":879:943   */\n      0xffffffffffffffffffffffffffffffffffffffffffffffffffffffffffffff\n        /* \"#utility.yul\":872:877   */\n      dup3\n        /* \"#utility.yul\":868:944   */\n      and\n        /* \"#utility.yul\":857:944   */\n      swap1\n      pop\n        /* \"#utility.yul\":802:950   */\n      swap2\n      swap1\n      pop\n      jump\t// out\n\n    auxdata: 0xa26469706673582212202d010a41018599b5f1dce8285b035f01d7404ef6b5508e4729552255ecd7923764736f6c63430008070033\n}\n",
				"bytecode": {
					"linkReferences": {},
					"object": "6080604052620132896000806101000a81548172ffffffffffffffffffffffffffffffffffffff021916908360120b72ffffffffffffffffffffffffffffffffffffff160217905550600a600160006101000a8154817effffffffffffffffffffffffffffffffffffffffffffffffffffffffffffff02191690837effffffffffffffffffffffffffffffffffffffffffffffffffffffffffffff1602179055503480156100ac57600080fd5b5061017b806100bc6000396000f3fe608060405234801561001057600080fd5b50600436106100365760003560e01c8063ae45e45d1461003b578063b624cb5414610059575b600080fd5b610043610077565b60405161005091906100f2565b60405180910390f35b6100616100a8565b60405161006e91906100d7565b60405180910390f35b600160009054906101000a90047effffffffffffffffffffffffffffffffffffffffffffffffffffffffffffff1681565b60008054906101000a900460120b81565b6100c28161010d565b82525050565b6100d18161011a565b82525050565b60006020820190506100ec60008301846100b9565b92915050565b600060208201905061010760008301846100c8565b92915050565b60008160120b9050919050565b60007effffffffffffffffffffffffffffffffffffffffffffffffffffffffffffff8216905091905056fea26469706673582212202d010a41018599b5f1dce8285b035f01d7404ef6b5508e4729552255ecd7923764736f6c63430008070033",
					"opcodes": "PUSH1 0x80 PUSH1 0x40 MSTORE PUSH3 0x13289 PUSH1 0x0 DUP1 PUSH2 0x100 EXP DUP2 SLOAD DUP2 PUSH19 0xFFFFFFFFFFFFFFFFFFFFFFFFFFFFFFFFFFFFFF MUL NOT AND SWAP1 DUP4 PUSH1 0x12 SIGNEXTEND PUSH19 0xFFFFFFFFFFFFFFFFFFFFFFFFFFFFFFFFFFFFFF AND MUL OR SWAP1 SSTORE POP PUSH1 0xA PUSH1 0x1 PUSH1 0x0 PUSH2 0x100 EXP DUP2 SLOAD DUP2 PUSH31 0xFFFFFFFFFFFFFFFFFFFFFFFFFFFFFFFFFFFFFFFFFFFFFFFFFFFFFFFFFFFFFF MUL NOT AND SWAP1 DUP4 PUSH31 0xFFFFFFFFFFFFFFFFFFFFFFFFFFFFFFFFFFFFFFFFFFFFFFFFFFFFFFFFFFFFFF AND MUL OR SWAP1 SSTORE POP CALLVALUE DUP1 ISZERO PUSH2 0xAC JUMPI PUSH1 0x0 DUP1 REVERT JUMPDEST POP PUSH2 0x17B DUP1 PUSH2 0xBC PUSH1 0x0 CODECOPY PUSH1 0x0 RETURN INVALID PUSH1 0x80 PUSH1 0x40 MSTORE CALLVALUE DUP1 ISZERO PUSH2 0x10 JUMPI PUSH1 0x0 DUP1 REVERT JUMPDEST POP PUSH1 0x4 CALLDATASIZE LT PUSH2 0x36 JUMPI PUSH1 0x0 CALLDATALOAD PUSH1 0xE0 SHR DUP1 PUSH4 0xAE45E45D EQ PUSH2 0x3B JUMPI DUP1 PUSH4 0xB624CB54 EQ PUSH2 0x59 JUMPI JUMPDEST PUSH1 0x0 DUP1 REVERT JUMPDEST PUSH2 0x43 PUSH2 0x77 JUMP JUMPDEST PUSH1 0x40 MLOAD PUSH2 0x50 SWAP2 SWAP1 PUSH2 0xF2 JUMP JUMPDEST PUSH1 0x40 MLOAD DUP1 SWAP2 SUB SWAP1 RETURN JUMPDEST PUSH2 0x61 PUSH2 0xA8 JUMP JUMPDEST PUSH1 0x40 MLOAD PUSH2 0x6E SWAP2 SWAP1 PUSH2 0xD7 JUMP JUMPDEST PUSH1 0x40 MLOAD DUP1 SWAP2 SUB SWAP1 RETURN JUMPDEST PUSH1 0x1 PUSH1 0x0 SWAP1 SLOAD SWAP1 PUSH2 0x100 EXP SWAP1 DIV PUSH31 0xFFFFFFFFFFFFFFFFFFFFFFFFFFFFFFFFFFFFFFFFFFFFFFFFFFFFFFFFFFFFFF AND DUP2 JUMP JUMPDEST PUSH1 0x0 DUP1 SLOAD SWAP1 PUSH2 0x100 EXP SWAP1 DIV PUSH1 0x12 SIGNEXTEND DUP2 JUMP JUMPDEST PUSH2 0xC2 DUP2 PUSH2 0x10D JUMP JUMPDEST DUP3 MSTORE POP POP JUMP JUMPDEST PUSH2 0xD1 DUP2 PUSH2 0x11A JUMP JUMPDEST DUP3 MSTORE POP POP JUMP JUMPDEST PUSH1 0x0 PUSH1 0x20 DUP3 ADD SWAP1 POP PUSH2 0xEC PUSH1 0x0 DUP4 ADD DUP5 PUSH2 0xB9 JUMP JUMPDEST SWAP3 SWAP2 POP POP JUMP JUMPDEST PUSH1 0x0 PUSH1 0x20 DUP3 ADD SWAP1 POP PUSH2 0x107 PUSH1 0x0 DUP4 ADD DUP5 PUSH2 0xC8 JUMP JUMPDEST SWAP3 SWAP2 POP POP JUMP JUMPDEST PUSH1 0x0 DUP2 PUSH1 0x12 SIGNEXTEND SWAP1 POP SWAP2 SWAP1 POP JUMP JUMPDEST PUSH1 0x0 PUSH31 0xFFFFFFFFFFFFFFFFFFFFFFFFFFFFFFFFFFFFFFFFFFFFFFFFFFFFFFFFFFFFFF DUP3 AND SWAP1 POP SWAP2 SWAP1 POP JUMP INVALID LOG2 PUSH5 0x6970667358 0x22 SLT KECCAK256 0x2D ADD EXP COINBASE ADD DUP6 SWAP10 0xB5 CALL 0xDC 0xE8 0x28 JUMPDEST SUB 0x5F ADD 0xD7 BLOCKHASH 0x4E 0xF6 0xB5 POP DUP15 SELFBALANCE 0x29 SSTORE 0x22 SSTORE 0xEC 0xD7 SWAP3 CALLDATACOPY PUSH5 0x736F6C6343 STOP ADDMOD SMOD STOP CALLER "
				},
				"gasEstimates": {
					"creation": {
						"codeDepositCost": "75800",
						"executionCost": "48665",
						"totalCost": "124465"
					},
					"external": {
						"inteiro()": "2472",
						"unintzeiro()": "2449"
					}
				},
				"methodIdentifiers": {
					"inteiro()": "b624cb54",
					"unintzeiro()": "ae45e45d"
				}
			},
			"storageLayout": {
				"storage": [
					{
						"astId": 4,
						"contract": "contracts/tipos.sol:Tipos",
						"label": "inteiro",
						"offset": 0,
						"slot": "0",
						"type": "t_int152"
					},
					{
						"astId": 7,
						"contract": "contracts/tipos.sol:Tipos",
						"label": "unintzeiro",
						"offset": 0,
						"slot": "1",
						"type": "t_uint248"
					}
				],
				"types": {
					"t_int152": {
						"encoding": "inplace",
						"label": "int152",
						"numberOfBytes": "19"
					},
					"t_uint248": {
						"encoding": "inplace",
						"label": "uint248",
						"numberOfBytes": "31"
					}
				}
			},
			"userdoc": {
				"kind": "user",
				"methods": {},
				"version": 1
			}
		}
	}
}