{
	"contracts/eunus.sol": {
		"Categorias": {
			"abi": [
				{
					"inputs": [],
					"name": "addUser",
					"outputs": [],
					"stateMutability": "nonpayable",
					"type": "function"
				},
				{
					"inputs": [],
					"name": "getUser",
					"outputs": [],
					"stateMutability": "nonpayable",
					"type": "function"
				}
			],
			"devdoc": {
				"kind": "dev",
				"methods": {},
				"version": 1
			},
			"evm": {
				"assembly": "    /* \"contracts/eunus.sol\":60:368  contract Categorias{... */\n  mstore(0x40, 0x80)\n  callvalue\n  dup1\n  iszero\n  tag_1\n  jumpi\n  0x00\n  dup1\n  revert\ntag_1:\n  pop\n  dataSize(sub_0)\n  dup1\n  dataOffset(sub_0)\n  0x00\n  codecopy\n  0x00\n  return\nstop\n\nsub_0: assembly {\n        /* \"contracts/eunus.sol\":60:368  contract Categorias{... */\n      mstore(0x40, 0x80)\n      callvalue\n      dup1\n      iszero\n      tag_1\n      jumpi\n      0x00\n      dup1\n      revert\n    tag_1:\n      pop\n      jumpi(tag_2, lt(calldatasize, 0x04))\n      shr(0xe0, calldataload(0x00))\n      dup1\n      0x455c928c\n      eq\n      tag_3\n      jumpi\n      dup1\n      0x832880e7\n      eq\n      tag_4\n      jumpi\n    tag_2:\n      0x00\n      dup1\n      revert\n        /* \"contracts/eunus.sol\":179:266  function addUser() external {... */\n    tag_3:\n      tag_5\n      tag_6\n      jump\t// in\n    tag_5:\n      stop\n        /* \"contracts/eunus.sol\":273:361  function getUser() external  {... */\n    tag_4:\n      tag_7\n      tag_8\n      jump\t// in\n    tag_7:\n      stop\n        /* \"contracts/eunus.sol\":179:266  function addUser() external {... */\n    tag_6:\n        /* \"contracts/eunus.sol\":241:258  ESTADO.CADASTRADO */\n      0x03\n        /* \"contracts/eunus.sol\":218:226  usuarios */\n      0x00\n        /* \"contracts/eunus.sol\":218:238  usuarios[msg.sender] */\n      dup1\n        /* \"contracts/eunus.sol\":227:237  msg.sender */\n      caller\n        /* \"contracts/eunus.sol\":218:238  usuarios[msg.sender] */\n      0xffffffffffffffffffffffffffffffffffffffff\n      and\n      0xffffffffffffffffffffffffffffffffffffffff\n      and\n      dup2\n      mstore\n      0x20\n      add\n      swap1\n      dup2\n      mstore\n      0x20\n      add\n      0x00\n      keccak256\n      0x00\n        /* \"contracts/eunus.sol\":218:258  usuarios[msg.sender] = ESTADO.CADASTRADO */\n      0x0100\n      exp\n      dup2\n      sload\n      dup2\n      0xff\n      mul\n      not\n      and\n      swap1\n      dup4\n      0x03\n      dup2\n      gt\n      iszero\n      tag_10\n      jumpi\n      tag_11\n      tag_12\n      jump\t// in\n    tag_11:\n    tag_10:\n      mul\n      or\n      swap1\n      sstore\n      pop\n        /* \"contracts/eunus.sol\":179:266  function addUser() external {... */\n      jump\t// out\n        /* \"contracts/eunus.sol\":273:361  function getUser() external  {... */\n    tag_8:\n        /* \"contracts/eunus.sol\":336:353  ESTADO.CADASTRADO */\n      0x03\n        /* \"contracts/eunus.sol\":313:321  usuarios */\n      0x00\n        /* \"contracts/eunus.sol\":313:333  usuarios[msg.sender] */\n      dup1\n        /* \"contracts/eunus.sol\":322:332  msg.sender */\n      caller\n        /* \"contracts/eunus.sol\":313:333  usuarios[msg.sender] */\n      0xffffffffffffffffffffffffffffffffffffffff\n      and\n      0xffffffffffffffffffffffffffffffffffffffff\n      and\n      dup2\n      mstore\n      0x20\n      add\n      swap1\n      dup2\n      mstore\n      0x20\n      add\n      0x00\n      keccak256\n      0x00\n        /* \"contracts/eunus.sol\":313:353  usuarios[msg.sender] = ESTADO.CADASTRADO */\n      0x0100\n      exp\n      dup2\n      sload\n      dup2\n      0xff\n      mul\n      not\n      and\n      swap1\n      dup4\n      0x03\n      dup2\n      gt\n      iszero\n      tag_14\n      jumpi\n      tag_15\n      tag_12\n      jump\t// in\n    tag_15:\n    tag_14:\n      mul\n      or\n      swap1\n      sstore\n      pop\n        /* \"contracts/eunus.sol\":273:361  function getUser() external  {... */\n      jump\t// out\n        /* \"#utility.yul\":7:187   */\n    tag_12:\n        /* \"#utility.yul\":55:132   */\n      0x4e487b7100000000000000000000000000000000000000000000000000000000\n        /* \"#utility.yul\":52:53   */\n      0x00\n        /* \"#utility.yul\":45:133   */\n      mstore\n        /* \"#utility.yul\":152:156   */\n      0x21\n        /* \"#utility.yul\":149:150   */\n      0x04\n        /* \"#utility.yul\":142:157   */\n      mstore\n        /* \"#utility.yul\":176:180   */\n      0x24\n        /* \"#utility.yul\":173:174   */\n      0x00\n        /* \"#utility.yul\":166:181   */\n      revert\n\n    auxdata: 0xa2646970667358221220c109bb4774463439d99ee7c44b68490a2988aed8a0d4cb5409c563fb395debd164736f6c63430008080033\n}\n",
				"bytecode": {
					"linkReferences": {},
					"object": "608060405234801561001057600080fd5b50610186806100206000396000f3fe608060405234801561001057600080fd5b50600436106100365760003560e01c8063455c928c1461003b578063832880e714610045575b600080fd5b61004361004f565b005b61004d6100b8565b005b60036000803373ffffffffffffffffffffffffffffffffffffffff1673ffffffffffffffffffffffffffffffffffffffff16815260200190815260200160002060006101000a81548160ff021916908360038111156100b1576100b0610121565b5b0217905550565b60036000803373ffffffffffffffffffffffffffffffffffffffff1673ffffffffffffffffffffffffffffffffffffffff16815260200190815260200160002060006101000a81548160ff0219169083600381111561011a57610119610121565b5b0217905550565b7f4e487b7100000000000000000000000000000000000000000000000000000000600052602160045260246000fdfea2646970667358221220c109bb4774463439d99ee7c44b68490a2988aed8a0d4cb5409c563fb395debd164736f6c63430008080033",
					"opcodes": "PUSH1 0x80 PUSH1 0x40 MSTORE CALLVALUE DUP1 ISZERO PUSH2 0x10 JUMPI PUSH1 0x0 DUP1 REVERT JUMPDEST POP PUSH2 0x186 DUP1 PUSH2 0x20 PUSH1 0x0 CODECOPY PUSH1 0x0 RETURN INVALID PUSH1 0x80 PUSH1 0x40 MSTORE CALLVALUE DUP1 ISZERO PUSH2 0x10 JUMPI PUSH1 0x0 DUP1 REVERT JUMPDEST POP PUSH1 0x4 CALLDATASIZE LT PUSH2 0x36 JUMPI PUSH1 0x0 CALLDATALOAD PUSH1 0xE0 SHR DUP1 PUSH4 0x455C928C EQ PUSH2 0x3B JUMPI DUP1 PUSH4 0x832880E7 EQ PUSH2 0x45 JUMPI JUMPDEST PUSH1 0x0 DUP1 REVERT JUMPDEST PUSH2 0x43 PUSH2 0x4F JUMP JUMPDEST STOP JUMPDEST PUSH2 0x4D PUSH2 0xB8 JUMP JUMPDEST STOP JUMPDEST PUSH1 0x3 PUSH1 0x0 DUP1 CALLER PUSH20 0xFFFFFFFFFFFFFFFFFFFFFFFFFFFFFFFFFFFFFFFF AND PUSH20 0xFFFFFFFFFFFFFFFFFFFFFFFFFFFFFFFFFFFFFFFF AND DUP2 MSTORE PUSH1 0x20 ADD SWAP1 DUP2 MSTORE PUSH1 0x20 ADD PUSH1 0x0 KECCAK256 PUSH1 0x0 PUSH2 0x100 EXP DUP2 SLOAD DUP2 PUSH1 0xFF MUL NOT AND SWAP1 DUP4 PUSH1 0x3 DUP2 GT ISZERO PUSH2 0xB1 JUMPI PUSH2 0xB0 PUSH2 0x121 JUMP JUMPDEST JUMPDEST MUL OR SWAP1 SSTORE POP JUMP JUMPDEST PUSH1 0x3 PUSH1 0x0 DUP1 CALLER PUSH20 0xFFFFFFFFFFFFFFFFFFFFFFFFFFFFFFFFFFFFFFFF AND PUSH20 0xFFFFFFFFFFFFFFFFFFFFFFFFFFFFFFFFFFFFFFFF AND DUP2 MSTORE PUSH1 0x20 ADD SWAP1 DUP2 MSTORE PUSH1 0x20 ADD PUSH1 0x0 KECCAK256 PUSH1 0x0 PUSH2 0x100 EXP DUP2 SLOAD DUP2 PUSH1 0xFF MUL NOT AND SWAP1 DUP4 PUSH1 0x3 DUP2 GT ISZERO PUSH2 0x11A JUMPI PUSH2 0x119 PUSH2 0x121 JUMP JUMPDEST JUMPDEST MUL OR SWAP1 SSTORE POP JUMP JUMPDEST PUSH32 0x4E487B7100000000000000000000000000000000000000000000000000000000 PUSH1 0x0 MSTORE PUSH1 0x21 PUSH1 0x4 MSTORE PUSH1 0x24 PUSH1 0x0 REVERT INVALID LOG2 PUSH5 0x6970667358 0x22 SLT KECCAK256 0xC1 MULMOD 0xBB SELFBALANCE PUSH21 0x463439D99EE7C44B68490A2988AED8A0D4CB5409C5 PUSH4 0xFB395DEB 0xD1 PUSH5 0x736F6C6343 STOP ADDMOD ADDMOD STOP CALLER "
				},
				"gasEstimates": {
					"creation": {
						"codeDepositCost": "78000",
						"executionCost": "129",
						"totalCost": "78129"
					},
					"external": {
						"addUser()": "24498",
						"getUser()": "24520"
					}
				},
				"methodIdentifiers": {
					"addUser()": "455c928c",
					"getUser()": "832880e7"
				}
			},
			"storageLayout": {
				"storage": [
					{
						"astId": 11,
						"contract": "contracts/eunus.sol:Categorias",
						"label": "usuarios",
						"offset": 0,
						"slot": "0",
						"type": "t_mapping(t_address,t_enum(ESTADO)6)"
					}
				],
				"types": {
					"t_address": {
						"encoding": "inplace",
						"label": "address",
						"numberOfBytes": "20"
					},
					"t_enum(ESTADO)6": {
						"encoding": "inplace",
						"label": "enum Categorias.ESTADO",
						"numberOfBytes": "1"
					},
					"t_mapping(t_address,t_enum(ESTADO)6)": {
						"encoding": "mapping",
						"key": "t_address",
						"label": "mapping(address => enum Categorias.ESTADO)",
						"numberOfBytes": "32",
						"value": "t_enum(ESTADO)6"
					}
				}
			},
			"userdoc": {
				"kind": "user",
				"methods": {},
				"version": 1
			}
		}
	}
}