{
	"contracts/variaveis.sol": {
		"Trust": {
			"abi": [
				{
					"inputs": [],
					"name": "check",
					"outputs": [
						{
							"internalType": "bool",
							"name": "",
							"type": "bool"
						}
					],
					"stateMutability": "view",
					"type": "function"
				},
				{
					"inputs": [],
					"name": "numero",
					"outputs": [
						{
							"internalType": "int256",
							"name": "",
							"type": "int256"
						}
					],
					"stateMutability": "view",
					"type": "function"
				},
				{
					"inputs": [],
					"name": "ola",
					"outputs": [
						{
							"internalType": "string",
							"name": "",
							"type": "string"
						}
					],
					"stateMutability": "view",
					"type": "function"
				}
			],
			"devdoc": {
				"kind": "dev",
				"methods": {},
				"version": 1
			},
			"evm": {
				"assembly": "    /* \"contracts/variaveis.sol\":58:257  contract Trust{\r... */\n  mstore(0x40, 0x80)\n    /* \"contracts/variaveis.sol\":78:106  string public ola = \" hello\" */\n  mload(0x40)\n  dup1\n  0x40\n  add\n  0x40\n  mstore\n  dup1\n  0x06\n  dup2\n  mstore\n  0x20\n  add\n  0x2068656c6c6f0000000000000000000000000000000000000000000000000000\n  dup2\n  mstore\n  pop\n  0x00\n  swap1\n  dup1\n  mload\n  swap1\n  0x20\n  add\n  swap1\n  tag_1\n  swap3\n  swap2\n  swap1\n  tag_2\n  jump\t// in\ntag_1:\n  pop\n    /* \"contracts/variaveis.sol\":112:141  string private ola1 = \"Hello\" */\n  mload(0x40)\n  dup1\n  0x40\n  add\n  0x40\n  mstore\n  dup1\n  0x05\n  dup2\n  mstore\n  0x20\n  add\n  0x48656c6c6f000000000000000000000000000000000000000000000000000000\n  dup2\n  mstore\n  pop\n  0x01\n  swap1\n  dup1\n  mload\n  swap1\n  0x20\n  add\n  swap1\n  tag_3\n  swap3\n  swap2\n  swap1\n  tag_2\n  jump\t// in\ntag_3:\n  pop\n    /* \"contracts/variaveis.sol\":147:183  string internal ola3 = \"inside safe\" */\n  mload(0x40)\n  dup1\n  0x40\n  add\n  0x40\n  mstore\n  dup1\n  0x0b\n  dup2\n  mstore\n  0x20\n  add\n  0x696e736964652073616665000000000000000000000000000000000000000000\n  dup2\n  mstore\n  pop\n  0x02\n  swap1\n  dup1\n  mload\n  swap1\n  0x20\n  add\n  swap1\n  tag_4\n  swap3\n  swap2\n  swap1\n  tag_2\n  jump\t// in\ntag_4:\n  pop\n    /* \"contracts/variaveis.sol\":213:221  12345678 */\n  0xbc614e\n    /* \"contracts/variaveis.sol\":193:221  int public numero = 12345678 */\n  0x03\n  sstore\n    /* \"contracts/variaveis.sol\":247:252  false */\n  0x00\n    /* \"contracts/variaveis.sol\":227:252  bool public check = false */\n  0x04\n  exp(0x0100, 0x00)\n  dup2\n  sload\n  dup2\n  0xff\n  mul\n  not\n  and\n  swap1\n  dup4\n  iszero\n  iszero\n  mul\n  or\n  swap1\n  sstore\n  pop\n    /* \"contracts/variaveis.sol\":58:257  contract Trust{\r... */\n  callvalue\n  dup1\n  iszero\n  tag_5\n  jumpi\n  0x00\n  dup1\n  revert\ntag_5:\n  pop\n  jump(tag_6)\ntag_2:\n  dup3\n  dup1\n  sload\n  tag_7\n  swap1\n  tag_8\n  jump\t// in\ntag_7:\n  swap1\n  0x00\n  mstore\n  keccak256(0x00, 0x20)\n  swap1\n  0x1f\n  add\n  0x20\n  swap1\n  div\n  dup2\n  add\n  swap3\n  dup3\n  tag_10\n  jumpi\n  0x00\n  dup6\n  sstore\n  jump(tag_9)\ntag_10:\n  dup3\n  0x1f\n  lt\n  tag_11\n  jumpi\n  dup1\n  mload\n  not(0xff)\n  and\n  dup4\n  dup1\n  add\n  or\n  dup6\n  sstore\n  jump(tag_9)\ntag_11:\n  dup3\n  dup1\n  add\n  0x01\n  add\n  dup6\n  sstore\n  dup3\n  iszero\n  tag_9\n  jumpi\n  swap2\n  dup3\n  add\ntag_12:\n  dup3\n  dup2\n  gt\n  iszero\n  tag_13\n  jumpi\n  dup3\n  mload\n  dup3\n  sstore\n  swap2\n  0x20\n  add\n  swap2\n  swap1\n  0x01\n  add\n  swap1\n  jump(tag_12)\ntag_13:\ntag_9:\n  pop\n  swap1\n  pop\n  tag_14\n  swap2\n  swap1\n  tag_15\n  jump\t// in\ntag_14:\n  pop\n  swap1\n  jump\t// out\ntag_15:\ntag_16:\n  dup1\n  dup3\n  gt\n  iszero\n  tag_17\n  jumpi\n  0x00\n  dup2\n  0x00\n  swap1\n  sstore\n  pop\n  0x01\n  add\n  jump(tag_16)\ntag_17:\n  pop\n  swap1\n  jump\t// out\n    /* \"#utility.yul\":7:327   */\ntag_8:\n    /* \"#utility.yul\":51:57   */\n  0x00\n    /* \"#utility.yul\":88:89   */\n  0x02\n    /* \"#utility.yul\":82:86   */\n  dup3\n    /* \"#utility.yul\":78:90   */\n  div\n    /* \"#utility.yul\":68:90   */\n  swap1\n  pop\n    /* \"#utility.yul\":135:136   */\n  0x01\n    /* \"#utility.yul\":129:133   */\n  dup3\n    /* \"#utility.yul\":125:137   */\n  and\n    /* \"#utility.yul\":156:174   */\n  dup1\n    /* \"#utility.yul\":146:227   */\n  tag_20\n  jumpi\n    /* \"#utility.yul\":212:216   */\n  0x7f\n    /* \"#utility.yul\":204:210   */\n  dup3\n    /* \"#utility.yul\":200:217   */\n  and\n    /* \"#utility.yul\":190:217   */\n  swap2\n  pop\n    /* \"#utility.yul\":146:227   */\ntag_20:\n    /* \"#utility.yul\":274:276   */\n  0x20\n    /* \"#utility.yul\":266:272   */\n  dup3\n    /* \"#utility.yul\":263:277   */\n  lt\n    /* \"#utility.yul\":243:261   */\n  dup2\n    /* \"#utility.yul\":240:278   */\n  eq\n    /* \"#utility.yul\":237:321   */\n  iszero\n  tag_21\n  jumpi\n    /* \"#utility.yul\":293:311   */\n  tag_22\n  tag_23\n  jump\t// in\ntag_22:\n    /* \"#utility.yul\":237:321   */\ntag_21:\n    /* \"#utility.yul\":58:327   */\n  pop\n    /* \"#utility.yul\":7:327   */\n  swap2\n  swap1\n  pop\n  jump\t// out\n    /* \"#utility.yul\":333:513   */\ntag_23:\n    /* \"#utility.yul\":381:458   */\n  0x4e487b7100000000000000000000000000000000000000000000000000000000\n    /* \"#utility.yul\":378:379   */\n  0x00\n    /* \"#utility.yul\":371:459   */\n  mstore\n    /* \"#utility.yul\":478:482   */\n  0x22\n    /* \"#utility.yul\":475:476   */\n  0x04\n    /* \"#utility.yul\":468:483   */\n  mstore\n    /* \"#utility.yul\":502:506   */\n  0x24\n    /* \"#utility.yul\":499:500   */\n  0x00\n    /* \"#utility.yul\":492:507   */\n  revert\n    /* \"contracts/variaveis.sol\":58:257  contract Trust{\r... */\ntag_6:\n  dataSize(sub_0)\n  dup1\n  dataOffset(sub_0)\n  0x00\n  codecopy\n  0x00\n  return\nstop\n\nsub_0: assembly {\n        /* \"contracts/variaveis.sol\":58:257  contract Trust{\r... */\n      mstore(0x40, 0x80)\n      callvalue\n      dup1\n      iszero\n      tag_1\n      jumpi\n      0x00\n      dup1\n      revert\n    tag_1:\n      pop\n      jumpi(tag_2, lt(calldatasize, 0x04))\n      shr(0xe0, calldataload(0x00))\n      dup1\n      0x919840ad\n      eq\n      tag_3\n      jumpi\n      dup1\n      0x91f5de38\n      eq\n      tag_4\n      jumpi\n      dup1\n      0xf584b23a\n      eq\n      tag_5\n      jumpi\n    tag_2:\n      0x00\n      dup1\n      revert\n        /* \"contracts/variaveis.sol\":227:252  bool public check = false */\n    tag_3:\n      tag_6\n      tag_7\n      jump\t// in\n    tag_6:\n      mload(0x40)\n      tag_8\n      swap2\n      swap1\n      tag_9\n      jump\t// in\n    tag_8:\n      mload(0x40)\n      dup1\n      swap2\n      sub\n      swap1\n      return\n        /* \"contracts/variaveis.sol\":193:221  int public numero = 12345678 */\n    tag_4:\n      tag_10\n      tag_11\n      jump\t// in\n    tag_10:\n      mload(0x40)\n      tag_12\n      swap2\n      swap1\n      tag_13\n      jump\t// in\n    tag_12:\n      mload(0x40)\n      dup1\n      swap2\n      sub\n      swap1\n      return\n        /* \"contracts/variaveis.sol\":78:106  string public ola = \" hello\" */\n    tag_5:\n      tag_14\n      tag_15\n      jump\t// in\n    tag_14:\n      mload(0x40)\n      tag_16\n      swap2\n      swap1\n      tag_17\n      jump\t// in\n    tag_16:\n      mload(0x40)\n      dup1\n      swap2\n      sub\n      swap1\n      return\n        /* \"contracts/variaveis.sol\":227:252  bool public check = false */\n    tag_7:\n      0x04\n      0x00\n      swap1\n      sload\n      swap1\n      0x0100\n      exp\n      swap1\n      div\n      0xff\n      and\n      dup2\n      jump\t// out\n        /* \"contracts/variaveis.sol\":193:221  int public numero = 12345678 */\n    tag_11:\n      sload(0x03)\n      dup2\n      jump\t// out\n        /* \"contracts/variaveis.sol\":78:106  string public ola = \" hello\" */\n    tag_15:\n      0x00\n      dup1\n      sload\n      tag_18\n      swap1\n      tag_19\n      jump\t// in\n    tag_18:\n      dup1\n      0x1f\n      add\n      0x20\n      dup1\n      swap2\n      div\n      mul\n      0x20\n      add\n      mload(0x40)\n      swap1\n      dup2\n      add\n      0x40\n      mstore\n      dup1\n      swap3\n      swap2\n      swap1\n      dup2\n      dup2\n      mstore\n      0x20\n      add\n      dup3\n      dup1\n      sload\n      tag_20\n      swap1\n      tag_19\n      jump\t// in\n    tag_20:\n      dup1\n      iszero\n      tag_21\n      jumpi\n      dup1\n      0x1f\n      lt\n      tag_22\n      jumpi\n      0x0100\n      dup1\n      dup4\n      sload\n      div\n      mul\n      dup4\n      mstore\n      swap2\n      0x20\n      add\n      swap2\n      jump(tag_21)\n    tag_22:\n      dup3\n      add\n      swap2\n      swap1\n      0x00\n      mstore\n      keccak256(0x00, 0x20)\n      swap1\n    tag_23:\n      dup2\n      sload\n      dup2\n      mstore\n      swap1\n      0x01\n      add\n      swap1\n      0x20\n      add\n      dup1\n      dup4\n      gt\n      tag_23\n      jumpi\n      dup3\n      swap1\n      sub\n      0x1f\n      and\n      dup3\n      add\n      swap2\n    tag_21:\n      pop\n      pop\n      pop\n      pop\n      pop\n      dup2\n      jump\t// out\n        /* \"#utility.yul\":7:116   */\n    tag_25:\n        /* \"#utility.yul\":88:109   */\n      tag_27\n        /* \"#utility.yul\":103:108   */\n      dup2\n        /* \"#utility.yul\":88:109   */\n      tag_28\n      jump\t// in\n    tag_27:\n        /* \"#utility.yul\":83:86   */\n      dup3\n        /* \"#utility.yul\":76:110   */\n      mstore\n        /* \"#utility.yul\":7:116   */\n      pop\n      pop\n      jump\t// out\n        /* \"#utility.yul\":122:237   */\n    tag_29:\n        /* \"#utility.yul\":207:230   */\n      tag_31\n        /* \"#utility.yul\":224:229   */\n      dup2\n        /* \"#utility.yul\":207:230   */\n      tag_32\n      jump\t// in\n    tag_31:\n        /* \"#utility.yul\":202:205   */\n      dup3\n        /* \"#utility.yul\":195:231   */\n      mstore\n        /* \"#utility.yul\":122:237   */\n      pop\n      pop\n      jump\t// out\n        /* \"#utility.yul\":243:607   */\n    tag_33:\n        /* \"#utility.yul\":331:334   */\n      0x00\n        /* \"#utility.yul\":359:398   */\n      tag_35\n        /* \"#utility.yul\":392:397   */\n      dup3\n        /* \"#utility.yul\":359:398   */\n      tag_36\n      jump\t// in\n    tag_35:\n        /* \"#utility.yul\":414:485   */\n      tag_37\n        /* \"#utility.yul\":478:484   */\n      dup2\n        /* \"#utility.yul\":473:476   */\n      dup6\n        /* \"#utility.yul\":414:485   */\n      tag_38\n      jump\t// in\n    tag_37:\n        /* \"#utility.yul\":407:485   */\n      swap4\n      pop\n        /* \"#utility.yul\":494:546   */\n      tag_39\n        /* \"#utility.yul\":539:545   */\n      dup2\n        /* \"#utility.yul\":534:537   */\n      dup6\n        /* \"#utility.yul\":527:531   */\n      0x20\n        /* \"#utility.yul\":520:525   */\n      dup7\n        /* \"#utility.yul\":516:532   */\n      add\n        /* \"#utility.yul\":494:546   */\n      tag_40\n      jump\t// in\n    tag_39:\n        /* \"#utility.yul\":571:600   */\n      tag_41\n        /* \"#utility.yul\":593:599   */\n      dup2\n        /* \"#utility.yul\":571:600   */\n      tag_42\n      jump\t// in\n    tag_41:\n        /* \"#utility.yul\":566:569   */\n      dup5\n        /* \"#utility.yul\":562:601   */\n      add\n        /* \"#utility.yul\":555:601   */\n      swap2\n      pop\n        /* \"#utility.yul\":335:607   */\n      pop\n        /* \"#utility.yul\":243:607   */\n      swap3\n      swap2\n      pop\n      pop\n      jump\t// out\n        /* \"#utility.yul\":613:823   */\n    tag_9:\n        /* \"#utility.yul\":700:704   */\n      0x00\n        /* \"#utility.yul\":738:740   */\n      0x20\n        /* \"#utility.yul\":727:736   */\n      dup3\n        /* \"#utility.yul\":723:741   */\n      add\n        /* \"#utility.yul\":715:741   */\n      swap1\n      pop\n        /* \"#utility.yul\":751:816   */\n      tag_44\n        /* \"#utility.yul\":813:814   */\n      0x00\n        /* \"#utility.yul\":802:811   */\n      dup4\n        /* \"#utility.yul\":798:815   */\n      add\n        /* \"#utility.yul\":789:795   */\n      dup5\n        /* \"#utility.yul\":751:816   */\n      tag_25\n      jump\t// in\n    tag_44:\n        /* \"#utility.yul\":613:823   */\n      swap3\n      swap2\n      pop\n      pop\n      jump\t// out\n        /* \"#utility.yul\":829:1047   */\n    tag_13:\n        /* \"#utility.yul\":920:924   */\n      0x00\n        /* \"#utility.yul\":958:960   */\n      0x20\n        /* \"#utility.yul\":947:956   */\n      dup3\n        /* \"#utility.yul\":943:961   */\n      add\n        /* \"#utility.yul\":935:961   */\n      swap1\n      pop\n        /* \"#utility.yul\":971:1040   */\n      tag_46\n        /* \"#utility.yul\":1037:1038   */\n      0x00\n        /* \"#utility.yul\":1026:1035   */\n      dup4\n        /* \"#utility.yul\":1022:1039   */\n      add\n        /* \"#utility.yul\":1013:1019   */\n      dup5\n        /* \"#utility.yul\":971:1040   */\n      tag_29\n      jump\t// in\n    tag_46:\n        /* \"#utility.yul\":829:1047   */\n      swap3\n      swap2\n      pop\n      pop\n      jump\t// out\n        /* \"#utility.yul\":1053:1366   */\n    tag_17:\n        /* \"#utility.yul\":1166:1170   */\n      0x00\n        /* \"#utility.yul\":1204:1206   */\n      0x20\n        /* \"#utility.yul\":1193:1202   */\n      dup3\n        /* \"#utility.yul\":1189:1207   */\n      add\n        /* \"#utility.yul\":1181:1207   */\n      swap1\n      pop\n        /* \"#utility.yul\":1253:1262   */\n      dup2\n        /* \"#utility.yul\":1247:1251   */\n      dup2\n        /* \"#utility.yul\":1243:1263   */\n      sub\n        /* \"#utility.yul\":1239:1240   */\n      0x00\n        /* \"#utility.yul\":1228:1237   */\n      dup4\n        /* \"#utility.yul\":1224:1241   */\n      add\n        /* \"#utility.yul\":1217:1264   */\n      mstore\n        /* \"#utility.yul\":1281:1359   */\n      tag_48\n        /* \"#utility.yul\":1354:1358   */\n      dup2\n        /* \"#utility.yul\":1345:1351   */\n      dup5\n        /* \"#utility.yul\":1281:1359   */\n      tag_33\n      jump\t// in\n    tag_48:\n        /* \"#utility.yul\":1273:1359   */\n      swap1\n      pop\n        /* \"#utility.yul\":1053:1366   */\n      swap3\n      swap2\n      pop\n      pop\n      jump\t// out\n        /* \"#utility.yul\":1372:1471   */\n    tag_36:\n        /* \"#utility.yul\":1424:1430   */\n      0x00\n        /* \"#utility.yul\":1458:1463   */\n      dup2\n        /* \"#utility.yul\":1452:1464   */\n      mload\n        /* \"#utility.yul\":1442:1464   */\n      swap1\n      pop\n        /* \"#utility.yul\":1372:1471   */\n      swap2\n      swap1\n      pop\n      jump\t// out\n        /* \"#utility.yul\":1477:1646   */\n    tag_38:\n        /* \"#utility.yul\":1561:1572   */\n      0x00\n        /* \"#utility.yul\":1595:1601   */\n      dup3\n        /* \"#utility.yul\":1590:1593   */\n      dup3\n        /* \"#utility.yul\":1583:1602   */\n      mstore\n        /* \"#utility.yul\":1635:1639   */\n      0x20\n        /* \"#utility.yul\":1630:1633   */\n      dup3\n        /* \"#utility.yul\":1626:1640   */\n      add\n        /* \"#utility.yul\":1611:1640   */\n      swap1\n      pop\n        /* \"#utility.yul\":1477:1646   */\n      swap3\n      swap2\n      pop\n      pop\n      jump\t// out\n        /* \"#utility.yul\":1652:1742   */\n    tag_28:\n        /* \"#utility.yul\":1686:1693   */\n      0x00\n        /* \"#utility.yul\":1729:1734   */\n      dup2\n        /* \"#utility.yul\":1722:1735   */\n      iszero\n        /* \"#utility.yul\":1715:1736   */\n      iszero\n        /* \"#utility.yul\":1704:1736   */\n      swap1\n      pop\n        /* \"#utility.yul\":1652:1742   */\n      swap2\n      swap1\n      pop\n      jump\t// out\n        /* \"#utility.yul\":1748:1824   */\n    tag_32:\n        /* \"#utility.yul\":1784:1791   */\n      0x00\n        /* \"#utility.yul\":1813:1818   */\n      dup2\n        /* \"#utility.yul\":1802:1818   */\n      swap1\n      pop\n        /* \"#utility.yul\":1748:1824   */\n      swap2\n      swap1\n      pop\n      jump\t// out\n        /* \"#utility.yul\":1830:2137   */\n    tag_40:\n        /* \"#utility.yul\":1898:1899   */\n      0x00\n        /* \"#utility.yul\":1908:2021   */\n    tag_54:\n        /* \"#utility.yul\":1922:1928   */\n      dup4\n        /* \"#utility.yul\":1919:1920   */\n      dup2\n        /* \"#utility.yul\":1916:1929   */\n      lt\n        /* \"#utility.yul\":1908:2021   */\n      iszero\n      tag_56\n      jumpi\n        /* \"#utility.yul\":2007:2008   */\n      dup1\n        /* \"#utility.yul\":2002:2005   */\n      dup3\n        /* \"#utility.yul\":1998:2009   */\n      add\n        /* \"#utility.yul\":1992:2010   */\n      mload\n        /* \"#utility.yul\":1988:1989   */\n      dup2\n        /* \"#utility.yul\":1983:1986   */\n      dup5\n        /* \"#utility.yul\":1979:1990   */\n      add\n        /* \"#utility.yul\":1972:2011   */\n      mstore\n        /* \"#utility.yul\":1944:1946   */\n      0x20\n        /* \"#utility.yul\":1941:1942   */\n      dup2\n        /* \"#utility.yul\":1937:1947   */\n      add\n        /* \"#utility.yul\":1932:1947   */\n      swap1\n      pop\n        /* \"#utility.yul\":1908:2021   */\n      jump(tag_54)\n    tag_56:\n        /* \"#utility.yul\":2039:2045   */\n      dup4\n        /* \"#utility.yul\":2036:2037   */\n      dup2\n        /* \"#utility.yul\":2033:2046   */\n      gt\n        /* \"#utility.yul\":2030:2131   */\n      iszero\n      tag_57\n      jumpi\n        /* \"#utility.yul\":2119:2120   */\n      0x00\n        /* \"#utility.yul\":2110:2116   */\n      dup5\n        /* \"#utility.yul\":2105:2108   */\n      dup5\n        /* \"#utility.yul\":2101:2117   */\n      add\n        /* \"#utility.yul\":2094:2121   */\n      mstore\n        /* \"#utility.yul\":2030:2131   */\n    tag_57:\n        /* \"#utility.yul\":1879:2137   */\n      pop\n        /* \"#utility.yul\":1830:2137   */\n      pop\n      pop\n      pop\n      jump\t// out\n        /* \"#utility.yul\":2143:2463   */\n    tag_19:\n        /* \"#utility.yul\":2187:2193   */\n      0x00\n        /* \"#utility.yul\":2224:2225   */\n      0x02\n        /* \"#utility.yul\":2218:2222   */\n      dup3\n        /* \"#utility.yul\":2214:2226   */\n      div\n        /* \"#utility.yul\":2204:2226   */\n      swap1\n      pop\n        /* \"#utility.yul\":2271:2272   */\n      0x01\n        /* \"#utility.yul\":2265:2269   */\n      dup3\n        /* \"#utility.yul\":2261:2273   */\n      and\n        /* \"#utility.yul\":2292:2310   */\n      dup1\n        /* \"#utility.yul\":2282:2363   */\n      tag_59\n      jumpi\n        /* \"#utility.yul\":2348:2352   */\n      0x7f\n        /* \"#utility.yul\":2340:2346   */\n      dup3\n        /* \"#utility.yul\":2336:2353   */\n      and\n        /* \"#utility.yul\":2326:2353   */\n      swap2\n      pop\n        /* \"#utility.yul\":2282:2363   */\n    tag_59:\n        /* \"#utility.yul\":2410:2412   */\n      0x20\n        /* \"#utility.yul\":2402:2408   */\n      dup3\n        /* \"#utility.yul\":2399:2413   */\n      lt\n        /* \"#utility.yul\":2379:2397   */\n      dup2\n        /* \"#utility.yul\":2376:2414   */\n      eq\n        /* \"#utility.yul\":2373:2457   */\n      iszero\n      tag_60\n      jumpi\n        /* \"#utility.yul\":2429:2447   */\n      tag_61\n      tag_62\n      jump\t// in\n    tag_61:\n        /* \"#utility.yul\":2373:2457   */\n    tag_60:\n        /* \"#utility.yul\":2194:2463   */\n      pop\n        /* \"#utility.yul\":2143:2463   */\n      swap2\n      swap1\n      pop\n      jump\t// out\n        /* \"#utility.yul\":2469:2649   */\n    tag_62:\n        /* \"#utility.yul\":2517:2594   */\n      0x4e487b7100000000000000000000000000000000000000000000000000000000\n        /* \"#utility.yul\":2514:2515   */\n      0x00\n        /* \"#utility.yul\":2507:2595   */\n      mstore\n        /* \"#utility.yul\":2614:2618   */\n      0x22\n        /* \"#utility.yul\":2611:2612   */\n      0x04\n        /* \"#utility.yul\":2604:2619   */\n      mstore\n        /* \"#utility.yul\":2638:2642   */\n      0x24\n        /* \"#utility.yul\":2635:2636   */\n      0x00\n        /* \"#utility.yul\":2628:2643   */\n      revert\n        /* \"#utility.yul\":2655:2757   */\n    tag_42:\n        /* \"#utility.yul\":2696:2702   */\n      0x00\n        /* \"#utility.yul\":2747:2749   */\n      0x1f\n        /* \"#utility.yul\":2743:2750   */\n      not\n        /* \"#utility.yul\":2738:2740   */\n      0x1f\n        /* \"#utility.yul\":2731:2736   */\n      dup4\n        /* \"#utility.yul\":2727:2741   */\n      add\n        /* \"#utility.yul\":2723:2751   */\n      and\n        /* \"#utility.yul\":2713:2751   */\n      swap1\n      pop\n        /* \"#utility.yul\":2655:2757   */\n      swap2\n      swap1\n      pop\n      jump\t// out\n\n    auxdata: 0xa264697066735822122091135d03ce1fd7e0e18a63c350c563707d1568dc4b9384434616350e09a8df5564736f6c63430008070033\n}\n",
				"bytecode": {
					"linkReferences": {},
					"object": "60806040526040518060400160405280600681526020017f2068656c6c6f00000000000000000000000000000000000000000000000000008152506000908051906020019061004f92919061011c565b506040518060400160405280600581526020017f48656c6c6f0000000000000000000000000000000000000000000000000000008152506001908051906020019061009b92919061011c565b506040518060400160405280600b81526020017f696e736964652073616665000000000000000000000000000000000000000000815250600290805190602001906100e792919061011c565b5062bc614e6003556000600460006101000a81548160ff02191690831515021790555034801561011657600080fd5b50610220565b828054610128906101bf565b90600052602060002090601f01602090048101928261014a5760008555610191565b82601f1061016357805160ff1916838001178555610191565b82800160010185558215610191579182015b82811115610190578251825591602001919060010190610175565b5b50905061019e91906101a2565b5090565b5b808211156101bb5760008160009055506001016101a3565b5090565b600060028204905060018216806101d757607f821691505b602082108114156101eb576101ea6101f1565b5b50919050565b7f4e487b7100000000000000000000000000000000000000000000000000000000600052602260045260246000fd5b6103038061022f6000396000f3fe608060405234801561001057600080fd5b50600436106100415760003560e01c8063919840ad1461004657806391f5de3814610064578063f584b23a14610082575b600080fd5b61004e6100a0565b60405161005b919061019e565b60405180910390f35b61006c6100b3565b60405161007991906101b9565b60405180910390f35b61008a6100b9565b60405161009791906101d4565b60405180910390f35b600460009054906101000a900460ff1681565b60035481565b600080546100c69061025b565b80601f01602080910402602001604051908101604052809291908181526020018280546100f29061025b565b801561013f5780601f106101145761010080835404028352916020019161013f565b820191906000526020600020905b81548152906001019060200180831161012257829003601f168201915b505050505081565b61015081610212565b82525050565b61015f8161021e565b82525050565b6000610170826101f6565b61017a8185610201565b935061018a818560208601610228565b610193816102bc565b840191505092915050565b60006020820190506101b36000830184610147565b92915050565b60006020820190506101ce6000830184610156565b92915050565b600060208201905081810360008301526101ee8184610165565b905092915050565b600081519050919050565b600082825260208201905092915050565b60008115159050919050565b6000819050919050565b60005b8381101561024657808201518184015260208101905061022b565b83811115610255576000848401525b50505050565b6000600282049050600182168061027357607f821691505b602082108114156102875761028661028d565b5b50919050565b7f4e487b7100000000000000000000000000000000000000000000000000000000600052602260045260246000fd5b6000601f19601f830116905091905056fea264697066735822122091135d03ce1fd7e0e18a63c350c563707d1568dc4b9384434616350e09a8df5564736f6c63430008070033",
					"opcodes": "PUSH1 0x80 PUSH1 0x40 MSTORE PUSH1 0x40 MLOAD DUP1 PUSH1 0x40 ADD PUSH1 0x40 MSTORE DUP1 PUSH1 0x6 DUP2 MSTORE PUSH1 0x20 ADD PUSH32 0x2068656C6C6F0000000000000000000000000000000000000000000000000000 DUP2 MSTORE POP PUSH1 0x0 SWAP1 DUP1 MLOAD SWAP1 PUSH1 0x20 ADD SWAP1 PUSH2 0x4F SWAP3 SWAP2 SWAP1 PUSH2 0x11C JUMP JUMPDEST POP PUSH1 0x40 MLOAD DUP1 PUSH1 0x40 ADD PUSH1 0x40 MSTORE DUP1 PUSH1 0x5 DUP2 MSTORE PUSH1 0x20 ADD PUSH32 0x48656C6C6F000000000000000000000000000000000000000000000000000000 DUP2 MSTORE POP PUSH1 0x1 SWAP1 DUP1 MLOAD SWAP1 PUSH1 0x20 ADD SWAP1 PUSH2 0x9B SWAP3 SWAP2 SWAP1 PUSH2 0x11C JUMP JUMPDEST POP PUSH1 0x40 MLOAD DUP1 PUSH1 0x40 ADD PUSH1 0x40 MSTORE DUP1 PUSH1 0xB DUP2 MSTORE PUSH1 0x20 ADD PUSH32 0x696E736964652073616665000000000000000000000000000000000000000000 DUP2 MSTORE POP PUSH1 0x2 SWAP1 DUP1 MLOAD SWAP1 PUSH1 0x20 ADD SWAP1 PUSH2 0xE7 SWAP3 SWAP2 SWAP1 PUSH2 0x11C JUMP JUMPDEST POP PUSH3 0xBC614E PUSH1 0x3 SSTORE PUSH1 0x0 PUSH1 0x4 PUSH1 0x0 PUSH2 0x100 EXP DUP2 SLOAD DUP2 PUSH1 0xFF MUL NOT AND SWAP1 DUP4 ISZERO ISZERO MUL OR SWAP1 SSTORE POP CALLVALUE DUP1 ISZERO PUSH2 0x116 JUMPI PUSH1 0x0 DUP1 REVERT JUMPDEST POP PUSH2 0x220 JUMP JUMPDEST DUP3 DUP1 SLOAD PUSH2 0x128 SWAP1 PUSH2 0x1BF JUMP JUMPDEST SWAP1 PUSH1 0x0 MSTORE PUSH1 0x20 PUSH1 0x0 KECCAK256 SWAP1 PUSH1 0x1F ADD PUSH1 0x20 SWAP1 DIV DUP2 ADD SWAP3 DUP3 PUSH2 0x14A JUMPI PUSH1 0x0 DUP6 SSTORE PUSH2 0x191 JUMP JUMPDEST DUP3 PUSH1 0x1F LT PUSH2 0x163 JUMPI DUP1 MLOAD PUSH1 0xFF NOT AND DUP4 DUP1 ADD OR DUP6 SSTORE PUSH2 0x191 JUMP JUMPDEST DUP3 DUP1 ADD PUSH1 0x1 ADD DUP6 SSTORE DUP3 ISZERO PUSH2 0x191 JUMPI SWAP2 DUP3 ADD JUMPDEST DUP3 DUP2 GT ISZERO PUSH2 0x190 JUMPI DUP3 MLOAD DUP3 SSTORE SWAP2 PUSH1 0x20 ADD SWAP2 SWAP1 PUSH1 0x1 ADD SWAP1 PUSH2 0x175 JUMP JUMPDEST JUMPDEST POP SWAP1 POP PUSH2 0x19E SWAP2 SWAP1 PUSH2 0x1A2 JUMP JUMPDEST POP SWAP1 JUMP JUMPDEST JUMPDEST DUP1 DUP3 GT ISZERO PUSH2 0x1BB JUMPI PUSH1 0x0 DUP2 PUSH1 0x0 SWAP1 SSTORE POP PUSH1 0x1 ADD PUSH2 0x1A3 JUMP JUMPDEST POP SWAP1 JUMP JUMPDEST PUSH1 0x0 PUSH1 0x2 DUP3 DIV SWAP1 POP PUSH1 0x1 DUP3 AND DUP1 PUSH2 0x1D7 JUMPI PUSH1 0x7F DUP3 AND SWAP2 POP JUMPDEST PUSH1 0x20 DUP3 LT DUP2 EQ ISZERO PUSH2 0x1EB JUMPI PUSH2 0x1EA PUSH2 0x1F1 JUMP JUMPDEST JUMPDEST POP SWAP2 SWAP1 POP JUMP JUMPDEST PUSH32 0x4E487B7100000000000000000000000000000000000000000000000000000000 PUSH1 0x0 MSTORE PUSH1 0x22 PUSH1 0x4 MSTORE PUSH1 0x24 PUSH1 0x0 REVERT JUMPDEST PUSH2 0x303 DUP1 PUSH2 0x22F PUSH1 0x0 CODECOPY PUSH1 0x0 RETURN INVALID PUSH1 0x80 PUSH1 0x40 MSTORE CALLVALUE DUP1 ISZERO PUSH2 0x10 JUMPI PUSH1 0x0 DUP1 REVERT JUMPDEST POP PUSH1 0x4 CALLDATASIZE LT PUSH2 0x41 JUMPI PUSH1 0x0 CALLDATALOAD PUSH1 0xE0 SHR DUP1 PUSH4 0x919840AD EQ PUSH2 0x46 JUMPI DUP1 PUSH4 0x91F5DE38 EQ PUSH2 0x64 JUMPI DUP1 PUSH4 0xF584B23A EQ PUSH2 0x82 JUMPI JUMPDEST PUSH1 0x0 DUP1 REVERT JUMPDEST PUSH2 0x4E PUSH2 0xA0 JUMP JUMPDEST PUSH1 0x40 MLOAD PUSH2 0x5B SWAP2 SWAP1 PUSH2 0x19E JUMP JUMPDEST PUSH1 0x40 MLOAD DUP1 SWAP2 SUB SWAP1 RETURN JUMPDEST PUSH2 0x6C PUSH2 0xB3 JUMP JUMPDEST PUSH1 0x40 MLOAD PUSH2 0x79 SWAP2 SWAP1 PUSH2 0x1B9 JUMP JUMPDEST PUSH1 0x40 MLOAD DUP1 SWAP2 SUB SWAP1 RETURN JUMPDEST PUSH2 0x8A PUSH2 0xB9 JUMP JUMPDEST PUSH1 0x40 MLOAD PUSH2 0x97 SWAP2 SWAP1 PUSH2 0x1D4 JUMP JUMPDEST PUSH1 0x40 MLOAD DUP1 SWAP2 SUB SWAP1 RETURN JUMPDEST PUSH1 0x4 PUSH1 0x0 SWAP1 SLOAD SWAP1 PUSH2 0x100 EXP SWAP1 DIV PUSH1 0xFF AND DUP2 JUMP JUMPDEST PUSH1 0x3 SLOAD DUP2 JUMP JUMPDEST PUSH1 0x0 DUP1 SLOAD PUSH2 0xC6 SWAP1 PUSH2 0x25B JUMP JUMPDEST DUP1 PUSH1 0x1F ADD PUSH1 0x20 DUP1 SWAP2 DIV MUL PUSH1 0x20 ADD PUSH1 0x40 MLOAD SWAP1 DUP2 ADD PUSH1 0x40 MSTORE DUP1 SWAP3 SWAP2 SWAP1 DUP2 DUP2 MSTORE PUSH1 0x20 ADD DUP3 DUP1 SLOAD PUSH2 0xF2 SWAP1 PUSH2 0x25B JUMP JUMPDEST DUP1 ISZERO PUSH2 0x13F JUMPI DUP1 PUSH1 0x1F LT PUSH2 0x114 JUMPI PUSH2 0x100 DUP1 DUP4 SLOAD DIV MUL DUP4 MSTORE SWAP2 PUSH1 0x20 ADD SWAP2 PUSH2 0x13F JUMP JUMPDEST DUP3 ADD SWAP2 SWAP1 PUSH1 0x0 MSTORE PUSH1 0x20 PUSH1 0x0 KECCAK256 SWAP1 JUMPDEST DUP2 SLOAD DUP2 MSTORE SWAP1 PUSH1 0x1 ADD SWAP1 PUSH1 0x20 ADD DUP1 DUP4 GT PUSH2 0x122 JUMPI DUP3 SWAP1 SUB PUSH1 0x1F AND DUP3 ADD SWAP2 JUMPDEST POP POP POP POP POP DUP2 JUMP JUMPDEST PUSH2 0x150 DUP2 PUSH2 0x212 JUMP JUMPDEST DUP3 MSTORE POP POP JUMP JUMPDEST PUSH2 0x15F DUP2 PUSH2 0x21E JUMP JUMPDEST DUP3 MSTORE POP POP JUMP JUMPDEST PUSH1 0x0 PUSH2 0x170 DUP3 PUSH2 0x1F6 JUMP JUMPDEST PUSH2 0x17A DUP2 DUP6 PUSH2 0x201 JUMP JUMPDEST SWAP4 POP PUSH2 0x18A DUP2 DUP6 PUSH1 0x20 DUP7 ADD PUSH2 0x228 JUMP JUMPDEST PUSH2 0x193 DUP2 PUSH2 0x2BC JUMP JUMPDEST DUP5 ADD SWAP2 POP POP SWAP3 SWAP2 POP POP JUMP JUMPDEST PUSH1 0x0 PUSH1 0x20 DUP3 ADD SWAP1 POP PUSH2 0x1B3 PUSH1 0x0 DUP4 ADD DUP5 PUSH2 0x147 JUMP JUMPDEST SWAP3 SWAP2 POP POP JUMP JUMPDEST PUSH1 0x0 PUSH1 0x20 DUP3 ADD SWAP1 POP PUSH2 0x1CE PUSH1 0x0 DUP4 ADD DUP5 PUSH2 0x156 JUMP JUMPDEST SWAP3 SWAP2 POP POP JUMP JUMPDEST PUSH1 0x0 PUSH1 0x20 DUP3 ADD SWAP1 POP DUP2 DUP2 SUB PUSH1 0x0 DUP4 ADD MSTORE PUSH2 0x1EE DUP2 DUP5 PUSH2 0x165 JUMP JUMPDEST SWAP1 POP SWAP3 SWAP2 POP POP JUMP JUMPDEST PUSH1 0x0 DUP2 MLOAD SWAP1 POP SWAP2 SWAP1 POP JUMP JUMPDEST PUSH1 0x0 DUP3 DUP3 MSTORE PUSH1 0x20 DUP3 ADD SWAP1 POP SWAP3 SWAP2 POP POP JUMP JUMPDEST PUSH1 0x0 DUP2 ISZERO ISZERO SWAP1 POP SWAP2 SWAP1 POP JUMP JUMPDEST PUSH1 0x0 DUP2 SWAP1 POP SWAP2 SWAP1 POP JUMP JUMPDEST PUSH1 0x0 JUMPDEST DUP4 DUP2 LT ISZERO PUSH2 0x246 JUMPI DUP1 DUP3 ADD MLOAD DUP2 DUP5 ADD MSTORE PUSH1 0x20 DUP2 ADD SWAP1 POP PUSH2 0x22B JUMP JUMPDEST DUP4 DUP2 GT ISZERO PUSH2 0x255 JUMPI PUSH1 0x0 DUP5 DUP5 ADD MSTORE JUMPDEST POP POP POP POP JUMP JUMPDEST PUSH1 0x0 PUSH1 0x2 DUP3 DIV SWAP1 POP PUSH1 0x1 DUP3 AND DUP1 PUSH2 0x273 JUMPI PUSH1 0x7F DUP3 AND SWAP2 POP JUMPDEST PUSH1 0x20 DUP3 LT DUP2 EQ ISZERO PUSH2 0x287 JUMPI PUSH2 0x286 PUSH2 0x28D JUMP JUMPDEST JUMPDEST POP SWAP2 SWAP1 POP JUMP JUMPDEST PUSH32 0x4E487B7100000000000000000000000000000000000000000000000000000000 PUSH1 0x0 MSTORE PUSH1 0x22 PUSH1 0x4 MSTORE PUSH1 0x24 PUSH1 0x0 REVERT JUMPDEST PUSH1 0x0 PUSH1 0x1F NOT PUSH1 0x1F DUP4 ADD AND SWAP1 POP SWAP2 SWAP1 POP JUMP INVALID LOG2 PUSH5 0x6970667358 0x22 SLT KECCAK256 SWAP2 SGT 0x5D SUB 0xCE 0x1F 0xD7 0xE0 0xE1 DUP11 PUSH4 0xC350C563 PUSH17 0x7D1568DC4B9384434616350E09A8DF5564 PUSH20 0x6F6C634300080700330000000000000000000000 "
				},
				"gasEstimates": {
					"creation": {
						"codeDepositCost": "154200",
						"executionCost": "infinite",
						"totalCost": "infinite"
					},
					"external": {
						"check()": "2449",
						"numero()": "2429",
						"ola()": "infinite"
					}
				},
				"methodIdentifiers": {
					"check()": "919840ad",
					"numero()": "91f5de38",
					"ola()": "f584b23a"
				}
			},
			"storageLayout": {
				"storage": [
					{
						"astId": 4,
						"contract": "contracts/variaveis.sol:Trust",
						"label": "ola",
						"offset": 0,
						"slot": "0",
						"type": "t_string_storage"
					},
					{
						"astId": 7,
						"contract": "contracts/variaveis.sol:Trust",
						"label": "ola1",
						"offset": 0,
						"slot": "1",
						"type": "t_string_storage"
					},
					{
						"astId": 10,
						"contract": "contracts/variaveis.sol:Trust",
						"label": "ola3",
						"offset": 0,
						"slot": "2",
						"type": "t_string_storage"
					},
					{
						"astId": 13,
						"contract": "contracts/variaveis.sol:Trust",
						"label": "numero",
						"offset": 0,
						"slot": "3",
						"type": "t_int256"
					},
					{
						"astId": 16,
						"contract": "contracts/variaveis.sol:Trust",
						"label": "check",
						"offset": 0,
						"slot": "4",
						"type": "t_bool"
					}
				],
				"types": {
					"t_bool": {
						"encoding": "inplace",
						"label": "bool",
						"numberOfBytes": "1"
					},
					"t_int256": {
						"encoding": "inplace",
						"label": "int256",
						"numberOfBytes": "32"
					},
					"t_string_storage": {
						"encoding": "bytes",
						"label": "string",
						"numberOfBytes": "32"
					}
				}
			},
			"userdoc": {
				"kind": "user",
				"methods": {},
				"version": 1
			}
		}
	}
}