{
	"contracts/controleFluxo.sol": {
		"controleFluxo": {
			"abi": [
				{
					"inputs": [
						{
							"internalType": "address",
							"name": "_endereco",
							"type": "address"
						}
					],
					"name": "checar",
					"outputs": [
						{
							"internalType": "bool",
							"name": "",
							"type": "bool"
						}
					],
					"stateMutability": "view",
					"type": "function"
				},
				{
					"inputs": [
						{
							"internalType": "address",
							"name": "_endereco",
							"type": "address"
						}
					],
					"name": "salvar",
					"outputs": [],
					"stateMutability": "nonpayable",
					"type": "function"
				}
			],
			"devdoc": {
				"kind": "dev",
				"methods": {},
				"version": 1
			},
			"evm": {
				"assembly": "    /* \"contracts/controleFluxo.sol\":68:589  contract controleFluxo{... */\n  mstore(0x40, 0x80)\n  callvalue\n  dup1\n  iszero\n  tag_1\n  jumpi\n  0x00\n  dup1\n  revert\ntag_1:\n  pop\n  dataSize(sub_0)\n  dup1\n  dataOffset(sub_0)\n  0x00\n  codecopy\n  0x00\n  return\nstop\n\nsub_0: assembly {\n        /* \"contracts/controleFluxo.sol\":68:589  contract controleFluxo{... */\n      mstore(0x40, 0x80)\n      callvalue\n      dup1\n      iszero\n      tag_1\n      jumpi\n      0x00\n      dup1\n      revert\n    tag_1:\n      pop\n      jumpi(tag_2, lt(calldatasize, 0x04))\n      shr(0xe0, calldataload(0x00))\n      dup1\n      0x07cca8fe\n      eq\n      tag_3\n      jumpi\n      dup1\n      0xec39bc17\n      eq\n      tag_4\n      jumpi\n    tag_2:\n      0x00\n      dup1\n      revert\n        /* \"contracts/controleFluxo.sol\":314:582  function checar(address _endereco)external view returns(bool){... */\n    tag_3:\n      tag_5\n      0x04\n      dup1\n      calldatasize\n      sub\n      dup2\n      add\n      swap1\n      tag_6\n      swap2\n      swap1\n      tag_7\n      jump\t// in\n    tag_6:\n      tag_8\n      jump\t// in\n    tag_5:\n      mload(0x40)\n      tag_9\n      swap2\n      swap1\n      tag_10\n      jump\t// in\n    tag_9:\n      mload(0x40)\n      dup1\n      swap2\n      sub\n      swap1\n      return\n        /* \"contracts/controleFluxo.sol\":150:304  function salvar(address _endereco )external{   // ... */\n    tag_4:\n      tag_11\n      0x04\n      dup1\n      calldatasize\n      sub\n      dup2\n      add\n      swap1\n      tag_12\n      swap2\n      swap1\n      tag_7\n      jump\t// in\n    tag_12:\n      tag_13\n      jump\t// in\n    tag_11:\n      stop\n        /* \"contracts/controleFluxo.sol\":314:582  function checar(address _endereco)external view returns(bool){... */\n    tag_8:\n        /* \"contracts/controleFluxo.sol\":370:374  bool */\n      0x00\n        /* \"contracts/controleFluxo.sol\":394:400  uint i */\n      dup1\n        /* \"contracts/controleFluxo.sol\":403:404  0 */\n      0x00\n        /* \"contracts/controleFluxo.sol\":394:404  uint i = 0 */\n      swap1\n      pop\n        /* \"contracts/controleFluxo.sol\":390:545  for(uint i = 0; i <depositos.length; i++){... */\n    tag_15:\n        /* \"contracts/controleFluxo.sol\":409:418  depositos */\n      0x00\n        /* \"contracts/controleFluxo.sol\":409:425  depositos.length */\n      dup1\n      sload\n      swap1\n      pop\n        /* \"contracts/controleFluxo.sol\":406:407  i */\n      dup2\n        /* \"contracts/controleFluxo.sol\":406:425  i <depositos.length */\n      lt\n        /* \"contracts/controleFluxo.sol\":390:545  for(uint i = 0; i <depositos.length; i++){... */\n      iszero\n      tag_16\n      jumpi\n        /* \"contracts/controleFluxo.sol\":469:478  _endereco */\n      dup3\n        /* \"contracts/controleFluxo.sol\":453:478  depositos[i] == _endereco */\n      0xffffffffffffffffffffffffffffffffffffffff\n      and\n        /* \"contracts/controleFluxo.sol\":453:462  depositos */\n      0x00\n        /* \"contracts/controleFluxo.sol\":463:464  i */\n      dup3\n        /* \"contracts/controleFluxo.sol\":453:465  depositos[i] */\n      dup2\n      sload\n      dup2\n      lt\n      tag_18\n      jumpi\n      tag_19\n      tag_20\n      jump\t// in\n    tag_19:\n    tag_18:\n      swap1\n      0x00\n      mstore\n      keccak256(0x00, 0x20)\n      add\n      0x00\n      swap1\n      sload\n      swap1\n      0x0100\n      exp\n      swap1\n      div\n      0xffffffffffffffffffffffffffffffffffffffff\n      and\n        /* \"contracts/controleFluxo.sol\":453:478  depositos[i] == _endereco */\n      0xffffffffffffffffffffffffffffffffffffffff\n      and\n      eq\n        /* \"contracts/controleFluxo.sol\":450:531  if(depositos[i] == _endereco){... */\n      iszero\n      tag_22\n      jumpi\n        /* \"contracts/controleFluxo.sol\":507:511  true */\n      0x01\n        /* \"contracts/controleFluxo.sol\":500:511  return true */\n      swap2\n      pop\n      pop\n      jump(tag_14)\n        /* \"contracts/controleFluxo.sol\":450:531  if(depositos[i] == _endereco){... */\n    tag_22:\n        /* \"contracts/controleFluxo.sol\":427:430  i++ */\n      dup1\n      dup1\n      tag_23\n      swap1\n      tag_24\n      jump\t// in\n    tag_23:\n      swap2\n      pop\n      pop\n        /* \"contracts/controleFluxo.sol\":390:545  for(uint i = 0; i <depositos.length; i++){... */\n      jump(tag_15)\n    tag_16:\n      pop\n        /* \"contracts/controleFluxo.sol\":565:570  false */\n      0x00\n        /* \"contracts/controleFluxo.sol\":558:570  return false */\n      swap1\n      pop\n        /* \"contracts/controleFluxo.sol\":314:582  function checar(address _endereco)external view returns(bool){... */\n    tag_14:\n      swap2\n      swap1\n      pop\n      jump\t// out\n        /* \"contracts/controleFluxo.sol\":150:304  function salvar(address _endereco )external{   // ... */\n    tag_13:\n        /* \"contracts/controleFluxo.sol\":214:223  depositos */\n      0x00\n        /* \"contracts/controleFluxo.sol\":229:238  _endereco */\n      dup2\n        /* \"contracts/controleFluxo.sol\":214:239  depositos.push(_endereco) */\n      swap1\n      dup1\n      0x01\n      dup2\n      sload\n      add\n      dup1\n      dup3\n      sstore\n      dup1\n      swap2\n      pop\n      pop\n      0x01\n      swap1\n      sub\n      swap1\n      0x00\n      mstore\n      keccak256(0x00, 0x20)\n      add\n      0x00\n      swap1\n      swap2\n      swap1\n      swap2\n      swap1\n      swap2\n      0x0100\n      exp\n      dup2\n      sload\n      dup2\n      0xffffffffffffffffffffffffffffffffffffffff\n      mul\n      not\n      and\n      swap1\n      dup4\n      0xffffffffffffffffffffffffffffffffffffffff\n      and\n      mul\n      or\n      swap1\n      sstore\n      pop\n        /* \"contracts/controleFluxo.sol\":150:304  function salvar(address _endereco )external{   // ... */\n      pop\n      jump\t// out\n        /* \"#utility.yul\":88:205   */\n    tag_28:\n        /* \"#utility.yul\":197:198   */\n      0x00\n        /* \"#utility.yul\":194:195   */\n      dup1\n        /* \"#utility.yul\":187:199   */\n      revert\n        /* \"#utility.yul\":334:460   */\n    tag_30:\n        /* \"#utility.yul\":371:378   */\n      0x00\n        /* \"#utility.yul\":411:453   */\n      0xffffffffffffffffffffffffffffffffffffffff\n        /* \"#utility.yul\":404:409   */\n      dup3\n        /* \"#utility.yul\":400:454   */\n      and\n        /* \"#utility.yul\":389:454   */\n      swap1\n      pop\n        /* \"#utility.yul\":334:460   */\n      swap2\n      swap1\n      pop\n      jump\t// out\n        /* \"#utility.yul\":466:562   */\n    tag_31:\n        /* \"#utility.yul\":503:510   */\n      0x00\n        /* \"#utility.yul\":532:556   */\n      tag_44\n        /* \"#utility.yul\":550:555   */\n      dup3\n        /* \"#utility.yul\":532:556   */\n      tag_30\n      jump\t// in\n    tag_44:\n        /* \"#utility.yul\":521:556   */\n      swap1\n      pop\n        /* \"#utility.yul\":466:562   */\n      swap2\n      swap1\n      pop\n      jump\t// out\n        /* \"#utility.yul\":568:690   */\n    tag_32:\n        /* \"#utility.yul\":641:665   */\n      tag_46\n        /* \"#utility.yul\":659:664   */\n      dup2\n        /* \"#utility.yul\":641:665   */\n      tag_31\n      jump\t// in\n    tag_46:\n        /* \"#utility.yul\":634:639   */\n      dup2\n        /* \"#utility.yul\":631:666   */\n      eq\n        /* \"#utility.yul\":621:684   */\n      tag_47\n      jumpi\n        /* \"#utility.yul\":680:681   */\n      0x00\n        /* \"#utility.yul\":677:678   */\n      dup1\n        /* \"#utility.yul\":670:682   */\n      revert\n        /* \"#utility.yul\":621:684   */\n    tag_47:\n        /* \"#utility.yul\":568:690   */\n      pop\n      jump\t// out\n        /* \"#utility.yul\":696:835   */\n    tag_33:\n        /* \"#utility.yul\":742:747   */\n      0x00\n        /* \"#utility.yul\":780:786   */\n      dup2\n        /* \"#utility.yul\":767:787   */\n      calldataload\n        /* \"#utility.yul\":758:787   */\n      swap1\n      pop\n        /* \"#utility.yul\":796:829   */\n      tag_49\n        /* \"#utility.yul\":823:828   */\n      dup2\n        /* \"#utility.yul\":796:829   */\n      tag_32\n      jump\t// in\n    tag_49:\n        /* \"#utility.yul\":696:835   */\n      swap3\n      swap2\n      pop\n      pop\n      jump\t// out\n        /* \"#utility.yul\":841:1170   */\n    tag_7:\n        /* \"#utility.yul\":900:906   */\n      0x00\n        /* \"#utility.yul\":949:951   */\n      0x20\n        /* \"#utility.yul\":937:946   */\n      dup3\n        /* \"#utility.yul\":928:935   */\n      dup5\n        /* \"#utility.yul\":924:947   */\n      sub\n        /* \"#utility.yul\":920:952   */\n      slt\n        /* \"#utility.yul\":917:1036   */\n      iszero\n      tag_51\n      jumpi\n        /* \"#utility.yul\":955:1034   */\n      tag_52\n      tag_28\n      jump\t// in\n    tag_52:\n        /* \"#utility.yul\":917:1036   */\n    tag_51:\n        /* \"#utility.yul\":1075:1076   */\n      0x00\n        /* \"#utility.yul\":1100:1153   */\n      tag_53\n        /* \"#utility.yul\":1145:1152   */\n      dup5\n        /* \"#utility.yul\":1136:1142   */\n      dup3\n        /* \"#utility.yul\":1125:1134   */\n      dup6\n        /* \"#utility.yul\":1121:1143   */\n      add\n        /* \"#utility.yul\":1100:1153   */\n      tag_33\n      jump\t// in\n    tag_53:\n        /* \"#utility.yul\":1090:1153   */\n      swap2\n      pop\n        /* \"#utility.yul\":1046:1163   */\n      pop\n        /* \"#utility.yul\":841:1170   */\n      swap3\n      swap2\n      pop\n      pop\n      jump\t// out\n        /* \"#utility.yul\":1176:1266   */\n    tag_34:\n        /* \"#utility.yul\":1210:1217   */\n      0x00\n        /* \"#utility.yul\":1253:1258   */\n      dup2\n        /* \"#utility.yul\":1246:1259   */\n      iszero\n        /* \"#utility.yul\":1239:1260   */\n      iszero\n        /* \"#utility.yul\":1228:1260   */\n      swap1\n      pop\n        /* \"#utility.yul\":1176:1266   */\n      swap2\n      swap1\n      pop\n      jump\t// out\n        /* \"#utility.yul\":1272:1381   */\n    tag_35:\n        /* \"#utility.yul\":1353:1374   */\n      tag_56\n        /* \"#utility.yul\":1368:1373   */\n      dup2\n        /* \"#utility.yul\":1353:1374   */\n      tag_34\n      jump\t// in\n    tag_56:\n        /* \"#utility.yul\":1348:1351   */\n      dup3\n        /* \"#utility.yul\":1341:1375   */\n      mstore\n        /* \"#utility.yul\":1272:1381   */\n      pop\n      pop\n      jump\t// out\n        /* \"#utility.yul\":1387:1597   */\n    tag_10:\n        /* \"#utility.yul\":1474:1478   */\n      0x00\n        /* \"#utility.yul\":1512:1514   */\n      0x20\n        /* \"#utility.yul\":1501:1510   */\n      dup3\n        /* \"#utility.yul\":1497:1515   */\n      add\n        /* \"#utility.yul\":1489:1515   */\n      swap1\n      pop\n        /* \"#utility.yul\":1525:1590   */\n      tag_58\n        /* \"#utility.yul\":1587:1588   */\n      0x00\n        /* \"#utility.yul\":1576:1585   */\n      dup4\n        /* \"#utility.yul\":1572:1589   */\n      add\n        /* \"#utility.yul\":1563:1569   */\n      dup5\n        /* \"#utility.yul\":1525:1590   */\n      tag_35\n      jump\t// in\n    tag_58:\n        /* \"#utility.yul\":1387:1597   */\n      swap3\n      swap2\n      pop\n      pop\n      jump\t// out\n        /* \"#utility.yul\":1603:1783   */\n    tag_20:\n        /* \"#utility.yul\":1651:1728   */\n      0x4e487b7100000000000000000000000000000000000000000000000000000000\n        /* \"#utility.yul\":1648:1649   */\n      0x00\n        /* \"#utility.yul\":1641:1729   */\n      mstore\n        /* \"#utility.yul\":1748:1752   */\n      0x32\n        /* \"#utility.yul\":1745:1746   */\n      0x04\n        /* \"#utility.yul\":1738:1753   */\n      mstore\n        /* \"#utility.yul\":1772:1776   */\n      0x24\n        /* \"#utility.yul\":1769:1770   */\n      0x00\n        /* \"#utility.yul\":1762:1777   */\n      revert\n        /* \"#utility.yul\":1789:1969   */\n    tag_36:\n        /* \"#utility.yul\":1837:1914   */\n      0x4e487b7100000000000000000000000000000000000000000000000000000000\n        /* \"#utility.yul\":1834:1835   */\n      0x00\n        /* \"#utility.yul\":1827:1915   */\n      mstore\n        /* \"#utility.yul\":1934:1938   */\n      0x11\n        /* \"#utility.yul\":1931:1932   */\n      0x04\n        /* \"#utility.yul\":1924:1939   */\n      mstore\n        /* \"#utility.yul\":1958:1962   */\n      0x24\n        /* \"#utility.yul\":1955:1956   */\n      0x00\n        /* \"#utility.yul\":1948:1963   */\n      revert\n        /* \"#utility.yul\":1975:2052   */\n    tag_37:\n        /* \"#utility.yul\":2012:2019   */\n      0x00\n        /* \"#utility.yul\":2041:2046   */\n      dup2\n        /* \"#utility.yul\":2030:2046   */\n      swap1\n      pop\n        /* \"#utility.yul\":1975:2052   */\n      swap2\n      swap1\n      pop\n      jump\t// out\n        /* \"#utility.yul\":2058:2291   */\n    tag_24:\n        /* \"#utility.yul\":2097:2100   */\n      0x00\n        /* \"#utility.yul\":2120:2144   */\n      tag_63\n        /* \"#utility.yul\":2138:2143   */\n      dup3\n        /* \"#utility.yul\":2120:2144   */\n      tag_37\n      jump\t// in\n    tag_63:\n        /* \"#utility.yul\":2111:2144   */\n      swap2\n      pop\n        /* \"#utility.yul\":2166:2232   */\n      0xffffffffffffffffffffffffffffffffffffffffffffffffffffffffffffffff\n        /* \"#utility.yul\":2159:2164   */\n      dup3\n        /* \"#utility.yul\":2156:2233   */\n      eq\n        /* \"#utility.yul\":2153:2256   */\n      iszero\n      tag_64\n      jumpi\n        /* \"#utility.yul\":2236:2254   */\n      tag_65\n      tag_36\n      jump\t// in\n    tag_65:\n        /* \"#utility.yul\":2153:2256   */\n    tag_64:\n        /* \"#utility.yul\":2283:2284   */\n      0x01\n        /* \"#utility.yul\":2276:2281   */\n      dup3\n        /* \"#utility.yul\":2272:2285   */\n      add\n        /* \"#utility.yul\":2265:2285   */\n      swap1\n      pop\n        /* \"#utility.yul\":2058:2291   */\n      swap2\n      swap1\n      pop\n      jump\t// out\n\n    auxdata: 0xa2646970667358221220cd3ff061271ad0391c83a4a63d05df5e2358ca5849405571f96069c51fa1d13964736f6c63430008080033\n}\n",
				"bytecode": {
					"linkReferences": {},
					"object": "608060405234801561001057600080fd5b50610349806100206000396000f3fe608060405234801561001057600080fd5b50600436106100365760003560e01c806307cca8fe1461003b578063ec39bc171461006b575b600080fd5b610055600480360381019061005091906101ff565b610087565b6040516100629190610247565b60405180910390f35b610085600480360381019061008091906101ff565b610136565b005b600080600090505b60008054905081101561012b578273ffffffffffffffffffffffffffffffffffffffff16600082815481106100c7576100c6610262565b5b9060005260206000200160009054906101000a900473ffffffffffffffffffffffffffffffffffffffff1673ffffffffffffffffffffffffffffffffffffffff161415610118576001915050610131565b8080610123906102ca565b91505061008f565b50600090505b919050565b6000819080600181540180825580915050600190039060005260206000200160009091909190916101000a81548173ffffffffffffffffffffffffffffffffffffffff021916908373ffffffffffffffffffffffffffffffffffffffff16021790555050565b600080fd5b600073ffffffffffffffffffffffffffffffffffffffff82169050919050565b60006101cc826101a1565b9050919050565b6101dc816101c1565b81146101e757600080fd5b50565b6000813590506101f9816101d3565b92915050565b6000602082840312156102155761021461019c565b5b6000610223848285016101ea565b91505092915050565b60008115159050919050565b6102418161022c565b82525050565b600060208201905061025c6000830184610238565b92915050565b7f4e487b7100000000000000000000000000000000000000000000000000000000600052603260045260246000fd5b7f4e487b7100000000000000000000000000000000000000000000000000000000600052601160045260246000fd5b6000819050919050565b60006102d5826102c0565b91507fffffffffffffffffffffffffffffffffffffffffffffffffffffffffffffffff82141561030857610307610291565b5b60018201905091905056fea2646970667358221220cd3ff061271ad0391c83a4a63d05df5e2358ca5849405571f96069c51fa1d13964736f6c63430008080033",
					"opcodes": "PUSH1 0x80 PUSH1 0x40 MSTORE CALLVALUE DUP1 ISZERO PUSH2 0x10 JUMPI PUSH1 0x0 DUP1 REVERT JUMPDEST POP PUSH2 0x349 DUP1 PUSH2 0x20 PUSH1 0x0 CODECOPY PUSH1 0x0 RETURN INVALID PUSH1 0x80 PUSH1 0x40 MSTORE CALLVALUE DUP1 ISZERO PUSH2 0x10 JUMPI PUSH1 0x0 DUP1 REVERT JUMPDEST POP PUSH1 0x4 CALLDATASIZE LT PUSH2 0x36 JUMPI PUSH1 0x0 CALLDATALOAD PUSH1 0xE0 SHR DUP1 PUSH4 0x7CCA8FE EQ PUSH2 0x3B JUMPI DUP1 PUSH4 0xEC39BC17 EQ PUSH2 0x6B JUMPI JUMPDEST PUSH1 0x0 DUP1 REVERT JUMPDEST PUSH2 0x55 PUSH1 0x4 DUP1 CALLDATASIZE SUB DUP2 ADD SWAP1 PUSH2 0x50 SWAP2 SWAP1 PUSH2 0x1FF JUMP JUMPDEST PUSH2 0x87 JUMP JUMPDEST PUSH1 0x40 MLOAD PUSH2 0x62 SWAP2 SWAP1 PUSH2 0x247 JUMP JUMPDEST PUSH1 0x40 MLOAD DUP1 SWAP2 SUB SWAP1 RETURN JUMPDEST PUSH2 0x85 PUSH1 0x4 DUP1 CALLDATASIZE SUB DUP2 ADD SWAP1 PUSH2 0x80 SWAP2 SWAP1 PUSH2 0x1FF JUMP JUMPDEST PUSH2 0x136 JUMP JUMPDEST STOP JUMPDEST PUSH1 0x0 DUP1 PUSH1 0x0 SWAP1 POP JUMPDEST PUSH1 0x0 DUP1 SLOAD SWAP1 POP DUP2 LT ISZERO PUSH2 0x12B JUMPI DUP3 PUSH20 0xFFFFFFFFFFFFFFFFFFFFFFFFFFFFFFFFFFFFFFFF AND PUSH1 0x0 DUP3 DUP2 SLOAD DUP2 LT PUSH2 0xC7 JUMPI PUSH2 0xC6 PUSH2 0x262 JUMP JUMPDEST JUMPDEST SWAP1 PUSH1 0x0 MSTORE PUSH1 0x20 PUSH1 0x0 KECCAK256 ADD PUSH1 0x0 SWAP1 SLOAD SWAP1 PUSH2 0x100 EXP SWAP1 DIV PUSH20 0xFFFFFFFFFFFFFFFFFFFFFFFFFFFFFFFFFFFFFFFF AND PUSH20 0xFFFFFFFFFFFFFFFFFFFFFFFFFFFFFFFFFFFFFFFF AND EQ ISZERO PUSH2 0x118 JUMPI PUSH1 0x1 SWAP2 POP POP PUSH2 0x131 JUMP JUMPDEST DUP1 DUP1 PUSH2 0x123 SWAP1 PUSH2 0x2CA JUMP JUMPDEST SWAP2 POP POP PUSH2 0x8F JUMP JUMPDEST POP PUSH1 0x0 SWAP1 POP JUMPDEST SWAP2 SWAP1 POP JUMP JUMPDEST PUSH1 0x0 DUP2 SWAP1 DUP1 PUSH1 0x1 DUP2 SLOAD ADD DUP1 DUP3 SSTORE DUP1 SWAP2 POP POP PUSH1 0x1 SWAP1 SUB SWAP1 PUSH1 0x0 MSTORE PUSH1 0x20 PUSH1 0x0 KECCAK256 ADD PUSH1 0x0 SWAP1 SWAP2 SWAP1 SWAP2 SWAP1 SWAP2 PUSH2 0x100 EXP DUP2 SLOAD DUP2 PUSH20 0xFFFFFFFFFFFFFFFFFFFFFFFFFFFFFFFFFFFFFFFF MUL NOT AND SWAP1 DUP4 PUSH20 0xFFFFFFFFFFFFFFFFFFFFFFFFFFFFFFFFFFFFFFFF AND MUL OR SWAP1 SSTORE POP POP JUMP JUMPDEST PUSH1 0x0 DUP1 REVERT JUMPDEST PUSH1 0x0 PUSH20 0xFFFFFFFFFFFFFFFFFFFFFFFFFFFFFFFFFFFFFFFF DUP3 AND SWAP1 POP SWAP2 SWAP1 POP JUMP JUMPDEST PUSH1 0x0 PUSH2 0x1CC DUP3 PUSH2 0x1A1 JUMP JUMPDEST SWAP1 POP SWAP2 SWAP1 POP JUMP JUMPDEST PUSH2 0x1DC DUP2 PUSH2 0x1C1 JUMP JUMPDEST DUP2 EQ PUSH2 0x1E7 JUMPI PUSH1 0x0 DUP1 REVERT JUMPDEST POP JUMP JUMPDEST PUSH1 0x0 DUP2 CALLDATALOAD SWAP1 POP PUSH2 0x1F9 DUP2 PUSH2 0x1D3 JUMP JUMPDEST SWAP3 SWAP2 POP POP JUMP JUMPDEST PUSH1 0x0 PUSH1 0x20 DUP3 DUP5 SUB SLT ISZERO PUSH2 0x215 JUMPI PUSH2 0x214 PUSH2 0x19C JUMP JUMPDEST JUMPDEST PUSH1 0x0 PUSH2 0x223 DUP5 DUP3 DUP6 ADD PUSH2 0x1EA JUMP JUMPDEST SWAP2 POP POP SWAP3 SWAP2 POP POP JUMP JUMPDEST PUSH1 0x0 DUP2 ISZERO ISZERO SWAP1 POP SWAP2 SWAP1 POP JUMP JUMPDEST PUSH2 0x241 DUP2 PUSH2 0x22C JUMP JUMPDEST DUP3 MSTORE POP POP JUMP JUMPDEST PUSH1 0x0 PUSH1 0x20 DUP3 ADD SWAP1 POP PUSH2 0x25C PUSH1 0x0 DUP4 ADD DUP5 PUSH2 0x238 JUMP JUMPDEST SWAP3 SWAP2 POP POP JUMP JUMPDEST PUSH32 0x4E487B7100000000000000000000000000000000000000000000000000000000 PUSH1 0x0 MSTORE PUSH1 0x32 PUSH1 0x4 MSTORE PUSH1 0x24 PUSH1 0x0 REVERT JUMPDEST PUSH32 0x4E487B7100000000000000000000000000000000000000000000000000000000 PUSH1 0x0 MSTORE PUSH1 0x11 PUSH1 0x4 MSTORE PUSH1 0x24 PUSH1 0x0 REVERT JUMPDEST PUSH1 0x0 DUP2 SWAP1 POP SWAP2 SWAP1 POP JUMP JUMPDEST PUSH1 0x0 PUSH2 0x2D5 DUP3 PUSH2 0x2C0 JUMP JUMPDEST SWAP2 POP PUSH32 0xFFFFFFFFFFFFFFFFFFFFFFFFFFFFFFFFFFFFFFFFFFFFFFFFFFFFFFFFFFFFFFFF DUP3 EQ ISZERO PUSH2 0x308 JUMPI PUSH2 0x307 PUSH2 0x291 JUMP JUMPDEST JUMPDEST PUSH1 0x1 DUP3 ADD SWAP1 POP SWAP2 SWAP1 POP JUMP INVALID LOG2 PUSH5 0x6970667358 0x22 SLT KECCAK256 0xCD EXTCODEHASH CREATE PUSH2 0x271A 0xD0 CODECOPY SHR DUP4 LOG4 0xA6 RETURNDATASIZE SDIV 0xDF 0x5E 0x23 PC 0xCA PC 0x49 BLOCKHASH SSTORE PUSH18 0xF96069C51FA1D13964736F6C634300080800 CALLER "
				},
				"gasEstimates": {
					"creation": {
						"codeDepositCost": "168200",
						"executionCost": "214",
						"totalCost": "168414"
					},
					"external": {
						"checar(address)": "infinite",
						"salvar(address)": "49034"
					}
				},
				"methodIdentifiers": {
					"checar(address)": "07cca8fe",
					"salvar(address)": "ec39bc17"
				}
			},
			"storageLayout": {
				"storage": [
					{
						"astId": 4,
						"contract": "contracts/controleFluxo.sol:controleFluxo",
						"label": "depositos",
						"offset": 0,
						"slot": "0",
						"type": "t_array(t_address)dyn_storage"
					}
				],
				"types": {
					"t_address": {
						"encoding": "inplace",
						"label": "address",
						"numberOfBytes": "20"
					},
					"t_array(t_address)dyn_storage": {
						"base": "t_address",
						"encoding": "dynamic_array",
						"label": "address[]",
						"numberOfBytes": "32"
					}
				}
			},
			"userdoc": {
				"kind": "user",
				"methods": {},
				"version": 1
			}
		}
	}
}