{
	"contracts/srtorage_memory.sol": {
		"locais": {
			"abi": [
				{
					"inputs": [
						{
							"internalType": "string",
							"name": "_name",
							"type": "string"
						}
					],
					"name": "Names",
					"outputs": [],
					"stateMutability": "nonpayable",
					"type": "function"
				},
				{
					"inputs": [
						{
							"internalType": "uint256",
							"name": "_valor",
							"type": "uint256"
						},
						{
							"internalType": "string",
							"name": "_name",
							"type": "string"
						}
					],
					"name": "getValuer",
					"outputs": [],
					"stateMutability": "nonpayable",
					"type": "function"
				},
				{
					"inputs": [],
					"name": "name",
					"outputs": [
						{
							"internalType": "string",
							"name": "",
							"type": "string"
						}
					],
					"stateMutability": "view",
					"type": "function"
				},
				{
					"inputs": [
						{
							"internalType": "uint256",
							"name": "_valor",
							"type": "uint256"
						}
					],
					"name": "setValores",
					"outputs": [],
					"stateMutability": "nonpayable",
					"type": "function"
				},
				{
					"inputs": [],
					"name": "valor",
					"outputs": [
						{
							"internalType": "uint256",
							"name": "",
							"type": "uint256"
						}
					],
					"stateMutability": "view",
					"type": "function"
				}
			],
			"devdoc": {
				"kind": "dev",
				"methods": {},
				"version": 1
			},
			"evm": {
				"assembly": "    /* \"contracts/srtorage_memory.sol\":58:472  contract locais{\r... */\n  mstore(0x40, 0x80)\n    /* \"contracts/srtorage_memory.sol\":100:101  2 */\n  0x02\n    /* \"contracts/srtorage_memory.sol\":80:101  uint public valor = 2 */\n  0x00\n  sstore\n    /* \"contracts/srtorage_memory.sol\":108:145  string public name = \"Carlos Eduardo\" */\n  mload(0x40)\n  dup1\n  0x40\n  add\n  0x40\n  mstore\n  dup1\n  0x0e\n  dup2\n  mstore\n  0x20\n  add\n  0x4361726c6f73204564756172646f000000000000000000000000000000000000\n  dup2\n  mstore\n  pop\n  0x01\n  swap1\n  dup1\n  mload\n  swap1\n  0x20\n  add\n  swap1\n  tag_1\n  swap3\n  swap2\n  swap1\n  tag_2\n  jump\t// in\ntag_1:\n  pop\n    /* \"contracts/srtorage_memory.sol\":58:472  contract locais{\r... */\n  callvalue\n  dup1\n  iszero\n  tag_3\n  jumpi\n  0x00\n  dup1\n  revert\ntag_3:\n  pop\n  jump(tag_4)\ntag_2:\n  dup3\n  dup1\n  sload\n  tag_5\n  swap1\n  tag_6\n  jump\t// in\ntag_5:\n  swap1\n  0x00\n  mstore\n  keccak256(0x00, 0x20)\n  swap1\n  0x1f\n  add\n  0x20\n  swap1\n  div\n  dup2\n  add\n  swap3\n  dup3\n  tag_8\n  jumpi\n  0x00\n  dup6\n  sstore\n  jump(tag_7)\ntag_8:\n  dup3\n  0x1f\n  lt\n  tag_9\n  jumpi\n  dup1\n  mload\n  not(0xff)\n  and\n  dup4\n  dup1\n  add\n  or\n  dup6\n  sstore\n  jump(tag_7)\ntag_9:\n  dup3\n  dup1\n  add\n  0x01\n  add\n  dup6\n  sstore\n  dup3\n  iszero\n  tag_7\n  jumpi\n  swap2\n  dup3\n  add\ntag_10:\n  dup3\n  dup2\n  gt\n  iszero\n  tag_11\n  jumpi\n  dup3\n  mload\n  dup3\n  sstore\n  swap2\n  0x20\n  add\n  swap2\n  swap1\n  0x01\n  add\n  swap1\n  jump(tag_10)\ntag_11:\ntag_7:\n  pop\n  swap1\n  pop\n  tag_12\n  swap2\n  swap1\n  tag_13\n  jump\t// in\ntag_12:\n  pop\n  swap1\n  jump\t// out\ntag_13:\ntag_14:\n  dup1\n  dup3\n  gt\n  iszero\n  tag_15\n  jumpi\n  0x00\n  dup2\n  0x00\n  swap1\n  sstore\n  pop\n  0x01\n  add\n  jump(tag_14)\ntag_15:\n  pop\n  swap1\n  jump\t// out\n    /* \"#utility.yul\":7:327   */\ntag_6:\n    /* \"#utility.yul\":51:57   */\n  0x00\n    /* \"#utility.yul\":88:89   */\n  0x02\n    /* \"#utility.yul\":82:86   */\n  dup3\n    /* \"#utility.yul\":78:90   */\n  div\n    /* \"#utility.yul\":68:90   */\n  swap1\n  pop\n    /* \"#utility.yul\":135:136   */\n  0x01\n    /* \"#utility.yul\":129:133   */\n  dup3\n    /* \"#utility.yul\":125:137   */\n  and\n    /* \"#utility.yul\":156:174   */\n  dup1\n    /* \"#utility.yul\":146:227   */\n  tag_18\n  jumpi\n    /* \"#utility.yul\":212:216   */\n  0x7f\n    /* \"#utility.yul\":204:210   */\n  dup3\n    /* \"#utility.yul\":200:217   */\n  and\n    /* \"#utility.yul\":190:217   */\n  swap2\n  pop\n    /* \"#utility.yul\":146:227   */\ntag_18:\n    /* \"#utility.yul\":274:276   */\n  0x20\n    /* \"#utility.yul\":266:272   */\n  dup3\n    /* \"#utility.yul\":263:277   */\n  lt\n    /* \"#utility.yul\":243:261   */\n  dup2\n    /* \"#utility.yul\":240:278   */\n  eq\n    /* \"#utility.yul\":237:321   */\n  iszero\n  tag_19\n  jumpi\n    /* \"#utility.yul\":293:311   */\n  tag_20\n  tag_21\n  jump\t// in\ntag_20:\n    /* \"#utility.yul\":237:321   */\ntag_19:\n    /* \"#utility.yul\":58:327   */\n  pop\n    /* \"#utility.yul\":7:327   */\n  swap2\n  swap1\n  pop\n  jump\t// out\n    /* \"#utility.yul\":333:513   */\ntag_21:\n    /* \"#utility.yul\":381:458   */\n  0x4e487b7100000000000000000000000000000000000000000000000000000000\n    /* \"#utility.yul\":378:379   */\n  0x00\n    /* \"#utility.yul\":371:459   */\n  mstore\n    /* \"#utility.yul\":478:482   */\n  0x22\n    /* \"#utility.yul\":475:476   */\n  0x04\n    /* \"#utility.yul\":468:483   */\n  mstore\n    /* \"#utility.yul\":502:506   */\n  0x24\n    /* \"#utility.yul\":499:500   */\n  0x00\n    /* \"#utility.yul\":492:507   */\n  revert\n    /* \"contracts/srtorage_memory.sol\":58:472  contract locais{\r... */\ntag_4:\n  dataSize(sub_0)\n  dup1\n  dataOffset(sub_0)\n  0x00\n  codecopy\n  0x00\n  return\nstop\n\nsub_0: assembly {\n        /* \"contracts/srtorage_memory.sol\":58:472  contract locais{\r... */\n      mstore(0x40, 0x80)\n      callvalue\n      dup1\n      iszero\n      tag_1\n      jumpi\n      0x00\n      dup1\n      revert\n    tag_1:\n      pop\n      jumpi(tag_2, lt(calldatasize, 0x04))\n      shr(0xe0, calldataload(0x00))\n      dup1\n      0x06fdde03\n      eq\n      tag_3\n      jumpi\n      dup1\n      0x0ff98a92\n      eq\n      tag_4\n      jumpi\n      dup1\n      0x324d89a7\n      eq\n      tag_5\n      jumpi\n      dup1\n      0x47f92bb3\n      eq\n      tag_6\n      jumpi\n      dup1\n      0xecbac7cf\n      eq\n      tag_7\n      jumpi\n    tag_2:\n      0x00\n      dup1\n      revert\n        /* \"contracts/srtorage_memory.sol\":108:145  string public name = \"Carlos Eduardo\" */\n    tag_3:\n      tag_8\n      tag_9\n      jump\t// in\n    tag_8:\n      mload(0x40)\n      tag_10\n      swap2\n      swap1\n      tag_11\n      jump\t// in\n    tag_10:\n      mload(0x40)\n      dup1\n      swap2\n      sub\n      swap1\n      return\n        /* \"contracts/srtorage_memory.sol\":154:234  function  setValores(uint _valor)public{\r... */\n    tag_4:\n      tag_12\n      0x04\n      dup1\n      calldatasize\n      sub\n      dup2\n      add\n      swap1\n      tag_13\n      swap2\n      swap1\n      tag_14\n      jump\t// in\n    tag_13:\n      tag_15\n      jump\t// in\n    tag_12:\n      stop\n        /* \"contracts/srtorage_memory.sol\":240:322  function  Names(string memory  _name)public{\r... */\n    tag_5:\n      tag_16\n      0x04\n      dup1\n      calldatasize\n      sub\n      dup2\n      add\n      swap1\n      tag_17\n      swap2\n      swap1\n      tag_18\n      jump\t// in\n    tag_17:\n      tag_19\n      jump\t// in\n    tag_16:\n      stop\n        /* \"contracts/srtorage_memory.sol\":328:454  function  getValuer( uint _valor, string memory  _name)public {\r... */\n    tag_6:\n      tag_20\n      0x04\n      dup1\n      calldatasize\n      sub\n      dup2\n      add\n      swap1\n      tag_21\n      swap2\n      swap1\n      tag_22\n      jump\t// in\n    tag_21:\n      tag_23\n      jump\t// in\n    tag_20:\n      stop\n        /* \"contracts/srtorage_memory.sol\":80:101  uint public valor = 2 */\n    tag_7:\n      tag_24\n      tag_25\n      jump\t// in\n    tag_24:\n      mload(0x40)\n      tag_26\n      swap2\n      swap1\n      tag_27\n      jump\t// in\n    tag_26:\n      mload(0x40)\n      dup1\n      swap2\n      sub\n      swap1\n      return\n        /* \"contracts/srtorage_memory.sol\":108:145  string public name = \"Carlos Eduardo\" */\n    tag_9:\n      0x01\n      dup1\n      sload\n      tag_28\n      swap1\n      tag_29\n      jump\t// in\n    tag_28:\n      dup1\n      0x1f\n      add\n      0x20\n      dup1\n      swap2\n      div\n      mul\n      0x20\n      add\n      mload(0x40)\n      swap1\n      dup2\n      add\n      0x40\n      mstore\n      dup1\n      swap3\n      swap2\n      swap1\n      dup2\n      dup2\n      mstore\n      0x20\n      add\n      dup3\n      dup1\n      sload\n      tag_30\n      swap1\n      tag_29\n      jump\t// in\n    tag_30:\n      dup1\n      iszero\n      tag_31\n      jumpi\n      dup1\n      0x1f\n      lt\n      tag_32\n      jumpi\n      0x0100\n      dup1\n      dup4\n      sload\n      div\n      mul\n      dup4\n      mstore\n      swap2\n      0x20\n      add\n      swap2\n      jump(tag_31)\n    tag_32:\n      dup3\n      add\n      swap2\n      swap1\n      0x00\n      mstore\n      keccak256(0x00, 0x20)\n      swap1\n    tag_33:\n      dup2\n      sload\n      dup2\n      mstore\n      swap1\n      0x01\n      add\n      swap1\n      0x20\n      add\n      dup1\n      dup4\n      gt\n      tag_33\n      jumpi\n      dup3\n      swap1\n      sub\n      0x1f\n      and\n      dup3\n      add\n      swap2\n    tag_31:\n      pop\n      pop\n      pop\n      pop\n      pop\n      dup2\n      jump\t// out\n        /* \"contracts/srtorage_memory.sol\":154:234  function  setValores(uint _valor)public{\r... */\n    tag_15:\n        /* \"contracts/srtorage_memory.sol\":212:218  _valor */\n      dup1\n        /* \"contracts/srtorage_memory.sol\":204:209  valor */\n      0x00\n        /* \"contracts/srtorage_memory.sol\":204:218  valor = _valor */\n      dup2\n      swap1\n      sstore\n      pop\n        /* \"contracts/srtorage_memory.sol\":154:234  function  setValores(uint _valor)public{\r... */\n      pop\n      jump\t// out\n        /* \"contracts/srtorage_memory.sol\":240:322  function  Names(string memory  _name)public{\r... */\n    tag_19:\n        /* \"contracts/srtorage_memory.sol\":300:305  _name */\n      dup1\n        /* \"contracts/srtorage_memory.sol\":294:298  name */\n      0x01\n        /* \"contracts/srtorage_memory.sol\":294:305  name =_name */\n      swap1\n      dup1\n      mload\n      swap1\n      0x20\n      add\n      swap1\n      tag_36\n      swap3\n      swap2\n      swap1\n      tag_37\n      jump\t// in\n    tag_36:\n      pop\n        /* \"contracts/srtorage_memory.sol\":240:322  function  Names(string memory  _name)public{\r... */\n      pop\n      jump\t// out\n        /* \"contracts/srtorage_memory.sol\":328:454  function  getValuer( uint _valor, string memory  _name)public {\r... */\n    tag_23:\n        /* \"contracts/srtorage_memory.sol\":407:412  _name */\n      dup1\n        /* \"contracts/srtorage_memory.sol\":401:405  name */\n      0x01\n        /* \"contracts/srtorage_memory.sol\":401:412  name =_name */\n      swap1\n      dup1\n      mload\n      swap1\n      0x20\n      add\n      swap1\n      tag_39\n      swap3\n      swap2\n      swap1\n      tag_37\n      jump\t// in\n    tag_39:\n      pop\n        /* \"contracts/srtorage_memory.sol\":432:438  _valor */\n      dup2\n        /* \"contracts/srtorage_memory.sol\":424:429  valor */\n      0x00\n        /* \"contracts/srtorage_memory.sol\":424:438  valor = _valor */\n      dup2\n      swap1\n      sstore\n      pop\n        /* \"contracts/srtorage_memory.sol\":328:454  function  getValuer( uint _valor, string memory  _name)public {\r... */\n      pop\n      pop\n      jump\t// out\n        /* \"contracts/srtorage_memory.sol\":80:101  uint public valor = 2 */\n    tag_25:\n      sload(0x00)\n      dup2\n      jump\t// out\n    tag_37:\n      dup3\n      dup1\n      sload\n      tag_40\n      swap1\n      tag_29\n      jump\t// in\n    tag_40:\n      swap1\n      0x00\n      mstore\n      keccak256(0x00, 0x20)\n      swap1\n      0x1f\n      add\n      0x20\n      swap1\n      div\n      dup2\n      add\n      swap3\n      dup3\n      tag_42\n      jumpi\n      0x00\n      dup6\n      sstore\n      jump(tag_41)\n    tag_42:\n      dup3\n      0x1f\n      lt\n      tag_43\n      jumpi\n      dup1\n      mload\n      not(0xff)\n      and\n      dup4\n      dup1\n      add\n      or\n      dup6\n      sstore\n      jump(tag_41)\n    tag_43:\n      dup3\n      dup1\n      add\n      0x01\n      add\n      dup6\n      sstore\n      dup3\n      iszero\n      tag_41\n      jumpi\n      swap2\n      dup3\n      add\n    tag_44:\n      dup3\n      dup2\n      gt\n      iszero\n      tag_45\n      jumpi\n      dup3\n      mload\n      dup3\n      sstore\n      swap2\n      0x20\n      add\n      swap2\n      swap1\n      0x01\n      add\n      swap1\n      jump(tag_44)\n    tag_45:\n    tag_41:\n      pop\n      swap1\n      pop\n      tag_46\n      swap2\n      swap1\n      tag_47\n      jump\t// in\n    tag_46:\n      pop\n      swap1\n      jump\t// out\n    tag_47:\n    tag_48:\n      dup1\n      dup3\n      gt\n      iszero\n      tag_49\n      jumpi\n      0x00\n      dup2\n      0x00\n      swap1\n      sstore\n      pop\n      0x01\n      add\n      jump(tag_48)\n    tag_49:\n      pop\n      swap1\n      jump\t// out\n        /* \"#utility.yul\":7:419   */\n    tag_51:\n        /* \"#utility.yul\":85:90   */\n      0x00\n        /* \"#utility.yul\":110:176   */\n      tag_53\n        /* \"#utility.yul\":126:175   */\n      tag_54\n        /* \"#utility.yul\":168:174   */\n      dup5\n        /* \"#utility.yul\":126:175   */\n      tag_55\n      jump\t// in\n    tag_54:\n        /* \"#utility.yul\":110:176   */\n      tag_56\n      jump\t// in\n    tag_53:\n        /* \"#utility.yul\":101:176   */\n      swap1\n      pop\n        /* \"#utility.yul\":199:205   */\n      dup3\n        /* \"#utility.yul\":192:197   */\n      dup2\n        /* \"#utility.yul\":185:206   */\n      mstore\n        /* \"#utility.yul\":237:241   */\n      0x20\n        /* \"#utility.yul\":230:235   */\n      dup2\n        /* \"#utility.yul\":226:242   */\n      add\n        /* \"#utility.yul\":275:278   */\n      dup5\n        /* \"#utility.yul\":266:272   */\n      dup5\n        /* \"#utility.yul\":261:264   */\n      dup5\n        /* \"#utility.yul\":257:273   */\n      add\n        /* \"#utility.yul\":254:279   */\n      gt\n        /* \"#utility.yul\":251:363   */\n      iszero\n      tag_57\n      jumpi\n        /* \"#utility.yul\":282:361   */\n      tag_58\n      tag_59\n      jump\t// in\n    tag_58:\n        /* \"#utility.yul\":251:363   */\n    tag_57:\n        /* \"#utility.yul\":372:413   */\n      tag_60\n        /* \"#utility.yul\":406:412   */\n      dup5\n        /* \"#utility.yul\":401:404   */\n      dup3\n        /* \"#utility.yul\":396:399   */\n      dup6\n        /* \"#utility.yul\":372:413   */\n      tag_61\n      jump\t// in\n    tag_60:\n        /* \"#utility.yul\":91:419   */\n      pop\n        /* \"#utility.yul\":7:419   */\n      swap4\n      swap3\n      pop\n      pop\n      pop\n      jump\t// out\n        /* \"#utility.yul\":439:779   */\n    tag_62:\n        /* \"#utility.yul\":495:500   */\n      0x00\n        /* \"#utility.yul\":544:547   */\n      dup3\n        /* \"#utility.yul\":537:541   */\n      0x1f\n        /* \"#utility.yul\":529:535   */\n      dup4\n        /* \"#utility.yul\":525:542   */\n      add\n        /* \"#utility.yul\":521:548   */\n      slt\n        /* \"#utility.yul\":511:633   */\n      tag_64\n      jumpi\n        /* \"#utility.yul\":552:631   */\n      tag_65\n      tag_66\n      jump\t// in\n    tag_65:\n        /* \"#utility.yul\":511:633   */\n    tag_64:\n        /* \"#utility.yul\":669:675   */\n      dup2\n        /* \"#utility.yul\":656:676   */\n      calldataload\n        /* \"#utility.yul\":694:773   */\n      tag_67\n        /* \"#utility.yul\":769:772   */\n      dup5\n        /* \"#utility.yul\":761:767   */\n      dup3\n        /* \"#utility.yul\":754:758   */\n      0x20\n        /* \"#utility.yul\":746:752   */\n      dup7\n        /* \"#utility.yul\":742:759   */\n      add\n        /* \"#utility.yul\":694:773   */\n      tag_51\n      jump\t// in\n    tag_67:\n        /* \"#utility.yul\":685:773   */\n      swap2\n      pop\n        /* \"#utility.yul\":501:779   */\n      pop\n        /* \"#utility.yul\":439:779   */\n      swap3\n      swap2\n      pop\n      pop\n      jump\t// out\n        /* \"#utility.yul\":785:924   */\n    tag_68:\n        /* \"#utility.yul\":831:836   */\n      0x00\n        /* \"#utility.yul\":869:875   */\n      dup2\n        /* \"#utility.yul\":856:876   */\n      calldataload\n        /* \"#utility.yul\":847:876   */\n      swap1\n      pop\n        /* \"#utility.yul\":885:918   */\n      tag_70\n        /* \"#utility.yul\":912:917   */\n      dup2\n        /* \"#utility.yul\":885:918   */\n      tag_71\n      jump\t// in\n    tag_70:\n        /* \"#utility.yul\":785:924   */\n      swap3\n      swap2\n      pop\n      pop\n      jump\t// out\n        /* \"#utility.yul\":930:1439   */\n    tag_18:\n        /* \"#utility.yul\":999:1005   */\n      0x00\n        /* \"#utility.yul\":1048:1050   */\n      0x20\n        /* \"#utility.yul\":1036:1045   */\n      dup3\n        /* \"#utility.yul\":1027:1034   */\n      dup5\n        /* \"#utility.yul\":1023:1046   */\n      sub\n        /* \"#utility.yul\":1019:1051   */\n      slt\n        /* \"#utility.yul\":1016:1135   */\n      iszero\n      tag_73\n      jumpi\n        /* \"#utility.yul\":1054:1133   */\n      tag_74\n      tag_75\n      jump\t// in\n    tag_74:\n        /* \"#utility.yul\":1016:1135   */\n    tag_73:\n        /* \"#utility.yul\":1202:1203   */\n      0x00\n        /* \"#utility.yul\":1191:1200   */\n      dup3\n        /* \"#utility.yul\":1187:1204   */\n      add\n        /* \"#utility.yul\":1174:1205   */\n      calldataload\n        /* \"#utility.yul\":1232:1250   */\n      0xffffffffffffffff\n        /* \"#utility.yul\":1224:1230   */\n      dup2\n        /* \"#utility.yul\":1221:1251   */\n      gt\n        /* \"#utility.yul\":1218:1335   */\n      iszero\n      tag_76\n      jumpi\n        /* \"#utility.yul\":1254:1333   */\n      tag_77\n      tag_78\n      jump\t// in\n    tag_77:\n        /* \"#utility.yul\":1218:1335   */\n    tag_76:\n        /* \"#utility.yul\":1359:1422   */\n      tag_79\n        /* \"#utility.yul\":1414:1421   */\n      dup5\n        /* \"#utility.yul\":1405:1411   */\n      dup3\n        /* \"#utility.yul\":1394:1403   */\n      dup6\n        /* \"#utility.yul\":1390:1412   */\n      add\n        /* \"#utility.yul\":1359:1422   */\n      tag_62\n      jump\t// in\n    tag_79:\n        /* \"#utility.yul\":1349:1422   */\n      swap2\n      pop\n        /* \"#utility.yul\":1145:1432   */\n      pop\n        /* \"#utility.yul\":930:1439   */\n      swap3\n      swap2\n      pop\n      pop\n      jump\t// out\n        /* \"#utility.yul\":1445:1774   */\n    tag_14:\n        /* \"#utility.yul\":1504:1510   */\n      0x00\n        /* \"#utility.yul\":1553:1555   */\n      0x20\n        /* \"#utility.yul\":1541:1550   */\n      dup3\n        /* \"#utility.yul\":1532:1539   */\n      dup5\n        /* \"#utility.yul\":1528:1551   */\n      sub\n        /* \"#utility.yul\":1524:1556   */\n      slt\n        /* \"#utility.yul\":1521:1640   */\n      iszero\n      tag_81\n      jumpi\n        /* \"#utility.yul\":1559:1638   */\n      tag_82\n      tag_75\n      jump\t// in\n    tag_82:\n        /* \"#utility.yul\":1521:1640   */\n    tag_81:\n        /* \"#utility.yul\":1679:1680   */\n      0x00\n        /* \"#utility.yul\":1704:1757   */\n      tag_83\n        /* \"#utility.yul\":1749:1756   */\n      dup5\n        /* \"#utility.yul\":1740:1746   */\n      dup3\n        /* \"#utility.yul\":1729:1738   */\n      dup6\n        /* \"#utility.yul\":1725:1747   */\n      add\n        /* \"#utility.yul\":1704:1757   */\n      tag_68\n      jump\t// in\n    tag_83:\n        /* \"#utility.yul\":1694:1757   */\n      swap2\n      pop\n        /* \"#utility.yul\":1650:1767   */\n      pop\n        /* \"#utility.yul\":1445:1774   */\n      swap3\n      swap2\n      pop\n      pop\n      jump\t// out\n        /* \"#utility.yul\":1780:2434   */\n    tag_22:\n        /* \"#utility.yul\":1858:1864   */\n      0x00\n        /* \"#utility.yul\":1866:1872   */\n      dup1\n        /* \"#utility.yul\":1915:1917   */\n      0x40\n        /* \"#utility.yul\":1903:1912   */\n      dup4\n        /* \"#utility.yul\":1894:1901   */\n      dup6\n        /* \"#utility.yul\":1890:1913   */\n      sub\n        /* \"#utility.yul\":1886:1918   */\n      slt\n        /* \"#utility.yul\":1883:2002   */\n      iszero\n      tag_85\n      jumpi\n        /* \"#utility.yul\":1921:2000   */\n      tag_86\n      tag_75\n      jump\t// in\n    tag_86:\n        /* \"#utility.yul\":1883:2002   */\n    tag_85:\n        /* \"#utility.yul\":2041:2042   */\n      0x00\n        /* \"#utility.yul\":2066:2119   */\n      tag_87\n        /* \"#utility.yul\":2111:2118   */\n      dup6\n        /* \"#utility.yul\":2102:2108   */\n      dup3\n        /* \"#utility.yul\":2091:2100   */\n      dup7\n        /* \"#utility.yul\":2087:2109   */\n      add\n        /* \"#utility.yul\":2066:2119   */\n      tag_68\n      jump\t// in\n    tag_87:\n        /* \"#utility.yul\":2056:2119   */\n      swap3\n      pop\n        /* \"#utility.yul\":2012:2129   */\n      pop\n        /* \"#utility.yul\":2196:2198   */\n      0x20\n        /* \"#utility.yul\":2185:2194   */\n      dup4\n        /* \"#utility.yul\":2181:2199   */\n      add\n        /* \"#utility.yul\":2168:2200   */\n      calldataload\n        /* \"#utility.yul\":2227:2245   */\n      0xffffffffffffffff\n        /* \"#utility.yul\":2219:2225   */\n      dup2\n        /* \"#utility.yul\":2216:2246   */\n      gt\n        /* \"#utility.yul\":2213:2330   */\n      iszero\n      tag_88\n      jumpi\n        /* \"#utility.yul\":2249:2328   */\n      tag_89\n      tag_78\n      jump\t// in\n    tag_89:\n        /* \"#utility.yul\":2213:2330   */\n    tag_88:\n        /* \"#utility.yul\":2354:2417   */\n      tag_90\n        /* \"#utility.yul\":2409:2416   */\n      dup6\n        /* \"#utility.yul\":2400:2406   */\n      dup3\n        /* \"#utility.yul\":2389:2398   */\n      dup7\n        /* \"#utility.yul\":2385:2407   */\n      add\n        /* \"#utility.yul\":2354:2417   */\n      tag_62\n      jump\t// in\n    tag_90:\n        /* \"#utility.yul\":2344:2417   */\n      swap2\n      pop\n        /* \"#utility.yul\":2139:2427   */\n      pop\n        /* \"#utility.yul\":1780:2434   */\n      swap3\n      pop\n      swap3\n      swap1\n      pop\n      jump\t// out\n        /* \"#utility.yul\":2440:2804   */\n    tag_91:\n        /* \"#utility.yul\":2528:2531   */\n      0x00\n        /* \"#utility.yul\":2556:2595   */\n      tag_93\n        /* \"#utility.yul\":2589:2594   */\n      dup3\n        /* \"#utility.yul\":2556:2595   */\n      tag_94\n      jump\t// in\n    tag_93:\n        /* \"#utility.yul\":2611:2682   */\n      tag_95\n        /* \"#utility.yul\":2675:2681   */\n      dup2\n        /* \"#utility.yul\":2670:2673   */\n      dup6\n        /* \"#utility.yul\":2611:2682   */\n      tag_96\n      jump\t// in\n    tag_95:\n        /* \"#utility.yul\":2604:2682   */\n      swap4\n      pop\n        /* \"#utility.yul\":2691:2743   */\n      tag_97\n        /* \"#utility.yul\":2736:2742   */\n      dup2\n        /* \"#utility.yul\":2731:2734   */\n      dup6\n        /* \"#utility.yul\":2724:2728   */\n      0x20\n        /* \"#utility.yul\":2717:2722   */\n      dup7\n        /* \"#utility.yul\":2713:2729   */\n      add\n        /* \"#utility.yul\":2691:2743   */\n      tag_98\n      jump\t// in\n    tag_97:\n        /* \"#utility.yul\":2768:2797   */\n      tag_99\n        /* \"#utility.yul\":2790:2796   */\n      dup2\n        /* \"#utility.yul\":2768:2797   */\n      tag_100\n      jump\t// in\n    tag_99:\n        /* \"#utility.yul\":2763:2766   */\n      dup5\n        /* \"#utility.yul\":2759:2798   */\n      add\n        /* \"#utility.yul\":2752:2798   */\n      swap2\n      pop\n        /* \"#utility.yul\":2532:2804   */\n      pop\n        /* \"#utility.yul\":2440:2804   */\n      swap3\n      swap2\n      pop\n      pop\n      jump\t// out\n        /* \"#utility.yul\":2810:2928   */\n    tag_101:\n        /* \"#utility.yul\":2897:2921   */\n      tag_103\n        /* \"#utility.yul\":2915:2920   */\n      dup2\n        /* \"#utility.yul\":2897:2921   */\n      tag_104\n      jump\t// in\n    tag_103:\n        /* \"#utility.yul\":2892:2895   */\n      dup3\n        /* \"#utility.yul\":2885:2922   */\n      mstore\n        /* \"#utility.yul\":2810:2928   */\n      pop\n      pop\n      jump\t// out\n        /* \"#utility.yul\":2934:3247   */\n    tag_11:\n        /* \"#utility.yul\":3047:3051   */\n      0x00\n        /* \"#utility.yul\":3085:3087   */\n      0x20\n        /* \"#utility.yul\":3074:3083   */\n      dup3\n        /* \"#utility.yul\":3070:3088   */\n      add\n        /* \"#utility.yul\":3062:3088   */\n      swap1\n      pop\n        /* \"#utility.yul\":3134:3143   */\n      dup2\n        /* \"#utility.yul\":3128:3132   */\n      dup2\n        /* \"#utility.yul\":3124:3144   */\n      sub\n        /* \"#utility.yul\":3120:3121   */\n      0x00\n        /* \"#utility.yul\":3109:3118   */\n      dup4\n        /* \"#utility.yul\":3105:3122   */\n      add\n        /* \"#utility.yul\":3098:3145   */\n      mstore\n        /* \"#utility.yul\":3162:3240   */\n      tag_106\n        /* \"#utility.yul\":3235:3239   */\n      dup2\n        /* \"#utility.yul\":3226:3232   */\n      dup5\n        /* \"#utility.yul\":3162:3240   */\n      tag_91\n      jump\t// in\n    tag_106:\n        /* \"#utility.yul\":3154:3240   */\n      swap1\n      pop\n        /* \"#utility.yul\":2934:3247   */\n      swap3\n      swap2\n      pop\n      pop\n      jump\t// out\n        /* \"#utility.yul\":3253:3475   */\n    tag_27:\n        /* \"#utility.yul\":3346:3350   */\n      0x00\n        /* \"#utility.yul\":3384:3386   */\n      0x20\n        /* \"#utility.yul\":3373:3382   */\n      dup3\n        /* \"#utility.yul\":3369:3387   */\n      add\n        /* \"#utility.yul\":3361:3387   */\n      swap1\n      pop\n        /* \"#utility.yul\":3397:3468   */\n      tag_108\n        /* \"#utility.yul\":3465:3466   */\n      0x00\n        /* \"#utility.yul\":3454:3463   */\n      dup4\n        /* \"#utility.yul\":3450:3467   */\n      add\n        /* \"#utility.yul\":3441:3447   */\n      dup5\n        /* \"#utility.yul\":3397:3468   */\n      tag_101\n      jump\t// in\n    tag_108:\n        /* \"#utility.yul\":3253:3475   */\n      swap3\n      swap2\n      pop\n      pop\n      jump\t// out\n        /* \"#utility.yul\":3481:3610   */\n    tag_56:\n        /* \"#utility.yul\":3515:3521   */\n      0x00\n        /* \"#utility.yul\":3542:3562   */\n      tag_110\n      tag_111\n      jump\t// in\n    tag_110:\n        /* \"#utility.yul\":3532:3562   */\n      swap1\n      pop\n        /* \"#utility.yul\":3571:3604   */\n      tag_112\n        /* \"#utility.yul\":3599:3603   */\n      dup3\n        /* \"#utility.yul\":3591:3597   */\n      dup3\n        /* \"#utility.yul\":3571:3604   */\n      tag_113\n      jump\t// in\n    tag_112:\n        /* \"#utility.yul\":3481:3610   */\n      swap2\n      swap1\n      pop\n      jump\t// out\n        /* \"#utility.yul\":3616:3691   */\n    tag_111:\n        /* \"#utility.yul\":3649:3655   */\n      0x00\n        /* \"#utility.yul\":3682:3684   */\n      0x40\n        /* \"#utility.yul\":3676:3685   */\n      mload\n        /* \"#utility.yul\":3666:3685   */\n      swap1\n      pop\n        /* \"#utility.yul\":3616:3691   */\n      swap1\n      jump\t// out\n        /* \"#utility.yul\":3697:4005   */\n    tag_55:\n        /* \"#utility.yul\":3759:3763   */\n      0x00\n        /* \"#utility.yul\":3849:3867   */\n      0xffffffffffffffff\n        /* \"#utility.yul\":3841:3847   */\n      dup3\n        /* \"#utility.yul\":3838:3868   */\n      gt\n        /* \"#utility.yul\":3835:3891   */\n      iszero\n      tag_116\n      jumpi\n        /* \"#utility.yul\":3871:3889   */\n      tag_117\n      tag_118\n      jump\t// in\n    tag_117:\n        /* \"#utility.yul\":3835:3891   */\n    tag_116:\n        /* \"#utility.yul\":3909:3938   */\n      tag_119\n        /* \"#utility.yul\":3931:3937   */\n      dup3\n        /* \"#utility.yul\":3909:3938   */\n      tag_100\n      jump\t// in\n    tag_119:\n        /* \"#utility.yul\":3901:3938   */\n      swap1\n      pop\n        /* \"#utility.yul\":3993:3997   */\n      0x20\n        /* \"#utility.yul\":3987:3991   */\n      dup2\n        /* \"#utility.yul\":3983:3998   */\n      add\n        /* \"#utility.yul\":3975:3998   */\n      swap1\n      pop\n        /* \"#utility.yul\":3697:4005   */\n      swap2\n      swap1\n      pop\n      jump\t// out\n        /* \"#utility.yul\":4011:4110   */\n    tag_94:\n        /* \"#utility.yul\":4063:4069   */\n      0x00\n        /* \"#utility.yul\":4097:4102   */\n      dup2\n        /* \"#utility.yul\":4091:4103   */\n      mload\n        /* \"#utility.yul\":4081:4103   */\n      swap1\n      pop\n        /* \"#utility.yul\":4011:4110   */\n      swap2\n      swap1\n      pop\n      jump\t// out\n        /* \"#utility.yul\":4116:4285   */\n    tag_96:\n        /* \"#utility.yul\":4200:4211   */\n      0x00\n        /* \"#utility.yul\":4234:4240   */\n      dup3\n        /* \"#utility.yul\":4229:4232   */\n      dup3\n        /* \"#utility.yul\":4222:4241   */\n      mstore\n        /* \"#utility.yul\":4274:4278   */\n      0x20\n        /* \"#utility.yul\":4269:4272   */\n      dup3\n        /* \"#utility.yul\":4265:4279   */\n      add\n        /* \"#utility.yul\":4250:4279   */\n      swap1\n      pop\n        /* \"#utility.yul\":4116:4285   */\n      swap3\n      swap2\n      pop\n      pop\n      jump\t// out\n        /* \"#utility.yul\":4291:4368   */\n    tag_104:\n        /* \"#utility.yul\":4328:4335   */\n      0x00\n        /* \"#utility.yul\":4357:4362   */\n      dup2\n        /* \"#utility.yul\":4346:4362   */\n      swap1\n      pop\n        /* \"#utility.yul\":4291:4368   */\n      swap2\n      swap1\n      pop\n      jump\t// out\n        /* \"#utility.yul\":4374:4528   */\n    tag_61:\n        /* \"#utility.yul\":4458:4464   */\n      dup3\n        /* \"#utility.yul\":4453:4456   */\n      dup2\n        /* \"#utility.yul\":4448:4451   */\n      dup4\n        /* \"#utility.yul\":4435:4465   */\n      calldatacopy\n        /* \"#utility.yul\":4520:4521   */\n      0x00\n        /* \"#utility.yul\":4511:4517   */\n      dup4\n        /* \"#utility.yul\":4506:4509   */\n      dup4\n        /* \"#utility.yul\":4502:4518   */\n      add\n        /* \"#utility.yul\":4495:4522   */\n      mstore\n        /* \"#utility.yul\":4374:4528   */\n      pop\n      pop\n      pop\n      jump\t// out\n        /* \"#utility.yul\":4534:4841   */\n    tag_98:\n        /* \"#utility.yul\":4602:4603   */\n      0x00\n        /* \"#utility.yul\":4612:4725   */\n    tag_125:\n        /* \"#utility.yul\":4626:4632   */\n      dup4\n        /* \"#utility.yul\":4623:4624   */\n      dup2\n        /* \"#utility.yul\":4620:4633   */\n      lt\n        /* \"#utility.yul\":4612:4725   */\n      iszero\n      tag_127\n      jumpi\n        /* \"#utility.yul\":4711:4712   */\n      dup1\n        /* \"#utility.yul\":4706:4709   */\n      dup3\n        /* \"#utility.yul\":4702:4713   */\n      add\n        /* \"#utility.yul\":4696:4714   */\n      mload\n        /* \"#utility.yul\":4692:4693   */\n      dup2\n        /* \"#utility.yul\":4687:4690   */\n      dup5\n        /* \"#utility.yul\":4683:4694   */\n      add\n        /* \"#utility.yul\":4676:4715   */\n      mstore\n        /* \"#utility.yul\":4648:4650   */\n      0x20\n        /* \"#utility.yul\":4645:4646   */\n      dup2\n        /* \"#utility.yul\":4641:4651   */\n      add\n        /* \"#utility.yul\":4636:4651   */\n      swap1\n      pop\n        /* \"#utility.yul\":4612:4725   */\n      jump(tag_125)\n    tag_127:\n        /* \"#utility.yul\":4743:4749   */\n      dup4\n        /* \"#utility.yul\":4740:4741   */\n      dup2\n        /* \"#utility.yul\":4737:4750   */\n      gt\n        /* \"#utility.yul\":4734:4835   */\n      iszero\n      tag_128\n      jumpi\n        /* \"#utility.yul\":4823:4824   */\n      0x00\n        /* \"#utility.yul\":4814:4820   */\n      dup5\n        /* \"#utility.yul\":4809:4812   */\n      dup5\n        /* \"#utility.yul\":4805:4821   */\n      add\n        /* \"#utility.yul\":4798:4825   */\n      mstore\n        /* \"#utility.yul\":4734:4835   */\n    tag_128:\n        /* \"#utility.yul\":4583:4841   */\n      pop\n        /* \"#utility.yul\":4534:4841   */\n      pop\n      pop\n      pop\n      jump\t// out\n        /* \"#utility.yul\":4847:5167   */\n    tag_29:\n        /* \"#utility.yul\":4891:4897   */\n      0x00\n        /* \"#utility.yul\":4928:4929   */\n      0x02\n        /* \"#utility.yul\":4922:4926   */\n      dup3\n        /* \"#utility.yul\":4918:4930   */\n      div\n        /* \"#utility.yul\":4908:4930   */\n      swap1\n      pop\n        /* \"#utility.yul\":4975:4976   */\n      0x01\n        /* \"#utility.yul\":4969:4973   */\n      dup3\n        /* \"#utility.yul\":4965:4977   */\n      and\n        /* \"#utility.yul\":4996:5014   */\n      dup1\n        /* \"#utility.yul\":4986:5067   */\n      tag_130\n      jumpi\n        /* \"#utility.yul\":5052:5056   */\n      0x7f\n        /* \"#utility.yul\":5044:5050   */\n      dup3\n        /* \"#utility.yul\":5040:5057   */\n      and\n        /* \"#utility.yul\":5030:5057   */\n      swap2\n      pop\n        /* \"#utility.yul\":4986:5067   */\n    tag_130:\n        /* \"#utility.yul\":5114:5116   */\n      0x20\n        /* \"#utility.yul\":5106:5112   */\n      dup3\n        /* \"#utility.yul\":5103:5117   */\n      lt\n        /* \"#utility.yul\":5083:5101   */\n      dup2\n        /* \"#utility.yul\":5080:5118   */\n      eq\n        /* \"#utility.yul\":5077:5161   */\n      iszero\n      tag_131\n      jumpi\n        /* \"#utility.yul\":5133:5151   */\n      tag_132\n      tag_133\n      jump\t// in\n    tag_132:\n        /* \"#utility.yul\":5077:5161   */\n    tag_131:\n        /* \"#utility.yul\":4898:5167   */\n      pop\n        /* \"#utility.yul\":4847:5167   */\n      swap2\n      swap1\n      pop\n      jump\t// out\n        /* \"#utility.yul\":5173:5454   */\n    tag_113:\n        /* \"#utility.yul\":5256:5283   */\n      tag_135\n        /* \"#utility.yul\":5278:5282   */\n      dup3\n        /* \"#utility.yul\":5256:5283   */\n      tag_100\n      jump\t// in\n    tag_135:\n        /* \"#utility.yul\":5248:5254   */\n      dup2\n        /* \"#utility.yul\":5244:5284   */\n      add\n        /* \"#utility.yul\":5386:5392   */\n      dup2\n        /* \"#utility.yul\":5374:5384   */\n      dup2\n        /* \"#utility.yul\":5371:5393   */\n      lt\n        /* \"#utility.yul\":5350:5368   */\n      0xffffffffffffffff\n        /* \"#utility.yul\":5338:5348   */\n      dup3\n        /* \"#utility.yul\":5335:5369   */\n      gt\n        /* \"#utility.yul\":5332:5394   */\n      or\n        /* \"#utility.yul\":5329:5417   */\n      iszero\n      tag_136\n      jumpi\n        /* \"#utility.yul\":5397:5415   */\n      tag_137\n      tag_118\n      jump\t// in\n    tag_137:\n        /* \"#utility.yul\":5329:5417   */\n    tag_136:\n        /* \"#utility.yul\":5437:5447   */\n      dup1\n        /* \"#utility.yul\":5433:5435   */\n      0x40\n        /* \"#utility.yul\":5426:5448   */\n      mstore\n        /* \"#utility.yul\":5216:5454   */\n      pop\n        /* \"#utility.yul\":5173:5454   */\n      pop\n      pop\n      jump\t// out\n        /* \"#utility.yul\":5460:5640   */\n    tag_133:\n        /* \"#utility.yul\":5508:5585   */\n      0x4e487b7100000000000000000000000000000000000000000000000000000000\n        /* \"#utility.yul\":5505:5506   */\n      0x00\n        /* \"#utility.yul\":5498:5586   */\n      mstore\n        /* \"#utility.yul\":5605:5609   */\n      0x22\n        /* \"#utility.yul\":5602:5603   */\n      0x04\n        /* \"#utility.yul\":5595:5610   */\n      mstore\n        /* \"#utility.yul\":5629:5633   */\n      0x24\n        /* \"#utility.yul\":5626:5627   */\n      0x00\n        /* \"#utility.yul\":5619:5634   */\n      revert\n        /* \"#utility.yul\":5646:5826   */\n    tag_118:\n        /* \"#utility.yul\":5694:5771   */\n      0x4e487b7100000000000000000000000000000000000000000000000000000000\n        /* \"#utility.yul\":5691:5692   */\n      0x00\n        /* \"#utility.yul\":5684:5772   */\n      mstore\n        /* \"#utility.yul\":5791:5795   */\n      0x41\n        /* \"#utility.yul\":5788:5789   */\n      0x04\n        /* \"#utility.yul\":5781:5796   */\n      mstore\n        /* \"#utility.yul\":5815:5819   */\n      0x24\n        /* \"#utility.yul\":5812:5813   */\n      0x00\n        /* \"#utility.yul\":5805:5820   */\n      revert\n        /* \"#utility.yul\":5832:5949   */\n    tag_66:\n        /* \"#utility.yul\":5941:5942   */\n      0x00\n        /* \"#utility.yul\":5938:5939   */\n      dup1\n        /* \"#utility.yul\":5931:5943   */\n      revert\n        /* \"#utility.yul\":5955:6072   */\n    tag_59:\n        /* \"#utility.yul\":6064:6065   */\n      0x00\n        /* \"#utility.yul\":6061:6062   */\n      dup1\n        /* \"#utility.yul\":6054:6066   */\n      revert\n        /* \"#utility.yul\":6078:6195   */\n    tag_78:\n        /* \"#utility.yul\":6187:6188   */\n      0x00\n        /* \"#utility.yul\":6184:6185   */\n      dup1\n        /* \"#utility.yul\":6177:6189   */\n      revert\n        /* \"#utility.yul\":6201:6318   */\n    tag_75:\n        /* \"#utility.yul\":6310:6311   */\n      0x00\n        /* \"#utility.yul\":6307:6308   */\n      dup1\n        /* \"#utility.yul\":6300:6312   */\n      revert\n        /* \"#utility.yul\":6324:6426   */\n    tag_100:\n        /* \"#utility.yul\":6365:6371   */\n      0x00\n        /* \"#utility.yul\":6416:6418   */\n      0x1f\n        /* \"#utility.yul\":6412:6419   */\n      not\n        /* \"#utility.yul\":6407:6409   */\n      0x1f\n        /* \"#utility.yul\":6400:6405   */\n      dup4\n        /* \"#utility.yul\":6396:6410   */\n      add\n        /* \"#utility.yul\":6392:6420   */\n      and\n        /* \"#utility.yul\":6382:6420   */\n      swap1\n      pop\n        /* \"#utility.yul\":6324:6426   */\n      swap2\n      swap1\n      pop\n      jump\t// out\n        /* \"#utility.yul\":6432:6554   */\n    tag_71:\n        /* \"#utility.yul\":6505:6529   */\n      tag_146\n        /* \"#utility.yul\":6523:6528   */\n      dup2\n        /* \"#utility.yul\":6505:6529   */\n      tag_104\n      jump\t// in\n    tag_146:\n        /* \"#utility.yul\":6498:6503   */\n      dup2\n        /* \"#utility.yul\":6495:6530   */\n      eq\n        /* \"#utility.yul\":6485:6548   */\n      tag_147\n      jumpi\n        /* \"#utility.yul\":6544:6545   */\n      0x00\n        /* \"#utility.yul\":6541:6542   */\n      dup1\n        /* \"#utility.yul\":6534:6546   */\n      revert\n        /* \"#utility.yul\":6485:6548   */\n    tag_147:\n        /* \"#utility.yul\":6432:6554   */\n      pop\n      jump\t// out\n\n    auxdata: 0xa26469706673582212209fe69553cc1afb4bef869e6c537464872ecd34ab5deb9b0f2f5debba0bb35eb764736f6c63430008070033\n}\n",
				"bytecode": {
					"linkReferences": {},
					"object": "608060405260026000556040518060400160405280600e81526020017f4361726c6f73204564756172646f00000000000000000000000000000000000081525060019080519060200190610054929190610067565b5034801561006157600080fd5b5061016b565b8280546100739061010a565b90600052602060002090601f01602090048101928261009557600085556100dc565b82601f106100ae57805160ff19168380011785556100dc565b828001600101855582156100dc579182015b828111156100db5782518255916020019190600101906100c0565b5b5090506100e991906100ed565b5090565b5b808211156101065760008160009055506001016100ee565b5090565b6000600282049050600182168061012257607f821691505b602082108114156101365761013561013c565b5b50919050565b7f4e487b7100000000000000000000000000000000000000000000000000000000600052602260045260246000fd5b6106368061017a6000396000f3fe608060405234801561001057600080fd5b50600436106100575760003560e01c806306fdde031461005c5780630ff98a921461007a578063324d89a71461009657806347f92bb3146100b2578063ecbac7cf146100ce575b600080fd5b6100646100ec565b6040516100719190610408565b60405180910390f35b610094600480360381019061008f9190610337565b61017a565b005b6100b060048036038101906100ab91906102ee565b610184565b005b6100cc60048036038101906100c79190610364565b61019e565b005b6100d66101c0565b6040516100e3919061042a565b60405180910390f35b600180546100f990610503565b80601f016020809104026020016040519081016040528092919081815260200182805461012590610503565b80156101725780601f1061014757610100808354040283529160200191610172565b820191906000526020600020905b81548152906001019060200180831161015557829003601f168201915b505050505081565b8060008190555050565b806001908051906020019061019a9291906101c6565b5050565b80600190805190602001906101b49291906101c6565b50816000819055505050565b60005481565b8280546101d290610503565b90600052602060002090601f0160209004810192826101f4576000855561023b565b82601f1061020d57805160ff191683800117855561023b565b8280016001018555821561023b579182015b8281111561023a57825182559160200191906001019061021f565b5b509050610248919061024c565b5090565b5b8082111561026557600081600090555060010161024d565b5090565b600061027c6102778461046a565b610445565b905082815260208101848484011115610298576102976105c9565b5b6102a38482856104c1565b509392505050565b600082601f8301126102c0576102bf6105c4565b5b81356102d0848260208601610269565b91505092915050565b6000813590506102e8816105e9565b92915050565b600060208284031215610304576103036105d3565b5b600082013567ffffffffffffffff811115610322576103216105ce565b5b61032e848285016102ab565b91505092915050565b60006020828403121561034d5761034c6105d3565b5b600061035b848285016102d9565b91505092915050565b6000806040838503121561037b5761037a6105d3565b5b6000610389858286016102d9565b925050602083013567ffffffffffffffff8111156103aa576103a96105ce565b5b6103b6858286016102ab565b9150509250929050565b60006103cb8261049b565b6103d581856104a6565b93506103e58185602086016104d0565b6103ee816105d8565b840191505092915050565b610402816104b7565b82525050565b6000602082019050818103600083015261042281846103c0565b905092915050565b600060208201905061043f60008301846103f9565b92915050565b600061044f610460565b905061045b8282610535565b919050565b6000604051905090565b600067ffffffffffffffff82111561048557610484610595565b5b61048e826105d8565b9050602081019050919050565b600081519050919050565b600082825260208201905092915050565b6000819050919050565b82818337600083830152505050565b60005b838110156104ee5780820151818401526020810190506104d3565b838111156104fd576000848401525b50505050565b6000600282049050600182168061051b57607f821691505b6020821081141561052f5761052e610566565b5b50919050565b61053e826105d8565b810181811067ffffffffffffffff8211171561055d5761055c610595565b5b80604052505050565b7f4e487b7100000000000000000000000000000000000000000000000000000000600052602260045260246000fd5b7f4e487b7100000000000000000000000000000000000000000000000000000000600052604160045260246000fd5b600080fd5b600080fd5b600080fd5b600080fd5b6000601f19601f8301169050919050565b6105f2816104b7565b81146105fd57600080fd5b5056fea26469706673582212209fe69553cc1afb4bef869e6c537464872ecd34ab5deb9b0f2f5debba0bb35eb764736f6c63430008070033",
					"opcodes": "PUSH1 0x80 PUSH1 0x40 MSTORE PUSH1 0x2 PUSH1 0x0 SSTORE PUSH1 0x40 MLOAD DUP1 PUSH1 0x40 ADD PUSH1 0x40 MSTORE DUP1 PUSH1 0xE DUP2 MSTORE PUSH1 0x20 ADD PUSH32 0x4361726C6F73204564756172646F000000000000000000000000000000000000 DUP2 MSTORE POP PUSH1 0x1 SWAP1 DUP1 MLOAD SWAP1 PUSH1 0x20 ADD SWAP1 PUSH2 0x54 SWAP3 SWAP2 SWAP1 PUSH2 0x67 JUMP JUMPDEST POP CALLVALUE DUP1 ISZERO PUSH2 0x61 JUMPI PUSH1 0x0 DUP1 REVERT JUMPDEST POP PUSH2 0x16B JUMP JUMPDEST DUP3 DUP1 SLOAD PUSH2 0x73 SWAP1 PUSH2 0x10A JUMP JUMPDEST SWAP1 PUSH1 0x0 MSTORE PUSH1 0x20 PUSH1 0x0 KECCAK256 SWAP1 PUSH1 0x1F ADD PUSH1 0x20 SWAP1 DIV DUP2 ADD SWAP3 DUP3 PUSH2 0x95 JUMPI PUSH1 0x0 DUP6 SSTORE PUSH2 0xDC JUMP JUMPDEST DUP3 PUSH1 0x1F LT PUSH2 0xAE JUMPI DUP1 MLOAD PUSH1 0xFF NOT AND DUP4 DUP1 ADD OR DUP6 SSTORE PUSH2 0xDC JUMP JUMPDEST DUP3 DUP1 ADD PUSH1 0x1 ADD DUP6 SSTORE DUP3 ISZERO PUSH2 0xDC JUMPI SWAP2 DUP3 ADD JUMPDEST DUP3 DUP2 GT ISZERO PUSH2 0xDB JUMPI DUP3 MLOAD DUP3 SSTORE SWAP2 PUSH1 0x20 ADD SWAP2 SWAP1 PUSH1 0x1 ADD SWAP1 PUSH2 0xC0 JUMP JUMPDEST JUMPDEST POP SWAP1 POP PUSH2 0xE9 SWAP2 SWAP1 PUSH2 0xED JUMP JUMPDEST POP SWAP1 JUMP JUMPDEST JUMPDEST DUP1 DUP3 GT ISZERO PUSH2 0x106 JUMPI PUSH1 0x0 DUP2 PUSH1 0x0 SWAP1 SSTORE POP PUSH1 0x1 ADD PUSH2 0xEE JUMP JUMPDEST POP SWAP1 JUMP JUMPDEST PUSH1 0x0 PUSH1 0x2 DUP3 DIV SWAP1 POP PUSH1 0x1 DUP3 AND DUP1 PUSH2 0x122 JUMPI PUSH1 0x7F DUP3 AND SWAP2 POP JUMPDEST PUSH1 0x20 DUP3 LT DUP2 EQ ISZERO PUSH2 0x136 JUMPI PUSH2 0x135 PUSH2 0x13C JUMP JUMPDEST JUMPDEST POP SWAP2 SWAP1 POP JUMP JUMPDEST PUSH32 0x4E487B7100000000000000000000000000000000000000000000000000000000 PUSH1 0x0 MSTORE PUSH1 0x22 PUSH1 0x4 MSTORE PUSH1 0x24 PUSH1 0x0 REVERT JUMPDEST PUSH2 0x636 DUP1 PUSH2 0x17A PUSH1 0x0 CODECOPY PUSH1 0x0 RETURN INVALID PUSH1 0x80 PUSH1 0x40 MSTORE CALLVALUE DUP1 ISZERO PUSH2 0x10 JUMPI PUSH1 0x0 DUP1 REVERT JUMPDEST POP PUSH1 0x4 CALLDATASIZE LT PUSH2 0x57 JUMPI PUSH1 0x0 CALLDATALOAD PUSH1 0xE0 SHR DUP1 PUSH4 0x6FDDE03 EQ PUSH2 0x5C JUMPI DUP1 PUSH4 0xFF98A92 EQ PUSH2 0x7A JUMPI DUP1 PUSH4 0x324D89A7 EQ PUSH2 0x96 JUMPI DUP1 PUSH4 0x47F92BB3 EQ PUSH2 0xB2 JUMPI DUP1 PUSH4 0xECBAC7CF EQ PUSH2 0xCE JUMPI JUMPDEST PUSH1 0x0 DUP1 REVERT JUMPDEST PUSH2 0x64 PUSH2 0xEC JUMP JUMPDEST PUSH1 0x40 MLOAD PUSH2 0x71 SWAP2 SWAP1 PUSH2 0x408 JUMP JUMPDEST PUSH1 0x40 MLOAD DUP1 SWAP2 SUB SWAP1 RETURN JUMPDEST PUSH2 0x94 PUSH1 0x4 DUP1 CALLDATASIZE SUB DUP2 ADD SWAP1 PUSH2 0x8F SWAP2 SWAP1 PUSH2 0x337 JUMP JUMPDEST PUSH2 0x17A JUMP JUMPDEST STOP JUMPDEST PUSH2 0xB0 PUSH1 0x4 DUP1 CALLDATASIZE SUB DUP2 ADD SWAP1 PUSH2 0xAB SWAP2 SWAP1 PUSH2 0x2EE JUMP JUMPDEST PUSH2 0x184 JUMP JUMPDEST STOP JUMPDEST PUSH2 0xCC PUSH1 0x4 DUP1 CALLDATASIZE SUB DUP2 ADD SWAP1 PUSH2 0xC7 SWAP2 SWAP1 PUSH2 0x364 JUMP JUMPDEST PUSH2 0x19E JUMP JUMPDEST STOP JUMPDEST PUSH2 0xD6 PUSH2 0x1C0 JUMP JUMPDEST PUSH1 0x40 MLOAD PUSH2 0xE3 SWAP2 SWAP1 PUSH2 0x42A JUMP JUMPDEST PUSH1 0x40 MLOAD DUP1 SWAP2 SUB SWAP1 RETURN JUMPDEST PUSH1 0x1 DUP1 SLOAD PUSH2 0xF9 SWAP1 PUSH2 0x503 JUMP JUMPDEST DUP1 PUSH1 0x1F ADD PUSH1 0x20 DUP1 SWAP2 DIV MUL PUSH1 0x20 ADD PUSH1 0x40 MLOAD SWAP1 DUP2 ADD PUSH1 0x40 MSTORE DUP1 SWAP3 SWAP2 SWAP1 DUP2 DUP2 MSTORE PUSH1 0x20 ADD DUP3 DUP1 SLOAD PUSH2 0x125 SWAP1 PUSH2 0x503 JUMP JUMPDEST DUP1 ISZERO PUSH2 0x172 JUMPI DUP1 PUSH1 0x1F LT PUSH2 0x147 JUMPI PUSH2 0x100 DUP1 DUP4 SLOAD DIV MUL DUP4 MSTORE SWAP2 PUSH1 0x20 ADD SWAP2 PUSH2 0x172 JUMP JUMPDEST DUP3 ADD SWAP2 SWAP1 PUSH1 0x0 MSTORE PUSH1 0x20 PUSH1 0x0 KECCAK256 SWAP1 JUMPDEST DUP2 SLOAD DUP2 MSTORE SWAP1 PUSH1 0x1 ADD SWAP1 PUSH1 0x20 ADD DUP1 DUP4 GT PUSH2 0x155 JUMPI DUP3 SWAP1 SUB PUSH1 0x1F AND DUP3 ADD SWAP2 JUMPDEST POP POP POP POP POP DUP2 JUMP JUMPDEST DUP1 PUSH1 0x0 DUP2 SWAP1 SSTORE POP POP JUMP JUMPDEST DUP1 PUSH1 0x1 SWAP1 DUP1 MLOAD SWAP1 PUSH1 0x20 ADD SWAP1 PUSH2 0x19A SWAP3 SWAP2 SWAP1 PUSH2 0x1C6 JUMP JUMPDEST POP POP JUMP JUMPDEST DUP1 PUSH1 0x1 SWAP1 DUP1 MLOAD SWAP1 PUSH1 0x20 ADD SWAP1 PUSH2 0x1B4 SWAP3 SWAP2 SWAP1 PUSH2 0x1C6 JUMP JUMPDEST POP DUP2 PUSH1 0x0 DUP2 SWAP1 SSTORE POP POP POP JUMP JUMPDEST PUSH1 0x0 SLOAD DUP2 JUMP JUMPDEST DUP3 DUP1 SLOAD PUSH2 0x1D2 SWAP1 PUSH2 0x503 JUMP JUMPDEST SWAP1 PUSH1 0x0 MSTORE PUSH1 0x20 PUSH1 0x0 KECCAK256 SWAP1 PUSH1 0x1F ADD PUSH1 0x20 SWAP1 DIV DUP2 ADD SWAP3 DUP3 PUSH2 0x1F4 JUMPI PUSH1 0x0 DUP6 SSTORE PUSH2 0x23B JUMP JUMPDEST DUP3 PUSH1 0x1F LT PUSH2 0x20D JUMPI DUP1 MLOAD PUSH1 0xFF NOT AND DUP4 DUP1 ADD OR DUP6 SSTORE PUSH2 0x23B JUMP JUMPDEST DUP3 DUP1 ADD PUSH1 0x1 ADD DUP6 SSTORE DUP3 ISZERO PUSH2 0x23B JUMPI SWAP2 DUP3 ADD JUMPDEST DUP3 DUP2 GT ISZERO PUSH2 0x23A JUMPI DUP3 MLOAD DUP3 SSTORE SWAP2 PUSH1 0x20 ADD SWAP2 SWAP1 PUSH1 0x1 ADD SWAP1 PUSH2 0x21F JUMP JUMPDEST JUMPDEST POP SWAP1 POP PUSH2 0x248 SWAP2 SWAP1 PUSH2 0x24C JUMP JUMPDEST POP SWAP1 JUMP JUMPDEST JUMPDEST DUP1 DUP3 GT ISZERO PUSH2 0x265 JUMPI PUSH1 0x0 DUP2 PUSH1 0x0 SWAP1 SSTORE POP PUSH1 0x1 ADD PUSH2 0x24D JUMP JUMPDEST POP SWAP1 JUMP JUMPDEST PUSH1 0x0 PUSH2 0x27C PUSH2 0x277 DUP5 PUSH2 0x46A JUMP JUMPDEST PUSH2 0x445 JUMP JUMPDEST SWAP1 POP DUP3 DUP2 MSTORE PUSH1 0x20 DUP2 ADD DUP5 DUP5 DUP5 ADD GT ISZERO PUSH2 0x298 JUMPI PUSH2 0x297 PUSH2 0x5C9 JUMP JUMPDEST JUMPDEST PUSH2 0x2A3 DUP5 DUP3 DUP6 PUSH2 0x4C1 JUMP JUMPDEST POP SWAP4 SWAP3 POP POP POP JUMP JUMPDEST PUSH1 0x0 DUP3 PUSH1 0x1F DUP4 ADD SLT PUSH2 0x2C0 JUMPI PUSH2 0x2BF PUSH2 0x5C4 JUMP JUMPDEST JUMPDEST DUP2 CALLDATALOAD PUSH2 0x2D0 DUP5 DUP3 PUSH1 0x20 DUP7 ADD PUSH2 0x269 JUMP JUMPDEST SWAP2 POP POP SWAP3 SWAP2 POP POP JUMP JUMPDEST PUSH1 0x0 DUP2 CALLDATALOAD SWAP1 POP PUSH2 0x2E8 DUP2 PUSH2 0x5E9 JUMP JUMPDEST SWAP3 SWAP2 POP POP JUMP JUMPDEST PUSH1 0x0 PUSH1 0x20 DUP3 DUP5 SUB SLT ISZERO PUSH2 0x304 JUMPI PUSH2 0x303 PUSH2 0x5D3 JUMP JUMPDEST JUMPDEST PUSH1 0x0 DUP3 ADD CALLDATALOAD PUSH8 0xFFFFFFFFFFFFFFFF DUP2 GT ISZERO PUSH2 0x322 JUMPI PUSH2 0x321 PUSH2 0x5CE JUMP JUMPDEST JUMPDEST PUSH2 0x32E DUP5 DUP3 DUP6 ADD PUSH2 0x2AB JUMP JUMPDEST SWAP2 POP POP SWAP3 SWAP2 POP POP JUMP JUMPDEST PUSH1 0x0 PUSH1 0x20 DUP3 DUP5 SUB SLT ISZERO PUSH2 0x34D JUMPI PUSH2 0x34C PUSH2 0x5D3 JUMP JUMPDEST JUMPDEST PUSH1 0x0 PUSH2 0x35B DUP5 DUP3 DUP6 ADD PUSH2 0x2D9 JUMP JUMPDEST SWAP2 POP POP SWAP3 SWAP2 POP POP JUMP JUMPDEST PUSH1 0x0 DUP1 PUSH1 0x40 DUP4 DUP6 SUB SLT ISZERO PUSH2 0x37B JUMPI PUSH2 0x37A PUSH2 0x5D3 JUMP JUMPDEST JUMPDEST PUSH1 0x0 PUSH2 0x389 DUP6 DUP3 DUP7 ADD PUSH2 0x2D9 JUMP JUMPDEST SWAP3 POP POP PUSH1 0x20 DUP4 ADD CALLDATALOAD PUSH8 0xFFFFFFFFFFFFFFFF DUP2 GT ISZERO PUSH2 0x3AA JUMPI PUSH2 0x3A9 PUSH2 0x5CE JUMP JUMPDEST JUMPDEST PUSH2 0x3B6 DUP6 DUP3 DUP7 ADD PUSH2 0x2AB JUMP JUMPDEST SWAP2 POP POP SWAP3 POP SWAP3 SWAP1 POP JUMP JUMPDEST PUSH1 0x0 PUSH2 0x3CB DUP3 PUSH2 0x49B JUMP JUMPDEST PUSH2 0x3D5 DUP2 DUP6 PUSH2 0x4A6 JUMP JUMPDEST SWAP4 POP PUSH2 0x3E5 DUP2 DUP6 PUSH1 0x20 DUP7 ADD PUSH2 0x4D0 JUMP JUMPDEST PUSH2 0x3EE DUP2 PUSH2 0x5D8 JUMP JUMPDEST DUP5 ADD SWAP2 POP POP SWAP3 SWAP2 POP POP JUMP JUMPDEST PUSH2 0x402 DUP2 PUSH2 0x4B7 JUMP JUMPDEST DUP3 MSTORE POP POP JUMP JUMPDEST PUSH1 0x0 PUSH1 0x20 DUP3 ADD SWAP1 POP DUP2 DUP2 SUB PUSH1 0x0 DUP4 ADD MSTORE PUSH2 0x422 DUP2 DUP5 PUSH2 0x3C0 JUMP JUMPDEST SWAP1 POP SWAP3 SWAP2 POP POP JUMP JUMPDEST PUSH1 0x0 PUSH1 0x20 DUP3 ADD SWAP1 POP PUSH2 0x43F PUSH1 0x0 DUP4 ADD DUP5 PUSH2 0x3F9 JUMP JUMPDEST SWAP3 SWAP2 POP POP JUMP JUMPDEST PUSH1 0x0 PUSH2 0x44F PUSH2 0x460 JUMP JUMPDEST SWAP1 POP PUSH2 0x45B DUP3 DUP3 PUSH2 0x535 JUMP JUMPDEST SWAP2 SWAP1 POP JUMP JUMPDEST PUSH1 0x0 PUSH1 0x40 MLOAD SWAP1 POP SWAP1 JUMP JUMPDEST PUSH1 0x0 PUSH8 0xFFFFFFFFFFFFFFFF DUP3 GT ISZERO PUSH2 0x485 JUMPI PUSH2 0x484 PUSH2 0x595 JUMP JUMPDEST JUMPDEST PUSH2 0x48E DUP3 PUSH2 0x5D8 JUMP JUMPDEST SWAP1 POP PUSH1 0x20 DUP2 ADD SWAP1 POP SWAP2 SWAP1 POP JUMP JUMPDEST PUSH1 0x0 DUP2 MLOAD SWAP1 POP SWAP2 SWAP1 POP JUMP JUMPDEST PUSH1 0x0 DUP3 DUP3 MSTORE PUSH1 0x20 DUP3 ADD SWAP1 POP SWAP3 SWAP2 POP POP JUMP JUMPDEST PUSH1 0x0 DUP2 SWAP1 POP SWAP2 SWAP1 POP JUMP JUMPDEST DUP3 DUP2 DUP4 CALLDATACOPY PUSH1 0x0 DUP4 DUP4 ADD MSTORE POP POP POP JUMP JUMPDEST PUSH1 0x0 JUMPDEST DUP4 DUP2 LT ISZERO PUSH2 0x4EE JUMPI DUP1 DUP3 ADD MLOAD DUP2 DUP5 ADD MSTORE PUSH1 0x20 DUP2 ADD SWAP1 POP PUSH2 0x4D3 JUMP JUMPDEST DUP4 DUP2 GT ISZERO PUSH2 0x4FD JUMPI PUSH1 0x0 DUP5 DUP5 ADD MSTORE JUMPDEST POP POP POP POP JUMP JUMPDEST PUSH1 0x0 PUSH1 0x2 DUP3 DIV SWAP1 POP PUSH1 0x1 DUP3 AND DUP1 PUSH2 0x51B JUMPI PUSH1 0x7F DUP3 AND SWAP2 POP JUMPDEST PUSH1 0x20 DUP3 LT DUP2 EQ ISZERO PUSH2 0x52F JUMPI PUSH2 0x52E PUSH2 0x566 JUMP JUMPDEST JUMPDEST POP SWAP2 SWAP1 POP JUMP JUMPDEST PUSH2 0x53E DUP3 PUSH2 0x5D8 JUMP JUMPDEST DUP2 ADD DUP2 DUP2 LT PUSH8 0xFFFFFFFFFFFFFFFF DUP3 GT OR ISZERO PUSH2 0x55D JUMPI PUSH2 0x55C PUSH2 0x595 JUMP JUMPDEST JUMPDEST DUP1 PUSH1 0x40 MSTORE POP POP POP JUMP JUMPDEST PUSH32 0x4E487B7100000000000000000000000000000000000000000000000000000000 PUSH1 0x0 MSTORE PUSH1 0x22 PUSH1 0x4 MSTORE PUSH1 0x24 PUSH1 0x0 REVERT JUMPDEST PUSH32 0x4E487B7100000000000000000000000000000000000000000000000000000000 PUSH1 0x0 MSTORE PUSH1 0x41 PUSH1 0x4 MSTORE PUSH1 0x24 PUSH1 0x0 REVERT JUMPDEST PUSH1 0x0 DUP1 REVERT JUMPDEST PUSH1 0x0 DUP1 REVERT JUMPDEST PUSH1 0x0 DUP1 REVERT JUMPDEST PUSH1 0x0 DUP1 REVERT JUMPDEST PUSH1 0x0 PUSH1 0x1F NOT PUSH1 0x1F DUP4 ADD AND SWAP1 POP SWAP2 SWAP1 POP JUMP JUMPDEST PUSH2 0x5F2 DUP2 PUSH2 0x4B7 JUMP JUMPDEST DUP2 EQ PUSH2 0x5FD JUMPI PUSH1 0x0 DUP1 REVERT JUMPDEST POP JUMP INVALID LOG2 PUSH5 0x6970667358 0x22 SLT KECCAK256 SWAP16 0xE6 SWAP6 MSTORE8 0xCC BYTE 0xFB 0x4B 0xEF DUP7 SWAP15 PUSH13 0x537464872ECD34AB5DEB9B0F2F 0x5D 0xEB 0xBA SIGNEXTEND 0xB3 0x5E 0xB7 PUSH5 0x736F6C6343 STOP ADDMOD SMOD STOP CALLER "
				},
				"gasEstimates": {
					"creation": {
						"codeDepositCost": "318000",
						"executionCost": "infinite",
						"totalCost": "infinite"
					},
					"external": {
						"Names(string)": "infinite",
						"getValuer(uint256,string)": "infinite",
						"name()": "infinite",
						"setValores(uint256)": "22520",
						"valor()": "2495"
					}
				},
				"methodIdentifiers": {
					"Names(string)": "324d89a7",
					"getValuer(uint256,string)": "47f92bb3",
					"name()": "06fdde03",
					"setValores(uint256)": "0ff98a92",
					"valor()": "ecbac7cf"
				}
			},
			"storageLayout": {
				"storage": [
					{
						"astId": 4,
						"contract": "contracts/srtorage_memory.sol:locais",
						"label": "valor",
						"offset": 0,
						"slot": "0",
						"type": "t_uint256"
					},
					{
						"astId": 7,
						"contract": "contracts/srtorage_memory.sol:locais",
						"label": "name",
						"offset": 0,
						"slot": "1",
						"type": "t_string_storage"
					}
				],
				"types": {
					"t_string_storage": {
						"encoding": "bytes",
						"label": "string",
						"numberOfBytes": "32"
					},
					"t_uint256": {
						"encoding": "inplace",
						"label": "uint256",
						"numberOfBytes": "32"
					}
				}
			},
			"userdoc": {
				"kind": "user",
				"methods": {},
				"version": 1
			}
		}
	}
}