{
	"contracts/funcoes2visi.sol": {
		"Visibilidade": {
			"abi": [
				{
					"inputs": [],
					"name": "decrementaltEx",
					"outputs": [],
					"stateMutability": "nonpayable",
					"type": "function"
				},
				{
					"inputs": [],
					"name": "incrementEx",
					"outputs": [],
					"stateMutability": "nonpayable",
					"type": "function"
				},
				{
					"inputs": [],
					"name": "incremetal",
					"outputs": [
						{
							"internalType": "int256",
							"name": "",
							"type": "int256"
						}
					],
					"stateMutability": "view",
					"type": "function"
				}
			],
			"devdoc": {
				"kind": "dev",
				"methods": {},
				"version": 1
			},
			"evm": {
				"assembly": "    /* \"contracts/funcoes2visi.sol\":58:355  contract Visibilidade{\r... */\n  mstore(0x40, 0x80)\n    /* \"contracts/funcoes2visi.sol\":101:102  0 */\n  0x00\n    /* \"contracts/funcoes2visi.sol\":86:102  int contagem = 0 */\n  dup1\n  sstore\n    /* \"contracts/funcoes2visi.sol\":58:355  contract Visibilidade{\r... */\n  callvalue\n  dup1\n  iszero\n  tag_1\n  jumpi\n  0x00\n  dup1\n  revert\ntag_1:\n  pop\n  dataSize(sub_0)\n  dup1\n  dataOffset(sub_0)\n  0x00\n  codecopy\n  0x00\n  return\nstop\n\nsub_0: assembly {\n        /* \"contracts/funcoes2visi.sol\":58:355  contract Visibilidade{\r... */\n      mstore(0x40, 0x80)\n      callvalue\n      dup1\n      iszero\n      tag_1\n      jumpi\n      0x00\n      dup1\n      revert\n    tag_1:\n      pop\n      jumpi(tag_2, lt(calldatasize, 0x04))\n      shr(0xe0, calldataload(0x00))\n      dup1\n      0xb46c1894\n      eq\n      tag_3\n      jumpi\n      dup1\n      0xbbbf3c03\n      eq\n      tag_4\n      jumpi\n      dup1\n      0xf80f29db\n      eq\n      tag_5\n      jumpi\n    tag_2:\n      0x00\n      dup1\n      revert\n        /* \"contracts/funcoes2visi.sol\":280:352  function decrementaltEx()external{\r... */\n    tag_3:\n      tag_6\n      tag_7\n      jump\t// in\n    tag_6:\n      stop\n        /* \"contracts/funcoes2visi.sol\":209:278  function incrementEx()external{\r... */\n    tag_4:\n      tag_8\n      tag_9\n      jump\t// in\n    tag_8:\n      stop\n        /* \"contracts/funcoes2visi.sol\":117:204  function  incremetal()public view returns(int){\r... */\n    tag_5:\n      tag_10\n      tag_11\n      jump\t// in\n    tag_10:\n      mload(0x40)\n      tag_12\n      swap2\n      swap1\n      tag_13\n      jump\t// in\n    tag_12:\n      mload(0x40)\n      dup1\n      swap2\n      sub\n      swap1\n      return\n        /* \"contracts/funcoes2visi.sol\":280:352  function decrementaltEx()external{\r... */\n    tag_7:\n        /* \"contracts/funcoes2visi.sol\":344:345  1 */\n      0x01\n        /* \"contracts/funcoes2visi.sol\":334:342  contagem */\n      sload(0x00)\n        /* \"contracts/funcoes2visi.sol\":334:345  contagem -1 */\n      tag_15\n      swap2\n      swap1\n      tag_16\n      jump\t// in\n    tag_15:\n        /* \"contracts/funcoes2visi.sol\":323:331  contagem */\n      0x00\n        /* \"contracts/funcoes2visi.sol\":323:345  contagem = contagem -1 */\n      dup2\n      swap1\n      sstore\n      pop\n        /* \"contracts/funcoes2visi.sol\":280:352  function decrementaltEx()external{\r... */\n      jump\t// out\n        /* \"contracts/funcoes2visi.sol\":209:278  function incrementEx()external{\r... */\n    tag_9:\n        /* \"contracts/funcoes2visi.sol\":270:271  1 */\n      0x01\n        /* \"contracts/funcoes2visi.sol\":260:268  contagem */\n      sload(0x00)\n        /* \"contracts/funcoes2visi.sol\":260:271  contagem +1 */\n      tag_18\n      swap2\n      swap1\n      tag_19\n      jump\t// in\n    tag_18:\n        /* \"contracts/funcoes2visi.sol\":249:257  contagem */\n      0x00\n        /* \"contracts/funcoes2visi.sol\":249:271  contagem = contagem +1 */\n      dup2\n      swap1\n      sstore\n      pop\n        /* \"contracts/funcoes2visi.sol\":209:278  function incrementEx()external{\r... */\n      jump\t// out\n        /* \"contracts/funcoes2visi.sol\":117:204  function  incremetal()public view returns(int){\r... */\n    tag_11:\n        /* \"contracts/funcoes2visi.sol\":159:162  int */\n      0x00\n        /* \"contracts/funcoes2visi.sol\":187:195  contagem */\n      dup1\n      sload\n        /* \"contracts/funcoes2visi.sol\":180:195  return contagem */\n      swap1\n      pop\n        /* \"contracts/funcoes2visi.sol\":117:204  function  incremetal()public view returns(int){\r... */\n      swap1\n      jump\t// out\n        /* \"#utility.yul\":7:122   */\n    tag_22:\n        /* \"#utility.yul\":92:115   */\n      tag_24\n        /* \"#utility.yul\":109:114   */\n      dup2\n        /* \"#utility.yul\":92:115   */\n      tag_25\n      jump\t// in\n    tag_24:\n        /* \"#utility.yul\":87:90   */\n      dup3\n        /* \"#utility.yul\":80:116   */\n      mstore\n        /* \"#utility.yul\":7:122   */\n      pop\n      pop\n      jump\t// out\n        /* \"#utility.yul\":128:346   */\n    tag_13:\n        /* \"#utility.yul\":219:223   */\n      0x00\n        /* \"#utility.yul\":257:259   */\n      0x20\n        /* \"#utility.yul\":246:255   */\n      dup3\n        /* \"#utility.yul\":242:260   */\n      add\n        /* \"#utility.yul\":234:260   */\n      swap1\n      pop\n        /* \"#utility.yul\":270:339   */\n      tag_27\n        /* \"#utility.yul\":336:337   */\n      0x00\n        /* \"#utility.yul\":325:334   */\n      dup4\n        /* \"#utility.yul\":321:338   */\n      add\n        /* \"#utility.yul\":312:318   */\n      dup5\n        /* \"#utility.yul\":270:339   */\n      tag_22\n      jump\t// in\n    tag_27:\n        /* \"#utility.yul\":128:346   */\n      swap3\n      swap2\n      pop\n      pop\n      jump\t// out\n        /* \"#utility.yul\":352:877   */\n    tag_19:\n        /* \"#utility.yul\":391:394   */\n      0x00\n        /* \"#utility.yul\":410:429   */\n      tag_29\n        /* \"#utility.yul\":427:428   */\n      dup3\n        /* \"#utility.yul\":410:429   */\n      tag_25\n      jump\t// in\n    tag_29:\n        /* \"#utility.yul\":405:429   */\n      swap2\n      pop\n        /* \"#utility.yul\":443:462   */\n      tag_30\n        /* \"#utility.yul\":460:461   */\n      dup4\n        /* \"#utility.yul\":443:462   */\n      tag_25\n      jump\t// in\n    tag_30:\n        /* \"#utility.yul\":438:462   */\n      swap3\n      pop\n        /* \"#utility.yul\":631:632   */\n      dup2\n        /* \"#utility.yul\":563:629   */\n      0x7fffffffffffffffffffffffffffffffffffffffffffffffffffffffffffffff\n        /* \"#utility.yul\":559:633   */\n      sub\n        /* \"#utility.yul\":556:557   */\n      dup4\n        /* \"#utility.yul\":552:634   */\n      sgt\n        /* \"#utility.yul\":547:548   */\n      0x00\n        /* \"#utility.yul\":544:545   */\n      dup4\n        /* \"#utility.yul\":540:549   */\n      slt\n        /* \"#utility.yul\":533:550   */\n      iszero\n        /* \"#utility.yul\":529:635   */\n      and\n        /* \"#utility.yul\":526:658   */\n      iszero\n      tag_31\n      jumpi\n        /* \"#utility.yul\":638:656   */\n      tag_32\n      tag_33\n      jump\t// in\n    tag_32:\n        /* \"#utility.yul\":526:658   */\n    tag_31:\n        /* \"#utility.yul\":818:819   */\n      dup2\n        /* \"#utility.yul\":750:816   */\n      0x8000000000000000000000000000000000000000000000000000000000000000\n        /* \"#utility.yul\":746:820   */\n      sub\n        /* \"#utility.yul\":743:744   */\n      dup4\n        /* \"#utility.yul\":739:821   */\n      slt\n        /* \"#utility.yul\":735:736   */\n      0x00\n        /* \"#utility.yul\":732:733   */\n      dup4\n        /* \"#utility.yul\":728:737   */\n      slt\n        /* \"#utility.yul\":724:822   */\n      and\n        /* \"#utility.yul\":721:845   */\n      iszero\n      tag_34\n      jumpi\n        /* \"#utility.yul\":825:843   */\n      tag_35\n      tag_33\n      jump\t// in\n    tag_35:\n        /* \"#utility.yul\":721:845   */\n    tag_34:\n        /* \"#utility.yul\":869:870   */\n      dup3\n        /* \"#utility.yul\":866:867   */\n      dup3\n        /* \"#utility.yul\":862:871   */\n      add\n        /* \"#utility.yul\":855:871   */\n      swap1\n      pop\n        /* \"#utility.yul\":352:877   */\n      swap3\n      swap2\n      pop\n      pop\n      jump\t// out\n        /* \"#utility.yul\":883:1410   */\n    tag_16:\n        /* \"#utility.yul\":922:926   */\n      0x00\n        /* \"#utility.yul\":942:961   */\n      tag_37\n        /* \"#utility.yul\":959:960   */\n      dup3\n        /* \"#utility.yul\":942:961   */\n      tag_25\n      jump\t// in\n    tag_37:\n        /* \"#utility.yul\":937:961   */\n      swap2\n      pop\n        /* \"#utility.yul\":975:994   */\n      tag_38\n        /* \"#utility.yul\":992:993   */\n      dup4\n        /* \"#utility.yul\":975:994   */\n      tag_25\n      jump\t// in\n    tag_38:\n        /* \"#utility.yul\":970:994   */\n      swap3\n      pop\n        /* \"#utility.yul\":1164:1165   */\n      dup3\n        /* \"#utility.yul\":1096:1162   */\n      0x8000000000000000000000000000000000000000000000000000000000000000\n        /* \"#utility.yul\":1092:1166   */\n      add\n        /* \"#utility.yul\":1089:1090   */\n      dup3\n        /* \"#utility.yul\":1085:1167   */\n      slt\n        /* \"#utility.yul\":1080:1081   */\n      0x00\n        /* \"#utility.yul\":1077:1078   */\n      dup5\n        /* \"#utility.yul\":1073:1082   */\n      slt\n        /* \"#utility.yul\":1066:1083   */\n      iszero\n        /* \"#utility.yul\":1062:1168   */\n      and\n        /* \"#utility.yul\":1059:1191   */\n      iszero\n      tag_39\n      jumpi\n        /* \"#utility.yul\":1171:1189   */\n      tag_40\n      tag_33\n      jump\t// in\n    tag_40:\n        /* \"#utility.yul\":1059:1191   */\n    tag_39:\n        /* \"#utility.yul\":1350:1351   */\n      dup3\n        /* \"#utility.yul\":1282:1348   */\n      0x7fffffffffffffffffffffffffffffffffffffffffffffffffffffffffffffff\n        /* \"#utility.yul\":1278:1352   */\n      add\n        /* \"#utility.yul\":1275:1276   */\n      dup3\n        /* \"#utility.yul\":1271:1353   */\n      sgt\n        /* \"#utility.yul\":1267:1268   */\n      0x00\n        /* \"#utility.yul\":1264:1265   */\n      dup5\n        /* \"#utility.yul\":1260:1269   */\n      slt\n        /* \"#utility.yul\":1256:1354   */\n      and\n        /* \"#utility.yul\":1253:1377   */\n      iszero\n      tag_41\n      jumpi\n        /* \"#utility.yul\":1357:1375   */\n      tag_42\n      tag_33\n      jump\t// in\n    tag_42:\n        /* \"#utility.yul\":1253:1377   */\n    tag_41:\n        /* \"#utility.yul\":1402:1403   */\n      dup3\n        /* \"#utility.yul\":1399:1400   */\n      dup3\n        /* \"#utility.yul\":1395:1404   */\n      sub\n        /* \"#utility.yul\":1387:1404   */\n      swap1\n      pop\n        /* \"#utility.yul\":883:1410   */\n      swap3\n      swap2\n      pop\n      pop\n      jump\t// out\n        /* \"#utility.yul\":1416:1492   */\n    tag_25:\n        /* \"#utility.yul\":1452:1459   */\n      0x00\n        /* \"#utility.yul\":1481:1486   */\n      dup2\n        /* \"#utility.yul\":1470:1486   */\n      swap1\n      pop\n        /* \"#utility.yul\":1416:1492   */\n      swap2\n      swap1\n      pop\n      jump\t// out\n        /* \"#utility.yul\":1498:1678   */\n    tag_33:\n        /* \"#utility.yul\":1546:1623   */\n      0x4e487b7100000000000000000000000000000000000000000000000000000000\n        /* \"#utility.yul\":1543:1544   */\n      0x00\n        /* \"#utility.yul\":1536:1624   */\n      mstore\n        /* \"#utility.yul\":1643:1647   */\n      0x11\n        /* \"#utility.yul\":1640:1641   */\n      0x04\n        /* \"#utility.yul\":1633:1648   */\n      mstore\n        /* \"#utility.yul\":1667:1671   */\n      0x24\n        /* \"#utility.yul\":1664:1665   */\n      0x00\n        /* \"#utility.yul\":1657:1672   */\n      revert\n\n    auxdata: 0xa2646970667358221220666b61a53f1173832da2aa2ff4078ead63dd7ee8d1002d0f5dfbb31fa059193964736f6c63430008070033\n}\n",
				"bytecode": {
					"linkReferences": {},
					"object": "60806040526000805534801561001457600080fd5b50610270806100246000396000f3fe608060405234801561001057600080fd5b50600436106100415760003560e01c8063b46c189414610046578063bbbf3c0314610050578063f80f29db1461005a575b600080fd5b61004e610078565b005b61005861008f565b005b6100626100a6565b60405161006f91906100be565b60405180910390f35b6001600054610087919061016d565b600081905550565b600160005461009e91906100d9565b600081905550565b60008054905090565b6100b881610201565b82525050565b60006020820190506100d360008301846100af565b92915050565b60006100e482610201565b91506100ef83610201565b9250817f7fffffffffffffffffffffffffffffffffffffffffffffffffffffffffffffff0383136000831215161561012a5761012961020b565b5b817f80000000000000000000000000000000000000000000000000000000000000000383126000831216156101625761016161020b565b5b828201905092915050565b600061017882610201565b915061018383610201565b9250827f8000000000000000000000000000000000000000000000000000000000000000018212600084121516156101be576101bd61020b565b5b827f7fffffffffffffffffffffffffffffffffffffffffffffffffffffffffffffff0182136000841216156101f6576101f561020b565b5b828203905092915050565b6000819050919050565b7f4e487b7100000000000000000000000000000000000000000000000000000000600052601160045260246000fdfea2646970667358221220666b61a53f1173832da2aa2ff4078ead63dd7ee8d1002d0f5dfbb31fa059193964736f6c63430008070033",
					"opcodes": "PUSH1 0x80 PUSH1 0x40 MSTORE PUSH1 0x0 DUP1 SSTORE CALLVALUE DUP1 ISZERO PUSH2 0x14 JUMPI PUSH1 0x0 DUP1 REVERT JUMPDEST POP PUSH2 0x270 DUP1 PUSH2 0x24 PUSH1 0x0 CODECOPY PUSH1 0x0 RETURN INVALID PUSH1 0x80 PUSH1 0x40 MSTORE CALLVALUE DUP1 ISZERO PUSH2 0x10 JUMPI PUSH1 0x0 DUP1 REVERT JUMPDEST POP PUSH1 0x4 CALLDATASIZE LT PUSH2 0x41 JUMPI PUSH1 0x0 CALLDATALOAD PUSH1 0xE0 SHR DUP1 PUSH4 0xB46C1894 EQ PUSH2 0x46 JUMPI DUP1 PUSH4 0xBBBF3C03 EQ PUSH2 0x50 JUMPI DUP1 PUSH4 0xF80F29DB EQ PUSH2 0x5A JUMPI JUMPDEST PUSH1 0x0 DUP1 REVERT JUMPDEST PUSH2 0x4E PUSH2 0x78 JUMP JUMPDEST STOP JUMPDEST PUSH2 0x58 PUSH2 0x8F JUMP JUMPDEST STOP JUMPDEST PUSH2 0x62 PUSH2 0xA6 JUMP JUMPDEST PUSH1 0x40 MLOAD PUSH2 0x6F SWAP2 SWAP1 PUSH2 0xBE JUMP JUMPDEST PUSH1 0x40 MLOAD DUP1 SWAP2 SUB SWAP1 RETURN JUMPDEST PUSH1 0x1 PUSH1 0x0 SLOAD PUSH2 0x87 SWAP2 SWAP1 PUSH2 0x16D JUMP JUMPDEST PUSH1 0x0 DUP2 SWAP1 SSTORE POP JUMP JUMPDEST PUSH1 0x1 PUSH1 0x0 SLOAD PUSH2 0x9E SWAP2 SWAP1 PUSH2 0xD9 JUMP JUMPDEST PUSH1 0x0 DUP2 SWAP1 SSTORE POP JUMP JUMPDEST PUSH1 0x0 DUP1 SLOAD SWAP1 POP SWAP1 JUMP JUMPDEST PUSH2 0xB8 DUP2 PUSH2 0x201 JUMP JUMPDEST DUP3 MSTORE POP POP JUMP JUMPDEST PUSH1 0x0 PUSH1 0x20 DUP3 ADD SWAP1 POP PUSH2 0xD3 PUSH1 0x0 DUP4 ADD DUP5 PUSH2 0xAF JUMP JUMPDEST SWAP3 SWAP2 POP POP JUMP JUMPDEST PUSH1 0x0 PUSH2 0xE4 DUP3 PUSH2 0x201 JUMP JUMPDEST SWAP2 POP PUSH2 0xEF DUP4 PUSH2 0x201 JUMP JUMPDEST SWAP3 POP DUP2 PUSH32 0x7FFFFFFFFFFFFFFFFFFFFFFFFFFFFFFFFFFFFFFFFFFFFFFFFFFFFFFFFFFFFFFF SUB DUP4 SGT PUSH1 0x0 DUP4 SLT ISZERO AND ISZERO PUSH2 0x12A JUMPI PUSH2 0x129 PUSH2 0x20B JUMP JUMPDEST JUMPDEST DUP2 PUSH32 0x8000000000000000000000000000000000000000000000000000000000000000 SUB DUP4 SLT PUSH1 0x0 DUP4 SLT AND ISZERO PUSH2 0x162 JUMPI PUSH2 0x161 PUSH2 0x20B JUMP JUMPDEST JUMPDEST DUP3 DUP3 ADD SWAP1 POP SWAP3 SWAP2 POP POP JUMP JUMPDEST PUSH1 0x0 PUSH2 0x178 DUP3 PUSH2 0x201 JUMP JUMPDEST SWAP2 POP PUSH2 0x183 DUP4 PUSH2 0x201 JUMP JUMPDEST SWAP3 POP DUP3 PUSH32 0x8000000000000000000000000000000000000000000000000000000000000000 ADD DUP3 SLT PUSH1 0x0 DUP5 SLT ISZERO AND ISZERO PUSH2 0x1BE JUMPI PUSH2 0x1BD PUSH2 0x20B JUMP JUMPDEST JUMPDEST DUP3 PUSH32 0x7FFFFFFFFFFFFFFFFFFFFFFFFFFFFFFFFFFFFFFFFFFFFFFFFFFFFFFFFFFFFFFF ADD DUP3 SGT PUSH1 0x0 DUP5 SLT AND ISZERO PUSH2 0x1F6 JUMPI PUSH2 0x1F5 PUSH2 0x20B JUMP JUMPDEST JUMPDEST DUP3 DUP3 SUB SWAP1 POP SWAP3 SWAP2 POP POP JUMP JUMPDEST PUSH1 0x0 DUP2 SWAP1 POP SWAP2 SWAP1 POP JUMP JUMPDEST PUSH32 0x4E487B7100000000000000000000000000000000000000000000000000000000 PUSH1 0x0 MSTORE PUSH1 0x11 PUSH1 0x4 MSTORE PUSH1 0x24 PUSH1 0x0 REVERT INVALID LOG2 PUSH5 0x6970667358 0x22 SLT KECCAK256 PUSH7 0x6B61A53F117383 0x2D LOG2 0xAA 0x2F DELEGATECALL SMOD DUP15 0xAD PUSH4 0xDD7EE8D1 STOP 0x2D 0xF 0x5D 0xFB 0xB3 0x1F LOG0 MSIZE NOT CODECOPY PUSH5 0x736F6C6343 STOP ADDMOD SMOD STOP CALLER "
				},
				"gasEstimates": {
					"creation": {
						"codeDepositCost": "124800",
						"executionCost": "5177",
						"totalCost": "129977"
					},
					"external": {
						"decrementaltEx()": "infinite",
						"incrementEx()": "infinite",
						"incremetal()": "2459"
					}
				},
				"methodIdentifiers": {
					"decrementaltEx()": "b46c1894",
					"incrementEx()": "bbbf3c03",
					"incremetal()": "f80f29db"
				}
			},
			"storageLayout": {
				"storage": [
					{
						"astId": 4,
						"contract": "contracts/funcoes2visi.sol:Visibilidade",
						"label": "contagem",
						"offset": 0,
						"slot": "0",
						"type": "t_int256"
					}
				],
				"types": {
					"t_int256": {
						"encoding": "inplace",
						"label": "int256",
						"numberOfBytes": "32"
					}
				}
			},
			"userdoc": {
				"kind": "user",
				"methods": {},
				"version": 1
			}
		}
	}
}