{
	"contracts/variaveis.sol": {
		"Variables": {
			"abi": [
				{
					"inputs": [],
					"name": "numero",
					"outputs": [
						{
							"internalType": "int256",
							"name": "",
							"type": "int256"
						}
					],
					"stateMutability": "view",
					"type": "function"
				},
				{
					"inputs": [],
					"name": "ola",
					"outputs": [
						{
							"internalType": "string",
							"name": "",
							"type": "string"
						}
					],
					"stateMutability": "view",
					"type": "function"
				}
			],
			"devdoc": {
				"kind": "dev",
				"methods": {},
				"version": 1
			},
			"evm": {
				"assembly": "    /* \"contracts/variaveis.sol\":58:229  contract Variables{\r... */\n  mstore(0x40, 0x80)\n    /* \"contracts/variaveis.sol\":82:110  string public ola = \" hello\" */\n  mload(0x40)\n  dup1\n  0x40\n  add\n  0x40\n  mstore\n  dup1\n  0x06\n  dup2\n  mstore\n  0x20\n  add\n  0x2068656c6c6f0000000000000000000000000000000000000000000000000000\n  dup2\n  mstore\n  pop\n  0x00\n  swap1\n  dup1\n  mload\n  swap1\n  0x20\n  add\n  swap1\n  tag_1\n  swap3\n  swap2\n  swap1\n  tag_2\n  jump\t// in\ntag_1:\n  pop\n    /* \"contracts/variaveis.sol\":116:145  string private ola1 = \"Hello\" */\n  mload(0x40)\n  dup1\n  0x40\n  add\n  0x40\n  mstore\n  dup1\n  0x05\n  dup2\n  mstore\n  0x20\n  add\n  0x48656c6c6f000000000000000000000000000000000000000000000000000000\n  dup2\n  mstore\n  pop\n  0x01\n  swap1\n  dup1\n  mload\n  swap1\n  0x20\n  add\n  swap1\n  tag_3\n  swap3\n  swap2\n  swap1\n  tag_2\n  jump\t// in\ntag_3:\n  pop\n    /* \"contracts/variaveis.sol\":151:187  string internal ola3 = \"inside safe\" */\n  mload(0x40)\n  dup1\n  0x40\n  add\n  0x40\n  mstore\n  dup1\n  0x0b\n  dup2\n  mstore\n  0x20\n  add\n  0x696e736964652073616665000000000000000000000000000000000000000000\n  dup2\n  mstore\n  pop\n  0x02\n  swap1\n  dup1\n  mload\n  swap1\n  0x20\n  add\n  swap1\n  tag_4\n  swap3\n  swap2\n  swap1\n  tag_2\n  jump\t// in\ntag_4:\n  pop\n    /* \"contracts/variaveis.sol\":217:225  12345678 */\n  0xbc614e\n    /* \"contracts/variaveis.sol\":197:225  int public numero = 12345678 */\n  0x03\n  sstore\n    /* \"contracts/variaveis.sol\":58:229  contract Variables{\r... */\n  callvalue\n  dup1\n  iszero\n  tag_5\n  jumpi\n  0x00\n  dup1\n  revert\ntag_5:\n  pop\n  jump(tag_6)\ntag_2:\n  dup3\n  dup1\n  sload\n  tag_7\n  swap1\n  tag_8\n  jump\t// in\ntag_7:\n  swap1\n  0x00\n  mstore\n  keccak256(0x00, 0x20)\n  swap1\n  0x1f\n  add\n  0x20\n  swap1\n  div\n  dup2\n  add\n  swap3\n  dup3\n  tag_10\n  jumpi\n  0x00\n  dup6\n  sstore\n  jump(tag_9)\ntag_10:\n  dup3\n  0x1f\n  lt\n  tag_11\n  jumpi\n  dup1\n  mload\n  not(0xff)\n  and\n  dup4\n  dup1\n  add\n  or\n  dup6\n  sstore\n  jump(tag_9)\ntag_11:\n  dup3\n  dup1\n  add\n  0x01\n  add\n  dup6\n  sstore\n  dup3\n  iszero\n  tag_9\n  jumpi\n  swap2\n  dup3\n  add\ntag_12:\n  dup3\n  dup2\n  gt\n  iszero\n  tag_13\n  jumpi\n  dup3\n  mload\n  dup3\n  sstore\n  swap2\n  0x20\n  add\n  swap2\n  swap1\n  0x01\n  add\n  swap1\n  jump(tag_12)\ntag_13:\ntag_9:\n  pop\n  swap1\n  pop\n  tag_14\n  swap2\n  swap1\n  tag_15\n  jump\t// in\ntag_14:\n  pop\n  swap1\n  jump\t// out\ntag_15:\ntag_16:\n  dup1\n  dup3\n  gt\n  iszero\n  tag_17\n  jumpi\n  0x00\n  dup2\n  0x00\n  swap1\n  sstore\n  pop\n  0x01\n  add\n  jump(tag_16)\ntag_17:\n  pop\n  swap1\n  jump\t// out\n    /* \"#utility.yul\":7:327   */\ntag_8:\n    /* \"#utility.yul\":51:57   */\n  0x00\n    /* \"#utility.yul\":88:89   */\n  0x02\n    /* \"#utility.yul\":82:86   */\n  dup3\n    /* \"#utility.yul\":78:90   */\n  div\n    /* \"#utility.yul\":68:90   */\n  swap1\n  pop\n    /* \"#utility.yul\":135:136   */\n  0x01\n    /* \"#utility.yul\":129:133   */\n  dup3\n    /* \"#utility.yul\":125:137   */\n  and\n    /* \"#utility.yul\":156:174   */\n  dup1\n    /* \"#utility.yul\":146:227   */\n  tag_20\n  jumpi\n    /* \"#utility.yul\":212:216   */\n  0x7f\n    /* \"#utility.yul\":204:210   */\n  dup3\n    /* \"#utility.yul\":200:217   */\n  and\n    /* \"#utility.yul\":190:217   */\n  swap2\n  pop\n    /* \"#utility.yul\":146:227   */\ntag_20:\n    /* \"#utility.yul\":274:276   */\n  0x20\n    /* \"#utility.yul\":266:272   */\n  dup3\n    /* \"#utility.yul\":263:277   */\n  lt\n    /* \"#utility.yul\":243:261   */\n  dup2\n    /* \"#utility.yul\":240:278   */\n  eq\n    /* \"#utility.yul\":237:321   */\n  iszero\n  tag_21\n  jumpi\n    /* \"#utility.yul\":293:311   */\n  tag_22\n  tag_23\n  jump\t// in\ntag_22:\n    /* \"#utility.yul\":237:321   */\ntag_21:\n    /* \"#utility.yul\":58:327   */\n  pop\n    /* \"#utility.yul\":7:327   */\n  swap2\n  swap1\n  pop\n  jump\t// out\n    /* \"#utility.yul\":333:513   */\ntag_23:\n    /* \"#utility.yul\":381:458   */\n  0x4e487b7100000000000000000000000000000000000000000000000000000000\n    /* \"#utility.yul\":378:379   */\n  0x00\n    /* \"#utility.yul\":371:459   */\n  mstore\n    /* \"#utility.yul\":478:482   */\n  0x22\n    /* \"#utility.yul\":475:476   */\n  0x04\n    /* \"#utility.yul\":468:483   */\n  mstore\n    /* \"#utility.yul\":502:506   */\n  0x24\n    /* \"#utility.yul\":499:500   */\n  0x00\n    /* \"#utility.yul\":492:507   */\n  revert\n    /* \"contracts/variaveis.sol\":58:229  contract Variables{\r... */\ntag_6:\n  dataSize(sub_0)\n  dup1\n  dataOffset(sub_0)\n  0x00\n  codecopy\n  0x00\n  return\nstop\n\nsub_0: assembly {\n        /* \"contracts/variaveis.sol\":58:229  contract Variables{\r... */\n      mstore(0x40, 0x80)\n      callvalue\n      dup1\n      iszero\n      tag_1\n      jumpi\n      0x00\n      dup1\n      revert\n    tag_1:\n      pop\n      jumpi(tag_2, lt(calldatasize, 0x04))\n      shr(0xe0, calldataload(0x00))\n      dup1\n      0x91f5de38\n      eq\n      tag_3\n      jumpi\n      dup1\n      0xf584b23a\n      eq\n      tag_4\n      jumpi\n    tag_2:\n      0x00\n      dup1\n      revert\n        /* \"contracts/variaveis.sol\":197:225  int public numero = 12345678 */\n    tag_3:\n      tag_5\n      tag_6\n      jump\t// in\n    tag_5:\n      mload(0x40)\n      tag_7\n      swap2\n      swap1\n      tag_8\n      jump\t// in\n    tag_7:\n      mload(0x40)\n      dup1\n      swap2\n      sub\n      swap1\n      return\n        /* \"contracts/variaveis.sol\":82:110  string public ola = \" hello\" */\n    tag_4:\n      tag_9\n      tag_10\n      jump\t// in\n    tag_9:\n      mload(0x40)\n      tag_11\n      swap2\n      swap1\n      tag_12\n      jump\t// in\n    tag_11:\n      mload(0x40)\n      dup1\n      swap2\n      sub\n      swap1\n      return\n        /* \"contracts/variaveis.sol\":197:225  int public numero = 12345678 */\n    tag_6:\n      sload(0x03)\n      dup2\n      jump\t// out\n        /* \"contracts/variaveis.sol\":82:110  string public ola = \" hello\" */\n    tag_10:\n      0x00\n      dup1\n      sload\n      tag_13\n      swap1\n      tag_14\n      jump\t// in\n    tag_13:\n      dup1\n      0x1f\n      add\n      0x20\n      dup1\n      swap2\n      div\n      mul\n      0x20\n      add\n      mload(0x40)\n      swap1\n      dup2\n      add\n      0x40\n      mstore\n      dup1\n      swap3\n      swap2\n      swap1\n      dup2\n      dup2\n      mstore\n      0x20\n      add\n      dup3\n      dup1\n      sload\n      tag_15\n      swap1\n      tag_14\n      jump\t// in\n    tag_15:\n      dup1\n      iszero\n      tag_16\n      jumpi\n      dup1\n      0x1f\n      lt\n      tag_17\n      jumpi\n      0x0100\n      dup1\n      dup4\n      sload\n      div\n      mul\n      dup4\n      mstore\n      swap2\n      0x20\n      add\n      swap2\n      jump(tag_16)\n    tag_17:\n      dup3\n      add\n      swap2\n      swap1\n      0x00\n      mstore\n      keccak256(0x00, 0x20)\n      swap1\n    tag_18:\n      dup2\n      sload\n      dup2\n      mstore\n      swap1\n      0x01\n      add\n      swap1\n      0x20\n      add\n      dup1\n      dup4\n      gt\n      tag_18\n      jumpi\n      dup3\n      swap1\n      sub\n      0x1f\n      and\n      dup3\n      add\n      swap2\n    tag_16:\n      pop\n      pop\n      pop\n      pop\n      pop\n      dup2\n      jump\t// out\n        /* \"#utility.yul\":7:122   */\n    tag_20:\n        /* \"#utility.yul\":92:115   */\n      tag_22\n        /* \"#utility.yul\":109:114   */\n      dup2\n        /* \"#utility.yul\":92:115   */\n      tag_23\n      jump\t// in\n    tag_22:\n        /* \"#utility.yul\":87:90   */\n      dup3\n        /* \"#utility.yul\":80:116   */\n      mstore\n        /* \"#utility.yul\":7:122   */\n      pop\n      pop\n      jump\t// out\n        /* \"#utility.yul\":128:492   */\n    tag_24:\n        /* \"#utility.yul\":216:219   */\n      0x00\n        /* \"#utility.yul\":244:283   */\n      tag_26\n        /* \"#utility.yul\":277:282   */\n      dup3\n        /* \"#utility.yul\":244:283   */\n      tag_27\n      jump\t// in\n    tag_26:\n        /* \"#utility.yul\":299:370   */\n      tag_28\n        /* \"#utility.yul\":363:369   */\n      dup2\n        /* \"#utility.yul\":358:361   */\n      dup6\n        /* \"#utility.yul\":299:370   */\n      tag_29\n      jump\t// in\n    tag_28:\n        /* \"#utility.yul\":292:370   */\n      swap4\n      pop\n        /* \"#utility.yul\":379:431   */\n      tag_30\n        /* \"#utility.yul\":424:430   */\n      dup2\n        /* \"#utility.yul\":419:422   */\n      dup6\n        /* \"#utility.yul\":412:416   */\n      0x20\n        /* \"#utility.yul\":405:410   */\n      dup7\n        /* \"#utility.yul\":401:417   */\n      add\n        /* \"#utility.yul\":379:431   */\n      tag_31\n      jump\t// in\n    tag_30:\n        /* \"#utility.yul\":456:485   */\n      tag_32\n        /* \"#utility.yul\":478:484   */\n      dup2\n        /* \"#utility.yul\":456:485   */\n      tag_33\n      jump\t// in\n    tag_32:\n        /* \"#utility.yul\":451:454   */\n      dup5\n        /* \"#utility.yul\":447:486   */\n      add\n        /* \"#utility.yul\":440:486   */\n      swap2\n      pop\n        /* \"#utility.yul\":220:492   */\n      pop\n        /* \"#utility.yul\":128:492   */\n      swap3\n      swap2\n      pop\n      pop\n      jump\t// out\n        /* \"#utility.yul\":498:716   */\n    tag_8:\n        /* \"#utility.yul\":589:593   */\n      0x00\n        /* \"#utility.yul\":627:629   */\n      0x20\n        /* \"#utility.yul\":616:625   */\n      dup3\n        /* \"#utility.yul\":612:630   */\n      add\n        /* \"#utility.yul\":604:630   */\n      swap1\n      pop\n        /* \"#utility.yul\":640:709   */\n      tag_35\n        /* \"#utility.yul\":706:707   */\n      0x00\n        /* \"#utility.yul\":695:704   */\n      dup4\n        /* \"#utility.yul\":691:708   */\n      add\n        /* \"#utility.yul\":682:688   */\n      dup5\n        /* \"#utility.yul\":640:709   */\n      tag_20\n      jump\t// in\n    tag_35:\n        /* \"#utility.yul\":498:716   */\n      swap3\n      swap2\n      pop\n      pop\n      jump\t// out\n        /* \"#utility.yul\":722:1035   */\n    tag_12:\n        /* \"#utility.yul\":835:839   */\n      0x00\n        /* \"#utility.yul\":873:875   */\n      0x20\n        /* \"#utility.yul\":862:871   */\n      dup3\n        /* \"#utility.yul\":858:876   */\n      add\n        /* \"#utility.yul\":850:876   */\n      swap1\n      pop\n        /* \"#utility.yul\":922:931   */\n      dup2\n        /* \"#utility.yul\":916:920   */\n      dup2\n        /* \"#utility.yul\":912:932   */\n      sub\n        /* \"#utility.yul\":908:909   */\n      0x00\n        /* \"#utility.yul\":897:906   */\n      dup4\n        /* \"#utility.yul\":893:910   */\n      add\n        /* \"#utility.yul\":886:933   */\n      mstore\n        /* \"#utility.yul\":950:1028   */\n      tag_37\n        /* \"#utility.yul\":1023:1027   */\n      dup2\n        /* \"#utility.yul\":1014:1020   */\n      dup5\n        /* \"#utility.yul\":950:1028   */\n      tag_24\n      jump\t// in\n    tag_37:\n        /* \"#utility.yul\":942:1028   */\n      swap1\n      pop\n        /* \"#utility.yul\":722:1035   */\n      swap3\n      swap2\n      pop\n      pop\n      jump\t// out\n        /* \"#utility.yul\":1041:1140   */\n    tag_27:\n        /* \"#utility.yul\":1093:1099   */\n      0x00\n        /* \"#utility.yul\":1127:1132   */\n      dup2\n        /* \"#utility.yul\":1121:1133   */\n      mload\n        /* \"#utility.yul\":1111:1133   */\n      swap1\n      pop\n        /* \"#utility.yul\":1041:1140   */\n      swap2\n      swap1\n      pop\n      jump\t// out\n        /* \"#utility.yul\":1146:1315   */\n    tag_29:\n        /* \"#utility.yul\":1230:1241   */\n      0x00\n        /* \"#utility.yul\":1264:1270   */\n      dup3\n        /* \"#utility.yul\":1259:1262   */\n      dup3\n        /* \"#utility.yul\":1252:1271   */\n      mstore\n        /* \"#utility.yul\":1304:1308   */\n      0x20\n        /* \"#utility.yul\":1299:1302   */\n      dup3\n        /* \"#utility.yul\":1295:1309   */\n      add\n        /* \"#utility.yul\":1280:1309   */\n      swap1\n      pop\n        /* \"#utility.yul\":1146:1315   */\n      swap3\n      swap2\n      pop\n      pop\n      jump\t// out\n        /* \"#utility.yul\":1321:1397   */\n    tag_23:\n        /* \"#utility.yul\":1357:1364   */\n      0x00\n        /* \"#utility.yul\":1386:1391   */\n      dup2\n        /* \"#utility.yul\":1375:1391   */\n      swap1\n      pop\n        /* \"#utility.yul\":1321:1397   */\n      swap2\n      swap1\n      pop\n      jump\t// out\n        /* \"#utility.yul\":1403:1710   */\n    tag_31:\n        /* \"#utility.yul\":1471:1472   */\n      0x00\n        /* \"#utility.yul\":1481:1594   */\n    tag_42:\n        /* \"#utility.yul\":1495:1501   */\n      dup4\n        /* \"#utility.yul\":1492:1493   */\n      dup2\n        /* \"#utility.yul\":1489:1502   */\n      lt\n        /* \"#utility.yul\":1481:1594   */\n      iszero\n      tag_44\n      jumpi\n        /* \"#utility.yul\":1580:1581   */\n      dup1\n        /* \"#utility.yul\":1575:1578   */\n      dup3\n        /* \"#utility.yul\":1571:1582   */\n      add\n        /* \"#utility.yul\":1565:1583   */\n      mload\n        /* \"#utility.yul\":1561:1562   */\n      dup2\n        /* \"#utility.yul\":1556:1559   */\n      dup5\n        /* \"#utility.yul\":1552:1563   */\n      add\n        /* \"#utility.yul\":1545:1584   */\n      mstore\n        /* \"#utility.yul\":1517:1519   */\n      0x20\n        /* \"#utility.yul\":1514:1515   */\n      dup2\n        /* \"#utility.yul\":1510:1520   */\n      add\n        /* \"#utility.yul\":1505:1520   */\n      swap1\n      pop\n        /* \"#utility.yul\":1481:1594   */\n      jump(tag_42)\n    tag_44:\n        /* \"#utility.yul\":1612:1618   */\n      dup4\n        /* \"#utility.yul\":1609:1610   */\n      dup2\n        /* \"#utility.yul\":1606:1619   */\n      gt\n        /* \"#utility.yul\":1603:1704   */\n      iszero\n      tag_45\n      jumpi\n        /* \"#utility.yul\":1692:1693   */\n      0x00\n        /* \"#utility.yul\":1683:1689   */\n      dup5\n        /* \"#utility.yul\":1678:1681   */\n      dup5\n        /* \"#utility.yul\":1674:1690   */\n      add\n        /* \"#utility.yul\":1667:1694   */\n      mstore\n        /* \"#utility.yul\":1603:1704   */\n    tag_45:\n        /* \"#utility.yul\":1452:1710   */\n      pop\n        /* \"#utility.yul\":1403:1710   */\n      pop\n      pop\n      pop\n      jump\t// out\n        /* \"#utility.yul\":1716:2036   */\n    tag_14:\n        /* \"#utility.yul\":1760:1766   */\n      0x00\n        /* \"#utility.yul\":1797:1798   */\n      0x02\n        /* \"#utility.yul\":1791:1795   */\n      dup3\n        /* \"#utility.yul\":1787:1799   */\n      div\n        /* \"#utility.yul\":1777:1799   */\n      swap1\n      pop\n        /* \"#utility.yul\":1844:1845   */\n      0x01\n        /* \"#utility.yul\":1838:1842   */\n      dup3\n        /* \"#utility.yul\":1834:1846   */\n      and\n        /* \"#utility.yul\":1865:1883   */\n      dup1\n        /* \"#utility.yul\":1855:1936   */\n      tag_47\n      jumpi\n        /* \"#utility.yul\":1921:1925   */\n      0x7f\n        /* \"#utility.yul\":1913:1919   */\n      dup3\n        /* \"#utility.yul\":1909:1926   */\n      and\n        /* \"#utility.yul\":1899:1926   */\n      swap2\n      pop\n        /* \"#utility.yul\":1855:1936   */\n    tag_47:\n        /* \"#utility.yul\":1983:1985   */\n      0x20\n        /* \"#utility.yul\":1975:1981   */\n      dup3\n        /* \"#utility.yul\":1972:1986   */\n      lt\n        /* \"#utility.yul\":1952:1970   */\n      dup2\n        /* \"#utility.yul\":1949:1987   */\n      eq\n        /* \"#utility.yul\":1946:2030   */\n      iszero\n      tag_48\n      jumpi\n        /* \"#utility.yul\":2002:2020   */\n      tag_49\n      tag_50\n      jump\t// in\n    tag_49:\n        /* \"#utility.yul\":1946:2030   */\n    tag_48:\n        /* \"#utility.yul\":1767:2036   */\n      pop\n        /* \"#utility.yul\":1716:2036   */\n      swap2\n      swap1\n      pop\n      jump\t// out\n        /* \"#utility.yul\":2042:2222   */\n    tag_50:\n        /* \"#utility.yul\":2090:2167   */\n      0x4e487b7100000000000000000000000000000000000000000000000000000000\n        /* \"#utility.yul\":2087:2088   */\n      0x00\n        /* \"#utility.yul\":2080:2168   */\n      mstore\n        /* \"#utility.yul\":2187:2191   */\n      0x22\n        /* \"#utility.yul\":2184:2185   */\n      0x04\n        /* \"#utility.yul\":2177:2192   */\n      mstore\n        /* \"#utility.yul\":2211:2215   */\n      0x24\n        /* \"#utility.yul\":2208:2209   */\n      0x00\n        /* \"#utility.yul\":2201:2216   */\n      revert\n        /* \"#utility.yul\":2228:2330   */\n    tag_33:\n        /* \"#utility.yul\":2269:2275   */\n      0x00\n        /* \"#utility.yul\":2320:2322   */\n      0x1f\n        /* \"#utility.yul\":2316:2323   */\n      not\n        /* \"#utility.yul\":2311:2313   */\n      0x1f\n        /* \"#utility.yul\":2304:2309   */\n      dup4\n        /* \"#utility.yul\":2300:2314   */\n      add\n        /* \"#utility.yul\":2296:2324   */\n      and\n        /* \"#utility.yul\":2286:2324   */\n      swap1\n      pop\n        /* \"#utility.yul\":2228:2330   */\n      swap2\n      swap1\n      pop\n      jump\t// out\n\n    auxdata: 0xa26469706673582212207c80567e1ef1e6989b8f47b00073ea81a1db2359fd752e24bb56925fd292545a64736f6c63430008070033\n}\n",
				"bytecode": {
					"linkReferences": {},
					"object": "60806040526040518060400160405280600681526020017f2068656c6c6f00000000000000000000000000000000000000000000000000008152506000908051906020019061004f929190610101565b506040518060400160405280600581526020017f48656c6c6f0000000000000000000000000000000000000000000000000000008152506001908051906020019061009b929190610101565b506040518060400160405280600b81526020017f696e736964652073616665000000000000000000000000000000000000000000815250600290805190602001906100e7929190610101565b5062bc614e6003553480156100fb57600080fd5b50610205565b82805461010d906101a4565b90600052602060002090601f01602090048101928261012f5760008555610176565b82601f1061014857805160ff1916838001178555610176565b82800160010185558215610176579182015b8281111561017557825182559160200191906001019061015a565b5b5090506101839190610187565b5090565b5b808211156101a0576000816000905550600101610188565b5090565b600060028204905060018216806101bc57607f821691505b602082108114156101d0576101cf6101d6565b5b50919050565b7f4e487b7100000000000000000000000000000000000000000000000000000000600052602260045260246000fd5b610291806102146000396000f3fe608060405234801561001057600080fd5b50600436106100365760003560e01c806391f5de381461003b578063f584b23a14610059575b600080fd5b610043610077565b6040516100509190610153565b60405180910390f35b61006161007d565b60405161006e919061016e565b60405180910390f35b60035481565b6000805461008a906101e9565b80601f01602080910402602001604051908101604052809291908181526020018280546100b6906101e9565b80156101035780601f106100d857610100808354040283529160200191610103565b820191906000526020600020905b8154815290600101906020018083116100e657829003601f168201915b505050505081565b610114816101ac565b82525050565b600061012582610190565b61012f818561019b565b935061013f8185602086016101b6565b6101488161024a565b840191505092915050565b6000602082019050610168600083018461010b565b92915050565b60006020820190508181036000830152610188818461011a565b905092915050565b600081519050919050565b600082825260208201905092915050565b6000819050919050565b60005b838110156101d45780820151818401526020810190506101b9565b838111156101e3576000848401525b50505050565b6000600282049050600182168061020157607f821691505b602082108114156102155761021461021b565b5b50919050565b7f4e487b7100000000000000000000000000000000000000000000000000000000600052602260045260246000fd5b6000601f19601f830116905091905056fea26469706673582212207c80567e1ef1e6989b8f47b00073ea81a1db2359fd752e24bb56925fd292545a64736f6c63430008070033",
					"opcodes": "PUSH1 0x80 PUSH1 0x40 MSTORE PUSH1 0x40 MLOAD DUP1 PUSH1 0x40 ADD PUSH1 0x40 MSTORE DUP1 PUSH1 0x6 DUP2 MSTORE PUSH1 0x20 ADD PUSH32 0x2068656C6C6F0000000000000000000000000000000000000000000000000000 DUP2 MSTORE POP PUSH1 0x0 SWAP1 DUP1 MLOAD SWAP1 PUSH1 0x20 ADD SWAP1 PUSH2 0x4F SWAP3 SWAP2 SWAP1 PUSH2 0x101 JUMP JUMPDEST POP PUSH1 0x40 MLOAD DUP1 PUSH1 0x40 ADD PUSH1 0x40 MSTORE DUP1 PUSH1 0x5 DUP2 MSTORE PUSH1 0x20 ADD PUSH32 0x48656C6C6F000000000000000000000000000000000000000000000000000000 DUP2 MSTORE POP PUSH1 0x1 SWAP1 DUP1 MLOAD SWAP1 PUSH1 0x20 ADD SWAP1 PUSH2 0x9B SWAP3 SWAP2 SWAP1 PUSH2 0x101 JUMP JUMPDEST POP PUSH1 0x40 MLOAD DUP1 PUSH1 0x40 ADD PUSH1 0x40 MSTORE DUP1 PUSH1 0xB DUP2 MSTORE PUSH1 0x20 ADD PUSH32 0x696E736964652073616665000000000000000000000000000000000000000000 DUP2 MSTORE POP PUSH1 0x2 SWAP1 DUP1 MLOAD SWAP1 PUSH1 0x20 ADD SWAP1 PUSH2 0xE7 SWAP3 SWAP2 SWAP1 PUSH2 0x101 JUMP JUMPDEST POP PUSH3 0xBC614E PUSH1 0x3 SSTORE CALLVALUE DUP1 ISZERO PUSH2 0xFB JUMPI PUSH1 0x0 DUP1 REVERT JUMPDEST POP PUSH2 0x205 JUMP JUMPDEST DUP3 DUP1 SLOAD PUSH2 0x10D SWAP1 PUSH2 0x1A4 JUMP JUMPDEST SWAP1 PUSH1 0x0 MSTORE PUSH1 0x20 PUSH1 0x0 KECCAK256 SWAP1 PUSH1 0x1F ADD PUSH1 0x20 SWAP1 DIV DUP2 ADD SWAP3 DUP3 PUSH2 0x12F JUMPI PUSH1 0x0 DUP6 SSTORE PUSH2 0x176 JUMP JUMPDEST DUP3 PUSH1 0x1F LT PUSH2 0x148 JUMPI DUP1 MLOAD PUSH1 0xFF NOT AND DUP4 DUP1 ADD OR DUP6 SSTORE PUSH2 0x176 JUMP JUMPDEST DUP3 DUP1 ADD PUSH1 0x1 ADD DUP6 SSTORE DUP3 ISZERO PUSH2 0x176 JUMPI SWAP2 DUP3 ADD JUMPDEST DUP3 DUP2 GT ISZERO PUSH2 0x175 JUMPI DUP3 MLOAD DUP3 SSTORE SWAP2 PUSH1 0x20 ADD SWAP2 SWAP1 PUSH1 0x1 ADD SWAP1 PUSH2 0x15A JUMP JUMPDEST JUMPDEST POP SWAP1 POP PUSH2 0x183 SWAP2 SWAP1 PUSH2 0x187 JUMP JUMPDEST POP SWAP1 JUMP JUMPDEST JUMPDEST DUP1 DUP3 GT ISZERO PUSH2 0x1A0 JUMPI PUSH1 0x0 DUP2 PUSH1 0x0 SWAP1 SSTORE POP PUSH1 0x1 ADD PUSH2 0x188 JUMP JUMPDEST POP SWAP1 JUMP JUMPDEST PUSH1 0x0 PUSH1 0x2 DUP3 DIV SWAP1 POP PUSH1 0x1 DUP3 AND DUP1 PUSH2 0x1BC JUMPI PUSH1 0x7F DUP3 AND SWAP2 POP JUMPDEST PUSH1 0x20 DUP3 LT DUP2 EQ ISZERO PUSH2 0x1D0 JUMPI PUSH2 0x1CF PUSH2 0x1D6 JUMP JUMPDEST JUMPDEST POP SWAP2 SWAP1 POP JUMP JUMPDEST PUSH32 0x4E487B7100000000000000000000000000000000000000000000000000000000 PUSH1 0x0 MSTORE PUSH1 0x22 PUSH1 0x4 MSTORE PUSH1 0x24 PUSH1 0x0 REVERT JUMPDEST PUSH2 0x291 DUP1 PUSH2 0x214 PUSH1 0x0 CODECOPY PUSH1 0x0 RETURN INVALID PUSH1 0x80 PUSH1 0x40 MSTORE CALLVALUE DUP1 ISZERO PUSH2 0x10 JUMPI PUSH1 0x0 DUP1 REVERT JUMPDEST POP PUSH1 0x4 CALLDATASIZE LT PUSH2 0x36 JUMPI PUSH1 0x0 CALLDATALOAD PUSH1 0xE0 SHR DUP1 PUSH4 0x91F5DE38 EQ PUSH2 0x3B JUMPI DUP1 PUSH4 0xF584B23A EQ PUSH2 0x59 JUMPI JUMPDEST PUSH1 0x0 DUP1 REVERT JUMPDEST PUSH2 0x43 PUSH2 0x77 JUMP JUMPDEST PUSH1 0x40 MLOAD PUSH2 0x50 SWAP2 SWAP1 PUSH2 0x153 JUMP JUMPDEST PUSH1 0x40 MLOAD DUP1 SWAP2 SUB SWAP1 RETURN JUMPDEST PUSH2 0x61 PUSH2 0x7D JUMP JUMPDEST PUSH1 0x40 MLOAD PUSH2 0x6E SWAP2 SWAP1 PUSH2 0x16E JUMP JUMPDEST PUSH1 0x40 MLOAD DUP1 SWAP2 SUB SWAP1 RETURN JUMPDEST PUSH1 0x3 SLOAD DUP2 JUMP JUMPDEST PUSH1 0x0 DUP1 SLOAD PUSH2 0x8A SWAP1 PUSH2 0x1E9 JUMP JUMPDEST DUP1 PUSH1 0x1F ADD PUSH1 0x20 DUP1 SWAP2 DIV MUL PUSH1 0x20 ADD PUSH1 0x40 MLOAD SWAP1 DUP2 ADD PUSH1 0x40 MSTORE DUP1 SWAP3 SWAP2 SWAP1 DUP2 DUP2 MSTORE PUSH1 0x20 ADD DUP3 DUP1 SLOAD PUSH2 0xB6 SWAP1 PUSH2 0x1E9 JUMP JUMPDEST DUP1 ISZERO PUSH2 0x103 JUMPI DUP1 PUSH1 0x1F LT PUSH2 0xD8 JUMPI PUSH2 0x100 DUP1 DUP4 SLOAD DIV MUL DUP4 MSTORE SWAP2 PUSH1 0x20 ADD SWAP2 PUSH2 0x103 JUMP JUMPDEST DUP3 ADD SWAP2 SWAP1 PUSH1 0x0 MSTORE PUSH1 0x20 PUSH1 0x0 KECCAK256 SWAP1 JUMPDEST DUP2 SLOAD DUP2 MSTORE SWAP1 PUSH1 0x1 ADD SWAP1 PUSH1 0x20 ADD DUP1 DUP4 GT PUSH2 0xE6 JUMPI DUP3 SWAP1 SUB PUSH1 0x1F AND DUP3 ADD SWAP2 JUMPDEST POP POP POP POP POP DUP2 JUMP JUMPDEST PUSH2 0x114 DUP2 PUSH2 0x1AC JUMP JUMPDEST DUP3 MSTORE POP POP JUMP JUMPDEST PUSH1 0x0 PUSH2 0x125 DUP3 PUSH2 0x190 JUMP JUMPDEST PUSH2 0x12F DUP2 DUP6 PUSH2 0x19B JUMP JUMPDEST SWAP4 POP PUSH2 0x13F DUP2 DUP6 PUSH1 0x20 DUP7 ADD PUSH2 0x1B6 JUMP JUMPDEST PUSH2 0x148 DUP2 PUSH2 0x24A JUMP JUMPDEST DUP5 ADD SWAP2 POP POP SWAP3 SWAP2 POP POP JUMP JUMPDEST PUSH1 0x0 PUSH1 0x20 DUP3 ADD SWAP1 POP PUSH2 0x168 PUSH1 0x0 DUP4 ADD DUP5 PUSH2 0x10B JUMP JUMPDEST SWAP3 SWAP2 POP POP JUMP JUMPDEST PUSH1 0x0 PUSH1 0x20 DUP3 ADD SWAP1 POP DUP2 DUP2 SUB PUSH1 0x0 DUP4 ADD MSTORE PUSH2 0x188 DUP2 DUP5 PUSH2 0x11A JUMP JUMPDEST SWAP1 POP SWAP3 SWAP2 POP POP JUMP JUMPDEST PUSH1 0x0 DUP2 MLOAD SWAP1 POP SWAP2 SWAP1 POP JUMP JUMPDEST PUSH1 0x0 DUP3 DUP3 MSTORE PUSH1 0x20 DUP3 ADD SWAP1 POP SWAP3 SWAP2 POP POP JUMP JUMPDEST PUSH1 0x0 DUP2 SWAP1 POP SWAP2 SWAP1 POP JUMP JUMPDEST PUSH1 0x0 JUMPDEST DUP4 DUP2 LT ISZERO PUSH2 0x1D4 JUMPI DUP1 DUP3 ADD MLOAD DUP2 DUP5 ADD MSTORE PUSH1 0x20 DUP2 ADD SWAP1 POP PUSH2 0x1B9 JUMP JUMPDEST DUP4 DUP2 GT ISZERO PUSH2 0x1E3 JUMPI PUSH1 0x0 DUP5 DUP5 ADD MSTORE JUMPDEST POP POP POP POP JUMP JUMPDEST PUSH1 0x0 PUSH1 0x2 DUP3 DIV SWAP1 POP PUSH1 0x1 DUP3 AND DUP1 PUSH2 0x201 JUMPI PUSH1 0x7F DUP3 AND SWAP2 POP JUMPDEST PUSH1 0x20 DUP3 LT DUP2 EQ ISZERO PUSH2 0x215 JUMPI PUSH2 0x214 PUSH2 0x21B JUMP JUMPDEST JUMPDEST POP SWAP2 SWAP1 POP JUMP JUMPDEST PUSH32 0x4E487B7100000000000000000000000000000000000000000000000000000000 PUSH1 0x0 MSTORE PUSH1 0x22 PUSH1 0x4 MSTORE PUSH1 0x24 PUSH1 0x0 REVERT JUMPDEST PUSH1 0x0 PUSH1 0x1F NOT PUSH1 0x1F DUP4 ADD AND SWAP1 POP SWAP2 SWAP1 POP JUMP INVALID LOG2 PUSH5 0x6970667358 0x22 SLT KECCAK256 PUSH29 0x80567E1EF1E6989B8F47B00073EA81A1DB2359FD752E24BB56925FD292 SLOAD GAS PUSH5 0x736F6C6343 STOP ADDMOD SMOD STOP CALLER "
				},
				"gasEstimates": {
					"creation": {
						"codeDepositCost": "131400",
						"executionCost": "infinite",
						"totalCost": "infinite"
					},
					"external": {
						"numero()": "2407",
						"ola()": "infinite"
					}
				},
				"methodIdentifiers": {
					"numero()": "91f5de38",
					"ola()": "f584b23a"
				}
			},
			"storageLayout": {
				"storage": [
					{
						"astId": 4,
						"contract": "contracts/variaveis.sol:Variables",
						"label": "ola",
						"offset": 0,
						"slot": "0",
						"type": "t_string_storage"
					},
					{
						"astId": 7,
						"contract": "contracts/variaveis.sol:Variables",
						"label": "ola1",
						"offset": 0,
						"slot": "1",
						"type": "t_string_storage"
					},
					{
						"astId": 10,
						"contract": "contracts/variaveis.sol:Variables",
						"label": "ola3",
						"offset": 0,
						"slot": "2",
						"type": "t_string_storage"
					},
					{
						"astId": 13,
						"contract": "contracts/variaveis.sol:Variables",
						"label": "numero",
						"offset": 0,
						"slot": "3",
						"type": "t_int256"
					}
				],
				"types": {
					"t_int256": {
						"encoding": "inplace",
						"label": "int256",
						"numberOfBytes": "32"
					},
					"t_string_storage": {
						"encoding": "bytes",
						"label": "string",
						"numberOfBytes": "32"
					}
				}
			},
			"userdoc": {
				"kind": "user",
				"methods": {},
				"version": 1
			}
		}
	}
}