{
	"contracts/stringstipo.sol": {
		"Stringstipo": {
			"abi": [
				{
					"inputs": [
						{
							"internalType": "string",
							"name": "_ola1",
							"type": "string"
						},
						{
							"internalType": "string",
							"name": "_ola2",
							"type": "string"
						},
						{
							"internalType": "string",
							"name": "_ola3",
							"type": "string"
						}
					],
					"name": "getWords",
					"outputs": [],
					"stateMutability": "nonpayable",
					"type": "function"
				},
				{
					"inputs": [],
					"name": "ola",
					"outputs": [
						{
							"internalType": "string",
							"name": "",
							"type": "string"
						}
					],
					"stateMutability": "view",
					"type": "function"
				}
			],
			"devdoc": {
				"kind": "dev",
				"methods": {},
				"version": 1
			},
			"evm": {
				"assembly": "    /* \"contracts/stringstipo.sol\":58:296  contract Stringstipo{\r... */\n  mstore(0x40, 0x80)\n    /* \"contracts/stringstipo.sol\":84:112  string public ola = \" hello\" */\n  mload(0x40)\n  dup1\n  0x40\n  add\n  0x40\n  mstore\n  dup1\n  0x06\n  dup2\n  mstore\n  0x20\n  add\n  0x2068656c6c6f0000000000000000000000000000000000000000000000000000\n  dup2\n  mstore\n  pop\n  0x00\n  swap1\n  dup1\n  mload\n  swap1\n  0x20\n  add\n  swap1\n  tag_1\n  swap3\n  swap2\n  swap1\n  tag_2\n  jump\t// in\ntag_1:\n  pop\n    /* \"contracts/stringstipo.sol\":118:147  string private ola1 = \"Hello\" */\n  mload(0x40)\n  dup1\n  0x40\n  add\n  0x40\n  mstore\n  dup1\n  0x05\n  dup2\n  mstore\n  0x20\n  add\n  0x48656c6c6f000000000000000000000000000000000000000000000000000000\n  dup2\n  mstore\n  pop\n  0x01\n  swap1\n  dup1\n  mload\n  swap1\n  0x20\n  add\n  swap1\n  tag_3\n  swap3\n  swap2\n  swap1\n  tag_2\n  jump\t// in\ntag_3:\n  pop\n    /* \"contracts/stringstipo.sol\":153:189  string internal ola3 = \"inside safe\" */\n  mload(0x40)\n  dup1\n  0x40\n  add\n  0x40\n  mstore\n  dup1\n  0x0b\n  dup2\n  mstore\n  0x20\n  add\n  0x696e736964652073616665000000000000000000000000000000000000000000\n  dup2\n  mstore\n  pop\n  0x02\n  swap1\n  dup1\n  mload\n  swap1\n  0x20\n  add\n  swap1\n  tag_4\n  swap3\n  swap2\n  swap1\n  tag_2\n  jump\t// in\ntag_4:\n  pop\n    /* \"contracts/stringstipo.sol\":58:296  contract Stringstipo{\r... */\n  callvalue\n  dup1\n  iszero\n  tag_5\n  jumpi\n  0x00\n  dup1\n  revert\ntag_5:\n  pop\n  jump(tag_6)\ntag_2:\n  dup3\n  dup1\n  sload\n  tag_7\n  swap1\n  tag_8\n  jump\t// in\ntag_7:\n  swap1\n  0x00\n  mstore\n  keccak256(0x00, 0x20)\n  swap1\n  0x1f\n  add\n  0x20\n  swap1\n  div\n  dup2\n  add\n  swap3\n  dup3\n  tag_10\n  jumpi\n  0x00\n  dup6\n  sstore\n  jump(tag_9)\ntag_10:\n  dup3\n  0x1f\n  lt\n  tag_11\n  jumpi\n  dup1\n  mload\n  not(0xff)\n  and\n  dup4\n  dup1\n  add\n  or\n  dup6\n  sstore\n  jump(tag_9)\ntag_11:\n  dup3\n  dup1\n  add\n  0x01\n  add\n  dup6\n  sstore\n  dup3\n  iszero\n  tag_9\n  jumpi\n  swap2\n  dup3\n  add\ntag_12:\n  dup3\n  dup2\n  gt\n  iszero\n  tag_13\n  jumpi\n  dup3\n  mload\n  dup3\n  sstore\n  swap2\n  0x20\n  add\n  swap2\n  swap1\n  0x01\n  add\n  swap1\n  jump(tag_12)\ntag_13:\ntag_9:\n  pop\n  swap1\n  pop\n  tag_14\n  swap2\n  swap1\n  tag_15\n  jump\t// in\ntag_14:\n  pop\n  swap1\n  jump\t// out\ntag_15:\ntag_16:\n  dup1\n  dup3\n  gt\n  iszero\n  tag_17\n  jumpi\n  0x00\n  dup2\n  0x00\n  swap1\n  sstore\n  pop\n  0x01\n  add\n  jump(tag_16)\ntag_17:\n  pop\n  swap1\n  jump\t// out\n    /* \"#utility.yul\":7:327   */\ntag_8:\n    /* \"#utility.yul\":51:57   */\n  0x00\n    /* \"#utility.yul\":88:89   */\n  0x02\n    /* \"#utility.yul\":82:86   */\n  dup3\n    /* \"#utility.yul\":78:90   */\n  div\n    /* \"#utility.yul\":68:90   */\n  swap1\n  pop\n    /* \"#utility.yul\":135:136   */\n  0x01\n    /* \"#utility.yul\":129:133   */\n  dup3\n    /* \"#utility.yul\":125:137   */\n  and\n    /* \"#utility.yul\":156:174   */\n  dup1\n    /* \"#utility.yul\":146:227   */\n  tag_20\n  jumpi\n    /* \"#utility.yul\":212:216   */\n  0x7f\n    /* \"#utility.yul\":204:210   */\n  dup3\n    /* \"#utility.yul\":200:217   */\n  and\n    /* \"#utility.yul\":190:217   */\n  swap2\n  pop\n    /* \"#utility.yul\":146:227   */\ntag_20:\n    /* \"#utility.yul\":274:276   */\n  0x20\n    /* \"#utility.yul\":266:272   */\n  dup3\n    /* \"#utility.yul\":263:277   */\n  lt\n    /* \"#utility.yul\":243:261   */\n  dup2\n    /* \"#utility.yul\":240:278   */\n  eq\n    /* \"#utility.yul\":237:321   */\n  iszero\n  tag_21\n  jumpi\n    /* \"#utility.yul\":293:311   */\n  tag_22\n  tag_23\n  jump\t// in\ntag_22:\n    /* \"#utility.yul\":237:321   */\ntag_21:\n    /* \"#utility.yul\":58:327   */\n  pop\n    /* \"#utility.yul\":7:327   */\n  swap2\n  swap1\n  pop\n  jump\t// out\n    /* \"#utility.yul\":333:513   */\ntag_23:\n    /* \"#utility.yul\":381:458   */\n  0x4e487b7100000000000000000000000000000000000000000000000000000000\n    /* \"#utility.yul\":378:379   */\n  0x00\n    /* \"#utility.yul\":371:459   */\n  mstore\n    /* \"#utility.yul\":478:482   */\n  0x22\n    /* \"#utility.yul\":475:476   */\n  0x04\n    /* \"#utility.yul\":468:483   */\n  mstore\n    /* \"#utility.yul\":502:506   */\n  0x24\n    /* \"#utility.yul\":499:500   */\n  0x00\n    /* \"#utility.yul\":492:507   */\n  revert\n    /* \"contracts/stringstipo.sol\":58:296  contract Stringstipo{\r... */\ntag_6:\n  dataSize(sub_0)\n  dup1\n  dataOffset(sub_0)\n  0x00\n  codecopy\n  0x00\n  return\nstop\n\nsub_0: assembly {\n        /* \"contracts/stringstipo.sol\":58:296  contract Stringstipo{\r... */\n      mstore(0x40, 0x80)\n      callvalue\n      dup1\n      iszero\n      tag_1\n      jumpi\n      0x00\n      dup1\n      revert\n    tag_1:\n      pop\n      jumpi(tag_2, lt(calldatasize, 0x04))\n      shr(0xe0, calldataload(0x00))\n      dup1\n      0x8acc4b8d\n      eq\n      tag_3\n      jumpi\n      dup1\n      0xf584b23a\n      eq\n      tag_4\n      jumpi\n    tag_2:\n      0x00\n      dup1\n      revert\n        /* \"contracts/stringstipo.sol\":199:293  function getWords(string memory _ola1,string memory _ola2, string memory _ola3)public{\r... */\n    tag_3:\n      tag_5\n      0x04\n      dup1\n      calldatasize\n      sub\n      dup2\n      add\n      swap1\n      tag_6\n      swap2\n      swap1\n      tag_7\n      jump\t// in\n    tag_6:\n      tag_8\n      jump\t// in\n    tag_5:\n      stop\n        /* \"contracts/stringstipo.sol\":84:112  string public ola = \" hello\" */\n    tag_4:\n      tag_9\n      tag_10\n      jump\t// in\n    tag_9:\n      mload(0x40)\n      tag_11\n      swap2\n      swap1\n      tag_12\n      jump\t// in\n    tag_11:\n      mload(0x40)\n      dup1\n      swap2\n      sub\n      swap1\n      return\n        /* \"contracts/stringstipo.sol\":199:293  function getWords(string memory _ola1,string memory _ola2, string memory _ola3)public{\r... */\n    tag_8:\n      pop\n      pop\n      pop\n      jump\t// out\n        /* \"contracts/stringstipo.sol\":84:112  string public ola = \" hello\" */\n    tag_10:\n      0x00\n      dup1\n      sload\n      tag_14\n      swap1\n      tag_15\n      jump\t// in\n    tag_14:\n      dup1\n      0x1f\n      add\n      0x20\n      dup1\n      swap2\n      div\n      mul\n      0x20\n      add\n      mload(0x40)\n      swap1\n      dup2\n      add\n      0x40\n      mstore\n      dup1\n      swap3\n      swap2\n      swap1\n      dup2\n      dup2\n      mstore\n      0x20\n      add\n      dup3\n      dup1\n      sload\n      tag_16\n      swap1\n      tag_15\n      jump\t// in\n    tag_16:\n      dup1\n      iszero\n      tag_17\n      jumpi\n      dup1\n      0x1f\n      lt\n      tag_18\n      jumpi\n      0x0100\n      dup1\n      dup4\n      sload\n      div\n      mul\n      dup4\n      mstore\n      swap2\n      0x20\n      add\n      swap2\n      jump(tag_17)\n    tag_18:\n      dup3\n      add\n      swap2\n      swap1\n      0x00\n      mstore\n      keccak256(0x00, 0x20)\n      swap1\n    tag_19:\n      dup2\n      sload\n      dup2\n      mstore\n      swap1\n      0x01\n      add\n      swap1\n      0x20\n      add\n      dup1\n      dup4\n      gt\n      tag_19\n      jumpi\n      dup3\n      swap1\n      sub\n      0x1f\n      and\n      dup3\n      add\n      swap2\n    tag_17:\n      pop\n      pop\n      pop\n      pop\n      pop\n      dup2\n      jump\t// out\n        /* \"#utility.yul\":7:419   */\n    tag_21:\n        /* \"#utility.yul\":85:90   */\n      0x00\n        /* \"#utility.yul\":110:176   */\n      tag_23\n        /* \"#utility.yul\":126:175   */\n      tag_24\n        /* \"#utility.yul\":168:174   */\n      dup5\n        /* \"#utility.yul\":126:175   */\n      tag_25\n      jump\t// in\n    tag_24:\n        /* \"#utility.yul\":110:176   */\n      tag_26\n      jump\t// in\n    tag_23:\n        /* \"#utility.yul\":101:176   */\n      swap1\n      pop\n        /* \"#utility.yul\":199:205   */\n      dup3\n        /* \"#utility.yul\":192:197   */\n      dup2\n        /* \"#utility.yul\":185:206   */\n      mstore\n        /* \"#utility.yul\":237:241   */\n      0x20\n        /* \"#utility.yul\":230:235   */\n      dup2\n        /* \"#utility.yul\":226:242   */\n      add\n        /* \"#utility.yul\":275:278   */\n      dup5\n        /* \"#utility.yul\":266:272   */\n      dup5\n        /* \"#utility.yul\":261:264   */\n      dup5\n        /* \"#utility.yul\":257:273   */\n      add\n        /* \"#utility.yul\":254:279   */\n      gt\n        /* \"#utility.yul\":251:363   */\n      iszero\n      tag_27\n      jumpi\n        /* \"#utility.yul\":282:361   */\n      tag_28\n      tag_29\n      jump\t// in\n    tag_28:\n        /* \"#utility.yul\":251:363   */\n    tag_27:\n        /* \"#utility.yul\":372:413   */\n      tag_30\n        /* \"#utility.yul\":406:412   */\n      dup5\n        /* \"#utility.yul\":401:404   */\n      dup3\n        /* \"#utility.yul\":396:399   */\n      dup6\n        /* \"#utility.yul\":372:413   */\n      tag_31\n      jump\t// in\n    tag_30:\n        /* \"#utility.yul\":91:419   */\n      pop\n        /* \"#utility.yul\":7:419   */\n      swap4\n      swap3\n      pop\n      pop\n      pop\n      jump\t// out\n        /* \"#utility.yul\":439:779   */\n    tag_32:\n        /* \"#utility.yul\":495:500   */\n      0x00\n        /* \"#utility.yul\":544:547   */\n      dup3\n        /* \"#utility.yul\":537:541   */\n      0x1f\n        /* \"#utility.yul\":529:535   */\n      dup4\n        /* \"#utility.yul\":525:542   */\n      add\n        /* \"#utility.yul\":521:548   */\n      slt\n        /* \"#utility.yul\":511:633   */\n      tag_34\n      jumpi\n        /* \"#utility.yul\":552:631   */\n      tag_35\n      tag_36\n      jump\t// in\n    tag_35:\n        /* \"#utility.yul\":511:633   */\n    tag_34:\n        /* \"#utility.yul\":669:675   */\n      dup2\n        /* \"#utility.yul\":656:676   */\n      calldataload\n        /* \"#utility.yul\":694:773   */\n      tag_37\n        /* \"#utility.yul\":769:772   */\n      dup5\n        /* \"#utility.yul\":761:767   */\n      dup3\n        /* \"#utility.yul\":754:758   */\n      0x20\n        /* \"#utility.yul\":746:752   */\n      dup7\n        /* \"#utility.yul\":742:759   */\n      add\n        /* \"#utility.yul\":694:773   */\n      tag_21\n      jump\t// in\n    tag_37:\n        /* \"#utility.yul\":685:773   */\n      swap2\n      pop\n        /* \"#utility.yul\":501:779   */\n      pop\n        /* \"#utility.yul\":439:779   */\n      swap3\n      swap2\n      pop\n      pop\n      jump\t// out\n        /* \"#utility.yul\":785:1944   */\n    tag_7:\n        /* \"#utility.yul\":892:898   */\n      0x00\n        /* \"#utility.yul\":900:906   */\n      dup1\n        /* \"#utility.yul\":908:914   */\n      0x00\n        /* \"#utility.yul\":957:959   */\n      0x60\n        /* \"#utility.yul\":945:954   */\n      dup5\n        /* \"#utility.yul\":936:943   */\n      dup7\n        /* \"#utility.yul\":932:955   */\n      sub\n        /* \"#utility.yul\":928:960   */\n      slt\n        /* \"#utility.yul\":925:1044   */\n      iszero\n      tag_39\n      jumpi\n        /* \"#utility.yul\":963:1042   */\n      tag_40\n      tag_41\n      jump\t// in\n    tag_40:\n        /* \"#utility.yul\":925:1044   */\n    tag_39:\n        /* \"#utility.yul\":1111:1112   */\n      0x00\n        /* \"#utility.yul\":1100:1109   */\n      dup5\n        /* \"#utility.yul\":1096:1113   */\n      add\n        /* \"#utility.yul\":1083:1114   */\n      calldataload\n        /* \"#utility.yul\":1141:1159   */\n      0xffffffffffffffff\n        /* \"#utility.yul\":1133:1139   */\n      dup2\n        /* \"#utility.yul\":1130:1160   */\n      gt\n        /* \"#utility.yul\":1127:1244   */\n      iszero\n      tag_42\n      jumpi\n        /* \"#utility.yul\":1163:1242   */\n      tag_43\n      tag_44\n      jump\t// in\n    tag_43:\n        /* \"#utility.yul\":1127:1244   */\n    tag_42:\n        /* \"#utility.yul\":1268:1331   */\n      tag_45\n        /* \"#utility.yul\":1323:1330   */\n      dup7\n        /* \"#utility.yul\":1314:1320   */\n      dup3\n        /* \"#utility.yul\":1303:1312   */\n      dup8\n        /* \"#utility.yul\":1299:1321   */\n      add\n        /* \"#utility.yul\":1268:1331   */\n      tag_32\n      jump\t// in\n    tag_45:\n        /* \"#utility.yul\":1258:1331   */\n      swap4\n      pop\n        /* \"#utility.yul\":1054:1341   */\n      pop\n        /* \"#utility.yul\":1408:1410   */\n      0x20\n        /* \"#utility.yul\":1397:1406   */\n      dup5\n        /* \"#utility.yul\":1393:1411   */\n      add\n        /* \"#utility.yul\":1380:1412   */\n      calldataload\n        /* \"#utility.yul\":1439:1457   */\n      0xffffffffffffffff\n        /* \"#utility.yul\":1431:1437   */\n      dup2\n        /* \"#utility.yul\":1428:1458   */\n      gt\n        /* \"#utility.yul\":1425:1542   */\n      iszero\n      tag_46\n      jumpi\n        /* \"#utility.yul\":1461:1540   */\n      tag_47\n      tag_44\n      jump\t// in\n    tag_47:\n        /* \"#utility.yul\":1425:1542   */\n    tag_46:\n        /* \"#utility.yul\":1566:1629   */\n      tag_48\n        /* \"#utility.yul\":1621:1628   */\n      dup7\n        /* \"#utility.yul\":1612:1618   */\n      dup3\n        /* \"#utility.yul\":1601:1610   */\n      dup8\n        /* \"#utility.yul\":1597:1619   */\n      add\n        /* \"#utility.yul\":1566:1629   */\n      tag_32\n      jump\t// in\n    tag_48:\n        /* \"#utility.yul\":1556:1629   */\n      swap3\n      pop\n        /* \"#utility.yul\":1351:1639   */\n      pop\n        /* \"#utility.yul\":1706:1708   */\n      0x40\n        /* \"#utility.yul\":1695:1704   */\n      dup5\n        /* \"#utility.yul\":1691:1709   */\n      add\n        /* \"#utility.yul\":1678:1710   */\n      calldataload\n        /* \"#utility.yul\":1737:1755   */\n      0xffffffffffffffff\n        /* \"#utility.yul\":1729:1735   */\n      dup2\n        /* \"#utility.yul\":1726:1756   */\n      gt\n        /* \"#utility.yul\":1723:1840   */\n      iszero\n      tag_49\n      jumpi\n        /* \"#utility.yul\":1759:1838   */\n      tag_50\n      tag_44\n      jump\t// in\n    tag_50:\n        /* \"#utility.yul\":1723:1840   */\n    tag_49:\n        /* \"#utility.yul\":1864:1927   */\n      tag_51\n        /* \"#utility.yul\":1919:1926   */\n      dup7\n        /* \"#utility.yul\":1910:1916   */\n      dup3\n        /* \"#utility.yul\":1899:1908   */\n      dup8\n        /* \"#utility.yul\":1895:1917   */\n      add\n        /* \"#utility.yul\":1864:1927   */\n      tag_32\n      jump\t// in\n    tag_51:\n        /* \"#utility.yul\":1854:1927   */\n      swap2\n      pop\n        /* \"#utility.yul\":1649:1937   */\n      pop\n        /* \"#utility.yul\":785:1944   */\n      swap3\n      pop\n      swap3\n      pop\n      swap3\n      jump\t// out\n        /* \"#utility.yul\":1950:2314   */\n    tag_52:\n        /* \"#utility.yul\":2038:2041   */\n      0x00\n        /* \"#utility.yul\":2066:2105   */\n      tag_54\n        /* \"#utility.yul\":2099:2104   */\n      dup3\n        /* \"#utility.yul\":2066:2105   */\n      tag_55\n      jump\t// in\n    tag_54:\n        /* \"#utility.yul\":2121:2192   */\n      tag_56\n        /* \"#utility.yul\":2185:2191   */\n      dup2\n        /* \"#utility.yul\":2180:2183   */\n      dup6\n        /* \"#utility.yul\":2121:2192   */\n      tag_57\n      jump\t// in\n    tag_56:\n        /* \"#utility.yul\":2114:2192   */\n      swap4\n      pop\n        /* \"#utility.yul\":2201:2253   */\n      tag_58\n        /* \"#utility.yul\":2246:2252   */\n      dup2\n        /* \"#utility.yul\":2241:2244   */\n      dup6\n        /* \"#utility.yul\":2234:2238   */\n      0x20\n        /* \"#utility.yul\":2227:2232   */\n      dup7\n        /* \"#utility.yul\":2223:2239   */\n      add\n        /* \"#utility.yul\":2201:2253   */\n      tag_59\n      jump\t// in\n    tag_58:\n        /* \"#utility.yul\":2278:2307   */\n      tag_60\n        /* \"#utility.yul\":2300:2306   */\n      dup2\n        /* \"#utility.yul\":2278:2307   */\n      tag_61\n      jump\t// in\n    tag_60:\n        /* \"#utility.yul\":2273:2276   */\n      dup5\n        /* \"#utility.yul\":2269:2308   */\n      add\n        /* \"#utility.yul\":2262:2308   */\n      swap2\n      pop\n        /* \"#utility.yul\":2042:2314   */\n      pop\n        /* \"#utility.yul\":1950:2314   */\n      swap3\n      swap2\n      pop\n      pop\n      jump\t// out\n        /* \"#utility.yul\":2320:2633   */\n    tag_12:\n        /* \"#utility.yul\":2433:2437   */\n      0x00\n        /* \"#utility.yul\":2471:2473   */\n      0x20\n        /* \"#utility.yul\":2460:2469   */\n      dup3\n        /* \"#utility.yul\":2456:2474   */\n      add\n        /* \"#utility.yul\":2448:2474   */\n      swap1\n      pop\n        /* \"#utility.yul\":2520:2529   */\n      dup2\n        /* \"#utility.yul\":2514:2518   */\n      dup2\n        /* \"#utility.yul\":2510:2530   */\n      sub\n        /* \"#utility.yul\":2506:2507   */\n      0x00\n        /* \"#utility.yul\":2495:2504   */\n      dup4\n        /* \"#utility.yul\":2491:2508   */\n      add\n        /* \"#utility.yul\":2484:2531   */\n      mstore\n        /* \"#utility.yul\":2548:2626   */\n      tag_63\n        /* \"#utility.yul\":2621:2625   */\n      dup2\n        /* \"#utility.yul\":2612:2618   */\n      dup5\n        /* \"#utility.yul\":2548:2626   */\n      tag_52\n      jump\t// in\n    tag_63:\n        /* \"#utility.yul\":2540:2626   */\n      swap1\n      pop\n        /* \"#utility.yul\":2320:2633   */\n      swap3\n      swap2\n      pop\n      pop\n      jump\t// out\n        /* \"#utility.yul\":2639:2768   */\n    tag_26:\n        /* \"#utility.yul\":2673:2679   */\n      0x00\n        /* \"#utility.yul\":2700:2720   */\n      tag_65\n      tag_66\n      jump\t// in\n    tag_65:\n        /* \"#utility.yul\":2690:2720   */\n      swap1\n      pop\n        /* \"#utility.yul\":2729:2762   */\n      tag_67\n        /* \"#utility.yul\":2757:2761   */\n      dup3\n        /* \"#utility.yul\":2749:2755   */\n      dup3\n        /* \"#utility.yul\":2729:2762   */\n      tag_68\n      jump\t// in\n    tag_67:\n        /* \"#utility.yul\":2639:2768   */\n      swap2\n      swap1\n      pop\n      jump\t// out\n        /* \"#utility.yul\":2774:2849   */\n    tag_66:\n        /* \"#utility.yul\":2807:2813   */\n      0x00\n        /* \"#utility.yul\":2840:2842   */\n      0x40\n        /* \"#utility.yul\":2834:2843   */\n      mload\n        /* \"#utility.yul\":2824:2843   */\n      swap1\n      pop\n        /* \"#utility.yul\":2774:2849   */\n      swap1\n      jump\t// out\n        /* \"#utility.yul\":2855:3163   */\n    tag_25:\n        /* \"#utility.yul\":2917:2921   */\n      0x00\n        /* \"#utility.yul\":3007:3025   */\n      0xffffffffffffffff\n        /* \"#utility.yul\":2999:3005   */\n      dup3\n        /* \"#utility.yul\":2996:3026   */\n      gt\n        /* \"#utility.yul\":2993:3049   */\n      iszero\n      tag_71\n      jumpi\n        /* \"#utility.yul\":3029:3047   */\n      tag_72\n      tag_73\n      jump\t// in\n    tag_72:\n        /* \"#utility.yul\":2993:3049   */\n    tag_71:\n        /* \"#utility.yul\":3067:3096   */\n      tag_74\n        /* \"#utility.yul\":3089:3095   */\n      dup3\n        /* \"#utility.yul\":3067:3096   */\n      tag_61\n      jump\t// in\n    tag_74:\n        /* \"#utility.yul\":3059:3096   */\n      swap1\n      pop\n        /* \"#utility.yul\":3151:3155   */\n      0x20\n        /* \"#utility.yul\":3145:3149   */\n      dup2\n        /* \"#utility.yul\":3141:3156   */\n      add\n        /* \"#utility.yul\":3133:3156   */\n      swap1\n      pop\n        /* \"#utility.yul\":2855:3163   */\n      swap2\n      swap1\n      pop\n      jump\t// out\n        /* \"#utility.yul\":3169:3268   */\n    tag_55:\n        /* \"#utility.yul\":3221:3227   */\n      0x00\n        /* \"#utility.yul\":3255:3260   */\n      dup2\n        /* \"#utility.yul\":3249:3261   */\n      mload\n        /* \"#utility.yul\":3239:3261   */\n      swap1\n      pop\n        /* \"#utility.yul\":3169:3268   */\n      swap2\n      swap1\n      pop\n      jump\t// out\n        /* \"#utility.yul\":3274:3443   */\n    tag_57:\n        /* \"#utility.yul\":3358:3369   */\n      0x00\n        /* \"#utility.yul\":3392:3398   */\n      dup3\n        /* \"#utility.yul\":3387:3390   */\n      dup3\n        /* \"#utility.yul\":3380:3399   */\n      mstore\n        /* \"#utility.yul\":3432:3436   */\n      0x20\n        /* \"#utility.yul\":3427:3430   */\n      dup3\n        /* \"#utility.yul\":3423:3437   */\n      add\n        /* \"#utility.yul\":3408:3437   */\n      swap1\n      pop\n        /* \"#utility.yul\":3274:3443   */\n      swap3\n      swap2\n      pop\n      pop\n      jump\t// out\n        /* \"#utility.yul\":3449:3603   */\n    tag_31:\n        /* \"#utility.yul\":3533:3539   */\n      dup3\n        /* \"#utility.yul\":3528:3531   */\n      dup2\n        /* \"#utility.yul\":3523:3526   */\n      dup4\n        /* \"#utility.yul\":3510:3540   */\n      calldatacopy\n        /* \"#utility.yul\":3595:3596   */\n      0x00\n        /* \"#utility.yul\":3586:3592   */\n      dup4\n        /* \"#utility.yul\":3581:3584   */\n      dup4\n        /* \"#utility.yul\":3577:3593   */\n      add\n        /* \"#utility.yul\":3570:3597   */\n      mstore\n        /* \"#utility.yul\":3449:3603   */\n      pop\n      pop\n      pop\n      jump\t// out\n        /* \"#utility.yul\":3609:3916   */\n    tag_59:\n        /* \"#utility.yul\":3677:3678   */\n      0x00\n        /* \"#utility.yul\":3687:3800   */\n    tag_79:\n        /* \"#utility.yul\":3701:3707   */\n      dup4\n        /* \"#utility.yul\":3698:3699   */\n      dup2\n        /* \"#utility.yul\":3695:3708   */\n      lt\n        /* \"#utility.yul\":3687:3800   */\n      iszero\n      tag_81\n      jumpi\n        /* \"#utility.yul\":3786:3787   */\n      dup1\n        /* \"#utility.yul\":3781:3784   */\n      dup3\n        /* \"#utility.yul\":3777:3788   */\n      add\n        /* \"#utility.yul\":3771:3789   */\n      mload\n        /* \"#utility.yul\":3767:3768   */\n      dup2\n        /* \"#utility.yul\":3762:3765   */\n      dup5\n        /* \"#utility.yul\":3758:3769   */\n      add\n        /* \"#utility.yul\":3751:3790   */\n      mstore\n        /* \"#utility.yul\":3723:3725   */\n      0x20\n        /* \"#utility.yul\":3720:3721   */\n      dup2\n        /* \"#utility.yul\":3716:3726   */\n      add\n        /* \"#utility.yul\":3711:3726   */\n      swap1\n      pop\n        /* \"#utility.yul\":3687:3800   */\n      jump(tag_79)\n    tag_81:\n        /* \"#utility.yul\":3818:3824   */\n      dup4\n        /* \"#utility.yul\":3815:3816   */\n      dup2\n        /* \"#utility.yul\":3812:3825   */\n      gt\n        /* \"#utility.yul\":3809:3910   */\n      iszero\n      tag_82\n      jumpi\n        /* \"#utility.yul\":3898:3899   */\n      0x00\n        /* \"#utility.yul\":3889:3895   */\n      dup5\n        /* \"#utility.yul\":3884:3887   */\n      dup5\n        /* \"#utility.yul\":3880:3896   */\n      add\n        /* \"#utility.yul\":3873:3900   */\n      mstore\n        /* \"#utility.yul\":3809:3910   */\n    tag_82:\n        /* \"#utility.yul\":3658:3916   */\n      pop\n        /* \"#utility.yul\":3609:3916   */\n      pop\n      pop\n      pop\n      jump\t// out\n        /* \"#utility.yul\":3922:4242   */\n    tag_15:\n        /* \"#utility.yul\":3966:3972   */\n      0x00\n        /* \"#utility.yul\":4003:4004   */\n      0x02\n        /* \"#utility.yul\":3997:4001   */\n      dup3\n        /* \"#utility.yul\":3993:4005   */\n      div\n        /* \"#utility.yul\":3983:4005   */\n      swap1\n      pop\n        /* \"#utility.yul\":4050:4051   */\n      0x01\n        /* \"#utility.yul\":4044:4048   */\n      dup3\n        /* \"#utility.yul\":4040:4052   */\n      and\n        /* \"#utility.yul\":4071:4089   */\n      dup1\n        /* \"#utility.yul\":4061:4142   */\n      tag_84\n      jumpi\n        /* \"#utility.yul\":4127:4131   */\n      0x7f\n        /* \"#utility.yul\":4119:4125   */\n      dup3\n        /* \"#utility.yul\":4115:4132   */\n      and\n        /* \"#utility.yul\":4105:4132   */\n      swap2\n      pop\n        /* \"#utility.yul\":4061:4142   */\n    tag_84:\n        /* \"#utility.yul\":4189:4191   */\n      0x20\n        /* \"#utility.yul\":4181:4187   */\n      dup3\n        /* \"#utility.yul\":4178:4192   */\n      lt\n        /* \"#utility.yul\":4158:4176   */\n      dup2\n        /* \"#utility.yul\":4155:4193   */\n      eq\n        /* \"#utility.yul\":4152:4236   */\n      iszero\n      tag_85\n      jumpi\n        /* \"#utility.yul\":4208:4226   */\n      tag_86\n      tag_87\n      jump\t// in\n    tag_86:\n        /* \"#utility.yul\":4152:4236   */\n    tag_85:\n        /* \"#utility.yul\":3973:4242   */\n      pop\n        /* \"#utility.yul\":3922:4242   */\n      swap2\n      swap1\n      pop\n      jump\t// out\n        /* \"#utility.yul\":4248:4529   */\n    tag_68:\n        /* \"#utility.yul\":4331:4358   */\n      tag_89\n        /* \"#utility.yul\":4353:4357   */\n      dup3\n        /* \"#utility.yul\":4331:4358   */\n      tag_61\n      jump\t// in\n    tag_89:\n        /* \"#utility.yul\":4323:4329   */\n      dup2\n        /* \"#utility.yul\":4319:4359   */\n      add\n        /* \"#utility.yul\":4461:4467   */\n      dup2\n        /* \"#utility.yul\":4449:4459   */\n      dup2\n        /* \"#utility.yul\":4446:4468   */\n      lt\n        /* \"#utility.yul\":4425:4443   */\n      0xffffffffffffffff\n        /* \"#utility.yul\":4413:4423   */\n      dup3\n        /* \"#utility.yul\":4410:4444   */\n      gt\n        /* \"#utility.yul\":4407:4469   */\n      or\n        /* \"#utility.yul\":4404:4492   */\n      iszero\n      tag_90\n      jumpi\n        /* \"#utility.yul\":4472:4490   */\n      tag_91\n      tag_73\n      jump\t// in\n    tag_91:\n        /* \"#utility.yul\":4404:4492   */\n    tag_90:\n        /* \"#utility.yul\":4512:4522   */\n      dup1\n        /* \"#utility.yul\":4508:4510   */\n      0x40\n        /* \"#utility.yul\":4501:4523   */\n      mstore\n        /* \"#utility.yul\":4291:4529   */\n      pop\n        /* \"#utility.yul\":4248:4529   */\n      pop\n      pop\n      jump\t// out\n        /* \"#utility.yul\":4535:4715   */\n    tag_87:\n        /* \"#utility.yul\":4583:4660   */\n      0x4e487b7100000000000000000000000000000000000000000000000000000000\n        /* \"#utility.yul\":4580:4581   */\n      0x00\n        /* \"#utility.yul\":4573:4661   */\n      mstore\n        /* \"#utility.yul\":4680:4684   */\n      0x22\n        /* \"#utility.yul\":4677:4678   */\n      0x04\n        /* \"#utility.yul\":4670:4685   */\n      mstore\n        /* \"#utility.yul\":4704:4708   */\n      0x24\n        /* \"#utility.yul\":4701:4702   */\n      0x00\n        /* \"#utility.yul\":4694:4709   */\n      revert\n        /* \"#utility.yul\":4721:4901   */\n    tag_73:\n        /* \"#utility.yul\":4769:4846   */\n      0x4e487b7100000000000000000000000000000000000000000000000000000000\n        /* \"#utility.yul\":4766:4767   */\n      0x00\n        /* \"#utility.yul\":4759:4847   */\n      mstore\n        /* \"#utility.yul\":4866:4870   */\n      0x41\n        /* \"#utility.yul\":4863:4864   */\n      0x04\n        /* \"#utility.yul\":4856:4871   */\n      mstore\n        /* \"#utility.yul\":4890:4894   */\n      0x24\n        /* \"#utility.yul\":4887:4888   */\n      0x00\n        /* \"#utility.yul\":4880:4895   */\n      revert\n        /* \"#utility.yul\":4907:5024   */\n    tag_36:\n        /* \"#utility.yul\":5016:5017   */\n      0x00\n        /* \"#utility.yul\":5013:5014   */\n      dup1\n        /* \"#utility.yul\":5006:5018   */\n      revert\n        /* \"#utility.yul\":5030:5147   */\n    tag_29:\n        /* \"#utility.yul\":5139:5140   */\n      0x00\n        /* \"#utility.yul\":5136:5137   */\n      dup1\n        /* \"#utility.yul\":5129:5141   */\n      revert\n        /* \"#utility.yul\":5153:5270   */\n    tag_44:\n        /* \"#utility.yul\":5262:5263   */\n      0x00\n        /* \"#utility.yul\":5259:5260   */\n      dup1\n        /* \"#utility.yul\":5252:5264   */\n      revert\n        /* \"#utility.yul\":5276:5393   */\n    tag_41:\n        /* \"#utility.yul\":5385:5386   */\n      0x00\n        /* \"#utility.yul\":5382:5383   */\n      dup1\n        /* \"#utility.yul\":5375:5387   */\n      revert\n        /* \"#utility.yul\":5399:5501   */\n    tag_61:\n        /* \"#utility.yul\":5440:5446   */\n      0x00\n        /* \"#utility.yul\":5491:5493   */\n      0x1f\n        /* \"#utility.yul\":5487:5494   */\n      not\n        /* \"#utility.yul\":5482:5484   */\n      0x1f\n        /* \"#utility.yul\":5475:5480   */\n      dup4\n        /* \"#utility.yul\":5471:5485   */\n      add\n        /* \"#utility.yul\":5467:5495   */\n      and\n        /* \"#utility.yul\":5457:5495   */\n      swap1\n      pop\n        /* \"#utility.yul\":5399:5501   */\n      swap2\n      swap1\n      pop\n      jump\t// out\n\n    auxdata: 0xa2646970667358221220b5a1385eaaeb6fa529f70cb700961e90503fd28a3fbe8d357b34b39db4c3ff9a64736f6c63430008070033\n}\n",
				"bytecode": {
					"linkReferences": {},
					"object": "60806040526040518060400160405280600681526020017f2068656c6c6f00000000000000000000000000000000000000000000000000008152506000908051906020019061004f9291906100fa565b506040518060400160405280600581526020017f48656c6c6f0000000000000000000000000000000000000000000000000000008152506001908051906020019061009b9291906100fa565b506040518060400160405280600b81526020017f696e736964652073616665000000000000000000000000000000000000000000815250600290805190602001906100e79291906100fa565b503480156100f457600080fd5b506101fe565b8280546101069061019d565b90600052602060002090601f016020900481019282610128576000855561016f565b82601f1061014157805160ff191683800117855561016f565b8280016001018555821561016f579182015b8281111561016e578251825591602001919060010190610153565b5b50905061017c9190610180565b5090565b5b80821115610199576000816000905550600101610181565b5090565b600060028204905060018216806101b557607f821691505b602082108114156101c9576101c86101cf565b5b50919050565b7f4e487b7100000000000000000000000000000000000000000000000000000000600052602260045260246000fd5b61044a8061020d6000396000f3fe608060405234801561001057600080fd5b50600436106100365760003560e01c80638acc4b8d1461003b578063f584b23a14610057575b600080fd5b61005560048036038101906100509190610178565b610075565b005b61005f61007a565b60405161006c9190610258565b60405180910390f35b505050565b600080546100879061032e565b80601f01602080910402602001604051908101604052809291908181526020018280546100b39061032e565b80156101005780601f106100d557610100808354040283529160200191610100565b820191906000526020600020905b8154815290600101906020018083116100e357829003601f168201915b505050505081565b600061011b6101168461029f565b61027a565b905082815260208101848484011115610137576101366103f4565b5b6101428482856102ec565b509392505050565b600082601f83011261015f5761015e6103ef565b5b813561016f848260208601610108565b91505092915050565b600080600060608486031215610191576101906103fe565b5b600084013567ffffffffffffffff8111156101af576101ae6103f9565b5b6101bb8682870161014a565b935050602084013567ffffffffffffffff8111156101dc576101db6103f9565b5b6101e88682870161014a565b925050604084013567ffffffffffffffff811115610209576102086103f9565b5b6102158682870161014a565b9150509250925092565b600061022a826102d0565b61023481856102db565b93506102448185602086016102fb565b61024d81610403565b840191505092915050565b60006020820190508181036000830152610272818461021f565b905092915050565b6000610284610295565b90506102908282610360565b919050565b6000604051905090565b600067ffffffffffffffff8211156102ba576102b96103c0565b5b6102c382610403565b9050602081019050919050565b600081519050919050565b600082825260208201905092915050565b82818337600083830152505050565b60005b838110156103195780820151818401526020810190506102fe565b83811115610328576000848401525b50505050565b6000600282049050600182168061034657607f821691505b6020821081141561035a57610359610391565b5b50919050565b61036982610403565b810181811067ffffffffffffffff82111715610388576103876103c0565b5b80604052505050565b7f4e487b7100000000000000000000000000000000000000000000000000000000600052602260045260246000fd5b7f4e487b7100000000000000000000000000000000000000000000000000000000600052604160045260246000fd5b600080fd5b600080fd5b600080fd5b600080fd5b6000601f19601f830116905091905056fea2646970667358221220b5a1385eaaeb6fa529f70cb700961e90503fd28a3fbe8d357b34b39db4c3ff9a64736f6c63430008070033",
					"opcodes": "PUSH1 0x80 PUSH1 0x40 MSTORE PUSH1 0x40 MLOAD DUP1 PUSH1 0x40 ADD PUSH1 0x40 MSTORE DUP1 PUSH1 0x6 DUP2 MSTORE PUSH1 0x20 ADD PUSH32 0x2068656C6C6F0000000000000000000000000000000000000000000000000000 DUP2 MSTORE POP PUSH1 0x0 SWAP1 DUP1 MLOAD SWAP1 PUSH1 0x20 ADD SWAP1 PUSH2 0x4F SWAP3 SWAP2 SWAP1 PUSH2 0xFA JUMP JUMPDEST POP PUSH1 0x40 MLOAD DUP1 PUSH1 0x40 ADD PUSH1 0x40 MSTORE DUP1 PUSH1 0x5 DUP2 MSTORE PUSH1 0x20 ADD PUSH32 0x48656C6C6F000000000000000000000000000000000000000000000000000000 DUP2 MSTORE POP PUSH1 0x1 SWAP1 DUP1 MLOAD SWAP1 PUSH1 0x20 ADD SWAP1 PUSH2 0x9B SWAP3 SWAP2 SWAP1 PUSH2 0xFA JUMP JUMPDEST POP PUSH1 0x40 MLOAD DUP1 PUSH1 0x40 ADD PUSH1 0x40 MSTORE DUP1 PUSH1 0xB DUP2 MSTORE PUSH1 0x20 ADD PUSH32 0x696E736964652073616665000000000000000000000000000000000000000000 DUP2 MSTORE POP PUSH1 0x2 SWAP1 DUP1 MLOAD SWAP1 PUSH1 0x20 ADD SWAP1 PUSH2 0xE7 SWAP3 SWAP2 SWAP1 PUSH2 0xFA JUMP JUMPDEST POP CALLVALUE DUP1 ISZERO PUSH2 0xF4 JUMPI PUSH1 0x0 DUP1 REVERT JUMPDEST POP PUSH2 0x1FE JUMP JUMPDEST DUP3 DUP1 SLOAD PUSH2 0x106 SWAP1 PUSH2 0x19D JUMP JUMPDEST SWAP1 PUSH1 0x0 MSTORE PUSH1 0x20 PUSH1 0x0 KECCAK256 SWAP1 PUSH1 0x1F ADD PUSH1 0x20 SWAP1 DIV DUP2 ADD SWAP3 DUP3 PUSH2 0x128 JUMPI PUSH1 0x0 DUP6 SSTORE PUSH2 0x16F JUMP JUMPDEST DUP3 PUSH1 0x1F LT PUSH2 0x141 JUMPI DUP1 MLOAD PUSH1 0xFF NOT AND DUP4 DUP1 ADD OR DUP6 SSTORE PUSH2 0x16F JUMP JUMPDEST DUP3 DUP1 ADD PUSH1 0x1 ADD DUP6 SSTORE DUP3 ISZERO PUSH2 0x16F JUMPI SWAP2 DUP3 ADD JUMPDEST DUP3 DUP2 GT ISZERO PUSH2 0x16E JUMPI DUP3 MLOAD DUP3 SSTORE SWAP2 PUSH1 0x20 ADD SWAP2 SWAP1 PUSH1 0x1 ADD SWAP1 PUSH2 0x153 JUMP JUMPDEST JUMPDEST POP SWAP1 POP PUSH2 0x17C SWAP2 SWAP1 PUSH2 0x180 JUMP JUMPDEST POP SWAP1 JUMP JUMPDEST JUMPDEST DUP1 DUP3 GT ISZERO PUSH2 0x199 JUMPI PUSH1 0x0 DUP2 PUSH1 0x0 SWAP1 SSTORE POP PUSH1 0x1 ADD PUSH2 0x181 JUMP JUMPDEST POP SWAP1 JUMP JUMPDEST PUSH1 0x0 PUSH1 0x2 DUP3 DIV SWAP1 POP PUSH1 0x1 DUP3 AND DUP1 PUSH2 0x1B5 JUMPI PUSH1 0x7F DUP3 AND SWAP2 POP JUMPDEST PUSH1 0x20 DUP3 LT DUP2 EQ ISZERO PUSH2 0x1C9 JUMPI PUSH2 0x1C8 PUSH2 0x1CF JUMP JUMPDEST JUMPDEST POP SWAP2 SWAP1 POP JUMP JUMPDEST PUSH32 0x4E487B7100000000000000000000000000000000000000000000000000000000 PUSH1 0x0 MSTORE PUSH1 0x22 PUSH1 0x4 MSTORE PUSH1 0x24 PUSH1 0x0 REVERT JUMPDEST PUSH2 0x44A DUP1 PUSH2 0x20D PUSH1 0x0 CODECOPY PUSH1 0x0 RETURN INVALID PUSH1 0x80 PUSH1 0x40 MSTORE CALLVALUE DUP1 ISZERO PUSH2 0x10 JUMPI PUSH1 0x0 DUP1 REVERT JUMPDEST POP PUSH1 0x4 CALLDATASIZE LT PUSH2 0x36 JUMPI PUSH1 0x0 CALLDATALOAD PUSH1 0xE0 SHR DUP1 PUSH4 0x8ACC4B8D EQ PUSH2 0x3B JUMPI DUP1 PUSH4 0xF584B23A EQ PUSH2 0x57 JUMPI JUMPDEST PUSH1 0x0 DUP1 REVERT JUMPDEST PUSH2 0x55 PUSH1 0x4 DUP1 CALLDATASIZE SUB DUP2 ADD SWAP1 PUSH2 0x50 SWAP2 SWAP1 PUSH2 0x178 JUMP JUMPDEST PUSH2 0x75 JUMP JUMPDEST STOP JUMPDEST PUSH2 0x5F PUSH2 0x7A JUMP JUMPDEST PUSH1 0x40 MLOAD PUSH2 0x6C SWAP2 SWAP1 PUSH2 0x258 JUMP JUMPDEST PUSH1 0x40 MLOAD DUP1 SWAP2 SUB SWAP1 RETURN JUMPDEST POP POP POP JUMP JUMPDEST PUSH1 0x0 DUP1 SLOAD PUSH2 0x87 SWAP1 PUSH2 0x32E JUMP JUMPDEST DUP1 PUSH1 0x1F ADD PUSH1 0x20 DUP1 SWAP2 DIV MUL PUSH1 0x20 ADD PUSH1 0x40 MLOAD SWAP1 DUP2 ADD PUSH1 0x40 MSTORE DUP1 SWAP3 SWAP2 SWAP1 DUP2 DUP2 MSTORE PUSH1 0x20 ADD DUP3 DUP1 SLOAD PUSH2 0xB3 SWAP1 PUSH2 0x32E JUMP JUMPDEST DUP1 ISZERO PUSH2 0x100 JUMPI DUP1 PUSH1 0x1F LT PUSH2 0xD5 JUMPI PUSH2 0x100 DUP1 DUP4 SLOAD DIV MUL DUP4 MSTORE SWAP2 PUSH1 0x20 ADD SWAP2 PUSH2 0x100 JUMP JUMPDEST DUP3 ADD SWAP2 SWAP1 PUSH1 0x0 MSTORE PUSH1 0x20 PUSH1 0x0 KECCAK256 SWAP1 JUMPDEST DUP2 SLOAD DUP2 MSTORE SWAP1 PUSH1 0x1 ADD SWAP1 PUSH1 0x20 ADD DUP1 DUP4 GT PUSH2 0xE3 JUMPI DUP3 SWAP1 SUB PUSH1 0x1F AND DUP3 ADD SWAP2 JUMPDEST POP POP POP POP POP DUP2 JUMP JUMPDEST PUSH1 0x0 PUSH2 0x11B PUSH2 0x116 DUP5 PUSH2 0x29F JUMP JUMPDEST PUSH2 0x27A JUMP JUMPDEST SWAP1 POP DUP3 DUP2 MSTORE PUSH1 0x20 DUP2 ADD DUP5 DUP5 DUP5 ADD GT ISZERO PUSH2 0x137 JUMPI PUSH2 0x136 PUSH2 0x3F4 JUMP JUMPDEST JUMPDEST PUSH2 0x142 DUP5 DUP3 DUP6 PUSH2 0x2EC JUMP JUMPDEST POP SWAP4 SWAP3 POP POP POP JUMP JUMPDEST PUSH1 0x0 DUP3 PUSH1 0x1F DUP4 ADD SLT PUSH2 0x15F JUMPI PUSH2 0x15E PUSH2 0x3EF JUMP JUMPDEST JUMPDEST DUP2 CALLDATALOAD PUSH2 0x16F DUP5 DUP3 PUSH1 0x20 DUP7 ADD PUSH2 0x108 JUMP JUMPDEST SWAP2 POP POP SWAP3 SWAP2 POP POP JUMP JUMPDEST PUSH1 0x0 DUP1 PUSH1 0x0 PUSH1 0x60 DUP5 DUP7 SUB SLT ISZERO PUSH2 0x191 JUMPI PUSH2 0x190 PUSH2 0x3FE JUMP JUMPDEST JUMPDEST PUSH1 0x0 DUP5 ADD CALLDATALOAD PUSH8 0xFFFFFFFFFFFFFFFF DUP2 GT ISZERO PUSH2 0x1AF JUMPI PUSH2 0x1AE PUSH2 0x3F9 JUMP JUMPDEST JUMPDEST PUSH2 0x1BB DUP7 DUP3 DUP8 ADD PUSH2 0x14A JUMP JUMPDEST SWAP4 POP POP PUSH1 0x20 DUP5 ADD CALLDATALOAD PUSH8 0xFFFFFFFFFFFFFFFF DUP2 GT ISZERO PUSH2 0x1DC JUMPI PUSH2 0x1DB PUSH2 0x3F9 JUMP JUMPDEST JUMPDEST PUSH2 0x1E8 DUP7 DUP3 DUP8 ADD PUSH2 0x14A JUMP JUMPDEST SWAP3 POP POP PUSH1 0x40 DUP5 ADD CALLDATALOAD PUSH8 0xFFFFFFFFFFFFFFFF DUP2 GT ISZERO PUSH2 0x209 JUMPI PUSH2 0x208 PUSH2 0x3F9 JUMP JUMPDEST JUMPDEST PUSH2 0x215 DUP7 DUP3 DUP8 ADD PUSH2 0x14A JUMP JUMPDEST SWAP2 POP POP SWAP3 POP SWAP3 POP SWAP3 JUMP JUMPDEST PUSH1 0x0 PUSH2 0x22A DUP3 PUSH2 0x2D0 JUMP JUMPDEST PUSH2 0x234 DUP2 DUP6 PUSH2 0x2DB JUMP JUMPDEST SWAP4 POP PUSH2 0x244 DUP2 DUP6 PUSH1 0x20 DUP7 ADD PUSH2 0x2FB JUMP JUMPDEST PUSH2 0x24D DUP2 PUSH2 0x403 JUMP JUMPDEST DUP5 ADD SWAP2 POP POP SWAP3 SWAP2 POP POP JUMP JUMPDEST PUSH1 0x0 PUSH1 0x20 DUP3 ADD SWAP1 POP DUP2 DUP2 SUB PUSH1 0x0 DUP4 ADD MSTORE PUSH2 0x272 DUP2 DUP5 PUSH2 0x21F JUMP JUMPDEST SWAP1 POP SWAP3 SWAP2 POP POP JUMP JUMPDEST PUSH1 0x0 PUSH2 0x284 PUSH2 0x295 JUMP JUMPDEST SWAP1 POP PUSH2 0x290 DUP3 DUP3 PUSH2 0x360 JUMP JUMPDEST SWAP2 SWAP1 POP JUMP JUMPDEST PUSH1 0x0 PUSH1 0x40 MLOAD SWAP1 POP SWAP1 JUMP JUMPDEST PUSH1 0x0 PUSH8 0xFFFFFFFFFFFFFFFF DUP3 GT ISZERO PUSH2 0x2BA JUMPI PUSH2 0x2B9 PUSH2 0x3C0 JUMP JUMPDEST JUMPDEST PUSH2 0x2C3 DUP3 PUSH2 0x403 JUMP JUMPDEST SWAP1 POP PUSH1 0x20 DUP2 ADD SWAP1 POP SWAP2 SWAP1 POP JUMP JUMPDEST PUSH1 0x0 DUP2 MLOAD SWAP1 POP SWAP2 SWAP1 POP JUMP JUMPDEST PUSH1 0x0 DUP3 DUP3 MSTORE PUSH1 0x20 DUP3 ADD SWAP1 POP SWAP3 SWAP2 POP POP JUMP JUMPDEST DUP3 DUP2 DUP4 CALLDATACOPY PUSH1 0x0 DUP4 DUP4 ADD MSTORE POP POP POP JUMP JUMPDEST PUSH1 0x0 JUMPDEST DUP4 DUP2 LT ISZERO PUSH2 0x319 JUMPI DUP1 DUP3 ADD MLOAD DUP2 DUP5 ADD MSTORE PUSH1 0x20 DUP2 ADD SWAP1 POP PUSH2 0x2FE JUMP JUMPDEST DUP4 DUP2 GT ISZERO PUSH2 0x328 JUMPI PUSH1 0x0 DUP5 DUP5 ADD MSTORE JUMPDEST POP POP POP POP JUMP JUMPDEST PUSH1 0x0 PUSH1 0x2 DUP3 DIV SWAP1 POP PUSH1 0x1 DUP3 AND DUP1 PUSH2 0x346 JUMPI PUSH1 0x7F DUP3 AND SWAP2 POP JUMPDEST PUSH1 0x20 DUP3 LT DUP2 EQ ISZERO PUSH2 0x35A JUMPI PUSH2 0x359 PUSH2 0x391 JUMP JUMPDEST JUMPDEST POP SWAP2 SWAP1 POP JUMP JUMPDEST PUSH2 0x369 DUP3 PUSH2 0x403 JUMP JUMPDEST DUP2 ADD DUP2 DUP2 LT PUSH8 0xFFFFFFFFFFFFFFFF DUP3 GT OR ISZERO PUSH2 0x388 JUMPI PUSH2 0x387 PUSH2 0x3C0 JUMP JUMPDEST JUMPDEST DUP1 PUSH1 0x40 MSTORE POP POP POP JUMP JUMPDEST PUSH32 0x4E487B7100000000000000000000000000000000000000000000000000000000 PUSH1 0x0 MSTORE PUSH1 0x22 PUSH1 0x4 MSTORE PUSH1 0x24 PUSH1 0x0 REVERT JUMPDEST PUSH32 0x4E487B7100000000000000000000000000000000000000000000000000000000 PUSH1 0x0 MSTORE PUSH1 0x41 PUSH1 0x4 MSTORE PUSH1 0x24 PUSH1 0x0 REVERT JUMPDEST PUSH1 0x0 DUP1 REVERT JUMPDEST PUSH1 0x0 DUP1 REVERT JUMPDEST PUSH1 0x0 DUP1 REVERT JUMPDEST PUSH1 0x0 DUP1 REVERT JUMPDEST PUSH1 0x0 PUSH1 0x1F NOT PUSH1 0x1F DUP4 ADD AND SWAP1 POP SWAP2 SWAP1 POP JUMP INVALID LOG2 PUSH5 0x6970667358 0x22 SLT KECCAK256 0xB5 LOG1 CODESIZE 0x5E 0xAA 0xEB PUSH16 0xA529F70CB700961E90503FD28A3FBE8D CALLDATALOAD PUSH28 0x34B39DB4C3FF9A64736F6C6343000807003300000000000000000000 "
				},
				"gasEstimates": {
					"creation": {
						"codeDepositCost": "219600",
						"executionCost": "infinite",
						"totalCost": "infinite"
					},
					"external": {
						"getWords(string,string,string)": "infinite",
						"ola()": "infinite"
					}
				},
				"methodIdentifiers": {
					"getWords(string,string,string)": "8acc4b8d",
					"ola()": "f584b23a"
				}
			},
			"storageLayout": {
				"storage": [
					{
						"astId": 4,
						"contract": "contracts/stringstipo.sol:Stringstipo",
						"label": "ola",
						"offset": 0,
						"slot": "0",
						"type": "t_string_storage"
					},
					{
						"astId": 7,
						"contract": "contracts/stringstipo.sol:Stringstipo",
						"label": "ola1",
						"offset": 0,
						"slot": "1",
						"type": "t_string_storage"
					},
					{
						"astId": 10,
						"contract": "contracts/stringstipo.sol:Stringstipo",
						"label": "ola3",
						"offset": 0,
						"slot": "2",
						"type": "t_string_storage"
					}
				],
				"types": {
					"t_string_storage": {
						"encoding": "bytes",
						"label": "string",
						"numberOfBytes": "32"
					}
				}
			},
			"userdoc": {
				"kind": "user",
				"methods": {},
				"version": 1
			}
		}
	}
}