{
	"contracts/controleFluxo.sol": {
		"controleFluxo": {
			"abi": [
				{
					"inputs": [
						{
							"internalType": "string",
							"name": "_endereco",
							"type": "string"
						}
					],
					"name": "salvar",
					"outputs": [
						{
							"internalType": "bool",
							"name": "",
							"type": "bool"
						}
					],
					"stateMutability": "view",
					"type": "function"
				}
			],
			"devdoc": {
				"kind": "dev",
				"methods": {},
				"version": 1
			},
			"evm": {
				"assembly": "    /* \"contracts/controleFluxo.sol\":65:218  contract controleFluxo{\r... */\n  mstore(0x40, 0x80)\n  callvalue\n  dup1\n  iszero\n  tag_1\n  jumpi\n  0x00\n  dup1\n  revert\ntag_1:\n  pop\n  dataSize(sub_0)\n  dup1\n  dataOffset(sub_0)\n  0x00\n  codecopy\n  0x00\n  return\nstop\n\nsub_0: assembly {\n        /* \"contracts/controleFluxo.sol\":65:218  contract controleFluxo{\r... */\n      mstore(0x40, 0x80)\n      callvalue\n      dup1\n      iszero\n      tag_1\n      jumpi\n      0x00\n      dup1\n      revert\n    tag_1:\n      pop\n      jumpi(tag_2, lt(calldatasize, 0x04))\n      shr(0xe0, calldataload(0x00))\n      dup1\n      0x3408d49e\n      eq\n      tag_3\n      jumpi\n    tag_2:\n      0x00\n      dup1\n      revert\n        /* \"contracts/controleFluxo.sol\":123:212  function salvar(string memory _endereco)external view returns(bool){\r... */\n    tag_3:\n      tag_4\n      0x04\n      dup1\n      calldatasize\n      sub\n      dup2\n      add\n      swap1\n      tag_5\n      swap2\n      swap1\n      tag_6\n      jump\t// in\n    tag_5:\n      tag_7\n      jump\t// in\n    tag_4:\n      mload(0x40)\n      tag_8\n      swap2\n      swap1\n      tag_9\n      jump\t// in\n    tag_8:\n      mload(0x40)\n      dup1\n      swap2\n      sub\n      swap1\n      return\n    tag_7:\n        /* \"contracts/controleFluxo.sol\":185:189  bool */\n      0x00\n        /* \"contracts/controleFluxo.sol\":123:212  function salvar(string memory _endereco)external view returns(bool){\r... */\n      swap2\n      swap1\n      pop\n      jump\t// out\n        /* \"#utility.yul\":7:419   */\n    tag_12:\n        /* \"#utility.yul\":85:90   */\n      0x00\n        /* \"#utility.yul\":110:176   */\n      tag_14\n        /* \"#utility.yul\":126:175   */\n      tag_15\n        /* \"#utility.yul\":168:174   */\n      dup5\n        /* \"#utility.yul\":126:175   */\n      tag_16\n      jump\t// in\n    tag_15:\n        /* \"#utility.yul\":110:176   */\n      tag_17\n      jump\t// in\n    tag_14:\n        /* \"#utility.yul\":101:176   */\n      swap1\n      pop\n        /* \"#utility.yul\":199:205   */\n      dup3\n        /* \"#utility.yul\":192:197   */\n      dup2\n        /* \"#utility.yul\":185:206   */\n      mstore\n        /* \"#utility.yul\":237:241   */\n      0x20\n        /* \"#utility.yul\":230:235   */\n      dup2\n        /* \"#utility.yul\":226:242   */\n      add\n        /* \"#utility.yul\":275:278   */\n      dup5\n        /* \"#utility.yul\":266:272   */\n      dup5\n        /* \"#utility.yul\":261:264   */\n      dup5\n        /* \"#utility.yul\":257:273   */\n      add\n        /* \"#utility.yul\":254:279   */\n      gt\n        /* \"#utility.yul\":251:363   */\n      iszero\n      tag_18\n      jumpi\n        /* \"#utility.yul\":282:361   */\n      tag_19\n      tag_20\n      jump\t// in\n    tag_19:\n        /* \"#utility.yul\":251:363   */\n    tag_18:\n        /* \"#utility.yul\":372:413   */\n      tag_21\n        /* \"#utility.yul\":406:412   */\n      dup5\n        /* \"#utility.yul\":401:404   */\n      dup3\n        /* \"#utility.yul\":396:399   */\n      dup6\n        /* \"#utility.yul\":372:413   */\n      tag_22\n      jump\t// in\n    tag_21:\n        /* \"#utility.yul\":91:419   */\n      pop\n        /* \"#utility.yul\":7:419   */\n      swap4\n      swap3\n      pop\n      pop\n      pop\n      jump\t// out\n        /* \"#utility.yul\":439:779   */\n    tag_23:\n        /* \"#utility.yul\":495:500   */\n      0x00\n        /* \"#utility.yul\":544:547   */\n      dup3\n        /* \"#utility.yul\":537:541   */\n      0x1f\n        /* \"#utility.yul\":529:535   */\n      dup4\n        /* \"#utility.yul\":525:542   */\n      add\n        /* \"#utility.yul\":521:548   */\n      slt\n        /* \"#utility.yul\":511:633   */\n      tag_25\n      jumpi\n        /* \"#utility.yul\":552:631   */\n      tag_26\n      tag_27\n      jump\t// in\n    tag_26:\n        /* \"#utility.yul\":511:633   */\n    tag_25:\n        /* \"#utility.yul\":669:675   */\n      dup2\n        /* \"#utility.yul\":656:676   */\n      calldataload\n        /* \"#utility.yul\":694:773   */\n      tag_28\n        /* \"#utility.yul\":769:772   */\n      dup5\n        /* \"#utility.yul\":761:767   */\n      dup3\n        /* \"#utility.yul\":754:758   */\n      0x20\n        /* \"#utility.yul\":746:752   */\n      dup7\n        /* \"#utility.yul\":742:759   */\n      add\n        /* \"#utility.yul\":694:773   */\n      tag_12\n      jump\t// in\n    tag_28:\n        /* \"#utility.yul\":685:773   */\n      swap2\n      pop\n        /* \"#utility.yul\":501:779   */\n      pop\n        /* \"#utility.yul\":439:779   */\n      swap3\n      swap2\n      pop\n      pop\n      jump\t// out\n        /* \"#utility.yul\":785:1294   */\n    tag_6:\n        /* \"#utility.yul\":854:860   */\n      0x00\n        /* \"#utility.yul\":903:905   */\n      0x20\n        /* \"#utility.yul\":891:900   */\n      dup3\n        /* \"#utility.yul\":882:889   */\n      dup5\n        /* \"#utility.yul\":878:901   */\n      sub\n        /* \"#utility.yul\":874:906   */\n      slt\n        /* \"#utility.yul\":871:990   */\n      iszero\n      tag_30\n      jumpi\n        /* \"#utility.yul\":909:988   */\n      tag_31\n      tag_32\n      jump\t// in\n    tag_31:\n        /* \"#utility.yul\":871:990   */\n    tag_30:\n        /* \"#utility.yul\":1057:1058   */\n      0x00\n        /* \"#utility.yul\":1046:1055   */\n      dup3\n        /* \"#utility.yul\":1042:1059   */\n      add\n        /* \"#utility.yul\":1029:1060   */\n      calldataload\n        /* \"#utility.yul\":1087:1105   */\n      0xffffffffffffffff\n        /* \"#utility.yul\":1079:1085   */\n      dup2\n        /* \"#utility.yul\":1076:1106   */\n      gt\n        /* \"#utility.yul\":1073:1190   */\n      iszero\n      tag_33\n      jumpi\n        /* \"#utility.yul\":1109:1188   */\n      tag_34\n      tag_35\n      jump\t// in\n    tag_34:\n        /* \"#utility.yul\":1073:1190   */\n    tag_33:\n        /* \"#utility.yul\":1214:1277   */\n      tag_36\n        /* \"#utility.yul\":1269:1276   */\n      dup5\n        /* \"#utility.yul\":1260:1266   */\n      dup3\n        /* \"#utility.yul\":1249:1258   */\n      dup6\n        /* \"#utility.yul\":1245:1267   */\n      add\n        /* \"#utility.yul\":1214:1277   */\n      tag_23\n      jump\t// in\n    tag_36:\n        /* \"#utility.yul\":1204:1277   */\n      swap2\n      pop\n        /* \"#utility.yul\":1000:1287   */\n      pop\n        /* \"#utility.yul\":785:1294   */\n      swap3\n      swap2\n      pop\n      pop\n      jump\t// out\n        /* \"#utility.yul\":1300:1409   */\n    tag_37:\n        /* \"#utility.yul\":1381:1402   */\n      tag_39\n        /* \"#utility.yul\":1396:1401   */\n      dup2\n        /* \"#utility.yul\":1381:1402   */\n      tag_40\n      jump\t// in\n    tag_39:\n        /* \"#utility.yul\":1376:1379   */\n      dup3\n        /* \"#utility.yul\":1369:1403   */\n      mstore\n        /* \"#utility.yul\":1300:1409   */\n      pop\n      pop\n      jump\t// out\n        /* \"#utility.yul\":1415:1625   */\n    tag_9:\n        /* \"#utility.yul\":1502:1506   */\n      0x00\n        /* \"#utility.yul\":1540:1542   */\n      0x20\n        /* \"#utility.yul\":1529:1538   */\n      dup3\n        /* \"#utility.yul\":1525:1543   */\n      add\n        /* \"#utility.yul\":1517:1543   */\n      swap1\n      pop\n        /* \"#utility.yul\":1553:1618   */\n      tag_42\n        /* \"#utility.yul\":1615:1616   */\n      0x00\n        /* \"#utility.yul\":1604:1613   */\n      dup4\n        /* \"#utility.yul\":1600:1617   */\n      add\n        /* \"#utility.yul\":1591:1597   */\n      dup5\n        /* \"#utility.yul\":1553:1618   */\n      tag_37\n      jump\t// in\n    tag_42:\n        /* \"#utility.yul\":1415:1625   */\n      swap3\n      swap2\n      pop\n      pop\n      jump\t// out\n        /* \"#utility.yul\":1631:1760   */\n    tag_17:\n        /* \"#utility.yul\":1665:1671   */\n      0x00\n        /* \"#utility.yul\":1692:1712   */\n      tag_44\n      tag_45\n      jump\t// in\n    tag_44:\n        /* \"#utility.yul\":1682:1712   */\n      swap1\n      pop\n        /* \"#utility.yul\":1721:1754   */\n      tag_46\n        /* \"#utility.yul\":1749:1753   */\n      dup3\n        /* \"#utility.yul\":1741:1747   */\n      dup3\n        /* \"#utility.yul\":1721:1754   */\n      tag_47\n      jump\t// in\n    tag_46:\n        /* \"#utility.yul\":1631:1760   */\n      swap2\n      swap1\n      pop\n      jump\t// out\n        /* \"#utility.yul\":1766:1841   */\n    tag_45:\n        /* \"#utility.yul\":1799:1805   */\n      0x00\n        /* \"#utility.yul\":1832:1834   */\n      0x40\n        /* \"#utility.yul\":1826:1835   */\n      mload\n        /* \"#utility.yul\":1816:1835   */\n      swap1\n      pop\n        /* \"#utility.yul\":1766:1841   */\n      swap1\n      jump\t// out\n        /* \"#utility.yul\":1847:2155   */\n    tag_16:\n        /* \"#utility.yul\":1909:1913   */\n      0x00\n        /* \"#utility.yul\":1999:2017   */\n      0xffffffffffffffff\n        /* \"#utility.yul\":1991:1997   */\n      dup3\n        /* \"#utility.yul\":1988:2018   */\n      gt\n        /* \"#utility.yul\":1985:2041   */\n      iszero\n      tag_50\n      jumpi\n        /* \"#utility.yul\":2021:2039   */\n      tag_51\n      tag_52\n      jump\t// in\n    tag_51:\n        /* \"#utility.yul\":1985:2041   */\n    tag_50:\n        /* \"#utility.yul\":2059:2088   */\n      tag_53\n        /* \"#utility.yul\":2081:2087   */\n      dup3\n        /* \"#utility.yul\":2059:2088   */\n      tag_54\n      jump\t// in\n    tag_53:\n        /* \"#utility.yul\":2051:2088   */\n      swap1\n      pop\n        /* \"#utility.yul\":2143:2147   */\n      0x20\n        /* \"#utility.yul\":2137:2141   */\n      dup2\n        /* \"#utility.yul\":2133:2148   */\n      add\n        /* \"#utility.yul\":2125:2148   */\n      swap1\n      pop\n        /* \"#utility.yul\":1847:2155   */\n      swap2\n      swap1\n      pop\n      jump\t// out\n        /* \"#utility.yul\":2161:2251   */\n    tag_40:\n        /* \"#utility.yul\":2195:2202   */\n      0x00\n        /* \"#utility.yul\":2238:2243   */\n      dup2\n        /* \"#utility.yul\":2231:2244   */\n      iszero\n        /* \"#utility.yul\":2224:2245   */\n      iszero\n        /* \"#utility.yul\":2213:2245   */\n      swap1\n      pop\n        /* \"#utility.yul\":2161:2251   */\n      swap2\n      swap1\n      pop\n      jump\t// out\n        /* \"#utility.yul\":2257:2411   */\n    tag_22:\n        /* \"#utility.yul\":2341:2347   */\n      dup3\n        /* \"#utility.yul\":2336:2339   */\n      dup2\n        /* \"#utility.yul\":2331:2334   */\n      dup4\n        /* \"#utility.yul\":2318:2348   */\n      calldatacopy\n        /* \"#utility.yul\":2403:2404   */\n      0x00\n        /* \"#utility.yul\":2394:2400   */\n      dup4\n        /* \"#utility.yul\":2389:2392   */\n      dup4\n        /* \"#utility.yul\":2385:2401   */\n      add\n        /* \"#utility.yul\":2378:2405   */\n      mstore\n        /* \"#utility.yul\":2257:2411   */\n      pop\n      pop\n      pop\n      jump\t// out\n        /* \"#utility.yul\":2417:2698   */\n    tag_47:\n        /* \"#utility.yul\":2500:2527   */\n      tag_58\n        /* \"#utility.yul\":2522:2526   */\n      dup3\n        /* \"#utility.yul\":2500:2527   */\n      tag_54\n      jump\t// in\n    tag_58:\n        /* \"#utility.yul\":2492:2498   */\n      dup2\n        /* \"#utility.yul\":2488:2528   */\n      add\n        /* \"#utility.yul\":2630:2636   */\n      dup2\n        /* \"#utility.yul\":2618:2628   */\n      dup2\n        /* \"#utility.yul\":2615:2637   */\n      lt\n        /* \"#utility.yul\":2594:2612   */\n      0xffffffffffffffff\n        /* \"#utility.yul\":2582:2592   */\n      dup3\n        /* \"#utility.yul\":2579:2613   */\n      gt\n        /* \"#utility.yul\":2576:2638   */\n      or\n        /* \"#utility.yul\":2573:2661   */\n      iszero\n      tag_59\n      jumpi\n        /* \"#utility.yul\":2641:2659   */\n      tag_60\n      tag_52\n      jump\t// in\n    tag_60:\n        /* \"#utility.yul\":2573:2661   */\n    tag_59:\n        /* \"#utility.yul\":2681:2691   */\n      dup1\n        /* \"#utility.yul\":2677:2679   */\n      0x40\n        /* \"#utility.yul\":2670:2692   */\n      mstore\n        /* \"#utility.yul\":2460:2698   */\n      pop\n        /* \"#utility.yul\":2417:2698   */\n      pop\n      pop\n      jump\t// out\n        /* \"#utility.yul\":2704:2884   */\n    tag_52:\n        /* \"#utility.yul\":2752:2829   */\n      0x4e487b7100000000000000000000000000000000000000000000000000000000\n        /* \"#utility.yul\":2749:2750   */\n      0x00\n        /* \"#utility.yul\":2742:2830   */\n      mstore\n        /* \"#utility.yul\":2849:2853   */\n      0x41\n        /* \"#utility.yul\":2846:2847   */\n      0x04\n        /* \"#utility.yul\":2839:2854   */\n      mstore\n        /* \"#utility.yul\":2873:2877   */\n      0x24\n        /* \"#utility.yul\":2870:2871   */\n      0x00\n        /* \"#utility.yul\":2863:2878   */\n      revert\n        /* \"#utility.yul\":2890:3007   */\n    tag_27:\n        /* \"#utility.yul\":2999:3000   */\n      0x00\n        /* \"#utility.yul\":2996:2997   */\n      dup1\n        /* \"#utility.yul\":2989:3001   */\n      revert\n        /* \"#utility.yul\":3013:3130   */\n    tag_20:\n        /* \"#utility.yul\":3122:3123   */\n      0x00\n        /* \"#utility.yul\":3119:3120   */\n      dup1\n        /* \"#utility.yul\":3112:3124   */\n      revert\n        /* \"#utility.yul\":3136:3253   */\n    tag_35:\n        /* \"#utility.yul\":3245:3246   */\n      0x00\n        /* \"#utility.yul\":3242:3243   */\n      dup1\n        /* \"#utility.yul\":3235:3247   */\n      revert\n        /* \"#utility.yul\":3259:3376   */\n    tag_32:\n        /* \"#utility.yul\":3368:3369   */\n      0x00\n        /* \"#utility.yul\":3365:3366   */\n      dup1\n        /* \"#utility.yul\":3358:3370   */\n      revert\n        /* \"#utility.yul\":3382:3484   */\n    tag_54:\n        /* \"#utility.yul\":3423:3429   */\n      0x00\n        /* \"#utility.yul\":3474:3476   */\n      0x1f\n        /* \"#utility.yul\":3470:3477   */\n      not\n        /* \"#utility.yul\":3465:3467   */\n      0x1f\n        /* \"#utility.yul\":3458:3463   */\n      dup4\n        /* \"#utility.yul\":3454:3468   */\n      add\n        /* \"#utility.yul\":3450:3478   */\n      and\n        /* \"#utility.yul\":3440:3478   */\n      swap1\n      pop\n        /* \"#utility.yul\":3382:3484   */\n      swap2\n      swap1\n      pop\n      jump\t// out\n\n    auxdata: 0xa2646970667358221220294c2780928c2e9c8cbd8799d13e3c1310ea03dc112d9e332f518a952bb9d40964736f6c63430008070033\n}\n",
				"bytecode": {
					"linkReferences": {},
					"object": "608060405234801561001057600080fd5b50610276806100206000396000f3fe608060405234801561001057600080fd5b506004361061002b5760003560e01c80633408d49e14610030575b600080fd5b61004a600480360381019061004591906100d7565b610060565b604051610057919061012f565b60405180910390f35b6000919050565b600061007a6100758461016f565b61014a565b90508281526020810184848401111561009657610095610220565b5b6100a18482856101ac565b509392505050565b600082601f8301126100be576100bd61021b565b5b81356100ce848260208601610067565b91505092915050565b6000602082840312156100ed576100ec61022a565b5b600082013567ffffffffffffffff81111561010b5761010a610225565b5b610117848285016100a9565b91505092915050565b610129816101a0565b82525050565b60006020820190506101446000830184610120565b92915050565b6000610154610165565b905061016082826101bb565b919050565b6000604051905090565b600067ffffffffffffffff82111561018a576101896101ec565b5b6101938261022f565b9050602081019050919050565b60008115159050919050565b82818337600083830152505050565b6101c48261022f565b810181811067ffffffffffffffff821117156101e3576101e26101ec565b5b80604052505050565b7f4e487b7100000000000000000000000000000000000000000000000000000000600052604160045260246000fd5b600080fd5b600080fd5b600080fd5b600080fd5b6000601f19601f830116905091905056fea2646970667358221220294c2780928c2e9c8cbd8799d13e3c1310ea03dc112d9e332f518a952bb9d40964736f6c63430008070033",
					"opcodes": "PUSH1 0x80 PUSH1 0x40 MSTORE CALLVALUE DUP1 ISZERO PUSH2 0x10 JUMPI PUSH1 0x0 DUP1 REVERT JUMPDEST POP PUSH2 0x276 DUP1 PUSH2 0x20 PUSH1 0x0 CODECOPY PUSH1 0x0 RETURN INVALID PUSH1 0x80 PUSH1 0x40 MSTORE CALLVALUE DUP1 ISZERO PUSH2 0x10 JUMPI PUSH1 0x0 DUP1 REVERT JUMPDEST POP PUSH1 0x4 CALLDATASIZE LT PUSH2 0x2B JUMPI PUSH1 0x0 CALLDATALOAD PUSH1 0xE0 SHR DUP1 PUSH4 0x3408D49E EQ PUSH2 0x30 JUMPI JUMPDEST PUSH1 0x0 DUP1 REVERT JUMPDEST PUSH2 0x4A PUSH1 0x4 DUP1 CALLDATASIZE SUB DUP2 ADD SWAP1 PUSH2 0x45 SWAP2 SWAP1 PUSH2 0xD7 JUMP JUMPDEST PUSH2 0x60 JUMP JUMPDEST PUSH1 0x40 MLOAD PUSH2 0x57 SWAP2 SWAP1 PUSH2 0x12F JUMP JUMPDEST PUSH1 0x40 MLOAD DUP1 SWAP2 SUB SWAP1 RETURN JUMPDEST PUSH1 0x0 SWAP2 SWAP1 POP JUMP JUMPDEST PUSH1 0x0 PUSH2 0x7A PUSH2 0x75 DUP5 PUSH2 0x16F JUMP JUMPDEST PUSH2 0x14A JUMP JUMPDEST SWAP1 POP DUP3 DUP2 MSTORE PUSH1 0x20 DUP2 ADD DUP5 DUP5 DUP5 ADD GT ISZERO PUSH2 0x96 JUMPI PUSH2 0x95 PUSH2 0x220 JUMP JUMPDEST JUMPDEST PUSH2 0xA1 DUP5 DUP3 DUP6 PUSH2 0x1AC JUMP JUMPDEST POP SWAP4 SWAP3 POP POP POP JUMP JUMPDEST PUSH1 0x0 DUP3 PUSH1 0x1F DUP4 ADD SLT PUSH2 0xBE JUMPI PUSH2 0xBD PUSH2 0x21B JUMP JUMPDEST JUMPDEST DUP2 CALLDATALOAD PUSH2 0xCE DUP5 DUP3 PUSH1 0x20 DUP7 ADD PUSH2 0x67 JUMP JUMPDEST SWAP2 POP POP SWAP3 SWAP2 POP POP JUMP JUMPDEST PUSH1 0x0 PUSH1 0x20 DUP3 DUP5 SUB SLT ISZERO PUSH2 0xED JUMPI PUSH2 0xEC PUSH2 0x22A JUMP JUMPDEST JUMPDEST PUSH1 0x0 DUP3 ADD CALLDATALOAD PUSH8 0xFFFFFFFFFFFFFFFF DUP2 GT ISZERO PUSH2 0x10B JUMPI PUSH2 0x10A PUSH2 0x225 JUMP JUMPDEST JUMPDEST PUSH2 0x117 DUP5 DUP3 DUP6 ADD PUSH2 0xA9 JUMP JUMPDEST SWAP2 POP POP SWAP3 SWAP2 POP POP JUMP JUMPDEST PUSH2 0x129 DUP2 PUSH2 0x1A0 JUMP JUMPDEST DUP3 MSTORE POP POP JUMP JUMPDEST PUSH1 0x0 PUSH1 0x20 DUP3 ADD SWAP1 POP PUSH2 0x144 PUSH1 0x0 DUP4 ADD DUP5 PUSH2 0x120 JUMP JUMPDEST SWAP3 SWAP2 POP POP JUMP JUMPDEST PUSH1 0x0 PUSH2 0x154 PUSH2 0x165 JUMP JUMPDEST SWAP1 POP PUSH2 0x160 DUP3 DUP3 PUSH2 0x1BB JUMP JUMPDEST SWAP2 SWAP1 POP JUMP JUMPDEST PUSH1 0x0 PUSH1 0x40 MLOAD SWAP1 POP SWAP1 JUMP JUMPDEST PUSH1 0x0 PUSH8 0xFFFFFFFFFFFFFFFF DUP3 GT ISZERO PUSH2 0x18A JUMPI PUSH2 0x189 PUSH2 0x1EC JUMP JUMPDEST JUMPDEST PUSH2 0x193 DUP3 PUSH2 0x22F JUMP JUMPDEST SWAP1 POP PUSH1 0x20 DUP2 ADD SWAP1 POP SWAP2 SWAP1 POP JUMP JUMPDEST PUSH1 0x0 DUP2 ISZERO ISZERO SWAP1 POP SWAP2 SWAP1 POP JUMP JUMPDEST DUP3 DUP2 DUP4 CALLDATACOPY PUSH1 0x0 DUP4 DUP4 ADD MSTORE POP POP POP JUMP JUMPDEST PUSH2 0x1C4 DUP3 PUSH2 0x22F JUMP JUMPDEST DUP2 ADD DUP2 DUP2 LT PUSH8 0xFFFFFFFFFFFFFFFF DUP3 GT OR ISZERO PUSH2 0x1E3 JUMPI PUSH2 0x1E2 PUSH2 0x1EC JUMP JUMPDEST JUMPDEST DUP1 PUSH1 0x40 MSTORE POP POP POP JUMP JUMPDEST PUSH32 0x4E487B7100000000000000000000000000000000000000000000000000000000 PUSH1 0x0 MSTORE PUSH1 0x41 PUSH1 0x4 MSTORE PUSH1 0x24 PUSH1 0x0 REVERT JUMPDEST PUSH1 0x0 DUP1 REVERT JUMPDEST PUSH1 0x0 DUP1 REVERT JUMPDEST PUSH1 0x0 DUP1 REVERT JUMPDEST PUSH1 0x0 DUP1 REVERT JUMPDEST PUSH1 0x0 PUSH1 0x1F NOT PUSH1 0x1F DUP4 ADD AND SWAP1 POP SWAP2 SWAP1 POP JUMP INVALID LOG2 PUSH5 0x6970667358 0x22 SLT KECCAK256 0x29 0x4C 0x27 DUP1 SWAP3 DUP13 0x2E SWAP13 DUP13 0xBD DUP8 SWAP10 0xD1 RETURNDATACOPY EXTCODECOPY SGT LT 0xEA SUB 0xDC GT 0x2D SWAP15 CALLER 0x2F MLOAD DUP11 SWAP6 0x2B 0xB9 0xD4 MULMOD PUSH5 0x736F6C6343 STOP ADDMOD SMOD STOP CALLER "
				},
				"gasEstimates": {
					"creation": {
						"codeDepositCost": "126000",
						"executionCost": "171",
						"totalCost": "126171"
					},
					"external": {
						"salvar(string)": "infinite"
					}
				},
				"methodIdentifiers": {
					"salvar(string)": "3408d49e"
				}
			},
			"storageLayout": {
				"storage": [
					{
						"astId": 4,
						"contract": "contracts/controleFluxo.sol:controleFluxo",
						"label": "depositos",
						"offset": 0,
						"slot": "0",
						"type": "t_array(t_string_storage)dyn_storage"
					}
				],
				"types": {
					"t_array(t_string_storage)dyn_storage": {
						"base": "t_string_storage",
						"encoding": "dynamic_array",
						"label": "string[]",
						"numberOfBytes": "32"
					},
					"t_string_storage": {
						"encoding": "bytes",
						"label": "string",
						"numberOfBytes": "32"
					}
				}
			},
			"userdoc": {
				"kind": "user",
				"methods": {},
				"version": 1
			}
		}
	}
}