{
	"contracts/tipos.sol": {
		"Tipos": {
			"abi": [
				{
					"inputs": [],
					"name": "inteiro",
					"outputs": [
						{
							"internalType": "int152",
							"name": "",
							"type": "int152"
						}
					],
					"stateMutability": "view",
					"type": "function"
				},
				{
					"inputs": [],
					"name": "name",
					"outputs": [
						{
							"internalType": "string",
							"name": "",
							"type": "string"
						}
					],
					"stateMutability": "view",
					"type": "function"
				}
			],
			"devdoc": {
				"kind": "dev",
				"methods": {},
				"version": 1
			},
			"evm": {
				"assembly": "    /* \"contracts/tipos.sol\":58:168  contract Tipos{\r... */\n  mstore(0x40, 0x80)\n    /* \"contracts/tipos.sol\":103:108  78473 */\n  0x013289\n    /* \"contracts/tipos.sol\":79:108  int152 public inteiro = 78473 */\n  0x00\n  dup1\n  0x0100\n  exp\n  dup2\n  sload\n  dup2\n  0xffffffffffffffffffffffffffffffffffffff\n  mul\n  not\n  and\n  swap1\n  dup4\n  0x12\n  signextend\n  0xffffffffffffffffffffffffffffffffffffff\n  and\n  mul\n  or\n  swap1\n  sstore\n  pop\n    /* \"contracts/tipos.sol\":115:152  string public name = \"Carlos Eduardo\" */\n  mload(0x40)\n  dup1\n  0x40\n  add\n  0x40\n  mstore\n  dup1\n  0x0e\n  dup2\n  mstore\n  0x20\n  add\n  0x4361726c6f73204564756172646f000000000000000000000000000000000000\n  dup2\n  mstore\n  pop\n  0x01\n  swap1\n  dup1\n  mload\n  swap1\n  0x20\n  add\n  swap1\n  tag_1\n  swap3\n  swap2\n  swap1\n  tag_2\n  jump\t// in\ntag_1:\n  pop\n    /* \"contracts/tipos.sol\":58:168  contract Tipos{\r... */\n  callvalue\n  dup1\n  iszero\n  tag_3\n  jumpi\n  0x00\n  dup1\n  revert\ntag_3:\n  pop\n  jump(tag_4)\ntag_2:\n  dup3\n  dup1\n  sload\n  tag_5\n  swap1\n  tag_6\n  jump\t// in\ntag_5:\n  swap1\n  0x00\n  mstore\n  keccak256(0x00, 0x20)\n  swap1\n  0x1f\n  add\n  0x20\n  swap1\n  div\n  dup2\n  add\n  swap3\n  dup3\n  tag_8\n  jumpi\n  0x00\n  dup6\n  sstore\n  jump(tag_7)\ntag_8:\n  dup3\n  0x1f\n  lt\n  tag_9\n  jumpi\n  dup1\n  mload\n  not(0xff)\n  and\n  dup4\n  dup1\n  add\n  or\n  dup6\n  sstore\n  jump(tag_7)\ntag_9:\n  dup3\n  dup1\n  add\n  0x01\n  add\n  dup6\n  sstore\n  dup3\n  iszero\n  tag_7\n  jumpi\n  swap2\n  dup3\n  add\ntag_10:\n  dup3\n  dup2\n  gt\n  iszero\n  tag_11\n  jumpi\n  dup3\n  mload\n  dup3\n  sstore\n  swap2\n  0x20\n  add\n  swap2\n  swap1\n  0x01\n  add\n  swap1\n  jump(tag_10)\ntag_11:\ntag_7:\n  pop\n  swap1\n  pop\n  tag_12\n  swap2\n  swap1\n  tag_13\n  jump\t// in\ntag_12:\n  pop\n  swap1\n  jump\t// out\ntag_13:\ntag_14:\n  dup1\n  dup3\n  gt\n  iszero\n  tag_15\n  jumpi\n  0x00\n  dup2\n  0x00\n  swap1\n  sstore\n  pop\n  0x01\n  add\n  jump(tag_14)\ntag_15:\n  pop\n  swap1\n  jump\t// out\n    /* \"#utility.yul\":7:327   */\ntag_6:\n    /* \"#utility.yul\":51:57   */\n  0x00\n    /* \"#utility.yul\":88:89   */\n  0x02\n    /* \"#utility.yul\":82:86   */\n  dup3\n    /* \"#utility.yul\":78:90   */\n  div\n    /* \"#utility.yul\":68:90   */\n  swap1\n  pop\n    /* \"#utility.yul\":135:136   */\n  0x01\n    /* \"#utility.yul\":129:133   */\n  dup3\n    /* \"#utility.yul\":125:137   */\n  and\n    /* \"#utility.yul\":156:174   */\n  dup1\n    /* \"#utility.yul\":146:227   */\n  tag_18\n  jumpi\n    /* \"#utility.yul\":212:216   */\n  0x7f\n    /* \"#utility.yul\":204:210   */\n  dup3\n    /* \"#utility.yul\":200:217   */\n  and\n    /* \"#utility.yul\":190:217   */\n  swap2\n  pop\n    /* \"#utility.yul\":146:227   */\ntag_18:\n    /* \"#utility.yul\":274:276   */\n  0x20\n    /* \"#utility.yul\":266:272   */\n  dup3\n    /* \"#utility.yul\":263:277   */\n  lt\n    /* \"#utility.yul\":243:261   */\n  dup2\n    /* \"#utility.yul\":240:278   */\n  eq\n    /* \"#utility.yul\":237:321   */\n  iszero\n  tag_19\n  jumpi\n    /* \"#utility.yul\":293:311   */\n  tag_20\n  tag_21\n  jump\t// in\ntag_20:\n    /* \"#utility.yul\":237:321   */\ntag_19:\n    /* \"#utility.yul\":58:327   */\n  pop\n    /* \"#utility.yul\":7:327   */\n  swap2\n  swap1\n  pop\n  jump\t// out\n    /* \"#utility.yul\":333:513   */\ntag_21:\n    /* \"#utility.yul\":381:458   */\n  0x4e487b7100000000000000000000000000000000000000000000000000000000\n    /* \"#utility.yul\":378:379   */\n  0x00\n    /* \"#utility.yul\":371:459   */\n  mstore\n    /* \"#utility.yul\":478:482   */\n  0x22\n    /* \"#utility.yul\":475:476   */\n  0x04\n    /* \"#utility.yul\":468:483   */\n  mstore\n    /* \"#utility.yul\":502:506   */\n  0x24\n    /* \"#utility.yul\":499:500   */\n  0x00\n    /* \"#utility.yul\":492:507   */\n  revert\n    /* \"contracts/tipos.sol\":58:168  contract Tipos{\r... */\ntag_4:\n  dataSize(sub_0)\n  dup1\n  dataOffset(sub_0)\n  0x00\n  codecopy\n  0x00\n  return\nstop\n\nsub_0: assembly {\n        /* \"contracts/tipos.sol\":58:168  contract Tipos{\r... */\n      mstore(0x40, 0x80)\n      callvalue\n      dup1\n      iszero\n      tag_1\n      jumpi\n      0x00\n      dup1\n      revert\n    tag_1:\n      pop\n      jumpi(tag_2, lt(calldatasize, 0x04))\n      shr(0xe0, calldataload(0x00))\n      dup1\n      0x06fdde03\n      eq\n      tag_3\n      jumpi\n      dup1\n      0xb624cb54\n      eq\n      tag_4\n      jumpi\n    tag_2:\n      0x00\n      dup1\n      revert\n        /* \"contracts/tipos.sol\":115:152  string public name = \"Carlos Eduardo\" */\n    tag_3:\n      tag_5\n      tag_6\n      jump\t// in\n    tag_5:\n      mload(0x40)\n      tag_7\n      swap2\n      swap1\n      tag_8\n      jump\t// in\n    tag_7:\n      mload(0x40)\n      dup1\n      swap2\n      sub\n      swap1\n      return\n        /* \"contracts/tipos.sol\":79:108  int152 public inteiro = 78473 */\n    tag_4:\n      tag_9\n      tag_10\n      jump\t// in\n    tag_9:\n      mload(0x40)\n      tag_11\n      swap2\n      swap1\n      tag_12\n      jump\t// in\n    tag_11:\n      mload(0x40)\n      dup1\n      swap2\n      sub\n      swap1\n      return\n        /* \"contracts/tipos.sol\":115:152  string public name = \"Carlos Eduardo\" */\n    tag_6:\n      0x01\n      dup1\n      sload\n      tag_13\n      swap1\n      tag_14\n      jump\t// in\n    tag_13:\n      dup1\n      0x1f\n      add\n      0x20\n      dup1\n      swap2\n      div\n      mul\n      0x20\n      add\n      mload(0x40)\n      swap1\n      dup2\n      add\n      0x40\n      mstore\n      dup1\n      swap3\n      swap2\n      swap1\n      dup2\n      dup2\n      mstore\n      0x20\n      add\n      dup3\n      dup1\n      sload\n      tag_15\n      swap1\n      tag_14\n      jump\t// in\n    tag_15:\n      dup1\n      iszero\n      tag_16\n      jumpi\n      dup1\n      0x1f\n      lt\n      tag_17\n      jumpi\n      0x0100\n      dup1\n      dup4\n      sload\n      div\n      mul\n      dup4\n      mstore\n      swap2\n      0x20\n      add\n      swap2\n      jump(tag_16)\n    tag_17:\n      dup3\n      add\n      swap2\n      swap1\n      0x00\n      mstore\n      keccak256(0x00, 0x20)\n      swap1\n    tag_18:\n      dup2\n      sload\n      dup2\n      mstore\n      swap1\n      0x01\n      add\n      swap1\n      0x20\n      add\n      dup1\n      dup4\n      gt\n      tag_18\n      jumpi\n      dup3\n      swap1\n      sub\n      0x1f\n      and\n      dup3\n      add\n      swap2\n    tag_16:\n      pop\n      pop\n      pop\n      pop\n      pop\n      dup2\n      jump\t// out\n        /* \"contracts/tipos.sol\":79:108  int152 public inteiro = 78473 */\n    tag_10:\n      0x00\n      dup1\n      sload\n      swap1\n      0x0100\n      exp\n      swap1\n      div\n      0x12\n      signextend\n      dup2\n      jump\t// out\n        /* \"#utility.yul\":7:122   */\n    tag_20:\n        /* \"#utility.yul\":92:115   */\n      tag_22\n        /* \"#utility.yul\":109:114   */\n      dup2\n        /* \"#utility.yul\":92:115   */\n      tag_23\n      jump\t// in\n    tag_22:\n        /* \"#utility.yul\":87:90   */\n      dup3\n        /* \"#utility.yul\":80:116   */\n      mstore\n        /* \"#utility.yul\":7:122   */\n      pop\n      pop\n      jump\t// out\n        /* \"#utility.yul\":128:492   */\n    tag_24:\n        /* \"#utility.yul\":216:219   */\n      0x00\n        /* \"#utility.yul\":244:283   */\n      tag_26\n        /* \"#utility.yul\":277:282   */\n      dup3\n        /* \"#utility.yul\":244:283   */\n      tag_27\n      jump\t// in\n    tag_26:\n        /* \"#utility.yul\":299:370   */\n      tag_28\n        /* \"#utility.yul\":363:369   */\n      dup2\n        /* \"#utility.yul\":358:361   */\n      dup6\n        /* \"#utility.yul\":299:370   */\n      tag_29\n      jump\t// in\n    tag_28:\n        /* \"#utility.yul\":292:370   */\n      swap4\n      pop\n        /* \"#utility.yul\":379:431   */\n      tag_30\n        /* \"#utility.yul\":424:430   */\n      dup2\n        /* \"#utility.yul\":419:422   */\n      dup6\n        /* \"#utility.yul\":412:416   */\n      0x20\n        /* \"#utility.yul\":405:410   */\n      dup7\n        /* \"#utility.yul\":401:417   */\n      add\n        /* \"#utility.yul\":379:431   */\n      tag_31\n      jump\t// in\n    tag_30:\n        /* \"#utility.yul\":456:485   */\n      tag_32\n        /* \"#utility.yul\":478:484   */\n      dup2\n        /* \"#utility.yul\":456:485   */\n      tag_33\n      jump\t// in\n    tag_32:\n        /* \"#utility.yul\":451:454   */\n      dup5\n        /* \"#utility.yul\":447:486   */\n      add\n        /* \"#utility.yul\":440:486   */\n      swap2\n      pop\n        /* \"#utility.yul\":220:492   */\n      pop\n        /* \"#utility.yul\":128:492   */\n      swap3\n      swap2\n      pop\n      pop\n      jump\t// out\n        /* \"#utility.yul\":498:716   */\n    tag_12:\n        /* \"#utility.yul\":589:593   */\n      0x00\n        /* \"#utility.yul\":627:629   */\n      0x20\n        /* \"#utility.yul\":616:625   */\n      dup3\n        /* \"#utility.yul\":612:630   */\n      add\n        /* \"#utility.yul\":604:630   */\n      swap1\n      pop\n        /* \"#utility.yul\":640:709   */\n      tag_35\n        /* \"#utility.yul\":706:707   */\n      0x00\n        /* \"#utility.yul\":695:704   */\n      dup4\n        /* \"#utility.yul\":691:708   */\n      add\n        /* \"#utility.yul\":682:688   */\n      dup5\n        /* \"#utility.yul\":640:709   */\n      tag_20\n      jump\t// in\n    tag_35:\n        /* \"#utility.yul\":498:716   */\n      swap3\n      swap2\n      pop\n      pop\n      jump\t// out\n        /* \"#utility.yul\":722:1035   */\n    tag_8:\n        /* \"#utility.yul\":835:839   */\n      0x00\n        /* \"#utility.yul\":873:875   */\n      0x20\n        /* \"#utility.yul\":862:871   */\n      dup3\n        /* \"#utility.yul\":858:876   */\n      add\n        /* \"#utility.yul\":850:876   */\n      swap1\n      pop\n        /* \"#utility.yul\":922:931   */\n      dup2\n        /* \"#utility.yul\":916:920   */\n      dup2\n        /* \"#utility.yul\":912:932   */\n      sub\n        /* \"#utility.yul\":908:909   */\n      0x00\n        /* \"#utility.yul\":897:906   */\n      dup4\n        /* \"#utility.yul\":893:910   */\n      add\n        /* \"#utility.yul\":886:933   */\n      mstore\n        /* \"#utility.yul\":950:1028   */\n      tag_37\n        /* \"#utility.yul\":1023:1027   */\n      dup2\n        /* \"#utility.yul\":1014:1020   */\n      dup5\n        /* \"#utility.yul\":950:1028   */\n      tag_24\n      jump\t// in\n    tag_37:\n        /* \"#utility.yul\":942:1028   */\n      swap1\n      pop\n        /* \"#utility.yul\":722:1035   */\n      swap3\n      swap2\n      pop\n      pop\n      jump\t// out\n        /* \"#utility.yul\":1041:1140   */\n    tag_27:\n        /* \"#utility.yul\":1093:1099   */\n      0x00\n        /* \"#utility.yul\":1127:1132   */\n      dup2\n        /* \"#utility.yul\":1121:1133   */\n      mload\n        /* \"#utility.yul\":1111:1133   */\n      swap1\n      pop\n        /* \"#utility.yul\":1041:1140   */\n      swap2\n      swap1\n      pop\n      jump\t// out\n        /* \"#utility.yul\":1146:1315   */\n    tag_29:\n        /* \"#utility.yul\":1230:1241   */\n      0x00\n        /* \"#utility.yul\":1264:1270   */\n      dup3\n        /* \"#utility.yul\":1259:1262   */\n      dup3\n        /* \"#utility.yul\":1252:1271   */\n      mstore\n        /* \"#utility.yul\":1304:1308   */\n      0x20\n        /* \"#utility.yul\":1299:1302   */\n      dup3\n        /* \"#utility.yul\":1295:1309   */\n      add\n        /* \"#utility.yul\":1280:1309   */\n      swap1\n      pop\n        /* \"#utility.yul\":1146:1315   */\n      swap3\n      swap2\n      pop\n      pop\n      jump\t// out\n        /* \"#utility.yul\":1321:1413   */\n    tag_23:\n        /* \"#utility.yul\":1357:1364   */\n      0x00\n        /* \"#utility.yul\":1401:1406   */\n      dup2\n        /* \"#utility.yul\":1397:1399   */\n      0x12\n        /* \"#utility.yul\":1386:1407   */\n      signextend\n        /* \"#utility.yul\":1375:1407   */\n      swap1\n      pop\n        /* \"#utility.yul\":1321:1413   */\n      swap2\n      swap1\n      pop\n      jump\t// out\n        /* \"#utility.yul\":1419:1726   */\n    tag_31:\n        /* \"#utility.yul\":1487:1488   */\n      0x00\n        /* \"#utility.yul\":1497:1610   */\n    tag_42:\n        /* \"#utility.yul\":1511:1517   */\n      dup4\n        /* \"#utility.yul\":1508:1509   */\n      dup2\n        /* \"#utility.yul\":1505:1518   */\n      lt\n        /* \"#utility.yul\":1497:1610   */\n      iszero\n      tag_44\n      jumpi\n        /* \"#utility.yul\":1596:1597   */\n      dup1\n        /* \"#utility.yul\":1591:1594   */\n      dup3\n        /* \"#utility.yul\":1587:1598   */\n      add\n        /* \"#utility.yul\":1581:1599   */\n      mload\n        /* \"#utility.yul\":1577:1578   */\n      dup2\n        /* \"#utility.yul\":1572:1575   */\n      dup5\n        /* \"#utility.yul\":1568:1579   */\n      add\n        /* \"#utility.yul\":1561:1600   */\n      mstore\n        /* \"#utility.yul\":1533:1535   */\n      0x20\n        /* \"#utility.yul\":1530:1531   */\n      dup2\n        /* \"#utility.yul\":1526:1536   */\n      add\n        /* \"#utility.yul\":1521:1536   */\n      swap1\n      pop\n        /* \"#utility.yul\":1497:1610   */\n      jump(tag_42)\n    tag_44:\n        /* \"#utility.yul\":1628:1634   */\n      dup4\n        /* \"#utility.yul\":1625:1626   */\n      dup2\n        /* \"#utility.yul\":1622:1635   */\n      gt\n        /* \"#utility.yul\":1619:1720   */\n      iszero\n      tag_45\n      jumpi\n        /* \"#utility.yul\":1708:1709   */\n      0x00\n        /* \"#utility.yul\":1699:1705   */\n      dup5\n        /* \"#utility.yul\":1694:1697   */\n      dup5\n        /* \"#utility.yul\":1690:1706   */\n      add\n        /* \"#utility.yul\":1683:1710   */\n      mstore\n        /* \"#utility.yul\":1619:1720   */\n    tag_45:\n        /* \"#utility.yul\":1468:1726   */\n      pop\n        /* \"#utility.yul\":1419:1726   */\n      pop\n      pop\n      pop\n      jump\t// out\n        /* \"#utility.yul\":1732:2052   */\n    tag_14:\n        /* \"#utility.yul\":1776:1782   */\n      0x00\n        /* \"#utility.yul\":1813:1814   */\n      0x02\n        /* \"#utility.yul\":1807:1811   */\n      dup3\n        /* \"#utility.yul\":1803:1815   */\n      div\n        /* \"#utility.yul\":1793:1815   */\n      swap1\n      pop\n        /* \"#utility.yul\":1860:1861   */\n      0x01\n        /* \"#utility.yul\":1854:1858   */\n      dup3\n        /* \"#utility.yul\":1850:1862   */\n      and\n        /* \"#utility.yul\":1881:1899   */\n      dup1\n        /* \"#utility.yul\":1871:1952   */\n      tag_47\n      jumpi\n        /* \"#utility.yul\":1937:1941   */\n      0x7f\n        /* \"#utility.yul\":1929:1935   */\n      dup3\n        /* \"#utility.yul\":1925:1942   */\n      and\n        /* \"#utility.yul\":1915:1942   */\n      swap2\n      pop\n        /* \"#utility.yul\":1871:1952   */\n    tag_47:\n        /* \"#utility.yul\":1999:2001   */\n      0x20\n        /* \"#utility.yul\":1991:1997   */\n      dup3\n        /* \"#utility.yul\":1988:2002   */\n      lt\n        /* \"#utility.yul\":1968:1986   */\n      dup2\n        /* \"#utility.yul\":1965:2003   */\n      eq\n        /* \"#utility.yul\":1962:2046   */\n      iszero\n      tag_48\n      jumpi\n        /* \"#utility.yul\":2018:2036   */\n      tag_49\n      tag_50\n      jump\t// in\n    tag_49:\n        /* \"#utility.yul\":1962:2046   */\n    tag_48:\n        /* \"#utility.yul\":1783:2052   */\n      pop\n        /* \"#utility.yul\":1732:2052   */\n      swap2\n      swap1\n      pop\n      jump\t// out\n        /* \"#utility.yul\":2058:2238   */\n    tag_50:\n        /* \"#utility.yul\":2106:2183   */\n      0x4e487b7100000000000000000000000000000000000000000000000000000000\n        /* \"#utility.yul\":2103:2104   */\n      0x00\n        /* \"#utility.yul\":2096:2184   */\n      mstore\n        /* \"#utility.yul\":2203:2207   */\n      0x22\n        /* \"#utility.yul\":2200:2201   */\n      0x04\n        /* \"#utility.yul\":2193:2208   */\n      mstore\n        /* \"#utility.yul\":2227:2231   */\n      0x24\n        /* \"#utility.yul\":2224:2225   */\n      0x00\n        /* \"#utility.yul\":2217:2232   */\n      revert\n        /* \"#utility.yul\":2244:2346   */\n    tag_33:\n        /* \"#utility.yul\":2285:2291   */\n      0x00\n        /* \"#utility.yul\":2336:2338   */\n      0x1f\n        /* \"#utility.yul\":2332:2339   */\n      not\n        /* \"#utility.yul\":2327:2329   */\n      0x1f\n        /* \"#utility.yul\":2320:2325   */\n      dup4\n        /* \"#utility.yul\":2316:2330   */\n      add\n        /* \"#utility.yul\":2312:2340   */\n      and\n        /* \"#utility.yul\":2302:2340   */\n      swap1\n      pop\n        /* \"#utility.yul\":2244:2346   */\n      swap2\n      swap1\n      pop\n      jump\t// out\n\n    auxdata: 0xa2646970667358221220f0f5f65e1b3689fc988775a713d4d22f642c8396e5d71a03f9682be07cbf5b9764736f6c63430008070033\n}\n",
				"bytecode": {
					"linkReferences": {},
					"object": "6080604052620132896000806101000a81548172ffffffffffffffffffffffffffffffffffffff021916908360120b72ffffffffffffffffffffffffffffffffffffff1602179055506040518060400160405280600e81526020017f4361726c6f73204564756172646f000000000000000000000000000000000000815250600190805190602001906100939291906100a6565b503480156100a057600080fd5b506101aa565b8280546100b290610149565b90600052602060002090601f0160209004810192826100d4576000855561011b565b82601f106100ed57805160ff191683800117855561011b565b8280016001018555821561011b579182015b8281111561011a5782518255916020019190600101906100ff565b5b509050610128919061012c565b5090565b5b8082111561014557600081600090555060010161012d565b5090565b6000600282049050600182168061016157607f821691505b602082108114156101755761017461017b565b5b50919050565b7f4e487b7100000000000000000000000000000000000000000000000000000000600052602260045260246000fd5b61029f806101b96000396000f3fe608060405234801561001057600080fd5b50600436106100365760003560e01c806306fdde031461003b578063b624cb5414610059575b600080fd5b610043610077565b6040516100509190610179565b60405180910390f35b610061610105565b60405161006e919061015e565b60405180910390f35b60018054610084906101f7565b80601f01602080910402602001604051908101604052809291908181526020018280546100b0906101f7565b80156100fd5780601f106100d2576101008083540402835291602001916100fd565b820191906000526020600020905b8154815290600101906020018083116100e057829003601f168201915b505050505081565b60008054906101000a900460120b81565b61011f816101b7565b82525050565b60006101308261019b565b61013a81856101a6565b935061014a8185602086016101c4565b61015381610258565b840191505092915050565b60006020820190506101736000830184610116565b92915050565b600060208201905081810360008301526101938184610125565b905092915050565b600081519050919050565b600082825260208201905092915050565b60008160120b9050919050565b60005b838110156101e25780820151818401526020810190506101c7565b838111156101f1576000848401525b50505050565b6000600282049050600182168061020f57607f821691505b6020821081141561022357610222610229565b5b50919050565b7f4e487b7100000000000000000000000000000000000000000000000000000000600052602260045260246000fd5b6000601f19601f830116905091905056fea2646970667358221220f0f5f65e1b3689fc988775a713d4d22f642c8396e5d71a03f9682be07cbf5b9764736f6c63430008070033",
					"opcodes": "PUSH1 0x80 PUSH1 0x40 MSTORE PUSH3 0x13289 PUSH1 0x0 DUP1 PUSH2 0x100 EXP DUP2 SLOAD DUP2 PUSH19 0xFFFFFFFFFFFFFFFFFFFFFFFFFFFFFFFFFFFFFF MUL NOT AND SWAP1 DUP4 PUSH1 0x12 SIGNEXTEND PUSH19 0xFFFFFFFFFFFFFFFFFFFFFFFFFFFFFFFFFFFFFF AND MUL OR SWAP1 SSTORE POP PUSH1 0x40 MLOAD DUP1 PUSH1 0x40 ADD PUSH1 0x40 MSTORE DUP1 PUSH1 0xE DUP2 MSTORE PUSH1 0x20 ADD PUSH32 0x4361726C6F73204564756172646F000000000000000000000000000000000000 DUP2 MSTORE POP PUSH1 0x1 SWAP1 DUP1 MLOAD SWAP1 PUSH1 0x20 ADD SWAP1 PUSH2 0x93 SWAP3 SWAP2 SWAP1 PUSH2 0xA6 JUMP JUMPDEST POP CALLVALUE DUP1 ISZERO PUSH2 0xA0 JUMPI PUSH1 0x0 DUP1 REVERT JUMPDEST POP PUSH2 0x1AA JUMP JUMPDEST DUP3 DUP1 SLOAD PUSH2 0xB2 SWAP1 PUSH2 0x149 JUMP JUMPDEST SWAP1 PUSH1 0x0 MSTORE PUSH1 0x20 PUSH1 0x0 KECCAK256 SWAP1 PUSH1 0x1F ADD PUSH1 0x20 SWAP1 DIV DUP2 ADD SWAP3 DUP3 PUSH2 0xD4 JUMPI PUSH1 0x0 DUP6 SSTORE PUSH2 0x11B JUMP JUMPDEST DUP3 PUSH1 0x1F LT PUSH2 0xED JUMPI DUP1 MLOAD PUSH1 0xFF NOT AND DUP4 DUP1 ADD OR DUP6 SSTORE PUSH2 0x11B JUMP JUMPDEST DUP3 DUP1 ADD PUSH1 0x1 ADD DUP6 SSTORE DUP3 ISZERO PUSH2 0x11B JUMPI SWAP2 DUP3 ADD JUMPDEST DUP3 DUP2 GT ISZERO PUSH2 0x11A JUMPI DUP3 MLOAD DUP3 SSTORE SWAP2 PUSH1 0x20 ADD SWAP2 SWAP1 PUSH1 0x1 ADD SWAP1 PUSH2 0xFF JUMP JUMPDEST JUMPDEST POP SWAP1 POP PUSH2 0x128 SWAP2 SWAP1 PUSH2 0x12C JUMP JUMPDEST POP SWAP1 JUMP JUMPDEST JUMPDEST DUP1 DUP3 GT ISZERO PUSH2 0x145 JUMPI PUSH1 0x0 DUP2 PUSH1 0x0 SWAP1 SSTORE POP PUSH1 0x1 ADD PUSH2 0x12D JUMP JUMPDEST POP SWAP1 JUMP JUMPDEST PUSH1 0x0 PUSH1 0x2 DUP3 DIV SWAP1 POP PUSH1 0x1 DUP3 AND DUP1 PUSH2 0x161 JUMPI PUSH1 0x7F DUP3 AND SWAP2 POP JUMPDEST PUSH1 0x20 DUP3 LT DUP2 EQ ISZERO PUSH2 0x175 JUMPI PUSH2 0x174 PUSH2 0x17B JUMP JUMPDEST JUMPDEST POP SWAP2 SWAP1 POP JUMP JUMPDEST PUSH32 0x4E487B7100000000000000000000000000000000000000000000000000000000 PUSH1 0x0 MSTORE PUSH1 0x22 PUSH1 0x4 MSTORE PUSH1 0x24 PUSH1 0x0 REVERT JUMPDEST PUSH2 0x29F DUP1 PUSH2 0x1B9 PUSH1 0x0 CODECOPY PUSH1 0x0 RETURN INVALID PUSH1 0x80 PUSH1 0x40 MSTORE CALLVALUE DUP1 ISZERO PUSH2 0x10 JUMPI PUSH1 0x0 DUP1 REVERT JUMPDEST POP PUSH1 0x4 CALLDATASIZE LT PUSH2 0x36 JUMPI PUSH1 0x0 CALLDATALOAD PUSH1 0xE0 SHR DUP1 PUSH4 0x6FDDE03 EQ PUSH2 0x3B JUMPI DUP1 PUSH4 0xB624CB54 EQ PUSH2 0x59 JUMPI JUMPDEST PUSH1 0x0 DUP1 REVERT JUMPDEST PUSH2 0x43 PUSH2 0x77 JUMP JUMPDEST PUSH1 0x40 MLOAD PUSH2 0x50 SWAP2 SWAP1 PUSH2 0x179 JUMP JUMPDEST PUSH1 0x40 MLOAD DUP1 SWAP2 SUB SWAP1 RETURN JUMPDEST PUSH2 0x61 PUSH2 0x105 JUMP JUMPDEST PUSH1 0x40 MLOAD PUSH2 0x6E SWAP2 SWAP1 PUSH2 0x15E JUMP JUMPDEST PUSH1 0x40 MLOAD DUP1 SWAP2 SUB SWAP1 RETURN JUMPDEST PUSH1 0x1 DUP1 SLOAD PUSH2 0x84 SWAP1 PUSH2 0x1F7 JUMP JUMPDEST DUP1 PUSH1 0x1F ADD PUSH1 0x20 DUP1 SWAP2 DIV MUL PUSH1 0x20 ADD PUSH1 0x40 MLOAD SWAP1 DUP2 ADD PUSH1 0x40 MSTORE DUP1 SWAP3 SWAP2 SWAP1 DUP2 DUP2 MSTORE PUSH1 0x20 ADD DUP3 DUP1 SLOAD PUSH2 0xB0 SWAP1 PUSH2 0x1F7 JUMP JUMPDEST DUP1 ISZERO PUSH2 0xFD JUMPI DUP1 PUSH1 0x1F LT PUSH2 0xD2 JUMPI PUSH2 0x100 DUP1 DUP4 SLOAD DIV MUL DUP4 MSTORE SWAP2 PUSH1 0x20 ADD SWAP2 PUSH2 0xFD JUMP JUMPDEST DUP3 ADD SWAP2 SWAP1 PUSH1 0x0 MSTORE PUSH1 0x20 PUSH1 0x0 KECCAK256 SWAP1 JUMPDEST DUP2 SLOAD DUP2 MSTORE SWAP1 PUSH1 0x1 ADD SWAP1 PUSH1 0x20 ADD DUP1 DUP4 GT PUSH2 0xE0 JUMPI DUP3 SWAP1 SUB PUSH1 0x1F AND DUP3 ADD SWAP2 JUMPDEST POP POP POP POP POP DUP2 JUMP JUMPDEST PUSH1 0x0 DUP1 SLOAD SWAP1 PUSH2 0x100 EXP SWAP1 DIV PUSH1 0x12 SIGNEXTEND DUP2 JUMP JUMPDEST PUSH2 0x11F DUP2 PUSH2 0x1B7 JUMP JUMPDEST DUP3 MSTORE POP POP JUMP JUMPDEST PUSH1 0x0 PUSH2 0x130 DUP3 PUSH2 0x19B JUMP JUMPDEST PUSH2 0x13A DUP2 DUP6 PUSH2 0x1A6 JUMP JUMPDEST SWAP4 POP PUSH2 0x14A DUP2 DUP6 PUSH1 0x20 DUP7 ADD PUSH2 0x1C4 JUMP JUMPDEST PUSH2 0x153 DUP2 PUSH2 0x258 JUMP JUMPDEST DUP5 ADD SWAP2 POP POP SWAP3 SWAP2 POP POP JUMP JUMPDEST PUSH1 0x0 PUSH1 0x20 DUP3 ADD SWAP1 POP PUSH2 0x173 PUSH1 0x0 DUP4 ADD DUP5 PUSH2 0x116 JUMP JUMPDEST SWAP3 SWAP2 POP POP JUMP JUMPDEST PUSH1 0x0 PUSH1 0x20 DUP3 ADD SWAP1 POP DUP2 DUP2 SUB PUSH1 0x0 DUP4 ADD MSTORE PUSH2 0x193 DUP2 DUP5 PUSH2 0x125 JUMP JUMPDEST SWAP1 POP SWAP3 SWAP2 POP POP JUMP JUMPDEST PUSH1 0x0 DUP2 MLOAD SWAP1 POP SWAP2 SWAP1 POP JUMP JUMPDEST PUSH1 0x0 DUP3 DUP3 MSTORE PUSH1 0x20 DUP3 ADD SWAP1 POP SWAP3 SWAP2 POP POP JUMP JUMPDEST PUSH1 0x0 DUP2 PUSH1 0x12 SIGNEXTEND SWAP1 POP SWAP2 SWAP1 POP JUMP JUMPDEST PUSH1 0x0 JUMPDEST DUP4 DUP2 LT ISZERO PUSH2 0x1E2 JUMPI DUP1 DUP3 ADD MLOAD DUP2 DUP5 ADD MSTORE PUSH1 0x20 DUP2 ADD SWAP1 POP PUSH2 0x1C7 JUMP JUMPDEST DUP4 DUP2 GT ISZERO PUSH2 0x1F1 JUMPI PUSH1 0x0 DUP5 DUP5 ADD MSTORE JUMPDEST POP POP POP POP JUMP JUMPDEST PUSH1 0x0 PUSH1 0x2 DUP3 DIV SWAP1 POP PUSH1 0x1 DUP3 AND DUP1 PUSH2 0x20F JUMPI PUSH1 0x7F DUP3 AND SWAP2 POP JUMPDEST PUSH1 0x20 DUP3 LT DUP2 EQ ISZERO PUSH2 0x223 JUMPI PUSH2 0x222 PUSH2 0x229 JUMP JUMPDEST JUMPDEST POP SWAP2 SWAP1 POP JUMP JUMPDEST PUSH32 0x4E487B7100000000000000000000000000000000000000000000000000000000 PUSH1 0x0 MSTORE PUSH1 0x22 PUSH1 0x4 MSTORE PUSH1 0x24 PUSH1 0x0 REVERT JUMPDEST PUSH1 0x0 PUSH1 0x1F NOT PUSH1 0x1F DUP4 ADD AND SWAP1 POP SWAP2 SWAP1 POP JUMP INVALID LOG2 PUSH5 0x6970667358 0x22 SLT KECCAK256 CREATE CREATE2 0xF6 0x5E SHL CALLDATASIZE DUP10 0xFC SWAP9 DUP8 PUSH22 0xA713D4D22F642C8396E5D71A03F9682BE07CBF5B9764 PUSH20 0x6F6C634300080700330000000000000000000000 "
				},
				"gasEstimates": {
					"creation": {
						"codeDepositCost": "134200",
						"executionCost": "infinite",
						"totalCost": "infinite"
					},
					"external": {
						"inteiro()": "2472",
						"name()": "infinite"
					}
				},
				"methodIdentifiers": {
					"inteiro()": "b624cb54",
					"name()": "06fdde03"
				}
			},
			"storageLayout": {
				"storage": [
					{
						"astId": 4,
						"contract": "contracts/tipos.sol:Tipos",
						"label": "inteiro",
						"offset": 0,
						"slot": "0",
						"type": "t_int152"
					},
					{
						"astId": 7,
						"contract": "contracts/tipos.sol:Tipos",
						"label": "name",
						"offset": 0,
						"slot": "1",
						"type": "t_string_storage"
					}
				],
				"types": {
					"t_int152": {
						"encoding": "inplace",
						"label": "int152",
						"numberOfBytes": "19"
					},
					"t_string_storage": {
						"encoding": "bytes",
						"label": "string",
						"numberOfBytes": "32"
					}
				}
			},
			"userdoc": {
				"kind": "user",
				"methods": {},
				"version": 1
			}
		}
	}
}