{
	"contracts/tipos.sol": {
		"Tipos": {
			"abi": [
				{
					"inputs": [],
					"name": "inteiro",
					"outputs": [
						{
							"internalType": "int152",
							"name": "",
							"type": "int152"
						}
					],
					"stateMutability": "view",
					"type": "function"
				},
				{
					"inputs": [],
					"name": "unintzeiro",
					"outputs": [
						{
							"internalType": "uint248",
							"name": "",
							"type": "uint248"
						}
					],
					"stateMutability": "view",
					"type": "function"
				},
				{
					"inputs": [],
					"name": "valorbytes",
					"outputs": [
						{
							"internalType": "bytes2",
							"name": "",
							"type": "bytes2"
						}
					],
					"stateMutability": "view",
					"type": "function"
				}
			],
			"devdoc": {
				"kind": "dev",
				"methods": {},
				"version": 1
			},
			"evm": {
				"assembly": "    /* \"contracts/tipos.sol\":58:201  contract Tipos{\r... */\n  mstore(0x40, 0x80)\n    /* \"contracts/tipos.sol\":103:108  78473 */\n  0x013289\n    /* \"contracts/tipos.sol\":79:108  int152 public inteiro = 78473 */\n  0x00\n  dup1\n  0x0100\n  exp\n  dup2\n  sload\n  dup2\n  0xffffffffffffffffffffffffffffffffffffff\n  mul\n  not\n  and\n  swap1\n  dup4\n  0x12\n  signextend\n  0xffffffffffffffffffffffffffffffffffffff\n  and\n  mul\n  or\n  swap1\n  sstore\n  pop\n    /* \"contracts/tipos.sol\":143:145  10 */\n  0x0a\n    /* \"contracts/tipos.sol\":115:145  uint248 public unintzeiro = 10 */\n  0x01\n  exp(0x0100, 0x00)\n  dup2\n  sload\n  dup2\n  0xffffffffffffffffffffffffffffffffffffffffffffffffffffffffffffff\n  mul\n  not\n  and\n  swap1\n  dup4\n  0xffffffffffffffffffffffffffffffffffffffffffffffffffffffffffffff\n  and\n  mul\n  or\n  swap1\n  sstore\n  pop\n    /* \"contracts/tipos.sol\":179:185  0x34f4 */\n  0x34f4\n    /* \"contracts/tipos.sol\":152:185  bytes2 public valorbytes = 0x34f4 */\n  0xf0\n  shl\n  0x02\n  exp(0x0100, 0x00)\n  dup2\n  sload\n  dup2\n  0xffff\n  mul\n  not\n  and\n  swap1\n  dup4\n  0xf0\n  shr\n  mul\n  or\n  swap1\n  sstore\n  pop\n    /* \"contracts/tipos.sol\":58:201  contract Tipos{\r... */\n  callvalue\n  dup1\n  iszero\n  tag_1\n  jumpi\n  0x00\n  dup1\n  revert\ntag_1:\n  pop\n  dataSize(sub_0)\n  dup1\n  dataOffset(sub_0)\n  0x00\n  codecopy\n  0x00\n  return\nstop\n\nsub_0: assembly {\n        /* \"contracts/tipos.sol\":58:201  contract Tipos{\r... */\n      mstore(0x40, 0x80)\n      callvalue\n      dup1\n      iszero\n      tag_1\n      jumpi\n      0x00\n      dup1\n      revert\n    tag_1:\n      pop\n      jumpi(tag_2, lt(calldatasize, 0x04))\n      shr(0xe0, calldataload(0x00))\n      dup1\n      0xae45e45d\n      eq\n      tag_3\n      jumpi\n      dup1\n      0xb624cb54\n      eq\n      tag_4\n      jumpi\n      dup1\n      0xf5688131\n      eq\n      tag_5\n      jumpi\n    tag_2:\n      0x00\n      dup1\n      revert\n        /* \"contracts/tipos.sol\":115:145  uint248 public unintzeiro = 10 */\n    tag_3:\n      tag_6\n      tag_7\n      jump\t// in\n    tag_6:\n      mload(0x40)\n      tag_8\n      swap2\n      swap1\n      tag_9\n      jump\t// in\n    tag_8:\n      mload(0x40)\n      dup1\n      swap2\n      sub\n      swap1\n      return\n        /* \"contracts/tipos.sol\":79:108  int152 public inteiro = 78473 */\n    tag_4:\n      tag_10\n      tag_11\n      jump\t// in\n    tag_10:\n      mload(0x40)\n      tag_12\n      swap2\n      swap1\n      tag_13\n      jump\t// in\n    tag_12:\n      mload(0x40)\n      dup1\n      swap2\n      sub\n      swap1\n      return\n        /* \"contracts/tipos.sol\":152:185  bytes2 public valorbytes = 0x34f4 */\n    tag_5:\n      tag_14\n      tag_15\n      jump\t// in\n    tag_14:\n      mload(0x40)\n      tag_16\n      swap2\n      swap1\n      tag_17\n      jump\t// in\n    tag_16:\n      mload(0x40)\n      dup1\n      swap2\n      sub\n      swap1\n      return\n        /* \"contracts/tipos.sol\":115:145  uint248 public unintzeiro = 10 */\n    tag_7:\n      0x01\n      0x00\n      swap1\n      sload\n      swap1\n      0x0100\n      exp\n      swap1\n      div\n      0xffffffffffffffffffffffffffffffffffffffffffffffffffffffffffffff\n      and\n      dup2\n      jump\t// out\n        /* \"contracts/tipos.sol\":79:108  int152 public inteiro = 78473 */\n    tag_11:\n      0x00\n      dup1\n      sload\n      swap1\n      0x0100\n      exp\n      swap1\n      div\n      0x12\n      signextend\n      dup2\n      jump\t// out\n        /* \"contracts/tipos.sol\":152:185  bytes2 public valorbytes = 0x34f4 */\n    tag_15:\n      0x02\n      0x00\n      swap1\n      sload\n      swap1\n      0x0100\n      exp\n      swap1\n      div\n      0xf0\n      shl\n      dup2\n      jump\t// out\n        /* \"#utility.yul\":7:122   */\n    tag_19:\n        /* \"#utility.yul\":92:115   */\n      tag_21\n        /* \"#utility.yul\":109:114   */\n      dup2\n        /* \"#utility.yul\":92:115   */\n      tag_22\n      jump\t// in\n    tag_21:\n        /* \"#utility.yul\":87:90   */\n      dup3\n        /* \"#utility.yul\":80:116   */\n      mstore\n        /* \"#utility.yul\":7:122   */\n      pop\n      pop\n      jump\t// out\n        /* \"#utility.yul\":128:243   */\n    tag_23:\n        /* \"#utility.yul\":213:236   */\n      tag_25\n        /* \"#utility.yul\":230:235   */\n      dup2\n        /* \"#utility.yul\":213:236   */\n      tag_26\n      jump\t// in\n    tag_25:\n        /* \"#utility.yul\":208:211   */\n      dup3\n        /* \"#utility.yul\":201:237   */\n      mstore\n        /* \"#utility.yul\":128:243   */\n      pop\n      pop\n      jump\t// out\n        /* \"#utility.yul\":249:367   */\n    tag_27:\n        /* \"#utility.yul\":336:360   */\n      tag_29\n        /* \"#utility.yul\":354:359   */\n      dup2\n        /* \"#utility.yul\":336:360   */\n      tag_30\n      jump\t// in\n    tag_29:\n        /* \"#utility.yul\":331:334   */\n      dup3\n        /* \"#utility.yul\":324:361   */\n      mstore\n        /* \"#utility.yul\":249:367   */\n      pop\n      pop\n      jump\t// out\n        /* \"#utility.yul\":373:591   */\n    tag_17:\n        /* \"#utility.yul\":464:468   */\n      0x00\n        /* \"#utility.yul\":502:504   */\n      0x20\n        /* \"#utility.yul\":491:500   */\n      dup3\n        /* \"#utility.yul\":487:505   */\n      add\n        /* \"#utility.yul\":479:505   */\n      swap1\n      pop\n        /* \"#utility.yul\":515:584   */\n      tag_32\n        /* \"#utility.yul\":581:582   */\n      0x00\n        /* \"#utility.yul\":570:579   */\n      dup4\n        /* \"#utility.yul\":566:583   */\n      add\n        /* \"#utility.yul\":557:563   */\n      dup5\n        /* \"#utility.yul\":515:584   */\n      tag_19\n      jump\t// in\n    tag_32:\n        /* \"#utility.yul\":373:591   */\n      swap3\n      swap2\n      pop\n      pop\n      jump\t// out\n        /* \"#utility.yul\":597:815   */\n    tag_13:\n        /* \"#utility.yul\":688:692   */\n      0x00\n        /* \"#utility.yul\":726:728   */\n      0x20\n        /* \"#utility.yul\":715:724   */\n      dup3\n        /* \"#utility.yul\":711:729   */\n      add\n        /* \"#utility.yul\":703:729   */\n      swap1\n      pop\n        /* \"#utility.yul\":739:808   */\n      tag_34\n        /* \"#utility.yul\":805:806   */\n      0x00\n        /* \"#utility.yul\":794:803   */\n      dup4\n        /* \"#utility.yul\":790:807   */\n      add\n        /* \"#utility.yul\":781:787   */\n      dup5\n        /* \"#utility.yul\":739:808   */\n      tag_23\n      jump\t// in\n    tag_34:\n        /* \"#utility.yul\":597:815   */\n      swap3\n      swap2\n      pop\n      pop\n      jump\t// out\n        /* \"#utility.yul\":821:1043   */\n    tag_9:\n        /* \"#utility.yul\":914:918   */\n      0x00\n        /* \"#utility.yul\":952:954   */\n      0x20\n        /* \"#utility.yul\":941:950   */\n      dup3\n        /* \"#utility.yul\":937:955   */\n      add\n        /* \"#utility.yul\":929:955   */\n      swap1\n      pop\n        /* \"#utility.yul\":965:1036   */\n      tag_36\n        /* \"#utility.yul\":1033:1034   */\n      0x00\n        /* \"#utility.yul\":1022:1031   */\n      dup4\n        /* \"#utility.yul\":1018:1035   */\n      add\n        /* \"#utility.yul\":1009:1015   */\n      dup5\n        /* \"#utility.yul\":965:1036   */\n      tag_27\n      jump\t// in\n    tag_36:\n        /* \"#utility.yul\":821:1043   */\n      swap3\n      swap2\n      pop\n      pop\n      jump\t// out\n        /* \"#utility.yul\":1049:1198   */\n    tag_22:\n        /* \"#utility.yul\":1085:1092   */\n      0x00\n        /* \"#utility.yul\":1125:1191   */\n      0xffff000000000000000000000000000000000000000000000000000000000000\n        /* \"#utility.yul\":1118:1123   */\n      dup3\n        /* \"#utility.yul\":1114:1192   */\n      and\n        /* \"#utility.yul\":1103:1192   */\n      swap1\n      pop\n        /* \"#utility.yul\":1049:1198   */\n      swap2\n      swap1\n      pop\n      jump\t// out\n        /* \"#utility.yul\":1204:1296   */\n    tag_26:\n        /* \"#utility.yul\":1240:1247   */\n      0x00\n        /* \"#utility.yul\":1284:1289   */\n      dup2\n        /* \"#utility.yul\":1280:1282   */\n      0x12\n        /* \"#utility.yul\":1269:1290   */\n      signextend\n        /* \"#utility.yul\":1258:1290   */\n      swap1\n      pop\n        /* \"#utility.yul\":1204:1296   */\n      swap2\n      swap1\n      pop\n      jump\t// out\n        /* \"#utility.yul\":1302:1450   */\n    tag_30:\n        /* \"#utility.yul\":1339:1346   */\n      0x00\n        /* \"#utility.yul\":1379:1443   */\n      0xffffffffffffffffffffffffffffffffffffffffffffffffffffffffffffff\n        /* \"#utility.yul\":1372:1377   */\n      dup3\n        /* \"#utility.yul\":1368:1444   */\n      and\n        /* \"#utility.yul\":1357:1444   */\n      swap1\n      pop\n        /* \"#utility.yul\":1302:1450   */\n      swap2\n      swap1\n      pop\n      jump\t// out\n\n    auxdata: 0xa26469706673582212201115729374b594b1521192f280ee63c1606742397153ac6c579bf7651167081f64736f6c63430008070033\n}\n",
				"bytecode": {
					"linkReferences": {},
					"object": "6080604052620132896000806101000a81548172ffffffffffffffffffffffffffffffffffffff021916908360120b72ffffffffffffffffffffffffffffffffffffff160217905550600a600160006101000a8154817effffffffffffffffffffffffffffffffffffffffffffffffffffffffffffff02191690837effffffffffffffffffffffffffffffffffffffffffffffffffffffffffffff1602179055506134f460f01b600260006101000a81548161ffff021916908360f01c02179055503480156100cd57600080fd5b5061020d806100dd6000396000f3fe608060405234801561001057600080fd5b50600436106100415760003560e01c8063ae45e45d14610046578063b624cb5414610064578063f568813114610082575b600080fd5b61004e6100a0565b60405161005b9190610158565b60405180910390f35b61006c6100d1565b604051610079919061013d565b60405180910390f35b61008a6100e2565b6040516100979190610122565b60405180910390f35b600160009054906101000a90047effffffffffffffffffffffffffffffffffffffffffffffffffffffffffffff1681565b60008054906101000a900460120b81565b600260009054906101000a900460f01b81565b6100fe81610173565b82525050565b61010d8161019f565b82525050565b61011c816101ac565b82525050565b600060208201905061013760008301846100f5565b92915050565b60006020820190506101526000830184610104565b92915050565b600060208201905061016d6000830184610113565b92915050565b60007fffff00000000000000000000000000000000000000000000000000000000000082169050919050565b60008160120b9050919050565b60007effffffffffffffffffffffffffffffffffffffffffffffffffffffffffffff8216905091905056fea26469706673582212201115729374b594b1521192f280ee63c1606742397153ac6c579bf7651167081f64736f6c63430008070033",
					"opcodes": "PUSH1 0x80 PUSH1 0x40 MSTORE PUSH3 0x13289 PUSH1 0x0 DUP1 PUSH2 0x100 EXP DUP2 SLOAD DUP2 PUSH19 0xFFFFFFFFFFFFFFFFFFFFFFFFFFFFFFFFFFFFFF MUL NOT AND SWAP1 DUP4 PUSH1 0x12 SIGNEXTEND PUSH19 0xFFFFFFFFFFFFFFFFFFFFFFFFFFFFFFFFFFFFFF AND MUL OR SWAP1 SSTORE POP PUSH1 0xA PUSH1 0x1 PUSH1 0x0 PUSH2 0x100 EXP DUP2 SLOAD DUP2 PUSH31 0xFFFFFFFFFFFFFFFFFFFFFFFFFFFFFFFFFFFFFFFFFFFFFFFFFFFFFFFFFFFFFF MUL NOT AND SWAP1 DUP4 PUSH31 0xFFFFFFFFFFFFFFFFFFFFFFFFFFFFFFFFFFFFFFFFFFFFFFFFFFFFFFFFFFFFFF AND MUL OR SWAP1 SSTORE POP PUSH2 0x34F4 PUSH1 0xF0 SHL PUSH1 0x2 PUSH1 0x0 PUSH2 0x100 EXP DUP2 SLOAD DUP2 PUSH2 0xFFFF MUL NOT AND SWAP1 DUP4 PUSH1 0xF0 SHR MUL OR SWAP1 SSTORE POP CALLVALUE DUP1 ISZERO PUSH2 0xCD JUMPI PUSH1 0x0 DUP1 REVERT JUMPDEST POP PUSH2 0x20D DUP1 PUSH2 0xDD PUSH1 0x0 CODECOPY PUSH1 0x0 RETURN INVALID PUSH1 0x80 PUSH1 0x40 MSTORE CALLVALUE DUP1 ISZERO PUSH2 0x10 JUMPI PUSH1 0x0 DUP1 REVERT JUMPDEST POP PUSH1 0x4 CALLDATASIZE LT PUSH2 0x41 JUMPI PUSH1 0x0 CALLDATALOAD PUSH1 0xE0 SHR DUP1 PUSH4 0xAE45E45D EQ PUSH2 0x46 JUMPI DUP1 PUSH4 0xB624CB54 EQ PUSH2 0x64 JUMPI DUP1 PUSH4 0xF5688131 EQ PUSH2 0x82 JUMPI JUMPDEST PUSH1 0x0 DUP1 REVERT JUMPDEST PUSH2 0x4E PUSH2 0xA0 JUMP JUMPDEST PUSH1 0x40 MLOAD PUSH2 0x5B SWAP2 SWAP1 PUSH2 0x158 JUMP JUMPDEST PUSH1 0x40 MLOAD DUP1 SWAP2 SUB SWAP1 RETURN JUMPDEST PUSH2 0x6C PUSH2 0xD1 JUMP JUMPDEST PUSH1 0x40 MLOAD PUSH2 0x79 SWAP2 SWAP1 PUSH2 0x13D JUMP JUMPDEST PUSH1 0x40 MLOAD DUP1 SWAP2 SUB SWAP1 RETURN JUMPDEST PUSH2 0x8A PUSH2 0xE2 JUMP JUMPDEST PUSH1 0x40 MLOAD PUSH2 0x97 SWAP2 SWAP1 PUSH2 0x122 JUMP JUMPDEST PUSH1 0x40 MLOAD DUP1 SWAP2 SUB SWAP1 RETURN JUMPDEST PUSH1 0x1 PUSH1 0x0 SWAP1 SLOAD SWAP1 PUSH2 0x100 EXP SWAP1 DIV PUSH31 0xFFFFFFFFFFFFFFFFFFFFFFFFFFFFFFFFFFFFFFFFFFFFFFFFFFFFFFFFFFFFFF AND DUP2 JUMP JUMPDEST PUSH1 0x0 DUP1 SLOAD SWAP1 PUSH2 0x100 EXP SWAP1 DIV PUSH1 0x12 SIGNEXTEND DUP2 JUMP JUMPDEST PUSH1 0x2 PUSH1 0x0 SWAP1 SLOAD SWAP1 PUSH2 0x100 EXP SWAP1 DIV PUSH1 0xF0 SHL DUP2 JUMP JUMPDEST PUSH2 0xFE DUP2 PUSH2 0x173 JUMP JUMPDEST DUP3 MSTORE POP POP JUMP JUMPDEST PUSH2 0x10D DUP2 PUSH2 0x19F JUMP JUMPDEST DUP3 MSTORE POP POP JUMP JUMPDEST PUSH2 0x11C DUP2 PUSH2 0x1AC JUMP JUMPDEST DUP3 MSTORE POP POP JUMP JUMPDEST PUSH1 0x0 PUSH1 0x20 DUP3 ADD SWAP1 POP PUSH2 0x137 PUSH1 0x0 DUP4 ADD DUP5 PUSH2 0xF5 JUMP JUMPDEST SWAP3 SWAP2 POP POP JUMP JUMPDEST PUSH1 0x0 PUSH1 0x20 DUP3 ADD SWAP1 POP PUSH2 0x152 PUSH1 0x0 DUP4 ADD DUP5 PUSH2 0x104 JUMP JUMPDEST SWAP3 SWAP2 POP POP JUMP JUMPDEST PUSH1 0x0 PUSH1 0x20 DUP3 ADD SWAP1 POP PUSH2 0x16D PUSH1 0x0 DUP4 ADD DUP5 PUSH2 0x113 JUMP JUMPDEST SWAP3 SWAP2 POP POP JUMP JUMPDEST PUSH1 0x0 PUSH32 0xFFFF000000000000000000000000000000000000000000000000000000000000 DUP3 AND SWAP1 POP SWAP2 SWAP1 POP JUMP JUMPDEST PUSH1 0x0 DUP2 PUSH1 0x12 SIGNEXTEND SWAP1 POP SWAP2 SWAP1 POP JUMP JUMPDEST PUSH1 0x0 PUSH31 0xFFFFFFFFFFFFFFFFFFFFFFFFFFFFFFFFFFFFFFFFFFFFFFFFFFFFFFFFFFFFFF DUP3 AND SWAP1 POP SWAP2 SWAP1 POP JUMP INVALID LOG2 PUSH5 0x6970667358 0x22 SLT KECCAK256 GT ISZERO PUSH19 0x9374B594B1521192F280EE63C1606742397153 0xAC PUSH13 0x579BF7651167081F64736F6C63 NUMBER STOP ADDMOD SMOD STOP CALLER "
				},
				"gasEstimates": {
					"creation": {
						"codeDepositCost": "105000",
						"executionCost": "72968",
						"totalCost": "177968"
					},
					"external": {
						"inteiro()": "2472",
						"unintzeiro()": "2449",
						"valorbytes()": "2493"
					}
				},
				"methodIdentifiers": {
					"inteiro()": "b624cb54",
					"unintzeiro()": "ae45e45d",
					"valorbytes()": "f5688131"
				}
			},
			"storageLayout": {
				"storage": [
					{
						"astId": 4,
						"contract": "contracts/tipos.sol:Tipos",
						"label": "inteiro",
						"offset": 0,
						"slot": "0",
						"type": "t_int152"
					},
					{
						"astId": 7,
						"contract": "contracts/tipos.sol:Tipos",
						"label": "unintzeiro",
						"offset": 0,
						"slot": "1",
						"type": "t_uint248"
					},
					{
						"astId": 10,
						"contract": "contracts/tipos.sol:Tipos",
						"label": "valorbytes",
						"offset": 0,
						"slot": "2",
						"type": "t_bytes2"
					}
				],
				"types": {
					"t_bytes2": {
						"encoding": "inplace",
						"label": "bytes2",
						"numberOfBytes": "2"
					},
					"t_int152": {
						"encoding": "inplace",
						"label": "int152",
						"numberOfBytes": "19"
					},
					"t_uint248": {
						"encoding": "inplace",
						"label": "uint248",
						"numberOfBytes": "31"
					}
				}
			},
			"userdoc": {
				"kind": "user",
				"methods": {},
				"version": 1
			}
		}
	}
}