{
	"contracts/transacaoSendBNB.sol": {
		"implicitasV": {
			"abi": [
				{
					"inputs": [],
					"stateMutability": "payable",
					"type": "constructor"
				},
				{
					"inputs": [],
					"name": "chamou",
					"outputs": [
						{
							"internalType": "address",
							"name": "",
							"type": "address"
						}
					],
					"stateMutability": "view",
					"type": "function"
				},
				{
					"inputs": [],
					"name": "dificult",
					"outputs": [
						{
							"internalType": "uint256",
							"name": "",
							"type": "uint256"
						}
					],
					"stateMutability": "view",
					"type": "function"
				},
				{
					"inputs": [],
					"name": "endereco_proprietario",
					"outputs": [
						{
							"internalType": "address",
							"name": "",
							"type": "address"
						}
					],
					"stateMutability": "view",
					"type": "function"
				},
				{
					"inputs": [],
					"name": "enviou",
					"outputs": [
						{
							"internalType": "address",
							"name": "",
							"type": "address"
						}
					],
					"stateMutability": "view",
					"type": "function"
				},
				{
					"inputs": [],
					"name": "id",
					"outputs": [
						{
							"internalType": "uint256",
							"name": "",
							"type": "uint256"
						}
					],
					"stateMutability": "view",
					"type": "function"
				},
				{
					"inputs": [],
					"name": "limit",
					"outputs": [
						{
							"internalType": "uint256",
							"name": "",
							"type": "uint256"
						}
					],
					"stateMutability": "view",
					"type": "function"
				},
				{
					"inputs": [],
					"name": "numero_block",
					"outputs": [
						{
							"internalType": "uint256",
							"name": "",
							"type": "uint256"
						}
					],
					"stateMutability": "view",
					"type": "function"
				},
				{
					"inputs": [],
					"name": "timesstamp",
					"outputs": [
						{
							"internalType": "uint256",
							"name": "",
							"type": "uint256"
						}
					],
					"stateMutability": "view",
					"type": "function"
				},
				{
					"inputs": [],
					"name": "valor",
					"outputs": [
						{
							"internalType": "uint256",
							"name": "",
							"type": "uint256"
						}
					],
					"stateMutability": "view",
					"type": "function"
				}
			],
			"devdoc": {
				"kind": "dev",
				"methods": {},
				"version": 1
			},
			"evm": {
				"assembly": "    /* \"contracts/transacaoSendBNB.sol\":58:794  contract implicitasV{\r... */\n  mstore(0x40, 0x80)\n    /* \"contracts/transacaoSendBNB.sol\":381:394  block.chainid */\n  chainid\n    /* \"contracts/transacaoSendBNB.sol\":376:378  id */\n  0x00\n    /* \"contracts/transacaoSendBNB.sol\":376:394  id = block.chainid */\n  dup2\n  swap1\n  sstore\n  pop\n    /* \"contracts/transacaoSendBNB.sol\":429:443  block.coinbase */\n  coinbase\n    /* \"contracts/transacaoSendBNB.sol\":405:426  endereco_proprietario */\n  0x01\n  0x00\n    /* \"contracts/transacaoSendBNB.sol\":405:443  endereco_proprietario = block.coinbase */\n  0x0100\n  exp\n  dup2\n  sload\n  dup2\n  0xffffffffffffffffffffffffffffffffffffffff\n  mul\n  not\n  and\n  swap1\n  dup4\n  0xffffffffffffffffffffffffffffffffffffffff\n  and\n  mul\n  or\n  swap1\n  sstore\n  pop\n    /* \"contracts/transacaoSendBNB.sol\":465:481  block.difficulty */\n  difficulty\n    /* \"contracts/transacaoSendBNB.sol\":454:462  dificult */\n  0x02\n    /* \"contracts/transacaoSendBNB.sol\":454:481  dificult = block.difficulty */\n  dup2\n  swap1\n  sstore\n  pop\n    /* \"contracts/transacaoSendBNB.sol\":500:514  block.gaslimit */\n  gaslimit\n    /* \"contracts/transacaoSendBNB.sol\":492:497  limit */\n  0x03\n    /* \"contracts/transacaoSendBNB.sol\":492:514  limit = block.gaslimit */\n  dup2\n  swap1\n  sstore\n  pop\n    /* \"contracts/transacaoSendBNB.sol\":540:552  block.number */\n  number\n    /* \"contracts/transacaoSendBNB.sol\":525:537  numero_block */\n  0x04\n    /* \"contracts/transacaoSendBNB.sol\":525:552  numero_block = block.number */\n  dup2\n  swap1\n  sstore\n  pop\n    /* \"contracts/transacaoSendBNB.sol\":576:591  block.timestamp */\n  timestamp\n    /* \"contracts/transacaoSendBNB.sol\":563:573  timesstamp */\n  0x05\n    /* \"contracts/transacaoSendBNB.sol\":563:591  timesstamp = block.timestamp */\n  dup2\n  swap1\n  sstore\n  pop\n    /* \"contracts/transacaoSendBNB.sol\":611:621  msg.sender */\n  caller\n    /* \"contracts/transacaoSendBNB.sol\":602:608  chamou */\n  0x06\n  0x00\n    /* \"contracts/transacaoSendBNB.sol\":602:621  chamou = msg.sender */\n  0x0100\n  exp\n  dup2\n  sload\n  dup2\n  0xffffffffffffffffffffffffffffffffffffffff\n  mul\n  not\n  and\n  swap1\n  dup4\n  0xffffffffffffffffffffffffffffffffffffffff\n  and\n  mul\n  or\n  swap1\n  sstore\n  pop\n    /* \"contracts/transacaoSendBNB.sol\":671:680  msg.value */\n  callvalue\n    /* \"contracts/transacaoSendBNB.sol\":663:668  valor */\n  0x07\n    /* \"contracts/transacaoSendBNB.sol\":663:680  valor = msg.value */\n  dup2\n  swap1\n  sstore\n  pop\n    /* \"contracts/transacaoSendBNB.sol\":736:745  tx.origin */\n  origin\n    /* \"contracts/transacaoSendBNB.sol\":727:733  enviou */\n  0x08\n  0x00\n    /* \"contracts/transacaoSendBNB.sol\":727:745  enviou = tx.origin */\n  0x0100\n  exp\n  dup2\n  sload\n  dup2\n  0xffffffffffffffffffffffffffffffffffffffff\n  mul\n  not\n  and\n  swap1\n  dup4\n  0xffffffffffffffffffffffffffffffffffffffff\n  and\n  mul\n  or\n  swap1\n  sstore\n  pop\n    /* \"contracts/transacaoSendBNB.sol\":58:794  contract implicitasV{\r... */\n  dataSize(sub_0)\n  dup1\n  dataOffset(sub_0)\n  0x00\n  codecopy\n  0x00\n  return\nstop\n\nsub_0: assembly {\n        /* \"contracts/transacaoSendBNB.sol\":58:794  contract implicitasV{\r... */\n      mstore(0x40, 0x80)\n      callvalue\n      dup1\n      iszero\n      tag_1\n      jumpi\n      0x00\n      dup1\n      revert\n    tag_1:\n      pop\n      jumpi(tag_2, lt(calldatasize, 0x04))\n      shr(0xe0, calldataload(0x00))\n      dup1\n      0x9f9445be\n      gt\n      tag_12\n      jumpi\n      dup1\n      0x9f9445be\n      eq\n      tag_7\n      jumpi\n      dup1\n      0x9fbc1e31\n      eq\n      tag_8\n      jumpi\n      dup1\n      0xa4d66daf\n      eq\n      tag_9\n      jumpi\n      dup1\n      0xaf640d0f\n      eq\n      tag_10\n      jumpi\n      dup1\n      0xecbac7cf\n      eq\n      tag_11\n      jumpi\n      jump(tag_2)\n    tag_12:\n      dup1\n      0x21d62564\n      eq\n      tag_3\n      jumpi\n      dup1\n      0x2cfa94af\n      eq\n      tag_4\n      jumpi\n      dup1\n      0x54f8f9f9\n      eq\n      tag_5\n      jumpi\n      dup1\n      0x7b472dab\n      eq\n      tag_6\n      jumpi\n    tag_2:\n      0x00\n      dup1\n      revert\n        /* \"contracts/transacaoSendBNB.sol\":205:229  uint public numero_block */\n    tag_3:\n      tag_13\n      tag_14\n      jump\t// in\n    tag_13:\n      mload(0x40)\n      tag_15\n      swap2\n      swap1\n      tag_16\n      jump\t// in\n    tag_15:\n      mload(0x40)\n      dup1\n      swap2\n      sub\n      swap1\n      return\n        /* \"contracts/transacaoSendBNB.sol\":236:258  uint public timesstamp */\n    tag_4:\n      tag_17\n      tag_18\n      jump\t// in\n    tag_17:\n      mload(0x40)\n      tag_19\n      swap2\n      swap1\n      tag_16\n      jump\t// in\n    tag_19:\n      mload(0x40)\n      dup1\n      swap2\n      sub\n      swap1\n      return\n        /* \"contracts/transacaoSendBNB.sol\":317:338  address public enviou */\n    tag_5:\n      tag_20\n      tag_21\n      jump\t// in\n    tag_20:\n      mload(0x40)\n      tag_22\n      swap2\n      swap1\n      tag_23\n      jump\t// in\n    tag_22:\n      mload(0x40)\n      dup1\n      swap2\n      sub\n      swap1\n      return\n        /* \"contracts/transacaoSendBNB.sol\":265:286  address public chamou */\n    tag_6:\n      tag_24\n      tag_25\n      jump\t// in\n    tag_24:\n      mload(0x40)\n      tag_26\n      swap2\n      swap1\n      tag_23\n      jump\t// in\n    tag_26:\n      mload(0x40)\n      dup1\n      swap2\n      sub\n      swap1\n      return\n        /* \"contracts/transacaoSendBNB.sol\":111:147  address public endereco_proprietario */\n    tag_7:\n      tag_27\n      tag_28\n      jump\t// in\n    tag_27:\n      mload(0x40)\n      tag_29\n      swap2\n      swap1\n      tag_23\n      jump\t// in\n    tag_29:\n      mload(0x40)\n      dup1\n      swap2\n      sub\n      swap1\n      return\n        /* \"contracts/transacaoSendBNB.sol\":154:174  uint public dificult */\n    tag_8:\n      tag_30\n      tag_31\n      jump\t// in\n    tag_30:\n      mload(0x40)\n      tag_32\n      swap2\n      swap1\n      tag_16\n      jump\t// in\n    tag_32:\n      mload(0x40)\n      dup1\n      swap2\n      sub\n      swap1\n      return\n        /* \"contracts/transacaoSendBNB.sol\":181:198  uint public limit */\n    tag_9:\n      tag_33\n      tag_34\n      jump\t// in\n    tag_33:\n      mload(0x40)\n      tag_35\n      swap2\n      swap1\n      tag_16\n      jump\t// in\n    tag_35:\n      mload(0x40)\n      dup1\n      swap2\n      sub\n      swap1\n      return\n        /* \"contracts/transacaoSendBNB.sol\":90:104  uint public id */\n    tag_10:\n      tag_36\n      tag_37\n      jump\t// in\n    tag_36:\n      mload(0x40)\n      tag_38\n      swap2\n      swap1\n      tag_16\n      jump\t// in\n    tag_38:\n      mload(0x40)\n      dup1\n      swap2\n      sub\n      swap1\n      return\n        /* \"contracts/transacaoSendBNB.sol\":293:310  uint public valor */\n    tag_11:\n      tag_39\n      tag_40\n      jump\t// in\n    tag_39:\n      mload(0x40)\n      tag_41\n      swap2\n      swap1\n      tag_16\n      jump\t// in\n    tag_41:\n      mload(0x40)\n      dup1\n      swap2\n      sub\n      swap1\n      return\n        /* \"contracts/transacaoSendBNB.sol\":205:229  uint public numero_block */\n    tag_14:\n      sload(0x04)\n      dup2\n      jump\t// out\n        /* \"contracts/transacaoSendBNB.sol\":236:258  uint public timesstamp */\n    tag_18:\n      sload(0x05)\n      dup2\n      jump\t// out\n        /* \"contracts/transacaoSendBNB.sol\":317:338  address public enviou */\n    tag_21:\n      0x08\n      0x00\n      swap1\n      sload\n      swap1\n      0x0100\n      exp\n      swap1\n      div\n      0xffffffffffffffffffffffffffffffffffffffff\n      and\n      dup2\n      jump\t// out\n        /* \"contracts/transacaoSendBNB.sol\":265:286  address public chamou */\n    tag_25:\n      0x06\n      0x00\n      swap1\n      sload\n      swap1\n      0x0100\n      exp\n      swap1\n      div\n      0xffffffffffffffffffffffffffffffffffffffff\n      and\n      dup2\n      jump\t// out\n        /* \"contracts/transacaoSendBNB.sol\":111:147  address public endereco_proprietario */\n    tag_28:\n      0x01\n      0x00\n      swap1\n      sload\n      swap1\n      0x0100\n      exp\n      swap1\n      div\n      0xffffffffffffffffffffffffffffffffffffffff\n      and\n      dup2\n      jump\t// out\n        /* \"contracts/transacaoSendBNB.sol\":154:174  uint public dificult */\n    tag_31:\n      sload(0x02)\n      dup2\n      jump\t// out\n        /* \"contracts/transacaoSendBNB.sol\":181:198  uint public limit */\n    tag_34:\n      sload(0x03)\n      dup2\n      jump\t// out\n        /* \"contracts/transacaoSendBNB.sol\":90:104  uint public id */\n    tag_37:\n      sload(0x00)\n      dup2\n      jump\t// out\n        /* \"contracts/transacaoSendBNB.sol\":293:310  uint public valor */\n    tag_40:\n      sload(0x07)\n      dup2\n      jump\t// out\n        /* \"#utility.yul\":7:125   */\n    tag_43:\n        /* \"#utility.yul\":94:118   */\n      tag_45\n        /* \"#utility.yul\":112:117   */\n      dup2\n        /* \"#utility.yul\":94:118   */\n      tag_46\n      jump\t// in\n    tag_45:\n        /* \"#utility.yul\":89:92   */\n      dup3\n        /* \"#utility.yul\":82:119   */\n      mstore\n        /* \"#utility.yul\":7:125   */\n      pop\n      pop\n      jump\t// out\n        /* \"#utility.yul\":131:249   */\n    tag_47:\n        /* \"#utility.yul\":218:242   */\n      tag_49\n        /* \"#utility.yul\":236:241   */\n      dup2\n        /* \"#utility.yul\":218:242   */\n      tag_50\n      jump\t// in\n    tag_49:\n        /* \"#utility.yul\":213:216   */\n      dup3\n        /* \"#utility.yul\":206:243   */\n      mstore\n        /* \"#utility.yul\":131:249   */\n      pop\n      pop\n      jump\t// out\n        /* \"#utility.yul\":255:477   */\n    tag_23:\n        /* \"#utility.yul\":348:352   */\n      0x00\n        /* \"#utility.yul\":386:388   */\n      0x20\n        /* \"#utility.yul\":375:384   */\n      dup3\n        /* \"#utility.yul\":371:389   */\n      add\n        /* \"#utility.yul\":363:389   */\n      swap1\n      pop\n        /* \"#utility.yul\":399:470   */\n      tag_52\n        /* \"#utility.yul\":467:468   */\n      0x00\n        /* \"#utility.yul\":456:465   */\n      dup4\n        /* \"#utility.yul\":452:469   */\n      add\n        /* \"#utility.yul\":443:449   */\n      dup5\n        /* \"#utility.yul\":399:470   */\n      tag_43\n      jump\t// in\n    tag_52:\n        /* \"#utility.yul\":255:477   */\n      swap3\n      swap2\n      pop\n      pop\n      jump\t// out\n        /* \"#utility.yul\":483:705   */\n    tag_16:\n        /* \"#utility.yul\":576:580   */\n      0x00\n        /* \"#utility.yul\":614:616   */\n      0x20\n        /* \"#utility.yul\":603:612   */\n      dup3\n        /* \"#utility.yul\":599:617   */\n      add\n        /* \"#utility.yul\":591:617   */\n      swap1\n      pop\n        /* \"#utility.yul\":627:698   */\n      tag_54\n        /* \"#utility.yul\":695:696   */\n      0x00\n        /* \"#utility.yul\":684:693   */\n      dup4\n        /* \"#utility.yul\":680:697   */\n      add\n        /* \"#utility.yul\":671:677   */\n      dup5\n        /* \"#utility.yul\":627:698   */\n      tag_47\n      jump\t// in\n    tag_54:\n        /* \"#utility.yul\":483:705   */\n      swap3\n      swap2\n      pop\n      pop\n      jump\t// out\n        /* \"#utility.yul\":711:807   */\n    tag_46:\n        /* \"#utility.yul\":748:755   */\n      0x00\n        /* \"#utility.yul\":777:801   */\n      tag_56\n        /* \"#utility.yul\":795:800   */\n      dup3\n        /* \"#utility.yul\":777:801   */\n      tag_57\n      jump\t// in\n    tag_56:\n        /* \"#utility.yul\":766:801   */\n      swap1\n      pop\n        /* \"#utility.yul\":711:807   */\n      swap2\n      swap1\n      pop\n      jump\t// out\n        /* \"#utility.yul\":813:939   */\n    tag_57:\n        /* \"#utility.yul\":850:857   */\n      0x00\n        /* \"#utility.yul\":890:932   */\n      0xffffffffffffffffffffffffffffffffffffffff\n        /* \"#utility.yul\":883:888   */\n      dup3\n        /* \"#utility.yul\":879:933   */\n      and\n        /* \"#utility.yul\":868:933   */\n      swap1\n      pop\n        /* \"#utility.yul\":813:939   */\n      swap2\n      swap1\n      pop\n      jump\t// out\n        /* \"#utility.yul\":945:1022   */\n    tag_50:\n        /* \"#utility.yul\":982:989   */\n      0x00\n        /* \"#utility.yul\":1011:1016   */\n      dup2\n        /* \"#utility.yul\":1000:1016   */\n      swap1\n      pop\n        /* \"#utility.yul\":945:1022   */\n      swap2\n      swap1\n      pop\n      jump\t// out\n\n    auxdata: 0xa26469706673582212206f6412674ae6e7eb0bca13cc2b8ed9239a4d79da7c2d4cc1190b1179e5e844b764736f6c63430008070033\n}\n",
				"bytecode": {
					"linkReferences": {},
					"object": "60806040524660008190555041600160006101000a81548173ffffffffffffffffffffffffffffffffffffffff021916908373ffffffffffffffffffffffffffffffffffffffff1602179055504460028190555045600381905550436004819055504260058190555033600660006101000a81548173ffffffffffffffffffffffffffffffffffffffff021916908373ffffffffffffffffffffffffffffffffffffffff1602179055503460078190555032600860006101000a81548173ffffffffffffffffffffffffffffffffffffffff021916908373ffffffffffffffffffffffffffffffffffffffff160217905550610302806101006000396000f3fe608060405234801561001057600080fd5b50600436106100935760003560e01c80639f9445be116100665780639f9445be146101105780639fbc1e311461012e578063a4d66daf1461014c578063af640d0f1461016a578063ecbac7cf1461018857610093565b806321d62564146100985780632cfa94af146100b657806354f8f9f9146100d45780637b472dab146100f2575b600080fd5b6100a06101a6565b6040516100ad9190610275565b60405180910390f35b6100be6101ac565b6040516100cb9190610275565b60405180910390f35b6100dc6101b2565b6040516100e9919061025a565b60405180910390f35b6100fa6101d8565b604051610107919061025a565b60405180910390f35b6101186101fe565b604051610125919061025a565b60405180910390f35b610136610224565b6040516101439190610275565b60405180910390f35b61015461022a565b6040516101619190610275565b60405180910390f35b610172610230565b60405161017f9190610275565b60405180910390f35b610190610236565b60405161019d9190610275565b60405180910390f35b60045481565b60055481565b600860009054906101000a900473ffffffffffffffffffffffffffffffffffffffff1681565b600660009054906101000a900473ffffffffffffffffffffffffffffffffffffffff1681565b600160009054906101000a900473ffffffffffffffffffffffffffffffffffffffff1681565b60025481565b60035481565b60005481565b60075481565b61024581610290565b82525050565b610254816102c2565b82525050565b600060208201905061026f600083018461023c565b92915050565b600060208201905061028a600083018461024b565b92915050565b600061029b826102a2565b9050919050565b600073ffffffffffffffffffffffffffffffffffffffff82169050919050565b600081905091905056fea26469706673582212206f6412674ae6e7eb0bca13cc2b8ed9239a4d79da7c2d4cc1190b1179e5e844b764736f6c63430008070033",
					"opcodes": "PUSH1 0x80 PUSH1 0x40 MSTORE CHAINID PUSH1 0x0 DUP2 SWAP1 SSTORE POP COINBASE PUSH1 0x1 PUSH1 0x0 PUSH2 0x100 EXP DUP2 SLOAD DUP2 PUSH20 0xFFFFFFFFFFFFFFFFFFFFFFFFFFFFFFFFFFFFFFFF MUL NOT AND SWAP1 DUP4 PUSH20 0xFFFFFFFFFFFFFFFFFFFFFFFFFFFFFFFFFFFFFFFF AND MUL OR SWAP1 SSTORE POP DIFFICULTY PUSH1 0x2 DUP2 SWAP1 SSTORE POP GASLIMIT PUSH1 0x3 DUP2 SWAP1 SSTORE POP NUMBER PUSH1 0x4 DUP2 SWAP1 SSTORE POP TIMESTAMP PUSH1 0x5 DUP2 SWAP1 SSTORE POP CALLER PUSH1 0x6 PUSH1 0x0 PUSH2 0x100 EXP DUP2 SLOAD DUP2 PUSH20 0xFFFFFFFFFFFFFFFFFFFFFFFFFFFFFFFFFFFFFFFF MUL NOT AND SWAP1 DUP4 PUSH20 0xFFFFFFFFFFFFFFFFFFFFFFFFFFFFFFFFFFFFFFFF AND MUL OR SWAP1 SSTORE POP CALLVALUE PUSH1 0x7 DUP2 SWAP1 SSTORE POP ORIGIN PUSH1 0x8 PUSH1 0x0 PUSH2 0x100 EXP DUP2 SLOAD DUP2 PUSH20 0xFFFFFFFFFFFFFFFFFFFFFFFFFFFFFFFFFFFFFFFF MUL NOT AND SWAP1 DUP4 PUSH20 0xFFFFFFFFFFFFFFFFFFFFFFFFFFFFFFFFFFFFFFFF AND MUL OR SWAP1 SSTORE POP PUSH2 0x302 DUP1 PUSH2 0x100 PUSH1 0x0 CODECOPY PUSH1 0x0 RETURN INVALID PUSH1 0x80 PUSH1 0x40 MSTORE CALLVALUE DUP1 ISZERO PUSH2 0x10 JUMPI PUSH1 0x0 DUP1 REVERT JUMPDEST POP PUSH1 0x4 CALLDATASIZE LT PUSH2 0x93 JUMPI PUSH1 0x0 CALLDATALOAD PUSH1 0xE0 SHR DUP1 PUSH4 0x9F9445BE GT PUSH2 0x66 JUMPI DUP1 PUSH4 0x9F9445BE EQ PUSH2 0x110 JUMPI DUP1 PUSH4 0x9FBC1E31 EQ PUSH2 0x12E JUMPI DUP1 PUSH4 0xA4D66DAF EQ PUSH2 0x14C JUMPI DUP1 PUSH4 0xAF640D0F EQ PUSH2 0x16A JUMPI DUP1 PUSH4 0xECBAC7CF EQ PUSH2 0x188 JUMPI PUSH2 0x93 JUMP JUMPDEST DUP1 PUSH4 0x21D62564 EQ PUSH2 0x98 JUMPI DUP1 PUSH4 0x2CFA94AF EQ PUSH2 0xB6 JUMPI DUP1 PUSH4 0x54F8F9F9 EQ PUSH2 0xD4 JUMPI DUP1 PUSH4 0x7B472DAB EQ PUSH2 0xF2 JUMPI JUMPDEST PUSH1 0x0 DUP1 REVERT JUMPDEST PUSH2 0xA0 PUSH2 0x1A6 JUMP JUMPDEST PUSH1 0x40 MLOAD PUSH2 0xAD SWAP2 SWAP1 PUSH2 0x275 JUMP JUMPDEST PUSH1 0x40 MLOAD DUP1 SWAP2 SUB SWAP1 RETURN JUMPDEST PUSH2 0xBE PUSH2 0x1AC JUMP JUMPDEST PUSH1 0x40 MLOAD PUSH2 0xCB SWAP2 SWAP1 PUSH2 0x275 JUMP JUMPDEST PUSH1 0x40 MLOAD DUP1 SWAP2 SUB SWAP1 RETURN JUMPDEST PUSH2 0xDC PUSH2 0x1B2 JUMP JUMPDEST PUSH1 0x40 MLOAD PUSH2 0xE9 SWAP2 SWAP1 PUSH2 0x25A JUMP JUMPDEST PUSH1 0x40 MLOAD DUP1 SWAP2 SUB SWAP1 RETURN JUMPDEST PUSH2 0xFA PUSH2 0x1D8 JUMP JUMPDEST PUSH1 0x40 MLOAD PUSH2 0x107 SWAP2 SWAP1 PUSH2 0x25A JUMP JUMPDEST PUSH1 0x40 MLOAD DUP1 SWAP2 SUB SWAP1 RETURN JUMPDEST PUSH2 0x118 PUSH2 0x1FE JUMP JUMPDEST PUSH1 0x40 MLOAD PUSH2 0x125 SWAP2 SWAP1 PUSH2 0x25A JUMP JUMPDEST PUSH1 0x40 MLOAD DUP1 SWAP2 SUB SWAP1 RETURN JUMPDEST PUSH2 0x136 PUSH2 0x224 JUMP JUMPDEST PUSH1 0x40 MLOAD PUSH2 0x143 SWAP2 SWAP1 PUSH2 0x275 JUMP JUMPDEST PUSH1 0x40 MLOAD DUP1 SWAP2 SUB SWAP1 RETURN JUMPDEST PUSH2 0x154 PUSH2 0x22A JUMP JUMPDEST PUSH1 0x40 MLOAD PUSH2 0x161 SWAP2 SWAP1 PUSH2 0x275 JUMP JUMPDEST PUSH1 0x40 MLOAD DUP1 SWAP2 SUB SWAP1 RETURN JUMPDEST PUSH2 0x172 PUSH2 0x230 JUMP JUMPDEST PUSH1 0x40 MLOAD PUSH2 0x17F SWAP2 SWAP1 PUSH2 0x275 JUMP JUMPDEST PUSH1 0x40 MLOAD DUP1 SWAP2 SUB SWAP1 RETURN JUMPDEST PUSH2 0x190 PUSH2 0x236 JUMP JUMPDEST PUSH1 0x40 MLOAD PUSH2 0x19D SWAP2 SWAP1 PUSH2 0x275 JUMP JUMPDEST PUSH1 0x40 MLOAD DUP1 SWAP2 SUB SWAP1 RETURN JUMPDEST PUSH1 0x4 SLOAD DUP2 JUMP JUMPDEST PUSH1 0x5 SLOAD DUP2 JUMP JUMPDEST PUSH1 0x8 PUSH1 0x0 SWAP1 SLOAD SWAP1 PUSH2 0x100 EXP SWAP1 DIV PUSH20 0xFFFFFFFFFFFFFFFFFFFFFFFFFFFFFFFFFFFFFFFF AND DUP2 JUMP JUMPDEST PUSH1 0x6 PUSH1 0x0 SWAP1 SLOAD SWAP1 PUSH2 0x100 EXP SWAP1 DIV PUSH20 0xFFFFFFFFFFFFFFFFFFFFFFFFFFFFFFFFFFFFFFFF AND DUP2 JUMP JUMPDEST PUSH1 0x1 PUSH1 0x0 SWAP1 SLOAD SWAP1 PUSH2 0x100 EXP SWAP1 DIV PUSH20 0xFFFFFFFFFFFFFFFFFFFFFFFFFFFFFFFFFFFFFFFF AND DUP2 JUMP JUMPDEST PUSH1 0x2 SLOAD DUP2 JUMP JUMPDEST PUSH1 0x3 SLOAD DUP2 JUMP JUMPDEST PUSH1 0x0 SLOAD DUP2 JUMP JUMPDEST PUSH1 0x7 SLOAD DUP2 JUMP JUMPDEST PUSH2 0x245 DUP2 PUSH2 0x290 JUMP JUMPDEST DUP3 MSTORE POP POP JUMP JUMPDEST PUSH2 0x254 DUP2 PUSH2 0x2C2 JUMP JUMPDEST DUP3 MSTORE POP POP JUMP JUMPDEST PUSH1 0x0 PUSH1 0x20 DUP3 ADD SWAP1 POP PUSH2 0x26F PUSH1 0x0 DUP4 ADD DUP5 PUSH2 0x23C JUMP JUMPDEST SWAP3 SWAP2 POP POP JUMP JUMPDEST PUSH1 0x0 PUSH1 0x20 DUP3 ADD SWAP1 POP PUSH2 0x28A PUSH1 0x0 DUP4 ADD DUP5 PUSH2 0x24B JUMP JUMPDEST SWAP3 SWAP2 POP POP JUMP JUMPDEST PUSH1 0x0 PUSH2 0x29B DUP3 PUSH2 0x2A2 JUMP JUMPDEST SWAP1 POP SWAP2 SWAP1 POP JUMP JUMPDEST PUSH1 0x0 PUSH20 0xFFFFFFFFFFFFFFFFFFFFFFFFFFFFFFFFFFFFFFFF DUP3 AND SWAP1 POP SWAP2 SWAP1 POP JUMP JUMPDEST PUSH1 0x0 DUP2 SWAP1 POP SWAP2 SWAP1 POP JUMP INVALID LOG2 PUSH5 0x6970667358 0x22 SLT KECCAK256 PUSH16 0x6412674AE6E7EB0BCA13CC2B8ED9239A 0x4D PUSH26 0xDA7C2D4CC1190B1179E5E844B764736F6C634300080700330000 "
				},
				"gasEstimates": {
					"creation": {
						"codeDepositCost": "154000",
						"executionCost": "205654",
						"totalCost": "359654"
					},
					"external": {
						"chamou()": "2581",
						"dificult()": "2451",
						"endereco_proprietario()": "2514",
						"enviou()": "2559",
						"id()": "2495",
						"limit()": "2473",
						"numero_block()": "2430",
						"timesstamp()": "2452",
						"valor()": "2517"
					}
				},
				"methodIdentifiers": {
					"chamou()": "7b472dab",
					"dificult()": "9fbc1e31",
					"endereco_proprietario()": "9f9445be",
					"enviou()": "54f8f9f9",
					"id()": "af640d0f",
					"limit()": "a4d66daf",
					"numero_block()": "21d62564",
					"timesstamp()": "2cfa94af",
					"valor()": "ecbac7cf"
				}
			},
			"storageLayout": {
				"storage": [
					{
						"astId": 3,
						"contract": "contracts/transacaoSendBNB.sol:implicitasV",
						"label": "id",
						"offset": 0,
						"slot": "0",
						"type": "t_uint256"
					},
					{
						"astId": 5,
						"contract": "contracts/transacaoSendBNB.sol:implicitasV",
						"label": "endereco_proprietario",
						"offset": 0,
						"slot": "1",
						"type": "t_address"
					},
					{
						"astId": 7,
						"contract": "contracts/transacaoSendBNB.sol:implicitasV",
						"label": "dificult",
						"offset": 0,
						"slot": "2",
						"type": "t_uint256"
					},
					{
						"astId": 9,
						"contract": "contracts/transacaoSendBNB.sol:implicitasV",
						"label": "limit",
						"offset": 0,
						"slot": "3",
						"type": "t_uint256"
					},
					{
						"astId": 11,
						"contract": "contracts/transacaoSendBNB.sol:implicitasV",
						"label": "numero_block",
						"offset": 0,
						"slot": "4",
						"type": "t_uint256"
					},
					{
						"astId": 13,
						"contract": "contracts/transacaoSendBNB.sol:implicitasV",
						"label": "timesstamp",
						"offset": 0,
						"slot": "5",
						"type": "t_uint256"
					},
					{
						"astId": 15,
						"contract": "contracts/transacaoSendBNB.sol:implicitasV",
						"label": "chamou",
						"offset": 0,
						"slot": "6",
						"type": "t_address"
					},
					{
						"astId": 17,
						"contract": "contracts/transacaoSendBNB.sol:implicitasV",
						"label": "valor",
						"offset": 0,
						"slot": "7",
						"type": "t_uint256"
					},
					{
						"astId": 19,
						"contract": "contracts/transacaoSendBNB.sol:implicitasV",
						"label": "enviou",
						"offset": 0,
						"slot": "8",
						"type": "t_address"
					}
				],
				"types": {
					"t_address": {
						"encoding": "inplace",
						"label": "address",
						"numberOfBytes": "20"
					},
					"t_uint256": {
						"encoding": "inplace",
						"label": "uint256",
						"numberOfBytes": "32"
					}
				}
			},
			"userdoc": {
				"kind": "user",
				"methods": {},
				"version": 1
			}
		}
	}
}