{
	"contracts/funcoes2visi.sol": {
		"Visibilidade": {
			"abi": [
				{
					"inputs": [],
					"name": "incrementEx",
					"outputs": [],
					"stateMutability": "nonpayable",
					"type": "function"
				},
				{
					"inputs": [],
					"name": "incrementalResult",
					"outputs": [],
					"stateMutability": "nonpayable",
					"type": "function"
				},
				{
					"inputs": [],
					"name": "incremetal",
					"outputs": [],
					"stateMutability": "nonpayable",
					"type": "function"
				}
			],
			"devdoc": {
				"kind": "dev",
				"methods": {},
				"version": 1
			},
			"evm": {
				"assembly": "    /* \"contracts/funcoes2visi.sol\":58:501  contract Visibilidade{\r... */\n  mstore(0x40, 0x80)\n    /* \"contracts/funcoes2visi.sol\":101:102  0 */\n  0x00\n    /* \"contracts/funcoes2visi.sol\":86:102  int contagem = 0 */\n  dup1\n  sstore\n    /* \"contracts/funcoes2visi.sol\":58:501  contract Visibilidade{\r... */\n  callvalue\n  dup1\n  iszero\n  tag_1\n  jumpi\n  0x00\n  dup1\n  revert\ntag_1:\n  pop\n  dataSize(sub_0)\n  dup1\n  dataOffset(sub_0)\n  0x00\n  codecopy\n  0x00\n  return\nstop\n\nsub_0: assembly {\n        /* \"contracts/funcoes2visi.sol\":58:501  contract Visibilidade{\r... */\n      mstore(0x40, 0x80)\n      callvalue\n      dup1\n      iszero\n      tag_1\n      jumpi\n      0x00\n      dup1\n      revert\n    tag_1:\n      pop\n      jumpi(tag_2, lt(calldatasize, 0x04))\n      shr(0xe0, calldataload(0x00))\n      dup1\n      0xbbbf3c03\n      eq\n      tag_3\n      jumpi\n      dup1\n      0xcd05f41d\n      eq\n      tag_4\n      jumpi\n      dup1\n      0xf80f29db\n      eq\n      tag_5\n      jumpi\n    tag_2:\n      0x00\n      dup1\n      revert\n        /* \"contracts/funcoes2visi.sol\":200:269  function incrementEx()external{\r... */\n    tag_3:\n      tag_6\n      tag_7\n      jump\t// in\n    tag_6:\n      stop\n        /* \"contracts/funcoes2visi.sol\":424:498  function incrementalResult()public {\r... */\n    tag_4:\n      tag_8\n      tag_9\n      jump\t// in\n    tag_8:\n      stop\n        /* \"contracts/funcoes2visi.sol\":117:195  function  incremetal()public{\r... */\n    tag_5:\n      tag_10\n      tag_11\n      jump\t// in\n    tag_10:\n      stop\n        /* \"contracts/funcoes2visi.sol\":200:269  function incrementEx()external{\r... */\n    tag_7:\n        /* \"contracts/funcoes2visi.sol\":261:262  1 */\n      0x01\n        /* \"contracts/funcoes2visi.sol\":251:259  contagem */\n      sload(0x00)\n        /* \"contracts/funcoes2visi.sol\":251:262  contagem +1 */\n      tag_13\n      swap2\n      swap1\n      tag_14\n      jump\t// in\n    tag_13:\n        /* \"contracts/funcoes2visi.sol\":240:248  contagem */\n      0x00\n        /* \"contracts/funcoes2visi.sol\":240:262  contagem = contagem +1 */\n      dup2\n      swap1\n      sstore\n      pop\n        /* \"contracts/funcoes2visi.sol\":200:269  function incrementEx()external{\r... */\n      jump\t// out\n        /* \"contracts/funcoes2visi.sol\":424:498  function incrementalResult()public {\r... */\n    tag_9:\n        /* \"contracts/funcoes2visi.sol\":490:491  1 */\n      0x01\n        /* \"contracts/funcoes2visi.sol\":480:488  contagem */\n      sload(0x00)\n        /* \"contracts/funcoes2visi.sol\":480:491  contagem +1 */\n      tag_16\n      swap2\n      swap1\n      tag_14\n      jump\t// in\n    tag_16:\n        /* \"contracts/funcoes2visi.sol\":469:477  contagem */\n      0x00\n        /* \"contracts/funcoes2visi.sol\":469:491  contagem = contagem +1 */\n      dup2\n      swap1\n      sstore\n      pop\n        /* \"contracts/funcoes2visi.sol\":424:498  function incrementalResult()public {\r... */\n      jump\t// out\n        /* \"contracts/funcoes2visi.sol\":117:195  function  incremetal()public{\r... */\n    tag_11:\n        /* \"contracts/funcoes2visi.sol\":185:186  1 */\n      0x01\n        /* \"contracts/funcoes2visi.sol\":175:183  contagem */\n      sload(0x00)\n        /* \"contracts/funcoes2visi.sol\":175:186  contagem +1 */\n      tag_18\n      swap2\n      swap1\n      tag_14\n      jump\t// in\n    tag_18:\n        /* \"contracts/funcoes2visi.sol\":164:172  contagem */\n      0x00\n        /* \"contracts/funcoes2visi.sol\":164:186  contagem = contagem +1 */\n      dup2\n      swap1\n      sstore\n      pop\n        /* \"contracts/funcoes2visi.sol\":117:195  function  incremetal()public{\r... */\n      jump\t// out\n        /* \"#utility.yul\":7:532   */\n    tag_14:\n        /* \"#utility.yul\":46:49   */\n      0x00\n        /* \"#utility.yul\":65:84   */\n      tag_21\n        /* \"#utility.yul\":82:83   */\n      dup3\n        /* \"#utility.yul\":65:84   */\n      tag_22\n      jump\t// in\n    tag_21:\n        /* \"#utility.yul\":60:84   */\n      swap2\n      pop\n        /* \"#utility.yul\":98:117   */\n      tag_23\n        /* \"#utility.yul\":115:116   */\n      dup4\n        /* \"#utility.yul\":98:117   */\n      tag_22\n      jump\t// in\n    tag_23:\n        /* \"#utility.yul\":93:117   */\n      swap3\n      pop\n        /* \"#utility.yul\":286:287   */\n      dup2\n        /* \"#utility.yul\":218:284   */\n      0x7fffffffffffffffffffffffffffffffffffffffffffffffffffffffffffffff\n        /* \"#utility.yul\":214:288   */\n      sub\n        /* \"#utility.yul\":211:212   */\n      dup4\n        /* \"#utility.yul\":207:289   */\n      sgt\n        /* \"#utility.yul\":202:203   */\n      0x00\n        /* \"#utility.yul\":199:200   */\n      dup4\n        /* \"#utility.yul\":195:204   */\n      slt\n        /* \"#utility.yul\":188:205   */\n      iszero\n        /* \"#utility.yul\":184:290   */\n      and\n        /* \"#utility.yul\":181:313   */\n      iszero\n      tag_24\n      jumpi\n        /* \"#utility.yul\":293:311   */\n      tag_25\n      tag_26\n      jump\t// in\n    tag_25:\n        /* \"#utility.yul\":181:313   */\n    tag_24:\n        /* \"#utility.yul\":473:474   */\n      dup2\n        /* \"#utility.yul\":405:471   */\n      0x8000000000000000000000000000000000000000000000000000000000000000\n        /* \"#utility.yul\":401:475   */\n      sub\n        /* \"#utility.yul\":398:399   */\n      dup4\n        /* \"#utility.yul\":394:476   */\n      slt\n        /* \"#utility.yul\":390:391   */\n      0x00\n        /* \"#utility.yul\":387:388   */\n      dup4\n        /* \"#utility.yul\":383:392   */\n      slt\n        /* \"#utility.yul\":379:477   */\n      and\n        /* \"#utility.yul\":376:500   */\n      iszero\n      tag_27\n      jumpi\n        /* \"#utility.yul\":480:498   */\n      tag_28\n      tag_26\n      jump\t// in\n    tag_28:\n        /* \"#utility.yul\":376:500   */\n    tag_27:\n        /* \"#utility.yul\":524:525   */\n      dup3\n        /* \"#utility.yul\":521:522   */\n      dup3\n        /* \"#utility.yul\":517:526   */\n      add\n        /* \"#utility.yul\":510:526   */\n      swap1\n      pop\n        /* \"#utility.yul\":7:532   */\n      swap3\n      swap2\n      pop\n      pop\n      jump\t// out\n        /* \"#utility.yul\":538:614   */\n    tag_22:\n        /* \"#utility.yul\":574:581   */\n      0x00\n        /* \"#utility.yul\":603:608   */\n      dup2\n        /* \"#utility.yul\":592:608   */\n      swap1\n      pop\n        /* \"#utility.yul\":538:614   */\n      swap2\n      swap1\n      pop\n      jump\t// out\n        /* \"#utility.yul\":620:800   */\n    tag_26:\n        /* \"#utility.yul\":668:745   */\n      0x4e487b7100000000000000000000000000000000000000000000000000000000\n        /* \"#utility.yul\":665:666   */\n      0x00\n        /* \"#utility.yul\":658:746   */\n      mstore\n        /* \"#utility.yul\":765:769   */\n      0x11\n        /* \"#utility.yul\":762:763   */\n      0x04\n        /* \"#utility.yul\":755:770   */\n      mstore\n        /* \"#utility.yul\":789:793   */\n      0x24\n        /* \"#utility.yul\":786:787   */\n      0x00\n        /* \"#utility.yul\":779:794   */\n      revert\n\n    auxdata: 0xa2646970667358221220110cc4293101e2e1b7442e8a328c8235dc9730afa6fb974c704e895c9a50004764736f6c63430008070033\n}\n",
				"bytecode": {
					"linkReferences": {},
					"object": "60806040526000805534801561001457600080fd5b506101ac806100246000396000f3fe608060405234801561001057600080fd5b50600436106100415760003560e01c8063bbbf3c0314610046578063cd05f41d14610050578063f80f29db1461005a575b600080fd5b61004e610064565b005b61005861007b565b005b610062610092565b005b600160005461007391906100a9565b600081905550565b600160005461008a91906100a9565b600081905550565b60016000546100a191906100a9565b600081905550565b60006100b48261013d565b91506100bf8361013d565b9250817f7fffffffffffffffffffffffffffffffffffffffffffffffffffffffffffffff038313600083121516156100fa576100f9610147565b5b817f800000000000000000000000000000000000000000000000000000000000000003831260008312161561013257610131610147565b5b828201905092915050565b6000819050919050565b7f4e487b7100000000000000000000000000000000000000000000000000000000600052601160045260246000fdfea2646970667358221220110cc4293101e2e1b7442e8a328c8235dc9730afa6fb974c704e895c9a50004764736f6c63430008070033",
					"opcodes": "PUSH1 0x80 PUSH1 0x40 MSTORE PUSH1 0x0 DUP1 SSTORE CALLVALUE DUP1 ISZERO PUSH2 0x14 JUMPI PUSH1 0x0 DUP1 REVERT JUMPDEST POP PUSH2 0x1AC DUP1 PUSH2 0x24 PUSH1 0x0 CODECOPY PUSH1 0x0 RETURN INVALID PUSH1 0x80 PUSH1 0x40 MSTORE CALLVALUE DUP1 ISZERO PUSH2 0x10 JUMPI PUSH1 0x0 DUP1 REVERT JUMPDEST POP PUSH1 0x4 CALLDATASIZE LT PUSH2 0x41 JUMPI PUSH1 0x0 CALLDATALOAD PUSH1 0xE0 SHR DUP1 PUSH4 0xBBBF3C03 EQ PUSH2 0x46 JUMPI DUP1 PUSH4 0xCD05F41D EQ PUSH2 0x50 JUMPI DUP1 PUSH4 0xF80F29DB EQ PUSH2 0x5A JUMPI JUMPDEST PUSH1 0x0 DUP1 REVERT JUMPDEST PUSH2 0x4E PUSH2 0x64 JUMP JUMPDEST STOP JUMPDEST PUSH2 0x58 PUSH2 0x7B JUMP JUMPDEST STOP JUMPDEST PUSH2 0x62 PUSH2 0x92 JUMP JUMPDEST STOP JUMPDEST PUSH1 0x1 PUSH1 0x0 SLOAD PUSH2 0x73 SWAP2 SWAP1 PUSH2 0xA9 JUMP JUMPDEST PUSH1 0x0 DUP2 SWAP1 SSTORE POP JUMP JUMPDEST PUSH1 0x1 PUSH1 0x0 SLOAD PUSH2 0x8A SWAP2 SWAP1 PUSH2 0xA9 JUMP JUMPDEST PUSH1 0x0 DUP2 SWAP1 SSTORE POP JUMP JUMPDEST PUSH1 0x1 PUSH1 0x0 SLOAD PUSH2 0xA1 SWAP2 SWAP1 PUSH2 0xA9 JUMP JUMPDEST PUSH1 0x0 DUP2 SWAP1 SSTORE POP JUMP JUMPDEST PUSH1 0x0 PUSH2 0xB4 DUP3 PUSH2 0x13D JUMP JUMPDEST SWAP2 POP PUSH2 0xBF DUP4 PUSH2 0x13D JUMP JUMPDEST SWAP3 POP DUP2 PUSH32 0x7FFFFFFFFFFFFFFFFFFFFFFFFFFFFFFFFFFFFFFFFFFFFFFFFFFFFFFFFFFFFFFF SUB DUP4 SGT PUSH1 0x0 DUP4 SLT ISZERO AND ISZERO PUSH2 0xFA JUMPI PUSH2 0xF9 PUSH2 0x147 JUMP JUMPDEST JUMPDEST DUP2 PUSH32 0x8000000000000000000000000000000000000000000000000000000000000000 SUB DUP4 SLT PUSH1 0x0 DUP4 SLT AND ISZERO PUSH2 0x132 JUMPI PUSH2 0x131 PUSH2 0x147 JUMP JUMPDEST JUMPDEST DUP3 DUP3 ADD SWAP1 POP SWAP3 SWAP2 POP POP JUMP JUMPDEST PUSH1 0x0 DUP2 SWAP1 POP SWAP2 SWAP1 POP JUMP JUMPDEST PUSH32 0x4E487B7100000000000000000000000000000000000000000000000000000000 PUSH1 0x0 MSTORE PUSH1 0x11 PUSH1 0x4 MSTORE PUSH1 0x24 PUSH1 0x0 REVERT INVALID LOG2 PUSH5 0x6970667358 0x22 SLT KECCAK256 GT 0xC 0xC4 0x29 BALANCE ADD 0xE2 0xE1 0xB7 DIFFICULTY 0x2E DUP11 ORIGIN DUP13 DUP3 CALLDATALOAD 0xDC SWAP8 ADDRESS 0xAF 0xA6 0xFB SWAP8 0x4C PUSH17 0x4E895C9A50004764736F6C634300080700 CALLER "
				},
				"gasEstimates": {
					"creation": {
						"codeDepositCost": "85600",
						"executionCost": "5141",
						"totalCost": "90741"
					},
					"external": {
						"incrementEx()": "infinite",
						"incrementalResult()": "infinite",
						"incremetal()": "infinite"
					},
					"internal": {
						"decrementaltEx()": "infinite",
						"incrementalPEx()": "infinite"
					}
				},
				"methodIdentifiers": {
					"incrementEx()": "bbbf3c03",
					"incrementalResult()": "cd05f41d",
					"incremetal()": "f80f29db"
				}
			},
			"storageLayout": {
				"storage": [
					{
						"astId": 4,
						"contract": "contracts/funcoes2visi.sol:Visibilidade",
						"label": "contagem",
						"offset": 0,
						"slot": "0",
						"type": "t_int256"
					}
				],
				"types": {
					"t_int256": {
						"encoding": "inplace",
						"label": "int256",
						"numberOfBytes": "32"
					}
				}
			},
			"userdoc": {
				"kind": "user",
				"methods": {},
				"version": 1
			}
		}
	}
}