{
	"contracts/funcoes2visi.sol": {
		"Visibilidade": {
			"abi": [
				{
					"inputs": [],
					"name": "incrementEx",
					"outputs": [],
					"stateMutability": "nonpayable",
					"type": "function"
				},
				{
					"inputs": [],
					"name": "incremetal",
					"outputs": [],
					"stateMutability": "nonpayable",
					"type": "function"
				}
			],
			"devdoc": {
				"kind": "dev",
				"methods": {},
				"version": 1
			},
			"evm": {
				"assembly": "    /* \"contracts/funcoes2visi.sol\":58:433  contract Visibilidade{\r... */\n  mstore(0x40, 0x80)\n    /* \"contracts/funcoes2visi.sol\":102:103  0 */\n  0x00\n    /* \"contracts/funcoes2visi.sol\":86:103  int  contagem = 0 */\n  dup1\n  sstore\n    /* \"contracts/funcoes2visi.sol\":58:433  contract Visibilidade{\r... */\n  callvalue\n  dup1\n  iszero\n  tag_1\n  jumpi\n  0x00\n  dup1\n  revert\ntag_1:\n  pop\n  dataSize(sub_0)\n  dup1\n  dataOffset(sub_0)\n  0x00\n  codecopy\n  0x00\n  return\nstop\n\nsub_0: assembly {\n        /* \"contracts/funcoes2visi.sol\":58:433  contract Visibilidade{\r... */\n      mstore(0x40, 0x80)\n      callvalue\n      dup1\n      iszero\n      tag_1\n      jumpi\n      0x00\n      dup1\n      revert\n    tag_1:\n      pop\n      jumpi(tag_2, lt(calldatasize, 0x04))\n      shr(0xe0, calldataload(0x00))\n      dup1\n      0xbbbf3c03\n      eq\n      tag_3\n      jumpi\n      dup1\n      0xf80f29db\n      eq\n      tag_4\n      jumpi\n    tag_2:\n      0x00\n      dup1\n      revert\n        /* \"contracts/funcoes2visi.sol\":200:267  function incrementEx()external{\r... */\n    tag_3:\n      tag_5\n      tag_6\n      jump\t// in\n    tag_5:\n      stop\n        /* \"contracts/funcoes2visi.sol\":118:195  function  incremetal()public{\r... */\n    tag_4:\n      tag_7\n      tag_8\n      jump\t// in\n    tag_7:\n      stop\n        /* \"contracts/funcoes2visi.sol\":200:267  function incrementEx()external{\r... */\n    tag_6:\n        /* \"contracts/funcoes2visi.sol\":240:260  decrementaltPrivat() */\n      tag_10\n        /* \"contracts/funcoes2visi.sol\":240:258  decrementaltPrivat */\n      tag_11\n        /* \"contracts/funcoes2visi.sol\":240:260  decrementaltPrivat() */\n      jump\t// in\n    tag_10:\n        /* \"contracts/funcoes2visi.sol\":200:267  function incrementEx()external{\r... */\n      jump\t// out\n        /* \"contracts/funcoes2visi.sol\":118:195  function  incremetal()public{\r... */\n    tag_8:\n        /* \"contracts/funcoes2visi.sol\":155:176  incrementalInternal() */\n      tag_13\n        /* \"contracts/funcoes2visi.sol\":155:174  incrementalInternal */\n      tag_14\n        /* \"contracts/funcoes2visi.sol\":155:176  incrementalInternal() */\n      jump\t// in\n    tag_13:\n        /* \"contracts/funcoes2visi.sol\":118:195  function  incremetal()public{\r... */\n      jump\t// out\n        /* \"contracts/funcoes2visi.sol\":269:344  function decrementaltPrivat()private{\r... */\n    tag_11:\n        /* \"contracts/funcoes2visi.sol\":336:337  1 */\n      0x01\n        /* \"contracts/funcoes2visi.sol\":326:334  contagem */\n      sload(0x00)\n        /* \"contracts/funcoes2visi.sol\":326:337  contagem +1 */\n      tag_16\n      swap2\n      swap1\n      tag_17\n      jump\t// in\n    tag_16:\n        /* \"contracts/funcoes2visi.sol\":315:323  contagem */\n      0x00\n        /* \"contracts/funcoes2visi.sol\":315:337  contagem = contagem +1 */\n      dup2\n      swap1\n      sstore\n      pop\n        /* \"contracts/funcoes2visi.sol\":269:344  function decrementaltPrivat()private{\r... */\n      jump\t// out\n        /* \"contracts/funcoes2visi.sol\":349:426  function incrementalInternal()internal{\r... */\n    tag_14:\n        /* \"contracts/funcoes2visi.sol\":418:419  1 */\n      0x01\n        /* \"contracts/funcoes2visi.sol\":408:416  contagem */\n      sload(0x00)\n        /* \"contracts/funcoes2visi.sol\":408:419  contagem +1 */\n      tag_19\n      swap2\n      swap1\n      tag_17\n      jump\t// in\n    tag_19:\n        /* \"contracts/funcoes2visi.sol\":397:405  contagem */\n      0x00\n        /* \"contracts/funcoes2visi.sol\":397:419  contagem = contagem +1 */\n      dup2\n      swap1\n      sstore\n      pop\n        /* \"contracts/funcoes2visi.sol\":349:426  function incrementalInternal()internal{\r... */\n      jump\t// out\n        /* \"#utility.yul\":7:532   */\n    tag_17:\n        /* \"#utility.yul\":46:49   */\n      0x00\n        /* \"#utility.yul\":65:84   */\n      tag_22\n        /* \"#utility.yul\":82:83   */\n      dup3\n        /* \"#utility.yul\":65:84   */\n      tag_23\n      jump\t// in\n    tag_22:\n        /* \"#utility.yul\":60:84   */\n      swap2\n      pop\n        /* \"#utility.yul\":98:117   */\n      tag_24\n        /* \"#utility.yul\":115:116   */\n      dup4\n        /* \"#utility.yul\":98:117   */\n      tag_23\n      jump\t// in\n    tag_24:\n        /* \"#utility.yul\":93:117   */\n      swap3\n      pop\n        /* \"#utility.yul\":286:287   */\n      dup2\n        /* \"#utility.yul\":218:284   */\n      0x7fffffffffffffffffffffffffffffffffffffffffffffffffffffffffffffff\n        /* \"#utility.yul\":214:288   */\n      sub\n        /* \"#utility.yul\":211:212   */\n      dup4\n        /* \"#utility.yul\":207:289   */\n      sgt\n        /* \"#utility.yul\":202:203   */\n      0x00\n        /* \"#utility.yul\":199:200   */\n      dup4\n        /* \"#utility.yul\":195:204   */\n      slt\n        /* \"#utility.yul\":188:205   */\n      iszero\n        /* \"#utility.yul\":184:290   */\n      and\n        /* \"#utility.yul\":181:313   */\n      iszero\n      tag_25\n      jumpi\n        /* \"#utility.yul\":293:311   */\n      tag_26\n      tag_27\n      jump\t// in\n    tag_26:\n        /* \"#utility.yul\":181:313   */\n    tag_25:\n        /* \"#utility.yul\":473:474   */\n      dup2\n        /* \"#utility.yul\":405:471   */\n      0x8000000000000000000000000000000000000000000000000000000000000000\n        /* \"#utility.yul\":401:475   */\n      sub\n        /* \"#utility.yul\":398:399   */\n      dup4\n        /* \"#utility.yul\":394:476   */\n      slt\n        /* \"#utility.yul\":390:391   */\n      0x00\n        /* \"#utility.yul\":387:388   */\n      dup4\n        /* \"#utility.yul\":383:392   */\n      slt\n        /* \"#utility.yul\":379:477   */\n      and\n        /* \"#utility.yul\":376:500   */\n      iszero\n      tag_28\n      jumpi\n        /* \"#utility.yul\":480:498   */\n      tag_29\n      tag_27\n      jump\t// in\n    tag_29:\n        /* \"#utility.yul\":376:500   */\n    tag_28:\n        /* \"#utility.yul\":524:525   */\n      dup3\n        /* \"#utility.yul\":521:522   */\n      dup3\n        /* \"#utility.yul\":517:526   */\n      add\n        /* \"#utility.yul\":510:526   */\n      swap1\n      pop\n        /* \"#utility.yul\":7:532   */\n      swap3\n      swap2\n      pop\n      pop\n      jump\t// out\n        /* \"#utility.yul\":538:614   */\n    tag_23:\n        /* \"#utility.yul\":574:581   */\n      0x00\n        /* \"#utility.yul\":603:608   */\n      dup2\n        /* \"#utility.yul\":592:608   */\n      swap1\n      pop\n        /* \"#utility.yul\":538:614   */\n      swap2\n      swap1\n      pop\n      jump\t// out\n        /* \"#utility.yul\":620:800   */\n    tag_27:\n        /* \"#utility.yul\":668:745   */\n      0x4e487b7100000000000000000000000000000000000000000000000000000000\n        /* \"#utility.yul\":665:666   */\n      0x00\n        /* \"#utility.yul\":658:746   */\n      mstore\n        /* \"#utility.yul\":765:769   */\n      0x11\n        /* \"#utility.yul\":762:763   */\n      0x04\n        /* \"#utility.yul\":755:770   */\n      mstore\n        /* \"#utility.yul\":789:793   */\n      0x24\n        /* \"#utility.yul\":786:787   */\n      0x00\n        /* \"#utility.yul\":779:794   */\n      revert\n\n    auxdata: 0xa26469706673582212206e91e93690d175443c64f476b1af7ce0fe35b6fe9a4a1291997ea33ce4f96e4464736f6c63430008070033\n}\n",
				"bytecode": {
					"linkReferences": {},
					"object": "60806040526000805534801561001457600080fd5b50610194806100246000396000f3fe608060405234801561001057600080fd5b50600436106100365760003560e01c8063bbbf3c031461003b578063f80f29db14610045575b600080fd5b61004361004f565b005b61004d610059565b005b610057610063565b565b61006161007a565b565b60016000546100729190610091565b600081905550565b60016000546100899190610091565b600081905550565b600061009c82610125565b91506100a783610125565b9250817f7fffffffffffffffffffffffffffffffffffffffffffffffffffffffffffffff038313600083121516156100e2576100e161012f565b5b817f800000000000000000000000000000000000000000000000000000000000000003831260008312161561011a5761011961012f565b5b828201905092915050565b6000819050919050565b7f4e487b7100000000000000000000000000000000000000000000000000000000600052601160045260246000fdfea26469706673582212206e91e93690d175443c64f476b1af7ce0fe35b6fe9a4a1291997ea33ce4f96e4464736f6c63430008070033",
					"opcodes": "PUSH1 0x80 PUSH1 0x40 MSTORE PUSH1 0x0 DUP1 SSTORE CALLVALUE DUP1 ISZERO PUSH2 0x14 JUMPI PUSH1 0x0 DUP1 REVERT JUMPDEST POP PUSH2 0x194 DUP1 PUSH2 0x24 PUSH1 0x0 CODECOPY PUSH1 0x0 RETURN INVALID PUSH1 0x80 PUSH1 0x40 MSTORE CALLVALUE DUP1 ISZERO PUSH2 0x10 JUMPI PUSH1 0x0 DUP1 REVERT JUMPDEST POP PUSH1 0x4 CALLDATASIZE LT PUSH2 0x36 JUMPI PUSH1 0x0 CALLDATALOAD PUSH1 0xE0 SHR DUP1 PUSH4 0xBBBF3C03 EQ PUSH2 0x3B JUMPI DUP1 PUSH4 0xF80F29DB EQ PUSH2 0x45 JUMPI JUMPDEST PUSH1 0x0 DUP1 REVERT JUMPDEST PUSH2 0x43 PUSH2 0x4F JUMP JUMPDEST STOP JUMPDEST PUSH2 0x4D PUSH2 0x59 JUMP JUMPDEST STOP JUMPDEST PUSH2 0x57 PUSH2 0x63 JUMP JUMPDEST JUMP JUMPDEST PUSH2 0x61 PUSH2 0x7A JUMP JUMPDEST JUMP JUMPDEST PUSH1 0x1 PUSH1 0x0 SLOAD PUSH2 0x72 SWAP2 SWAP1 PUSH2 0x91 JUMP JUMPDEST PUSH1 0x0 DUP2 SWAP1 SSTORE POP JUMP JUMPDEST PUSH1 0x1 PUSH1 0x0 SLOAD PUSH2 0x89 SWAP2 SWAP1 PUSH2 0x91 JUMP JUMPDEST PUSH1 0x0 DUP2 SWAP1 SSTORE POP JUMP JUMPDEST PUSH1 0x0 PUSH2 0x9C DUP3 PUSH2 0x125 JUMP JUMPDEST SWAP2 POP PUSH2 0xA7 DUP4 PUSH2 0x125 JUMP JUMPDEST SWAP3 POP DUP2 PUSH32 0x7FFFFFFFFFFFFFFFFFFFFFFFFFFFFFFFFFFFFFFFFFFFFFFFFFFFFFFFFFFFFFFF SUB DUP4 SGT PUSH1 0x0 DUP4 SLT ISZERO AND ISZERO PUSH2 0xE2 JUMPI PUSH2 0xE1 PUSH2 0x12F JUMP JUMPDEST JUMPDEST DUP2 PUSH32 0x8000000000000000000000000000000000000000000000000000000000000000 SUB DUP4 SLT PUSH1 0x0 DUP4 SLT AND ISZERO PUSH2 0x11A JUMPI PUSH2 0x119 PUSH2 0x12F JUMP JUMPDEST JUMPDEST DUP3 DUP3 ADD SWAP1 POP SWAP3 SWAP2 POP POP JUMP JUMPDEST PUSH1 0x0 DUP2 SWAP1 POP SWAP2 SWAP1 POP JUMP JUMPDEST PUSH32 0x4E487B7100000000000000000000000000000000000000000000000000000000 PUSH1 0x0 MSTORE PUSH1 0x11 PUSH1 0x4 MSTORE PUSH1 0x24 PUSH1 0x0 REVERT INVALID LOG2 PUSH5 0x6970667358 0x22 SLT KECCAK256 PUSH15 0x91E93690D175443C64F476B1AF7CE0 INVALID CALLDATALOAD 0xB6 INVALID SWAP11 0x4A SLT SWAP2 SWAP10 PUSH31 0xA33CE4F96E4464736F6C634300080700330000000000000000000000000000 "
				},
				"gasEstimates": {
					"creation": {
						"codeDepositCost": "80800",
						"executionCost": "5135",
						"totalCost": "85935"
					},
					"external": {
						"incrementEx()": "infinite",
						"incremetal()": "infinite"
					},
					"internal": {
						"decrementaltPrivat()": "infinite",
						"incrementalInternal()": "infinite"
					}
				},
				"methodIdentifiers": {
					"incrementEx()": "bbbf3c03",
					"incremetal()": "f80f29db"
				}
			},
			"storageLayout": {
				"storage": [
					{
						"astId": 4,
						"contract": "contracts/funcoes2visi.sol:Visibilidade",
						"label": "contagem",
						"offset": 0,
						"slot": "0",
						"type": "t_int256"
					}
				],
				"types": {
					"t_int256": {
						"encoding": "inplace",
						"label": "int256",
						"numberOfBytes": "32"
					}
				}
			},
			"userdoc": {
				"kind": "user",
				"methods": {},
				"version": 1
			}
		}
	}
}